{
  "abi": [
    {
      "inputs": [],
      "stateMutability": "nonpayable",
      "type": "constructor"
    },
    {
      "inputs": [],
      "name": "CallerIsNotAdmin",
      "type": "error"
    },
    {
      "inputs": [],
      "name": "CallerIsNotBlastBridge",
      "type": "error"
    },
    {
      "inputs": [],
      "name": "CallerIsNotPortal",
      "type": "error"
    },
    {
      "inputs": [],
      "name": "CallerIsNotRecipient",
      "type": "error"
    },
    {
      "inputs": [],
      "name": "FailedToInitializeProvider",
      "type": "error"
    },
    {
      "inputs": [],
      "name": "InsufficientBalance",
      "type": "error"
    },
    {
      "inputs": [],
      "name": "InsufficientInsuranceBalance",
      "type": "error"
    },
    {
      "inputs": [
        {
          "internalType": "uint256",
          "name": "_hint",
          "type": "uint256"
        }
      ],
      "name": "InvalidHint",
      "type": "error"
    },
    {
      "inputs": [
        {
          "internalType": "uint256",
          "name": "_requestId",
          "type": "uint256"
        }
      ],
      "name": "InvalidRequestId",
      "type": "error"
    },
    {
      "inputs": [
        {
          "internalType": "uint256",
          "name": "startId",
          "type": "uint256"
        },
        {
          "internalType": "uint256",
          "name": "endId",
          "type": "uint256"
        }
      ],
      "name": "InvalidRequestIdRange",
      "type": "error"
    },
    {
      "inputs": [],
      "name": "InvalidSharePrice",
      "type": "error"
    },
    {
      "inputs": [],
      "name": "NegativeYieldFromInsuredProvider",
      "type": "error"
    },
    {
      "inputs": [],
      "name": "NegativeYieldIncrease",
      "type": "error"
    },
    {
      "inputs": [],
      "name": "ProviderAddressDoesNotMatchIndex",
      "type": "error"
    },
    {
      "inputs": [],
      "name": "ProviderNotFound",
      "type": "error"
    },
    {
      "inputs": [
        {
          "internalType": "uint256",
          "name": "_requestId",
          "type": "uint256"
        }
      ],
      "name": "RequestAlreadyClaimed",
      "type": "error"
    },
    {
      "inputs": [],
      "name": "RequestIdsNotSorted",
      "type": "error"
    },
    {
      "inputs": [
        {
          "internalType": "uint256",
          "name": "_requestId",
          "type": "uint256"
        }
      ],
      "name": "RequestNotFoundOrNotFinalized",
      "type": "error"
    },
    {
      "inputs": [],
      "name": "TotalValueIsZero",
      "type": "error"
    },
    {
      "inputs": [],
      "name": "WithdrawalTransferFailed",
      "type": "error"
    },
    {
      "inputs": [],
      "name": "YieldProviderIsNotMeantForThisManager",
      "type": "error"
    },
    {
      "anonymous": false,
      "inputs": [
        {
          "indexed": false,
          "internalType": "uint8",
          "name": "version",
          "type": "uint8"
        }
      ],
      "name": "Initialized",
      "type": "event"
    },
    {
      "anonymous": false,
      "inputs": [
        {
          "indexed": true,
          "internalType": "address",
          "name": "previousOwner",
          "type": "address"
        },
        {
          "indexed": true,
          "internalType": "address",
          "name": "newOwner",
          "type": "address"
        }
      ],
      "name": "OwnershipTransferStarted",
      "type": "event"
    },
    {
      "anonymous": false,
      "inputs": [
        {
          "indexed": true,
          "internalType": "address",
          "name": "previousOwner",
          "type": "address"
        },
        {
          "indexed": true,
          "internalType": "address",
          "name": "newOwner",
          "type": "address"
        }
      ],
      "name": "OwnershipTransferred",
      "type": "event"
    },
    {
      "anonymous": false,
      "inputs": [
        {
          "indexed": true,
          "internalType": "uint256",
          "name": "requestId",
          "type": "uint256"
        },
        {
          "indexed": true,
          "internalType": "address",
          "name": "recipient",
          "type": "address"
        },
        {
          "indexed": false,
          "internalType": "uint256",
          "name": "amountOfETH",
          "type": "uint256"
        }
      ],
      "name": "WithdrawalClaimed",
      "type": "event"
    },
    {
      "anonymous": false,
      "inputs": [
        {
          "indexed": true,
          "internalType": "uint256",
          "name": "requestId",
          "type": "uint256"
        },
        {
          "indexed": true,
          "internalType": "address",
          "name": "requestor",
          "type": "address"
        },
        {
          "indexed": true,
          "internalType": "address",
          "name": "recipient",
          "type": "address"
        },
        {
          "indexed": false,
          "internalType": "uint256",
          "name": "amount",
          "type": "uint256"
        }
      ],
      "name": "WithdrawalRequested",
      "type": "event"
    },
    {
      "anonymous": false,
      "inputs": [
        {
          "indexed": true,
          "internalType": "uint256",
          "name": "from",
          "type": "uint256"
        },
        {
          "indexed": true,
          "internalType": "uint256",
          "name": "to",
          "type": "uint256"
        },
        {
          "indexed": true,
          "internalType": "uint256",
          "name": "checkpointId",
          "type": "uint256"
        },
        {
          "indexed": false,
          "internalType": "uint256",
          "name": "amountOfETHLocked",
          "type": "uint256"
        },
        {
          "indexed": false,
          "internalType": "uint256",
          "name": "timestamp",
          "type": "uint256"
        },
        {
          "indexed": false,
          "internalType": "uint256",
          "name": "sharePrice",
          "type": "uint256"
        }
      ],
      "name": "WithdrawalsFinalized",
      "type": "event"
    },
    {
      "anonymous": false,
      "inputs": [
        {
          "indexed": false,
          "internalType": "int256",
          "name": "yield",
          "type": "int256"
        },
        {
          "indexed": false,
          "internalType": "uint256",
          "name": "insurancePremiumPaid",
          "type": "uint256"
        },
        {
          "indexed": false,
          "internalType": "uint256",
          "name": "insuranceWithdrawn",
          "type": "uint256"
        }
      ],
      "name": "YieldReport",
      "type": "event"
    },
    {
      "inputs": [],
      "name": "MAX_INSURANCE_FEE_BIPS",
      "outputs": [
        {
          "internalType": "uint256",
          "name": "",
          "type": "uint256"
        }
      ],
      "stateMutability": "view",
      "type": "function"
    },
    {
      "inputs": [],
      "name": "TOKEN",
      "outputs": [
        {
          "internalType": "address",
          "name": "",
          "type": "address"
        }
      ],
      "stateMutability": "view",
      "type": "function"
    },
    {
      "inputs": [],
      "name": "acceptOwnership",
      "outputs": [],
      "stateMutability": "nonpayable",
      "type": "function"
    },
    {
      "inputs": [],
      "name": "accumulatedNegativeYields",
      "outputs": [
        {
          "internalType": "uint256",
          "name": "",
          "type": "uint256"
        }
      ],
      "stateMutability": "view",
      "type": "function"
    },
    {
      "inputs": [
        {
          "internalType": "address",
          "name": "provider",
          "type": "address"
        }
      ],
      "name": "addProvider",
      "outputs": [],
      "stateMutability": "nonpayable",
      "type": "function"
    },
    {
      "inputs": [],
      "name": "admin",
      "outputs": [
        {
          "internalType": "address",
          "name": "",
          "type": "address"
        }
      ],
      "stateMutability": "view",
      "type": "function"
    },
    {
      "inputs": [],
      "name": "availableBalance",
      "outputs": [
        {
          "internalType": "uint256",
          "name": "",
          "type": "uint256"
        }
      ],
      "stateMutability": "view",
      "type": "function"
    },
    {
      "inputs": [],
      "name": "blastBridge",
      "outputs": [
        {
          "internalType": "address",
          "name": "",
          "type": "address"
        }
      ],
      "stateMutability": "view",
      "type": "function"
    },
    {
      "inputs": [
        {
          "internalType": "uint256",
          "name": "_requestId",
          "type": "uint256"
        },
        {
          "internalType": "uint256",
          "name": "_hintId",
          "type": "uint256"
        }
      ],
      "name": "claimWithdrawal",
      "outputs": [
        {
          "internalType": "bool",
          "name": "success",
          "type": "bool"
        }
      ],
      "stateMutability": "nonpayable",
      "type": "function"
    },
    {
      "inputs": [
        {
          "internalType": "bool",
          "name": "enableInsurance",
          "type": "bool"
        }
      ],
      "name": "commitYieldReport",
      "outputs": [],
      "stateMutability": "nonpayable",
      "type": "function"
    },
    {
      "inputs": [
        {
          "internalType": "address",
          "name": "token",
          "type": "address"
        },
        {
          "internalType": "uint256",
          "name": "amount",
          "type": "uint256"
        }
      ],
      "name": "commitYieldReportAfterInsuranceWithdrawal",
      "outputs": [],
      "stateMutability": "nonpayable",
      "type": "function"
    },
    {
      "inputs": [
        {
          "internalType": "uint256",
          "name": "requestId",
          "type": "uint256"
        }
      ],
      "name": "finalize",
      "outputs": [
        {
          "internalType": "uint256",
          "name": "checkpointId",
          "type": "uint256"
        }
      ],
      "stateMutability": "nonpayable",
      "type": "function"
    },
    {
      "inputs": [
        {
          "internalType": "uint256",
          "name": "_requestId",
          "type": "uint256"
        },
        {
          "internalType": "uint256",
          "name": "_start",
          "type": "uint256"
        },
        {
          "internalType": "uint256",
          "name": "_end",
          "type": "uint256"
        }
      ],
      "name": "findCheckpointHint",
      "outputs": [
        {
          "internalType": "uint256",
          "name": "",
          "type": "uint256"
        }
      ],
      "stateMutability": "view",
      "type": "function"
    },
    {
      "inputs": [
        {
          "internalType": "uint256[]",
          "name": "_requestIds",
          "type": "uint256[]"
        },
        {
          "internalType": "uint256",
          "name": "_firstIndex",
          "type": "uint256"
        },
        {
          "internalType": "uint256",
          "name": "_lastIndex",
          "type": "uint256"
        }
      ],
      "name": "findCheckpointHints",
      "outputs": [
        {
          "internalType": "uint256[]",
          "name": "hintIds",
          "type": "uint256[]"
        }
      ],
      "stateMutability": "view",
      "type": "function"
    },
    {
      "inputs": [
        {
          "internalType": "uint256[]",
          "name": "_requestIds",
          "type": "uint256[]"
        },
        {
          "internalType": "uint256[]",
          "name": "_hintIds",
          "type": "uint256[]"
        }
      ],
      "name": "getClaimableEther",
      "outputs": [
        {
          "internalType": "uint256[]",
          "name": "claimableEthValues",
          "type": "uint256[]"
        }
      ],
      "stateMutability": "view",
      "type": "function"
    },
    {
      "inputs": [],
      "name": "getLastCheckpointId",
      "outputs": [
        {
          "internalType": "uint256",
          "name": "",
          "type": "uint256"
        }
      ],
      "stateMutability": "view",
      "type": "function"
    },
    {
      "inputs": [],
      "name": "getLastFinalizedRequestId",
      "outputs": [
        {
          "internalType": "uint256",
          "name": "",
          "type": "uint256"
        }
      ],
      "stateMutability": "view",
      "type": "function"
    },
    {
      "inputs": [],
      "name": "getLastRequestId",
      "outputs": [
        {
          "internalType": "uint256",
          "name": "",
          "type": "uint256"
        }
      ],
      "stateMutability": "view",
      "type": "function"
    },
    {
      "inputs": [],
      "name": "getLockedBalance",
      "outputs": [
        {
          "internalType": "uint256",
          "name": "",
          "type": "uint256"
        }
      ],
      "stateMutability": "view",
      "type": "function"
    },
    {
      "inputs": [
        {
          "internalType": "uint256",
          "name": "idx",
          "type": "uint256"
        }
      ],
      "name": "getProviderInfoAt",
      "outputs": [
        {
          "components": [
            {
              "internalType": "bytes32",
              "name": "id",
              "type": "bytes32"
            },
            {
              "internalType": "address",
              "name": "providerAddress",
              "type": "address"
            },
            {
              "internalType": "uint256",
              "name": "stakedBalance",
              "type": "uint256"
            },
            {
              "internalType": "uint256",
              "name": "pendingBalance",
              "type": "uint256"
            },
            {
              "internalType": "uint256",
              "name": "stakedPrincipal",
              "type": "uint256"
            },
            {
              "internalType": "uint256",
              "name": "totalValue",
              "type": "uint256"
            },
            {
              "internalType": "int256",
              "name": "yield",
              "type": "int256"
            }
          ],
          "internalType": "struct YieldManager.ProviderInfo",
          "name": "info",
          "type": "tuple"
        }
      ],
      "stateMutability": "view",
      "type": "function"
    },
    {
      "inputs": [
        {
          "internalType": "address",
          "name": "_owner",
          "type": "address"
        }
      ],
      "name": "getWithdrawalRequests",
      "outputs": [
        {
          "internalType": "uint256[]",
          "name": "requestIds",
          "type": "uint256[]"
        }
      ],
      "stateMutability": "view",
      "type": "function"
    },
    {
      "inputs": [
        {
          "internalType": "uint256[]",
          "name": "_requestIds",
          "type": "uint256[]"
        }
      ],
      "name": "getWithdrawalStatus",
      "outputs": [
        {
          "components": [
            {
              "internalType": "uint256",
              "name": "amount",
              "type": "uint256"
            },
            {
              "internalType": "address",
              "name": "recipient",
              "type": "address"
            },
            {
              "internalType": "uint256",
              "name": "timestamp",
              "type": "uint256"
            },
            {
              "internalType": "bool",
              "name": "isFinalized",
              "type": "bool"
            },
            {
              "internalType": "bool",
              "name": "isClaimed",
              "type": "bool"
            }
          ],
          "internalType": "struct WithdrawalQueue.WithdrawalRequestStatus[]",
          "name": "statuses",
          "type": "tuple[]"
        }
      ],
      "stateMutability": "view",
      "type": "function"
    },
    {
      "inputs": [
        {
          "internalType": "contract OptimismPortal",
          "name": "_portal",
          "type": "address"
        },
        {
          "internalType": "address",
          "name": "_owner",
          "type": "address"
        }
      ],
      "name": "initialize",
      "outputs": [],
      "stateMutability": "nonpayable",
      "type": "function"
    },
    {
      "inputs": [],
      "name": "insurance",
      "outputs": [
        {
          "internalType": "address",
          "name": "",
          "type": "address"
        }
      ],
      "stateMutability": "view",
      "type": "function"
    },
    {
      "inputs": [],
      "name": "insuranceFeeBips",
      "outputs": [
        {
          "internalType": "uint256",
          "name": "",
          "type": "uint256"
        }
      ],
      "stateMutability": "view",
      "type": "function"
    },
    {
      "inputs": [],
      "name": "insuranceWithdrawalBuffer",
      "outputs": [
        {
          "internalType": "uint256",
          "name": "",
          "type": "uint256"
        }
      ],
      "stateMutability": "view",
      "type": "function"
    },
    {
      "inputs": [],
      "name": "owner",
      "outputs": [
        {
          "internalType": "address",
          "name": "",
          "type": "address"
        }
      ],
      "stateMutability": "view",
      "type": "function"
    },
    {
      "inputs": [],
      "name": "pendingOwner",
      "outputs": [
        {
          "internalType": "address",
          "name": "",
          "type": "address"
        }
      ],
      "stateMutability": "view",
      "type": "function"
    },
    {
      "inputs": [],
      "name": "portal",
      "outputs": [
        {
          "internalType": "contract OptimismPortal",
          "name": "",
          "type": "address"
        }
      ],
      "stateMutability": "view",
      "type": "function"
    },
    {
      "inputs": [
        {
          "internalType": "uint256",
          "name": "amount",
          "type": "uint256"
        }
      ],
      "name": "recordNegativeYield",
      "outputs": [],
      "stateMutability": "nonpayable",
      "type": "function"
    },
    {
      "inputs": [
        {
          "internalType": "address",
          "name": "providerAddress",
          "type": "address"
        },
        {
          "internalType": "uint256",
          "name": "amount",
          "type": "uint256"
        }
      ],
      "name": "recordStakedDeposit",
      "outputs": [],
      "stateMutability": "nonpayable",
      "type": "function"
    },
    {
      "inputs": [
        {
          "internalType": "address",
          "name": "provider",
          "type": "address"
        }
      ],
      "name": "removeProvider",
      "outputs": [],
      "stateMutability": "nonpayable",
      "type": "function"
    },
    {
      "inputs": [],
      "name": "renounceOwnership",
      "outputs": [],
      "stateMutability": "nonpayable",
      "type": "function"
    },
    {
      "inputs": [
        {
          "internalType": "uint256",
          "name": "amount",
          "type": "uint256"
        }
      ],
      "name": "requestWithdrawal",
      "outputs": [
        {
          "internalType": "uint256",
          "name": "",
          "type": "uint256"
        }
      ],
      "stateMutability": "nonpayable",
      "type": "function"
    },
    {
      "inputs": [
        {
          "internalType": "address",
          "name": "_admin",
          "type": "address"
        }
      ],
      "name": "setAdmin",
      "outputs": [],
      "stateMutability": "nonpayable",
      "type": "function"
    },
    {
      "inputs": [
        {
          "internalType": "address",
          "name": "_blastBridge",
          "type": "address"
        }
      ],
      "name": "setBlastBridge",
      "outputs": [],
      "stateMutability": "nonpayable",
      "type": "function"
    },
    {
      "inputs": [
        {
          "internalType": "address",
          "name": "_insurance",
          "type": "address"
        },
        {
          "internalType": "uint256",
          "name": "_insuranceFeeBips",
          "type": "uint256"
        },
        {
          "internalType": "uint256",
          "name": "_withdrawalBuffer",
          "type": "uint256"
        }
      ],
      "name": "setInsurance",
      "outputs": [],
      "stateMutability": "nonpayable",
      "type": "function"
    },
    {
      "inputs": [],
      "name": "sharePrice",
      "outputs": [
        {
          "internalType": "uint256",
          "name": "",
          "type": "uint256"
        }
      ],
      "stateMutability": "view",
      "type": "function"
    },
    {
      "inputs": [
        {
          "internalType": "uint256",
          "name": "idx",
          "type": "uint256"
        },
        {
          "internalType": "address",
          "name": "providerAddress",
          "type": "address"
        },
        {
          "internalType": "uint256",
          "name": "amount",
          "type": "uint256"
        }
      ],
      "name": "stake",
      "outputs": [],
      "stateMutability": "nonpayable",
      "type": "function"
    },
    {
      "inputs": [],
      "name": "tokenBalance",
      "outputs": [
        {
          "internalType": "uint256",
          "name": "",
          "type": "uint256"
        }
      ],
      "stateMutability": "view",
      "type": "function"
    },
    {
      "inputs": [],
      "name": "totalProviderValue",
      "outputs": [
        {
          "internalType": "uint256",
          "name": "sum",
          "type": "uint256"
        }
      ],
      "stateMutability": "view",
      "type": "function"
    },
    {
      "inputs": [],
      "name": "totalValue",
      "outputs": [
        {
          "internalType": "uint256",
          "name": "",
          "type": "uint256"
        }
      ],
      "stateMutability": "view",
      "type": "function"
    },
    {
      "inputs": [
        {
          "internalType": "address",
          "name": "newOwner",
          "type": "address"
        }
      ],
      "name": "transferOwnership",
      "outputs": [],
      "stateMutability": "nonpayable",
      "type": "function"
    },
    {
      "inputs": [],
      "name": "unfinalizedRequestNumber",
      "outputs": [
        {
          "internalType": "uint256",
          "name": "",
          "type": "uint256"
        }
      ],
      "stateMutability": "view",
      "type": "function"
    },
    {
      "inputs": [
        {
          "internalType": "uint256",
          "name": "idx",
          "type": "uint256"
        },
        {
          "internalType": "address",
          "name": "providerAddress",
          "type": "address"
        },
        {
          "internalType": "uint256",
          "name": "amount",
          "type": "uint256"
        }
      ],
      "name": "unstake",
      "outputs": [],
      "stateMutability": "nonpayable",
      "type": "function"
    },
    {
      "inputs": [],
      "name": "version",
      "outputs": [
        {
          "internalType": "string",
          "name": "",
          "type": "string"
        }
      ],
      "stateMutability": "view",
      "type": "function"
    },
    {
      "stateMutability": "payable",
      "type": "receive"
    }
  ],
  "address": "0xf2F6148327B3020610FCa26E094D9A5cc4689525",
  "args": [],
  "bytecode": "0x6101006040523480156200001257600080fd5b5060006080819052600160a05260c081905260e08190526200003590806200003b565b6200052c565b600054610100900460ff16158080156200005c5750600054600160ff909116105b806200008c575062000079306200017160201b6200212f1760201c565b1580156200008c575060005460ff166001145b620000f55760405162461bcd60e51b815260206004820152602e60248201527f496e697469616c697a61626c653a20636f6e747261637420697320616c72656160448201526d191e481a5b9a5d1a585b1a5e995960921b60648201526084015b60405180910390fd5b6000805460ff19166001179055801562000119576000805461ff0019166101001790555b62000125838362000180565b80156200016c576000805461ff0019169055604051600181527f7f26b83ff96e1f2b6a682f133852f6798a09c465da95921460cefb38474024989060200160405180910390a15b505050565b6001600160a01b03163b151590565b600054610100900460ff16620001dc5760405162461bcd60e51b815260206004820152602b60248201526000805160206200450c83398151915260448201526a6e697469616c697a696e6760a81b6064820152608401620000ec565b620001e66200021e565b620001f062000286565b620001fb8162000449565b5060d080546001600160a01b0319166001600160a01b0392909216919091179055565b600054610100900460ff166200027a5760405162461bcd60e51b815260206004820152602b60248201526000805160206200450c83398151915260448201526a6e697469616c697a696e6760a81b6064820152608401620000ec565b6200028462000473565b565b600054610100900460ff16620002e25760405162461bcd60e51b815260206004820152602b60248201526000805160206200450c83398151915260448201526a6e697469616c697a696e6760a81b6064820152608401620000ec565b604080516080810182526000808252602080830182815264ffffffffff428116858701908152600160608701818152609780548084018255908852975160029889027f354a83ed9988f79f6038d4c7a7dadbad8af32f4ad6df893e0e5807a1b1944ff9810180546001600160801b03939093166001600160801b03199093169290921790915594517f354a83ed9988f79f6038d4c7a7dadbad8af32f4ad6df893e0e5807a1b1944ffa9095018054935191511515600160c81b0260ff60c81b1992909516600160a01b026001600160c81b03199094166001600160a01b03969096169590951792909217919091169190911790915584518086019095528285529084018281526099805492830181559092529251929091027f72a152ddfb8e864297c917af52ea6c1c68aead0fee1a62673fcc7e0c94979d00810192909255517f72a152ddfb8e864297c917af52ea6c1c68aead0fee1a62673fcc7e0c94979d0190910155565b606580546001600160a01b03191690556200047081620004da602090811b6200213e17901c565b50565b600054610100900460ff16620004cf5760405162461bcd60e51b815260206004820152602b60248201526000805160206200450c83398151915260448201526a6e697469616c697a696e6760a81b6064820152608401620000ec565b620002843362000449565b603380546001600160a01b038381166001600160a01b0319831681179093556040519116919082907f8be0079c531659141344cd1fd0a4f28419497f9722a3daafe3b4186f6b6457e090600090a35050565b60805160a05160c05160e051613f986200057460003960006111f4015260006111cb015260006111a201526000818161059401528181611fd901526120270152613f986000f3fe6080604052600436106102815760003560e01c806389cf32041161014f578063c97912d8116100c1578063f0c8c0dd1161007a578063f0c8c0dd146107a7578063f19d06f0146107c7578063f21340e4146107dc578063f2fde38b1461080c578063f851a4401461082c578063fe1e7d711461084c57600080fd5b8063c97912d8146106fe578063d11b1ae01461071e578063d4c3eea014610734578063d6ce791014610749578063e30c397814610769578063e7518fb61461078757600080fd5b80639ee679e8116101135780639ee679e81461065c578063ab2f0e511461067c578063b1d3c61e14610691578063b8c4b85a146106a7578063bfdbfe83146106d4578063c2fc7aff146106e957600080fd5b806389cf3204146105cb5780638a355a57146105eb5780638da5cb5b1461060b578063959598c4146106295780639e1a4d191461064957600080fd5b806354fd4d50116101f3578063715018a6116101ac578063715018a61461051857806371ea21c21461052d57806379ba50971461054d5780637d031b651461056257806382bfefc81461058257806387269729146105b657600080fd5b806354fd4d501461043157806362abe3fa146104535780636425666b146104805780636e9c931c146104b85780636f3ed5e3146104d8578063704b6c02146104f857600080fd5b80632844be5f116102455780632844be5f1461032257806346e2577a14610342578063485cc955146103625780634f069a131461038257806351787ffa1461039757806351a7c7161461041157600080fd5b806305261aea1461028d5780630eb5238c146102c057806319c2b4c3146102d65780631b14ace8146102eb5780632549e0b11461030d57600080fd5b3661028857005b600080fd5b34801561029957600080fd5b506102ad6102a836600461378e565b610862565b6040519081526020015b60405180910390f35b3480156102cc57600080fd5b506102ad60cf5481565b3480156102e257600080fd5b50609a546102ad565b3480156102f757600080fd5b5061030b6103063660046137bc565b6108dc565b005b34801561031957600080fd5b50609d546102ad565b34801561032e57600080fd5b506102ad61033d3660046137e8565b610990565b34801561034e57600080fd5b5061030b61035d366004613814565b610b6f565b34801561036e57600080fd5b5061030b61037d366004613831565b610cba565b34801561038e57600080fd5b50609b546102ad565b3480156103a357600080fd5b506103b76103b236600461378e565b610dcf565b6040516102b79190815181526020808301516001600160a01b03169082015260408083015190820152606080830151908201526080808301519082015260a0808301519082015260c0918201519181019190915260e00190565b34801561041d57600080fd5b5061030b61042c36600461386a565b6110b3565b34801561043d57600080fd5b5061044661119b565b6040516102b791906138fe565b34801561045f57600080fd5b5061047361046e366004613956565b61123e565b6040516102b791906139a7565b34801561048c57600080fd5b5060d0546104a0906001600160a01b031681565b6040516001600160a01b0390911681526020016102b7565b3480156104c457600080fd5b5061030b6104d336600461386a565b61135d565b3480156104e457600080fd5b5061030b6104f33660046139eb565b61142d565b34801561050457600080fd5b5061030b610513366004613814565b611480565b34801561052457600080fd5b5061030b6114bd565b34801561053957600080fd5b5060cc546104a0906001600160a01b031681565b34801561055957600080fd5b5061030b6114d1565b34801561056e57600080fd5b5061047361057d366004613814565b61154b565b34801561058e57600080fd5b506104a07f000000000000000000000000000000000000000000000000000000000000000081565b3480156105c257600080fd5b506102ad611575565b3480156105d757600080fd5b5060cb546104a0906001600160a01b031681565b3480156105f757600080fd5b5061030b610606366004613814565b6115d6565b34801561061757600080fd5b506033546001600160a01b03166104a0565b34801561063557600080fd5b5061030b6106443660046137bc565b6115e9565b34801561065557600080fd5b50476102ad565b34801561066857600080fd5b506102ad61067736600461378e565b61169a565b34801561068857600080fd5b506102ad6116de565b34801561069d57600080fd5b506102ad60cd5481565b3480156106b357600080fd5b506106c76106c2366004613a20565b6116f8565b6040516102b79190613a62565b3480156106e057600080fd5b506102ad6117d0565b3480156106f557600080fd5b506102ad611879565b34801561070a57600080fd5b50610473610719366004613add565b61188b565b34801561072a57600080fd5b506102ad60ce5481565b34801561074057600080fd5b506102ad61194d565b34801561075557600080fd5b5061030b61076436600461378e565b611969565b34801561077557600080fd5b506065546001600160a01b03166104a0565b34801561079357600080fd5b5061030b6107a2366004613b57565b6119d2565b3480156107b357600080fd5b5061030b6107c2366004613814565b611e91565b3480156107d357600080fd5b50609c546102ad565b3480156107e857600080fd5b506107fc6107f7366004613b74565b611ece565b60405190151581526020016102b7565b34801561081857600080fd5b5061030b610827366004613814565b6120be565b34801561083857600080fd5b5060ca546104a0906001600160a01b031681565b34801561085857600080fd5b506102ad61271081565b60ca546000906001600160a01b0316331461089057604051638dfa73db60e01b815260040160405180910390fd5b6000806108ac8461089f6116de565b6108a7611575565b612190565b94509092509050808211156108d55760cd546108d1906108cc8385613bac565b6123f6565b60cd555b5050919050565b60ca546001600160a01b0316331461090757604051638dfa73db60e01b815260040160405180910390fd5b60cb546001600160a01b031661091c57600080fd5b60cb54604051631a3f4bd360e31b81526001600160a01b038481166004830152602482018490529091169063d1fa5e9890604401600060405180830381600087803b15801561096a57600080fd5b505af115801561097e573d6000803e3d6000fd5b5050505061098c60016119d2565b5050565b60008315806109a05750609a5484115b156109c6576040516364b4f07960e11b8152600481018590526024015b60405180910390fd5b609c548315806109d557508083115b156109fd57604051637189425760e01b815260048101859052602481018490526044016109bd565b801580610a0b5750609b5485115b80610a1557508284115b15610a24576000915050610b68565b60998381548110610a3757610a37613bc3565b9060005260206000209060020201600001548510610aa857808303610a5f5782915050610b68565b6099610a6c846001613bd9565b81548110610a7c57610a7c613bc3565b906000526020600020906002020160000154851015610a9e5782915050610b68565b6000915050610b68565b60998481548110610abb57610abb613bc3565b906000526020600020906002020160000154851015610ade576000915050610b68565b836000610aec600186613bac565b90505b81811115610b635760006002610b058484613bd9565b610b10906001613bd9565b610b1a9190613c07565b90508760998281548110610b3057610b30613bc3565b90600052602060002090600202016000015411610b4f57809250610b5d565b610b5a600182613bac565b91505b50610aef565b509150505b9392505050565b610b7761240c565b306001600160a01b0316816001600160a01b031663219ebb9c6040518163ffffffff1660e01b8152600401602060405180830381865afa158015610bbf573d6000803e3d6000fd5b505050506040513d601f19601f82011682018060405250810190610be39190613c1b565b6001600160a01b031614610c0a57604051638d8eed3b60e01b815260040160405180910390fd5b610c1560c882612466565b5060408051600481526024810182526020810180516001600160e01b031663204a7f0760e21b17905290516000916001600160a01b03841691610c589190613c38565b600060405180830381855af49150503d8060008114610c93576040519150601f19603f3d011682016040523d82523d6000602084013e610c98565b606091505b505090508061098c57604051630fb6449b60e21b815260040160405180910390fd5b600054610100900460ff1615808015610cda5750600054600160ff909116105b80610cf45750303b158015610cf4575060005460ff166001145b610d575760405162461bcd60e51b815260206004820152602e60248201527f496e697469616c697a61626c653a20636f6e747261637420697320616c72656160448201526d191e481a5b9a5d1a585b1a5e995960921b60648201526084016109bd565b6000805460ff191660011790558015610d7a576000805461ff0019166101001790555b610d84838361247b565b8015610dca576000805461ff0019169055604051600181527f7f26b83ff96e1f2b6a682f133852f6798a09c465da95921460cefb38474024989060200160405180910390a15b505050565b610e1b6040518060e001604052806000801916815260200160006001600160a01b0316815260200160008152602001600081526020016000815260200160008152602001600081525090565b6000610e2860c8846124de565b9050806001600160a01b031663af640d0f6040518163ffffffff1660e01b8152600401602060405180830381865afa158015610e68573d6000803e3d6000fd5b505050506040513d601f19601f82011682018060405250810190610e8c9190613c54565b82526001600160a01b038116602080840182905260408051632dcf800b60e11b81529051635b9f0016926004808401939192918290030181865afa158015610ed8573d6000803e3d6000fd5b505050506040513d601f19601f82011682018060405250810190610efc9190613c54565b826040018181525050806001600160a01b03166357b4d18e6040518163ffffffff1660e01b8152600401602060405180830381865afa158015610f43573d6000803e3d6000fd5b505050506040513d601f19601f82011682018060405250810190610f679190613c54565b826060018181525050806001600160a01b03166385254adf6040518163ffffffff1660e01b8152600401602060405180830381865afa158015610fae573d6000803e3d6000fd5b505050506040513d601f19601f82011682018060405250810190610fd29190613c54565b826080018181525050806001600160a01b031663d4c3eea06040518163ffffffff1660e01b8152600401602060405180830381865afa158015611019573d6000803e3d6000fd5b505050506040513d601f19601f8201168201806040525081019061103d9190613c54565b8260a0018181525050806001600160a01b031663285939846040518163ffffffff1660e01b8152600401602060405180830381865afa158015611084573d6000803e3d6000fd5b505050506040513d601f19601f820116820180604052508101906110a89190613c54565b60c083015250919050565b60ca546001600160a01b031633146110de57604051638dfa73db60e01b815260040160405180910390fd5b6001600160a01b0382166110f360c8856124de565b6001600160a01b03161461111a57604051638f700e7960e01b815260040160405180910390fd5b60008061112784846124ea565b604051637663fb2160e11b815260048101839052602481018290526044810186905291935091506001600160a01b0385169063ecc7f64290606401600060405180830381600087803b15801561117c57600080fd5b505af1158015611190573d6000803e3d6000fd5b505050505050505050565b60606111c67f00000000000000000000000000000000000000000000000000000000000000006125c6565b6111ef7f00000000000000000000000000000000000000000000000000000000000000006125c6565b6112187f00000000000000000000000000000000000000000000000000000000000000006125c6565b60405160200161122a93929190613c6d565b604051602081830303815290604052905090565b60608367ffffffffffffffff81111561125957611259613cc7565b604051908082528060200260200182016040528015611282578160200160208202803683370190505b5090506000805b8581101561135357818787838181106112a4576112a4613bc3565b9050602002013510156112ca5760405163374e8bd160e01b815260040160405180910390fd5b6112ed8787838181106112df576112df613bc3565b905060200201358686610990565b8382815181106112ff576112ff613bc3565b60200260200101818152505082818151811061131d5761131d613bc3565b6020026020010151945086868281811061133957611339613bc3565b9050602002013591508061134c90613cdd565b9050611289565b5050949350505050565b60ca546001600160a01b0316331461138857604051638dfa73db60e01b815260040160405180910390fd5b6001600160a01b03821661139d60c8856124de565b6001600160a01b0316146113c457604051638f700e7960e01b815260040160405180910390fd5b6113ce82826126cf565b604051635dd7f8f160e11b8152600481018290526001600160a01b0383169063bbaff1e290602401600060405180830381600087803b15801561141057600080fd5b505af1158015611424573d6000803e3d6000fd5b50505050505050565b61143561240c565b6001600160a01b03831661144857600080fd5b61271082111561145757600080fd5b60cb80546001600160a01b0319166001600160a01b03949094169390931790925560ce5560cf55565b61148861240c565b6001600160a01b03811661149b57600080fd5b60ca80546001600160a01b0319166001600160a01b0392909216919091179055565b6114c561240c565b6114cf6000612784565b565b60655433906001600160a01b0316811461153f5760405162461bcd60e51b815260206004820152602960248201527f4f776e61626c6532537465703a2063616c6c6572206973206e6f7420746865206044820152683732bb9037bbb732b960b91b60648201526084016109bd565b61154881612784565b50565b6001600160a01b038116600090815260986020526040902060609061156f9061279d565b92915050565b60008061158061194d565b9050806000036115a3576040516332feec7f60e21b815260040160405180910390fd5b60cd546115b09082613bd9565b6115c66b033b2e3c9fd0803ce800000083613cf6565b6115d09190613c07565b91505090565b6115de61240c565b61098c60c8826127aa565b60cc546001600160a01b031633146116145760405163575faf4160e11b815260040160405180910390fd5b61161f60c8836127bf565b61163c5760405163b1cd090360e01b815260040160405180910390fd5b604051635dd7f8f160e11b8152600481018290526001600160a01b0383169063bbaff1e290602401600060405180830381600087803b15801561167e57600080fd5b505af1158015611692573d6000803e3d6000fd5b505050505050565b60d0546000906001600160a01b031633146116c857604051635c5536bd60e01b815260040160405180910390fd5b60d05461156f906001600160a01b0316836127e1565b60006116e9609d5490565b6116f39047613bac565b905090565b60608167ffffffffffffffff81111561171357611713613cc7565b60405190808252806020026020018201604052801561176c57816020015b6040805160a0810182526000808252602080830182905292820181905260608201819052608082015282526000199092019101816117315790505b50905060005b828110156117c95761179b84848381811061178f5761178f613bc3565b905060200201356129ec565b8282815181106117ad576117ad613bc3565b6020026020010181905250806117c290613cdd565b9050611772565b5092915050565b6000806117dd60c8612bb5565b905060005b81811015611874576117f560c8826124de565b6001600160a01b031663d4c3eea06040518163ffffffff1660e01b8152600401602060405180830381865afa158015611832573d6000803e3d6000fd5b505050506040513d601f19601f820116820180604052508101906118569190613c54565b6118609084613bd9565b92508061186c81613cdd565b9150506117e2565b505090565b6000609b54609a546116f39190613bac565b60608367ffffffffffffffff8111156118a6576118a6613cc7565b6040519080825280602002602001820160405280156118cf578160200160208202803683370190505b50905060005b84811015611944576119178686838181106118f2576118f2613bc3565b9050602002013585858481811061190b5761190b613bc3565b90506020020135612bbf565b82828151811061192957611929613bc3565b602090810291909101015261193d81613cdd565b90506118d5565b50949350505050565b60006119576117d0565b61195f6116de565b6116f39190613bd9565b3330146119b85760405162461bcd60e51b815260206004820152601b60248201527f43616c6c6572206973206e6f74207468697320636f6e7472616374000000000060448201526064016109bd565b8060cd60008282546119ca9190613bd9565b909155505050565b60ca546001600160a01b031633146119fd57604051638dfa73db60e01b815260040160405180910390fd5b6000611a0960c8612bb5565b60cd5490915060008080805b85811015611d9857611a30611a2b60c8836124de565b612c52565b6000611a3d60c8836124de565b6001600160a01b031663285939846040518163ffffffff1660e01b8152600401602060405180830381865afa158015611a7a573d6000803e3d6000fd5b505050506040513d601f19601f82011682018060405250810190611a9e9190613c54565b90506000888015611b165750611ab560c8846124de565b6001600160a01b0316634bfb431f6040518163ffffffff1660e01b8152600401602060405180830381865afa158015611af2573d6000803e3d6000fd5b505050506040513d601f19601f82011682018060405250810190611b169190613d15565b8015611b2c575060cb546001600160a01b031615155b15611c53576000821315611b7c5761271060ce5483611b4b9190613cf6565b611b559190613c07565b9050611b6b611b6560c8856124de565b82612cf5565b611b758187613bd9565b9550611c53565b6000821215611c5357600060cf54611b9384612d49565b611b9d9190613bd9565b90506000611bac60c8866124de565b6001600160a01b0316630577d6d56040518163ffffffff1660e01b8152600401602060405180830381865afa158015611be9573d6000803e3d6000fd5b505050506040513d601f19601f82011682018060405250810190611c0d9190613c54565b905081811015611c3057604051633eb0171360e01b815260040160405180910390fd5b611c44611c3e60c8876124de565b83612d60565b611c4e8288613bd9565b965050505b6000611c6060c8856124de565b6001600160a01b031663f304f5e56040518163ffffffff1660e01b81526004016020604051808303816000875af1158015611c9f573d6000803e3d6000fd5b505050506040513d601f19601f82011682018060405250810190611cc39190613c54565b9050898015611d395750611cd860c8856124de565b6001600160a01b0316634bfb431f6040518163ffffffff1660e01b8152600401602060405180830381865afa158015611d15573d6000803e3d6000fd5b505050506040513d601f19601f82011682018060405250810190611d399190613d15565b8015611d4f575060cb546001600160a01b031615155b15611d76576000811215611d765760405163ef0175db60e01b815260040160405180910390fd5b611d808186613d32565b94505050508080611d9090613cdd565b915050611a15565b5060cd5415611db957611dac60cd54612db4565b611db69082613d73565b90505b60408051828152602081018590529081018390527ede4b58e7863b1e3dce7259a138136239427388d53e4844f369cdee7a81dbf59060600160405180910390a16000811215611e1657611e0e81600019613db2565b60cd55611e65565b600060cd819055811315611e65576040805160248082018490528251808303909101815260449091019091526020810180516001600160e01b0316635b9af12b60e01b179052611e6590612e1e565b858015611e7357508360cd54115b156116925760405163528dc37160e11b815260040160405180910390fd5b611e9961240c565b6001600160a01b038116611eac57600080fd5b60cc80546001600160a01b0319166001600160a01b0392909216919091179055565b600082600003611ef4576040516364b4f07960e11b8152600481018490526024016109bd565b609b54831115611f1a5760405163095ca04560e31b8152600481018490526024016109bd565b600060978481548110611f2f57611f2f613bc3565b906000526020600020906002020190508060010160199054906101000a900460ff1615611f725760405163f0e0cc2d60e01b8152600481018590526024016109bd565b60018101805460ff60c81b198116600160c81b179091556001600160a01b0316338114611fb25760405163f406fde960e01b815260040160405180910390fd5b6000611fbe8686612e93565b905080609d6000828254611fd29190613bac565b90915550507f00000000000000000000000000000000000000000000000000000000000000006001600160a01b031661201a5761201382620186a083613079565b9350612053565b61204e6001600160a01b037f000000000000000000000000000000000000000000000000000000000000000016838361308f565b600193505b8361207157604051634c82c35160e11b815260040160405180910390fd5b816001600160a01b0316867f8adb7a84b2998a8d11cd9284395f95d5a99f160be785ae79998c654979bd3d9a836040516120ad91815260200190565b60405180910390a350505092915050565b6120c661240c565b606580546001600160a01b0383166001600160a01b031990911681179091556120f76033546001600160a01b031690565b6001600160a01b03167f38d16b8cac22d99fc7c124b9cd0de2d3fa1faef420bfe791d8c362d765e2270060405160405180910390a350565b6001600160a01b03163b151590565b603380546001600160a01b038381166001600160a01b0319831681179093556040519116919082907f8be0079c531659141344cd1fd0a4f28419497f9722a3daafe3b4186f6b6457e090600090a35050565b60008060006b033b2e3c9fd0803ce80000008411156121c25760405163e5dd50c360e01b815260040160405180910390fd5b85156123ed57609a548611156121ee576040516364b4f07960e11b8152600481018790526024016109bd565b609b54808711612214576040516364b4f07960e11b8152600481018890526024016109bd565b60006097828154811061222957612229613bc3565b6000918252602080832060408051608081018252600290940290910180546001600160801b03168452600101546001600160a01b0381169284019290925264ffffffffff600160a01b8304169083015260ff600160c81b909104161515606082015260978054919350908a9081106122a3576122a3613bc3565b60009182526020918290206040805160808101825260029390930290910180546001600160801b03168084526001909101546001600160a01b03811694840194909452600160a01b840464ffffffffff1691830191909152600160c81b90920460ff1615156060820152835190925061231b91613e37565b6001600160801b031695506b033b2e3c9fd0803ce800000061233d8888613cf6565b6123479190613c07565b94508785111561236a57604051631e9acf1760e31b815260040160405180910390fd5b6000612377846001613bd9565b905085609d600082825461238b9190613bd9565b9091555050609b8a905561239f81896130e1565b604080518881524260208201529081018a905290955085908b9083907f59382740d48c89a44d8866c8e7071aa24351a82e5f38e4674ab82aa8a18119bc9060600160405180910390a4505050505b93509350939050565b6000818311612406576000610b68565b50900390565b6033546001600160a01b031633146114cf5760405162461bcd60e51b815260206004820181905260248201527f4f776e61626c653a2063616c6c6572206973206e6f7420746865206f776e657260448201526064016109bd565b6000610b68836001600160a01b03841661317e565b600054610100900460ff166124a25760405162461bcd60e51b81526004016109bd90613e5f565b6124aa6131cd565b6124b26131fc565b6124bb81612784565b5060d080546001600160a01b0319166001600160a01b0392909216919091179055565b6000610b68838361338a565b600080600080856001600160a01b03168560405160240161250d91815260200190565b60408051601f198184030181529181526020820180516001600160e01b03166305c2fbcf60e31b179052516125429190613c38565b600060405180830381855af49150503d806000811461257d576040519150601f19603f3d011682016040523d82523d6000602084013e612582565b606091505b5091509150816125a45760405162461bcd60e51b81526004016109bd90613eaa565b808060200190518101906125b89190613ed7565b9350935050505b9250929050565b6060816000036125ed5750506040805180820190915260018152600360fc1b602082015290565b8160005b8115612617578061260181613cdd565b91506126109050600a83613c07565b91506125f1565b60008167ffffffffffffffff81111561263257612632613cc7565b6040519080825280601f01601f19166020018201604052801561265c576020820181803683370190505b5090505b84156126c757612671600183613bac565b915061267e600a86613efb565b612689906030613bd9565b60f81b81838151811061269e5761269e613bc3565b60200101906001600160f81b031916908160001a9053506126c0600a86613c07565b9450612660565b949350505050565b6000826001600160a01b0316826040516024016126ee91815260200190565b60408051601f198184030181529181526020820180516001600160e01b031663534a7e1d60e11b179052516127239190613c38565b600060405180830381855af49150503d806000811461275e576040519150601f19603f3d011682016040523d82523d6000602084013e612763565b606091505b5050905080610dca5760405162461bcd60e51b81526004016109bd90613eaa565b606580546001600160a01b03191690556115488161213e565b60606000610b68836133b4565b6000610b68836001600160a01b038416613410565b6001600160a01b03811660009081526001830160205260408120541515610b68565b600080609a5490506000609782815481106127fe576127fe613bc3565b6000918252602080832060408051608081018252600290940290910180546001600160801b03168452600101546001600160a01b0381169284019290925264ffffffffff600160a01b8304169083015260ff600160c81b9091041615156060820152915061286b85613503565b82516128779190613f0f565b9050612884836001613bd9565b609a819055604080516080810182526001600160801b0380851682526001600160a01b03808b16602080850182815264ffffffffff428116878901908152600060608901818152609780546001810182559083528a5160029091027f354a83ed9988f79f6038d4c7a7dadbad8af32f4ad6df893e0e5807a1b1944ff98101805492909b166001600160801b03199092169190911790995593517f354a83ed9988f79f6038d4c7a7dadbad8af32f4ad6df893e0e5807a1b1944ffa9098018054925194511515600160c81b0260ff60c81b1995909416600160a01b026001600160c81b031990931698909716979097171791909116179092558252609890529190912091955090612994908661356c565b50866001600160a01b0316336001600160a01b0316867eae2c76ca218353c7995e13a4af773a35837cb6ebb8288092d8190bcd9c8f68896040516129da91815260200190565b60405180910390a45050505092915050565b6040805160a081018252600080825260208201819052918101829052606081018290526080810191909152811580612a255750609a5482115b15612a46576040516364b4f07960e11b8152600481018390526024016109bd565b600060978381548110612a5b57612a5b613bc3565b600091825260208083206040805160808101825260029490940290910180546001600160801b031684526001908101546001600160a01b03811693850193909352600160a01b830464ffffffffff1691840191909152600160c81b90910460ff1615156060830152909250609790612ad39086613bac565b81548110612ae357612ae3613bc3565b60009182526020918290206040805160808101825260029390930290910180546001600160801b03168352600101546001600160a01b03811693830193909352600160a01b830464ffffffffff1682820152600160c81b90920460ff1615156060820152815160a08101909252805184519193508291612b639190613e37565b6001600160801b0316815260200183602001516001600160a01b03168152602001836040015164ffffffffff168152602001609b54861115151581526020018360600151151581525092505050919050565b600061156f825490565b6000821580612bcf5750609a5483115b15612bf0576040516364b4f07960e11b8152600481018490526024016109bd565b609b54831115612c025750600061156f565b600060978481548110612c1757612c17613bc3565b906000526020600020906002020190508060010160199054906101000a900460ff1615612c4857600091505061156f565b6126c78484612e93565b60408051600481526024810182526020810180516001600160e01b03166308f7890760e31b17905290516000916001600160a01b03841691612c949190613c38565b600060405180830381855af49150503d8060008114612ccf576040519150601f19603f3d011682016040523d82523d6000602084013e612cd4565b606091505b505090508061098c5760405162461bcd60e51b81526004016109bd90613eaa565b6000826001600160a01b031682604051602401612d1491815260200190565b60408051601f198184030181529181526020820180516001600160e01b03166366785d9360e01b179052516127239190613c38565b600080821215612d5c578160000361156f565b5090565b6000826001600160a01b031682604051602401612d7f91815260200190565b60408051601f198184030181529181526020820180516001600160e01b03166326dd5d6560e21b179052516127239190613c38565b60006001600160ff1b03821115612d5c5760405162461bcd60e51b815260206004820152602860248201527f53616665436173743a2076616c756520646f65736e27742066697420696e2061604482015267371034b73a191a9b60c11b60648201526084016109bd565b60d0546040516374f02e2160e11b81526001600160a01b039091169063e9e05c4290612e5e90604360981b9060009062030d409082908890600401613f3a565b600060405180830381600087803b158015612e7857600080fd5b505af1158015612e8c573d6000803e3d6000fd5b5050505050565b600081600003612eb957604051636773bc7160e11b8152600481018390526024016109bd565b609c5480831115612ee057604051636773bc7160e11b8152600481018490526024016109bd565b600060998481548110612ef557612ef5613bc3565b90600052602060002090600202016040518060400160405290816000820154815260200160018201548152505090508060000151851015612f4c57604051636773bc7160e11b8152600481018590526024016109bd565b81841015612fcb5760006099612f63866001613bd9565b81548110612f7357612f73613bc3565b906000526020600020906002020160405180604001604052908160008201548152602001600182015481525050905080600001518610612fc957604051636773bc7160e11b8152600481018690526024016109bd565b505b60006097612fda600188613bac565b81548110612fea57612fea613bc3565b9060005260206000209060020201905060006097878154811061300f5761300f613bc3565b6000918252602082208454600290920201805490935061303b916001600160801b039081169116613e37565b6001600160801b031690506b033b2e3c9fd0803ce80000008460200151826130639190613cf6565b61306d9190613c07565b98975050505050505050565b600080600080600080868989f195945050505050565b604080516001600160a01b038416602482015260448082018490528251808303909101815260649091019091526020810180516001600160e01b031663a9059cbb60e01b179052610dca908490613578565b60408051808201909152828152602081018281526099805460018082018355600092835293517f72a152ddfb8e864297c917af52ea6c1c68aead0fee1a62673fcc7e0c94979d0060029092029182015591517f72a152ddfb8e864297c917af52ea6c1c68aead0fee1a62673fcc7e0c94979d0190920191909155609c8054919291839061316f908490613bd9565b9091555050609c549392505050565b60008181526001830160205260408120546131c55750815460018181018455600084815260208082209093018490558454848252828601909352604090209190915561156f565b50600061156f565b600054610100900460ff166131f45760405162461bcd60e51b81526004016109bd90613e5f565b6114cf61364a565b600054610100900460ff166132235760405162461bcd60e51b81526004016109bd90613e5f565b604080516080810182526000808252602080830182815264ffffffffff428116858701908152600160608701818152609780548084018255908852975160029889027f354a83ed9988f79f6038d4c7a7dadbad8af32f4ad6df893e0e5807a1b1944ff9810180546001600160801b03939093166001600160801b03199093169290921790915594517f354a83ed9988f79f6038d4c7a7dadbad8af32f4ad6df893e0e5807a1b1944ffa9095018054935191511515600160c81b0260ff60c81b1992909516600160a01b026001600160c81b03199094166001600160a01b03969096169590951792909217919091169190911790915584518086019095528285529084018281526099805492830181559092529251929091027f72a152ddfb8e864297c917af52ea6c1c68aead0fee1a62673fcc7e0c94979d00810192909255517f72a152ddfb8e864297c917af52ea6c1c68aead0fee1a62673fcc7e0c94979d0190910155565b60008260000182815481106133a1576133a1613bc3565b9060005260206000200154905092915050565b60608160000180548060200260200160405190810160405280929190818152602001828054801561340457602002820191906000526020600020905b8154815260200190600101908083116133f0575b50505050509050919050565b600081815260018301602052604081205480156134f9576000613434600183613bac565b855490915060009061344890600190613bac565b90508181146134ad57600086600001828154811061346857613468613bc3565b906000526020600020015490508087600001848154811061348b5761348b613bc3565b6000918252602080832090910192909255918252600188019052604090208390555b85548690806134be576134be613f75565b60019003818190600052602060002001600090559055856001016000868152602001908152602001600020600090556001935050505061156f565b600091505061156f565b60006001600160801b03821115612d5c5760405162461bcd60e51b815260206004820152602760248201527f53616665436173743a2076616c756520646f65736e27742066697420696e20316044820152663238206269747360c81b60648201526084016109bd565b6000610b68838361317e565b60006135cd826040518060400160405280602081526020017f5361666545524332303a206c6f772d6c6576656c2063616c6c206661696c6564815250856001600160a01b031661367a9092919063ffffffff16565b805190915015610dca57808060200190518101906135eb9190613d15565b610dca5760405162461bcd60e51b815260206004820152602a60248201527f5361666545524332303a204552433230206f7065726174696f6e20646964206e6044820152691bdd081cdd58d8d9595960b21b60648201526084016109bd565b600054610100900460ff166136715760405162461bcd60e51b81526004016109bd90613e5f565b6114cf33612784565b60606126c78484600085856001600160a01b0385163b6136dc5760405162461bcd60e51b815260206004820152601d60248201527f416464726573733a2063616c6c20746f206e6f6e2d636f6e747261637400000060448201526064016109bd565b600080866001600160a01b031685876040516136f89190613c38565b60006040518083038185875af1925050503d8060008114613735576040519150601f19603f3d011682016040523d82523d6000602084013e61373a565b606091505b509150915061374a828286613755565b979650505050505050565b60608315613764575081610b68565b8251156137745782518084602001fd5b8160405162461bcd60e51b81526004016109bd91906138fe565b6000602082840312156137a057600080fd5b5035919050565b6001600160a01b038116811461154857600080fd5b600080604083850312156137cf57600080fd5b82356137da816137a7565b946020939093013593505050565b6000806000606084860312156137fd57600080fd5b505081359360208301359350604090920135919050565b60006020828403121561382657600080fd5b8135610b68816137a7565b6000806040838503121561384457600080fd5b823561384f816137a7565b9150602083013561385f816137a7565b809150509250929050565b60008060006060848603121561387f57600080fd5b833592506020840135613891816137a7565b929592945050506040919091013590565b60005b838110156138bd5781810151838201526020016138a5565b838111156138cc576000848401525b50505050565b600081518084526138ea8160208601602086016138a2565b601f01601f19169290920160200192915050565b602081526000610b6860208301846138d2565b60008083601f84011261392357600080fd5b50813567ffffffffffffffff81111561393b57600080fd5b6020830191508360208260051b85010111156125bf57600080fd5b6000806000806060858703121561396c57600080fd5b843567ffffffffffffffff81111561398357600080fd5b61398f87828801613911565b90989097506020870135966040013595509350505050565b6020808252825182820181905260009190848201906040850190845b818110156139df578351835292840192918401916001016139c3565b50909695505050505050565b600080600060608486031215613a0057600080fd5b8335613a0b816137a7565b95602085013595506040909401359392505050565b60008060208385031215613a3357600080fd5b823567ffffffffffffffff811115613a4a57600080fd5b613a5685828601613911565b90969095509350505050565b602080825282518282018190526000919060409081850190868401855b82811015613ad057815180518552868101516001600160a01b031687860152858101518686015260608082015115159086015260809081015115159085015260a09093019290850190600101613a7f565b5091979650505050505050565b60008060008060408587031215613af357600080fd5b843567ffffffffffffffff80821115613b0b57600080fd5b613b1788838901613911565b90965094506020870135915080821115613b3057600080fd5b50613b3d87828801613911565b95989497509550505050565b801515811461154857600080fd5b600060208284031215613b6957600080fd5b8135610b6881613b49565b60008060408385031215613b8757600080fd5b50508035926020909101359150565b634e487b7160e01b600052601160045260246000fd5b600082821015613bbe57613bbe613b96565b500390565b634e487b7160e01b600052603260045260246000fd5b60008219821115613bec57613bec613b96565b500190565b634e487b7160e01b600052601260045260246000fd5b600082613c1657613c16613bf1565b500490565b600060208284031215613c2d57600080fd5b8151610b68816137a7565b60008251613c4a8184602087016138a2565b9190910192915050565b600060208284031215613c6657600080fd5b5051919050565b60008451613c7f8184602089016138a2565b8083019050601760f91b8082528551613c9f816001850160208a016138a2565b60019201918201528351613cba8160028401602088016138a2565b0160020195945050505050565b634e487b7160e01b600052604160045260246000fd5b600060018201613cef57613cef613b96565b5060010190565b6000816000190483118215151615613d1057613d10613b96565b500290565b600060208284031215613d2757600080fd5b8151610b6881613b49565b600080821280156001600160ff1b0384900385131615613d5457613d54613b96565b600160ff1b8390038412811615613d6d57613d6d613b96565b50500190565b60008083128015600160ff1b850184121615613d9157613d91613b96565b6001600160ff1b0384018313811615613dac57613dac613b96565b50500390565b60006001600160ff1b0381841382841380821686840486111615613dd857613dd8613b96565b600160ff1b6000871282811687830589121615613df757613df7613b96565b60008712925087820587128484161615613e1357613e13613b96565b87850587128184161615613e2957613e29613b96565b505050929093029392505050565b60006001600160801b0383811690831681811015613e5757613e57613b96565b039392505050565b6020808252602b908201527f496e697469616c697a61626c653a20636f6e7472616374206973206e6f74206960408201526a6e697469616c697a696e6760a81b606082015260800190565b60208082526013908201527219195b1959d85d1958d85b1b0819985a5b1959606a1b604082015260600190565b60008060408385031215613eea57600080fd5b505080516020909101519092909150565b600082613f0a57613f0a613bf1565b500690565b60006001600160801b03808316818516808303821115613f3157613f31613b96565b01949350505050565b60018060a01b038616815284602082015263ffffffff84166040820152821515606082015260a06080820152600061374a60a08301846138d2565b634e487b7160e01b600052603160045260246000fdfea164736f6c634300080f000a496e697469616c697a61626c653a20636f6e7472616374206973206e6f742069",
  "numDeployments": 1,
  "solcInputHash": "0x0000000000000000000000000000000000000000000000000000000000000000",
  "storageLayout": {
    "storage": [
      {
        "astId": 45016,
        "contract": "src/mainnet-bridge/ETHYieldManager.sol:ETHYieldManager",
        "label": "_initialized",
        "offset": 0,
        "slot": "0",
        "type": "t_uint8"
      },
      {
        "astId": 45019,
        "contract": "src/mainnet-bridge/ETHYieldManager.sol:ETHYieldManager",
        "label": "_initializing",
        "offset": 1,
        "slot": "0",
        "type": "t_bool"
      },
      {
        "astId": 47463,
        "contract": "src/mainnet-bridge/ETHYieldManager.sol:ETHYieldManager",
        "label": "__gap",
        "offset": 0,
        "slot": "1",
        "type": "t_array(t_uint256)50_storage"
      },
      {
        "astId": 44863,
        "contract": "src/mainnet-bridge/ETHYieldManager.sol:ETHYieldManager",
        "label": "_owner",
        "offset": 0,
        "slot": "51",
        "type": "t_address"
      },
      {
        "astId": 44983,
        "contract": "src/mainnet-bridge/ETHYieldManager.sol:ETHYieldManager",
        "label": "__gap",
        "offset": 0,
        "slot": "52",
        "type": "t_array(t_uint256)49_storage"
      },
      {
        "astId": 44772,
        "contract": "src/mainnet-bridge/ETHYieldManager.sol:ETHYieldManager",
        "label": "_pendingOwner",
        "offset": 0,
        "slot": "101",
        "type": "t_address"
      },
      {
        "astId": 44851,
        "contract": "src/mainnet-bridge/ETHYieldManager.sol:ETHYieldManager",
        "label": "__gap",
        "offset": 0,
        "slot": "102",
        "type": "t_array(t_uint256)49_storage"
      },
      {
        "astId": 103848,
        "contract": "src/mainnet-bridge/ETHYieldManager.sol:ETHYieldManager",
        "label": "_requests",
        "offset": 0,
        "slot": "151",
        "type": "t_array(t_struct(WithdrawalRequest)103883_storage)dyn_storage"
      },
      {
        "astId": 103853,
        "contract": "src/mainnet-bridge/ETHYieldManager.sol:ETHYieldManager",
        "label": "_requestsByOwner",
        "offset": 0,
        "slot": "152",
        "type": "t_mapping(t_address,t_struct(UintSet)57588_storage)"
      },
      {
        "astId": 103857,
        "contract": "src/mainnet-bridge/ETHYieldManager.sol:ETHYieldManager",
        "label": "_checkpoints",
        "offset": 0,
        "slot": "153",
        "type": "t_array(t_struct(Checkpoint)103904_storage)dyn_storage"
      },
      {
        "astId": 103859,
        "contract": "src/mainnet-bridge/ETHYieldManager.sol:ETHYieldManager",
        "label": "lastRequestId",
        "offset": 0,
        "slot": "154",
        "type": "t_uint256"
      },
      {
        "astId": 103861,
        "contract": "src/mainnet-bridge/ETHYieldManager.sol:ETHYieldManager",
        "label": "lastFinalizedRequestId",
        "offset": 0,
        "slot": "155",
        "type": "t_uint256"
      },
      {
        "astId": 103863,
        "contract": "src/mainnet-bridge/ETHYieldManager.sol:ETHYieldManager",
        "label": "lastCheckpointId",
        "offset": 0,
        "slot": "156",
        "type": "t_uint256"
      },
      {
        "astId": 103865,
        "contract": "src/mainnet-bridge/ETHYieldManager.sol:ETHYieldManager",
        "label": "lockedBalance",
        "offset": 0,
        "slot": "157",
        "type": "t_uint256"
      },
      {
        "astId": 103870,
        "contract": "src/mainnet-bridge/ETHYieldManager.sol:ETHYieldManager",
        "label": "__gap",
        "offset": 0,
        "slot": "158",
        "type": "t_array(t_uint256)42_storage"
      },
      {
        "astId": 102858,
        "contract": "src/mainnet-bridge/ETHYieldManager.sol:ETHYieldManager",
        "label": "_providers",
        "offset": 0,
        "slot": "200",
        "type": "t_struct(AddressSet)57431_storage"
      },
      {
        "astId": 102861,
        "contract": "src/mainnet-bridge/ETHYieldManager.sol:ETHYieldManager",
        "label": "admin",
        "offset": 0,
        "slot": "202",
        "type": "t_address"
      },
      {
        "astId": 102864,
        "contract": "src/mainnet-bridge/ETHYieldManager.sol:ETHYieldManager",
        "label": "insurance",
        "offset": 0,
        "slot": "203",
        "type": "t_address"
      },
      {
        "astId": 102867,
        "contract": "src/mainnet-bridge/ETHYieldManager.sol:ETHYieldManager",
        "label": "blastBridge",
        "offset": 0,
        "slot": "204",
        "type": "t_address"
      },
      {
        "astId": 102870,
        "contract": "src/mainnet-bridge/ETHYieldManager.sol:ETHYieldManager",
        "label": "accumulatedNegativeYields",
        "offset": 0,
        "slot": "205",
        "type": "t_uint256"
      },
      {
        "astId": 102873,
        "contract": "src/mainnet-bridge/ETHYieldManager.sol:ETHYieldManager",
        "label": "insuranceFeeBips",
        "offset": 0,
        "slot": "206",
        "type": "t_uint256"
      },
      {
        "astId": 102876,
        "contract": "src/mainnet-bridge/ETHYieldManager.sol:ETHYieldManager",
        "label": "insuranceWithdrawalBuffer",
        "offset": 0,
        "slot": "207",
        "type": "t_uint256"
      },
      {
        "astId": 102880,
        "contract": "src/mainnet-bridge/ETHYieldManager.sol:ETHYieldManager",
        "label": "portal",
        "offset": 0,
        "slot": "208",
        "type": "t_contract(OptimismPortal)83475"
      },
      {
        "astId": 102885,
        "contract": "src/mainnet-bridge/ETHYieldManager.sol:ETHYieldManager",
        "label": "__gap",
        "offset": 0,
        "slot": "209",
        "type": "t_array(t_uint256)41_storage"
      }
    ],
    "types": {
      "t_address": {
        "encoding": "inplace",
        "label": "address",
        "numberOfBytes": "20"
      },
      "t_array(t_bytes32)dyn_storage": {
        "encoding": "dynamic_array",
        "label": "bytes32[]",
        "numberOfBytes": "32",
        "base": "t_bytes32"
      },
      "t_array(t_struct(Checkpoint)103904_storage)dyn_storage": {
        "encoding": "dynamic_array",
        "label": "struct WithdrawalQueue.Checkpoint[]",
        "numberOfBytes": "32",
        "base": "t_struct(Checkpoint)103904_storage"
      },
      "t_array(t_struct(WithdrawalRequest)103883_storage)dyn_storage": {
        "encoding": "dynamic_array",
        "label": "struct WithdrawalQueue.WithdrawalRequest[]",
        "numberOfBytes": "32",
        "base": "t_struct(WithdrawalRequest)103883_storage"
      },
      "t_array(t_uint256)41_storage": {
        "encoding": "inplace",
        "label": "uint256[41]",
        "numberOfBytes": "1312",
        "base": "t_uint256"
      },
      "t_array(t_uint256)42_storage": {
        "encoding": "inplace",
        "label": "uint256[42]",
        "numberOfBytes": "1344",
        "base": "t_uint256"
      },
      "t_array(t_uint256)49_storage": {
        "encoding": "inplace",
        "label": "uint256[49]",
        "numberOfBytes": "1568",
        "base": "t_uint256"
      },
      "t_array(t_uint256)50_storage": {
        "encoding": "inplace",
        "label": "uint256[50]",
        "numberOfBytes": "1600",
        "base": "t_uint256"
      },
      "t_bool": {
        "encoding": "inplace",
        "label": "bool",
        "numberOfBytes": "1"
      },
      "t_bytes32": {
        "encoding": "inplace",
        "label": "bytes32",
        "numberOfBytes": "32"
      },
      "t_contract(OptimismPortal)83475": {
        "encoding": "inplace",
        "label": "contract OptimismPortal",
        "numberOfBytes": "20"
      },
      "t_mapping(t_address,t_struct(UintSet)57588_storage)": {
        "encoding": "mapping",
        "key": "t_address",
        "label": "mapping(address => struct EnumerableSet.UintSet)",
        "numberOfBytes": "32",
        "value": "t_struct(UintSet)57588_storage"
      },
      "t_mapping(t_bytes32,t_uint256)": {
        "encoding": "mapping",
        "key": "t_bytes32",
        "label": "mapping(bytes32 => uint256)",
        "numberOfBytes": "32",
        "value": "t_uint256"
      },
      "t_struct(AddressSet)57431_storage": {
        "encoding": "inplace",
        "label": "struct EnumerableSet.AddressSet",
        "numberOfBytes": "64",
        "members": [
          {
            "astId": 57430,
            "contract": "src/mainnet-bridge/ETHYieldManager.sol:ETHYieldManager",
            "label": "_inner",
            "offset": 0,
            "slot": "0",
            "type": "t_struct(Set)57130_storage"
          }
        ]
      },
      "t_struct(Checkpoint)103904_storage": {
        "encoding": "inplace",
        "label": "struct WithdrawalQueue.Checkpoint",
        "numberOfBytes": "64",
        "members": [
          {
            "astId": 103901,
            "contract": "src/mainnet-bridge/ETHYieldManager.sol:ETHYieldManager",
            "label": "fromRequestId",
            "offset": 0,
            "slot": "0",
            "type": "t_uint256"
          },
          {
            "astId": 103903,
            "contract": "src/mainnet-bridge/ETHYieldManager.sol:ETHYieldManager",
            "label": "sharePrice",
            "offset": 0,
            "slot": "1",
            "type": "t_uint256"
          }
        ]
      },
      "t_struct(Set)57130_storage": {
        "encoding": "inplace",
        "label": "struct EnumerableSet.Set",
        "numberOfBytes": "64",
        "members": [
          {
            "astId": 57125,
            "contract": "src/mainnet-bridge/ETHYieldManager.sol:ETHYieldManager",
            "label": "_values",
            "offset": 0,
            "slot": "0",
            "type": "t_array(t_bytes32)dyn_storage"
          },
          {
            "astId": 57129,
            "contract": "src/mainnet-bridge/ETHYieldManager.sol:ETHYieldManager",
            "label": "_indexes",
            "offset": 0,
            "slot": "1",
            "type": "t_mapping(t_bytes32,t_uint256)"
          }
        ]
      },
      "t_struct(UintSet)57588_storage": {
        "encoding": "inplace",
        "label": "struct EnumerableSet.UintSet",
        "numberOfBytes": "64",
        "members": [
          {
            "astId": 57587,
            "contract": "src/mainnet-bridge/ETHYieldManager.sol:ETHYieldManager",
            "label": "_inner",
            "offset": 0,
            "slot": "0",
            "type": "t_struct(Set)57130_storage"
          }
        ]
      },
      "t_struct(WithdrawalRequest)103883_storage": {
        "encoding": "inplace",
        "label": "struct WithdrawalQueue.WithdrawalRequest",
        "numberOfBytes": "64",
        "members": [
          {
            "astId": 103873,
            "contract": "src/mainnet-bridge/ETHYieldManager.sol:ETHYieldManager",
            "label": "cumulativeAmount",
            "offset": 0,
            "slot": "0",
            "type": "t_uint128"
          },
          {
            "astId": 103876,
            "contract": "src/mainnet-bridge/ETHYieldManager.sol:ETHYieldManager",
            "label": "recipient",
            "offset": 0,
            "slot": "1",
            "type": "t_address"
          },
          {
            "astId": 103879,
            "contract": "src/mainnet-bridge/ETHYieldManager.sol:ETHYieldManager",
            "label": "timestamp",
            "offset": 20,
            "slot": "1",
            "type": "t_uint40"
          },
          {
            "astId": 103882,
            "contract": "src/mainnet-bridge/ETHYieldManager.sol:ETHYieldManager",
            "label": "claimed",
            "offset": 25,
            "slot": "1",
            "type": "t_bool"
          }
        ]
      },
      "t_uint128": {
        "encoding": "inplace",
        "label": "uint128",
        "numberOfBytes": "16"
      },
      "t_uint256": {
        "encoding": "inplace",
        "label": "uint256",
        "numberOfBytes": "32"
      },
      "t_uint40": {
        "encoding": "inplace",
        "label": "uint40",
        "numberOfBytes": "5"
      },
      "t_uint8": {
        "encoding": "inplace",
        "label": "uint8",
        "numberOfBytes": "1"
      }
    }
  },
  "transactionHash": "0xfbc1947437ce1e5db73f946f3b6068bb5b94adf76dd5684e4cc7265af6789b7f"
}