{
  "abi": [
    {
      "inputs": [],
      "stateMutability": "nonpayable",
      "type": "constructor"
    },
    {
      "anonymous": false,
      "inputs": [
        {
          "indexed": true,
          "internalType": "address",
          "name": "localToken",
          "type": "address"
        },
        {
          "indexed": true,
          "internalType": "address",
          "name": "remoteToken",
          "type": "address"
        },
        {
          "indexed": true,
          "internalType": "address",
          "name": "from",
          "type": "address"
        },
        {
          "indexed": false,
          "internalType": "address",
          "name": "to",
          "type": "address"
        },
        {
          "indexed": false,
          "internalType": "uint256",
          "name": "amount",
          "type": "uint256"
        },
        {
          "indexed": false,
          "internalType": "bytes",
          "name": "extraData",
          "type": "bytes"
        }
      ],
      "name": "ERC20BridgeFinalized",
      "type": "event"
    },
    {
      "anonymous": false,
      "inputs": [
        {
          "indexed": true,
          "internalType": "address",
          "name": "localToken",
          "type": "address"
        },
        {
          "indexed": true,
          "internalType": "address",
          "name": "remoteToken",
          "type": "address"
        },
        {
          "indexed": true,
          "internalType": "address",
          "name": "from",
          "type": "address"
        },
        {
          "indexed": false,
          "internalType": "address",
          "name": "to",
          "type": "address"
        },
        {
          "indexed": false,
          "internalType": "uint256",
          "name": "amount",
          "type": "uint256"
        },
        {
          "indexed": false,
          "internalType": "bytes",
          "name": "extraData",
          "type": "bytes"
        }
      ],
      "name": "ERC20BridgeInitiated",
      "type": "event"
    },
    {
      "anonymous": false,
      "inputs": [
        {
          "indexed": true,
          "internalType": "address",
          "name": "l1Token",
          "type": "address"
        },
        {
          "indexed": true,
          "internalType": "address",
          "name": "l2Token",
          "type": "address"
        },
        {
          "indexed": true,
          "internalType": "address",
          "name": "from",
          "type": "address"
        },
        {
          "indexed": false,
          "internalType": "address",
          "name": "to",
          "type": "address"
        },
        {
          "indexed": false,
          "internalType": "uint256",
          "name": "amount",
          "type": "uint256"
        },
        {
          "indexed": false,
          "internalType": "bytes",
          "name": "extraData",
          "type": "bytes"
        }
      ],
      "name": "ERC20DepositInitiated",
      "type": "event"
    },
    {
      "anonymous": false,
      "inputs": [
        {
          "indexed": true,
          "internalType": "address",
          "name": "l1Token",
          "type": "address"
        },
        {
          "indexed": true,
          "internalType": "address",
          "name": "l2Token",
          "type": "address"
        },
        {
          "indexed": true,
          "internalType": "address",
          "name": "from",
          "type": "address"
        },
        {
          "indexed": false,
          "internalType": "address",
          "name": "to",
          "type": "address"
        },
        {
          "indexed": false,
          "internalType": "uint256",
          "name": "amount",
          "type": "uint256"
        },
        {
          "indexed": false,
          "internalType": "bytes",
          "name": "extraData",
          "type": "bytes"
        }
      ],
      "name": "ERC20WithdrawalFinalized",
      "type": "event"
    },
    {
      "anonymous": false,
      "inputs": [
        {
          "indexed": true,
          "internalType": "address",
          "name": "from",
          "type": "address"
        },
        {
          "indexed": true,
          "internalType": "address",
          "name": "to",
          "type": "address"
        },
        {
          "indexed": false,
          "internalType": "uint256",
          "name": "amount",
          "type": "uint256"
        },
        {
          "indexed": false,
          "internalType": "bytes",
          "name": "extraData",
          "type": "bytes"
        }
      ],
      "name": "ETHBridgeFinalized",
      "type": "event"
    },
    {
      "anonymous": false,
      "inputs": [
        {
          "indexed": true,
          "internalType": "address",
          "name": "from",
          "type": "address"
        },
        {
          "indexed": true,
          "internalType": "address",
          "name": "to",
          "type": "address"
        },
        {
          "indexed": false,
          "internalType": "uint256",
          "name": "amount",
          "type": "uint256"
        },
        {
          "indexed": false,
          "internalType": "bytes",
          "name": "extraData",
          "type": "bytes"
        }
      ],
      "name": "ETHBridgeInitiated",
      "type": "event"
    },
    {
      "anonymous": false,
      "inputs": [
        {
          "indexed": true,
          "internalType": "address",
          "name": "from",
          "type": "address"
        },
        {
          "indexed": true,
          "internalType": "address",
          "name": "to",
          "type": "address"
        },
        {
          "indexed": false,
          "internalType": "uint256",
          "name": "amount",
          "type": "uint256"
        },
        {
          "indexed": false,
          "internalType": "bytes",
          "name": "extraData",
          "type": "bytes"
        }
      ],
      "name": "ETHDepositInitiated",
      "type": "event"
    },
    {
      "anonymous": false,
      "inputs": [
        {
          "indexed": true,
          "internalType": "address",
          "name": "from",
          "type": "address"
        },
        {
          "indexed": true,
          "internalType": "address",
          "name": "to",
          "type": "address"
        },
        {
          "indexed": false,
          "internalType": "uint256",
          "name": "amount",
          "type": "uint256"
        },
        {
          "indexed": false,
          "internalType": "bytes",
          "name": "extraData",
          "type": "bytes"
        }
      ],
      "name": "ETHWithdrawalFinalized",
      "type": "event"
    },
    {
      "anonymous": false,
      "inputs": [
        {
          "indexed": false,
          "internalType": "uint8",
          "name": "version",
          "type": "uint8"
        }
      ],
      "name": "Initialized",
      "type": "event"
    },
    {
      "inputs": [],
      "name": "MESSENGER",
      "outputs": [
        {
          "internalType": "contract CrossDomainMessenger",
          "name": "",
          "type": "address"
        }
      ],
      "stateMutability": "view",
      "type": "function"
    },
    {
      "inputs": [],
      "name": "OTHER_BRIDGE",
      "outputs": [
        {
          "internalType": "contract StandardBridge",
          "name": "",
          "type": "address"
        }
      ],
      "stateMutability": "view",
      "type": "function"
    },
    {
      "inputs": [
        {
          "internalType": "address",
          "name": "_localToken",
          "type": "address"
        },
        {
          "internalType": "address",
          "name": "_remoteToken",
          "type": "address"
        },
        {
          "internalType": "uint256",
          "name": "_amount",
          "type": "uint256"
        },
        {
          "internalType": "uint32",
          "name": "_minGasLimit",
          "type": "uint32"
        },
        {
          "internalType": "bytes",
          "name": "_extraData",
          "type": "bytes"
        }
      ],
      "name": "bridgeERC20",
      "outputs": [],
      "stateMutability": "nonpayable",
      "type": "function"
    },
    {
      "inputs": [
        {
          "internalType": "address",
          "name": "_localToken",
          "type": "address"
        },
        {
          "internalType": "address",
          "name": "_remoteToken",
          "type": "address"
        },
        {
          "internalType": "address",
          "name": "_to",
          "type": "address"
        },
        {
          "internalType": "uint256",
          "name": "_amount",
          "type": "uint256"
        },
        {
          "internalType": "uint32",
          "name": "_minGasLimit",
          "type": "uint32"
        },
        {
          "internalType": "bytes",
          "name": "_extraData",
          "type": "bytes"
        }
      ],
      "name": "bridgeERC20To",
      "outputs": [],
      "stateMutability": "nonpayable",
      "type": "function"
    },
    {
      "inputs": [
        {
          "internalType": "uint32",
          "name": "_minGasLimit",
          "type": "uint32"
        },
        {
          "internalType": "bytes",
          "name": "_extraData",
          "type": "bytes"
        }
      ],
      "name": "bridgeETH",
      "outputs": [],
      "stateMutability": "payable",
      "type": "function"
    },
    {
      "inputs": [
        {
          "internalType": "address",
          "name": "_to",
          "type": "address"
        },
        {
          "internalType": "uint32",
          "name": "_minGasLimit",
          "type": "uint32"
        },
        {
          "internalType": "bytes",
          "name": "_extraData",
          "type": "bytes"
        }
      ],
      "name": "bridgeETHTo",
      "outputs": [],
      "stateMutability": "payable",
      "type": "function"
    },
    {
      "inputs": [
        {
          "internalType": "address",
          "name": "_l1Token",
          "type": "address"
        },
        {
          "internalType": "address",
          "name": "_l2Token",
          "type": "address"
        },
        {
          "internalType": "uint256",
          "name": "_amount",
          "type": "uint256"
        },
        {
          "internalType": "uint32",
          "name": "_minGasLimit",
          "type": "uint32"
        },
        {
          "internalType": "bytes",
          "name": "_extraData",
          "type": "bytes"
        }
      ],
      "name": "depositERC20",
      "outputs": [],
      "stateMutability": "nonpayable",
      "type": "function"
    },
    {
      "inputs": [
        {
          "internalType": "address",
          "name": "_l1Token",
          "type": "address"
        },
        {
          "internalType": "address",
          "name": "_l2Token",
          "type": "address"
        },
        {
          "internalType": "address",
          "name": "_to",
          "type": "address"
        },
        {
          "internalType": "uint256",
          "name": "_amount",
          "type": "uint256"
        },
        {
          "internalType": "uint32",
          "name": "_minGasLimit",
          "type": "uint32"
        },
        {
          "internalType": "bytes",
          "name": "_extraData",
          "type": "bytes"
        }
      ],
      "name": "depositERC20To",
      "outputs": [],
      "stateMutability": "nonpayable",
      "type": "function"
    },
    {
      "inputs": [
        {
          "internalType": "uint32",
          "name": "_minGasLimit",
          "type": "uint32"
        },
        {
          "internalType": "bytes",
          "name": "_extraData",
          "type": "bytes"
        }
      ],
      "name": "depositETH",
      "outputs": [],
      "stateMutability": "payable",
      "type": "function"
    },
    {
      "inputs": [
        {
          "internalType": "address",
          "name": "_to",
          "type": "address"
        },
        {
          "internalType": "uint32",
          "name": "_minGasLimit",
          "type": "uint32"
        },
        {
          "internalType": "bytes",
          "name": "_extraData",
          "type": "bytes"
        }
      ],
      "name": "depositETHTo",
      "outputs": [],
      "stateMutability": "payable",
      "type": "function"
    },
    {
      "inputs": [
        {
          "internalType": "address",
          "name": "",
          "type": "address"
        },
        {
          "internalType": "address",
          "name": "",
          "type": "address"
        }
      ],
      "name": "deposits",
      "outputs": [
        {
          "internalType": "uint256",
          "name": "",
          "type": "uint256"
        }
      ],
      "stateMutability": "view",
      "type": "function"
    },
    {
      "inputs": [
        {
          "internalType": "address",
          "name": "_localToken",
          "type": "address"
        },
        {
          "internalType": "address",
          "name": "_remoteToken",
          "type": "address"
        },
        {
          "internalType": "address",
          "name": "_from",
          "type": "address"
        },
        {
          "internalType": "address",
          "name": "_to",
          "type": "address"
        },
        {
          "internalType": "uint256",
          "name": "_amount",
          "type": "uint256"
        },
        {
          "internalType": "bytes",
          "name": "_extraData",
          "type": "bytes"
        }
      ],
      "name": "finalizeBridgeERC20",
      "outputs": [],
      "stateMutability": "nonpayable",
      "type": "function"
    },
    {
      "inputs": [
        {
          "internalType": "address",
          "name": "_from",
          "type": "address"
        },
        {
          "internalType": "address",
          "name": "_to",
          "type": "address"
        },
        {
          "internalType": "uint256",
          "name": "_amount",
          "type": "uint256"
        },
        {
          "internalType": "bytes",
          "name": "_extraData",
          "type": "bytes"
        }
      ],
      "name": "finalizeBridgeETH",
      "outputs": [],
      "stateMutability": "payable",
      "type": "function"
    },
    {
      "inputs": [
        {
          "internalType": "address",
          "name": "_l1Token",
          "type": "address"
        },
        {
          "internalType": "address",
          "name": "_l2Token",
          "type": "address"
        },
        {
          "internalType": "address",
          "name": "_from",
          "type": "address"
        },
        {
          "internalType": "address",
          "name": "_to",
          "type": "address"
        },
        {
          "internalType": "uint256",
          "name": "_amount",
          "type": "uint256"
        },
        {
          "internalType": "bytes",
          "name": "_extraData",
          "type": "bytes"
        }
      ],
      "name": "finalizeERC20Withdrawal",
      "outputs": [],
      "stateMutability": "nonpayable",
      "type": "function"
    },
    {
      "inputs": [
        {
          "internalType": "address",
          "name": "_from",
          "type": "address"
        },
        {
          "internalType": "address",
          "name": "_to",
          "type": "address"
        },
        {
          "internalType": "uint256",
          "name": "_amount",
          "type": "uint256"
        },
        {
          "internalType": "bytes",
          "name": "_extraData",
          "type": "bytes"
        }
      ],
      "name": "finalizeETHWithdrawal",
      "outputs": [],
      "stateMutability": "payable",
      "type": "function"
    },
    {
      "inputs": [
        {
          "internalType": "contract CrossDomainMessenger",
          "name": "_messenger",
          "type": "address"
        }
      ],
      "name": "initialize",
      "outputs": [],
      "stateMutability": "nonpayable",
      "type": "function"
    },
    {
      "inputs": [],
      "name": "l2TokenBridge",
      "outputs": [
        {
          "internalType": "address",
          "name": "",
          "type": "address"
        }
      ],
      "stateMutability": "view",
      "type": "function"
    },
    {
      "inputs": [],
      "name": "messenger",
      "outputs": [
        {
          "internalType": "contract CrossDomainMessenger",
          "name": "",
          "type": "address"
        }
      ],
      "stateMutability": "view",
      "type": "function"
    },
    {
      "inputs": [],
      "name": "otherBridge",
      "outputs": [
        {
          "internalType": "contract StandardBridge",
          "name": "",
          "type": "address"
        }
      ],
      "stateMutability": "view",
      "type": "function"
    },
    {
      "inputs": [],
      "name": "version",
      "outputs": [
        {
          "internalType": "string",
          "name": "",
          "type": "string"
        }
      ],
      "stateMutability": "view",
      "type": "function"
    },
    {
      "stateMutability": "payable",
      "type": "receive"
    }
  ],
  "address": "0xD2C23A5A280AFF9182b953579f62EDdDF1c7ff22",
  "args": [],
  "bytecode": "0x60a06040523480156200001157600080fd5b507342000000000000000000000000000000000000106080526200003660006200003c565b620001bb565b600054600190610100900460ff161580156200005f575060005460ff8083169116105b620000c85760405162461bcd60e51b815260206004820152602e60248201527f496e697469616c697a61626c653a20636f6e747261637420697320616c72656160448201526d191e481a5b9a5d1a585b1a5e995960921b60648201526084015b60405180910390fd5b6000805461ffff191660ff831617610100179055620000e7826200012c565b6000805461ff001916905560405160ff821681527f7f26b83ff96e1f2b6a682f133852f6798a09c465da95921460cefb38474024989060200160405180910390a15050565b600054610100900460ff16620001995760405162461bcd60e51b815260206004820152602b60248201527f496e697469616c697a61626c653a20636f6e7472616374206973206e6f74206960448201526a6e697469616c697a696e6760a81b6064820152608401620000bf565b600380546001600160a01b0319166001600160a01b0392909216919091179055565b608051611f2c620001fa6000396000818161029b0152818161035201528181610452015281816106e801528181610d5501526111830152611f2c6000f3fe6080604052600436106101235760003560e01c806387087623116100a0578063a9f9e67511610064578063a9f9e675146103a7578063b1a1a882146103c7578063c4d66de8146103da578063c89701a214610343578063e11013dd146103fa57600080fd5b806387087623146102dd5780638f601f66146102fd57806391c49bf814610343578063927ede2d146103765780639a2ac6d51461039457600080fd5b8063540abf73116100e7578063540abf731461020b57806354fd4d501461022b57806358a997f6146102695780637f46ddb214610289578063838b2520146102bd57600080fd5b80630166a07a1461017557806309fc8843146101955780631532ec34146101a85780631635f5fd146101bb5780633cb747bf146101ce57600080fd5b3661017057333b156101505760405162461bcd60e51b815260040161014790611846565b60405180910390fd5b61016e333362030d406040518060200160405280600081525061040d565b005b600080fd5b34801561018157600080fd5b5061016e610190366004611904565b610420565b61016e6101a33660046119b5565b61063b565b61016e6101b6366004611a08565b6106a2565b61016e6101c9366004611a08565b6106b6565b3480156101da57600080fd5b506003546101ee906001600160a01b031681565b6040516001600160a01b0390911681526020015b60405180910390f35b34801561021757600080fd5b5061016e610226366004611a7b565b61098a565b34801561023757600080fd5b5061025c60405180604001604052806005815260200164312e342e3160d81b81525081565b6040516102029190611b4a565b34801561027557600080fd5b5061016e610284366004611b5d565b6109cf565b34801561029557600080fd5b506101ee7f000000000000000000000000000000000000000000000000000000000000000081565b3480156102c957600080fd5b5061016e6102d8366004611a7b565b610a33565b3480156102e957600080fd5b5061016e6102f8366004611b5d565b610a78565b34801561030957600080fd5b50610335610318366004611be0565b600260209081526000928352604080842090915290825290205481565b604051908152602001610202565b34801561034f57600080fd5b507f00000000000000000000000000000000000000000000000000000000000000006101ee565b34801561038257600080fd5b506003546001600160a01b03166101ee565b61016e6103a2366004611c19565b610adc565b3480156103b357600080fd5b5061016e6103c2366004611904565b610b1e565b61016e6103d53660046119b5565b610b2d565b3480156103e657600080fd5b5061016e6103f5366004611c7c565b610b8e565b61016e610408366004611c19565b610c75565b61041a8484348585610cb8565b50505050565b6003546001600160a01b0316331480156104cf575060035460408051636e296e4560e01b815290516001600160a01b037f00000000000000000000000000000000000000000000000000000000000000008116931691636e296e459160048083019260209291908290030181865afa1580156104a0573d6000803e3d6000fd5b505050506040513d601f19601f820116820180604052508101906104c49190611c99565b6001600160a01b0316145b6104eb5760405162461bcd60e51b815260040161014790611cb6565b6104f487610e13565b15610586576105038787610e43565b61051f5760405162461bcd60e51b815260040161014790611d1d565b6040516340c10f1960e01b81526001600160a01b038581166004830152602482018590528816906340c10f1990604401600060405180830381600087803b15801561056957600080fd5b505af115801561057d573d6000803e3d6000fd5b505050506105ee565b6001600160a01b038088166000908152600260209081526040808320938a16835292905220546105b7908490611da3565b6001600160a01b038089166000818152600260209081526040808320948c16835293905291909120919091556105ee908585610f16565b610632878787878787878080601f016020809104026020016040519081016040528093929190818152602001838380828437600092019190915250610f7992505050565b50505050505050565b333b1561065a5760405162461bcd60e51b815260040161014790611846565b61069d3333348686868080601f016020809104026020016040519081016040528093929190818152602001838380828437600092019190915250610cb892505050565b505050565b6106af85858585856106b6565b5050505050565b6003546001600160a01b031633148015610765575060035460408051636e296e4560e01b815290516001600160a01b037f00000000000000000000000000000000000000000000000000000000000000008116931691636e296e459160048083019260209291908290030181865afa158015610736573d6000803e3d6000fd5b505050506040513d601f19601f8201168201806040525081019061075a9190611c99565b6001600160a01b0316145b6107815760405162461bcd60e51b815260040161014790611cb6565b823411156107ef5760405162461bcd60e51b815260206004820152603560248201527f4c315374616e646172644272696467653a20616d6f756e742073656e7420657860448201527418d959591cc8185b5bdd5b9d081c995c5d5a5c9959605a1b6064820152608401610147565b306001600160a01b038516036108555760405162461bcd60e51b815260206004820152602560248201527f4c315374616e646172644272696467653a2063616e6e6f742073656e6420746f6044820152641039b2b63360d91b6064820152608401610147565b6003546001600160a01b03908116908516036108c65760405162461bcd60e51b815260206004820152602a60248201527f4c315374616e646172644272696467653a2063616e6e6f742073656e6420746f6044820152691036b2b9b9b2b733b2b960b11b6064820152608401610147565b61090885853485858080601f016020809104026020016040519081016040528093929190818152602001838380828437600092019190915250610fe092505050565b6000610925855a3460405180602001604052806000815250611039565b9050806109825760405162461bcd60e51b815260206004820152602560248201527f4c315374616e646172644272696467653a20455448207472616e736665722066604482015264185a5b195960da1b6064820152608401610147565b505050505050565b61063287873388888888888080601f01602080910402602001604051908101604052809392919081815260200183838082843760009201919091525061105392505050565b333b156109ee5760405162461bcd60e51b815260040161014790611846565b61098286863333888888888080601f01602080910402602001604051908101604052809392919081815260200183838082843760009201919091525061124692505050565b61063287873388888888888080601f01602080910402602001604051908101604052809392919081815260200183838082843760009201919091525061124692505050565b333b15610a975760405162461bcd60e51b815260040161014790611846565b61098286863333888888888080601f01602080910402602001604051908101604052809392919081815260200183838082843760009201919091525061105392505050565b61041a33858585858080601f01602080910402602001604051908101604052809392919081815260200183838082843760009201919091525061040d92505050565b61063287878787878787610420565b333b15610b4c5760405162461bcd60e51b815260040161014790611846565b61069d33338585858080601f01602080910402602001604051908101604052809392919081815260200183838082843760009201919091525061040d92505050565b600054600190610100900460ff16158015610bb0575060005460ff8083169116105b610c135760405162461bcd60e51b815260206004820152602e60248201527f496e697469616c697a61626c653a20636f6e747261637420697320616c72656160448201526d191e481a5b9a5d1a585b1a5e995960921b6064820152608401610147565b6000805461ffff191660ff831617610100179055610c3082611255565b6000805461ff001916905560405160ff821681527f7f26b83ff96e1f2b6a682f133852f6798a09c465da95921460cefb38474024989060200160405180910390a15050565b61041a3385348686868080601f016020809104026020016040519081016040528093929190818152602001838380828437600092019190915250610cb892505050565b823414610d2d5760405162461bcd60e51b815260206004820152603e60248201527f5374616e646172644272696467653a206272696467696e6720455448206d757360448201527f7420696e636c7564652073756666696369656e74204554482076616c756500006064820152608401610147565b610d39858585846112e2565b6003546040516001600160a01b0390911690633dbb202b9085907f000000000000000000000000000000000000000000000000000000000000000090631635f5fd60e01b90610d92908b908b9086908a90602401611dba565b60408051601f198184030181529181526020820180516001600160e01b03166001600160e01b03199485161790525160e086901b9092168252610dda92918890600401611df7565b6000604051808303818588803b158015610df357600080fd5b505af1158015610e07573d6000803e3d6000fd5b50505050505050505050565b6000610e2682631d1d8b6360e01b61133b565b80610e3d5750610e3d8263ec4fc8e360e01b61133b565b92915050565b6000610e5683631d1d8b6360e01b61133b565b15610ed857826001600160a01b031663c01e1bd66040518163ffffffff1660e01b8152600401602060405180830381865afa158015610e99573d6000803e3d6000fd5b505050506040513d601f19601f82011682018060405250810190610ebd9190611c99565b6001600160a01b0316826001600160a01b0316149050610e3d565b826001600160a01b031663d6c0b2c46040518163ffffffff1660e01b8152600401602060405180830381865afa158015610e99573d6000803e3d6000fd5b6040516001600160a01b03831660248201526044810182905261069d90849063a9059cbb60e01b906064015b60408051601f198184030181529190526020810180516001600160e01b03166001600160e01b03199093169290921790915261135e565b836001600160a01b0316856001600160a01b0316876001600160a01b03167f3ceee06c1e37648fcbb6ed52e17b3e1f275a1f8c7b22a84b2b84732431e046b3868686604051610fca93929190611e31565b60405180910390a4610982868686868686611430565b826001600160a01b0316846001600160a01b03167f2ac69ee804d9a7a0984249f508dfab7cb2534b465b6ce1580f99a38ba9c5e6318484604051611025929190611e61565b60405180910390a361041a84848484611491565b600080600080845160208601878a8af19695505050505050565b61105c87610e13565b156110ee5761106b8787610e43565b6110875760405162461bcd60e51b815260040161014790611d1d565b604051632770a7eb60e21b81526001600160a01b03868116600483015260248201859052881690639dc29fac90604401600060405180830381600087803b1580156110d157600080fd5b505af11580156110e5573d6000803e3d6000fd5b5050505061115b565b6111036001600160a01b0388168630866114e4565b6001600160a01b038088166000908152600260209081526040808320938a1683529290522054611134908490611e7a565b6001600160a01b038089166000908152600260209081526040808320938b16835292905220555b61116987878787878661151c565b6003546040516001600160a01b0390911690633dbb202b907f00000000000000000000000000000000000000000000000000000000000000009062b3503d60e11b906111c3908b908d908c908c908c908b90602401611e92565b60408051601f198184030181529181526020820180516001600160e01b03166001600160e01b03199485161790525160e085901b909216825261120b92918790600401611df7565b600060405180830381600087803b15801561122557600080fd5b505af1158015611239573d6000803e3d6000fd5b5050505050505050505050565b61063287878787878787611053565b600054610100900460ff166112c05760405162461bcd60e51b815260206004820152602b60248201527f496e697469616c697a61626c653a20636f6e7472616374206973206e6f74206960448201526a6e697469616c697a696e6760a81b6064820152608401610147565b600380546001600160a01b0319166001600160a01b0392909216919091179055565b826001600160a01b0316846001600160a01b03167f35d79ab81f2b2017e19afb5c5571778877782d7a8786f5907f93b0f4702f4f238484604051611327929190611e61565b60405180910390a361041a84848484611583565b6000611346836115c8565b8015611357575061135783836115fb565b9392505050565b60006113b3826040518060400160405280602081526020017f5361666545524332303a206c6f772d6c6576656c2063616c6c206661696c6564815250856001600160a01b03166116849092919063ffffffff16565b80519091501561069d57808060200190518101906113d19190611ee1565b61069d5760405162461bcd60e51b815260206004820152602a60248201527f5361666545524332303a204552433230206f7065726174696f6e20646964206e6044820152691bdd081cdd58d8d9595960b21b6064820152608401610147565b836001600160a01b0316856001600160a01b0316876001600160a01b03167fd59c65b35445225835c83f50b6ede06a7be047d22e357073e250d9af537518cd86868660405161148193929190611e31565b60405180910390a4505050505050565b826001600160a01b0316846001600160a01b03167f31b2166ff604fc5672ea5df08a78081d2bc6d746cadce880747f3643d819e83d84846040516114d6929190611e61565b60405180910390a350505050565b6040516001600160a01b038085166024830152831660448201526064810182905261041a9085906323b872dd60e01b90608401610f42565b836001600160a01b0316856001600160a01b0316876001600160a01b03167f718594027abd4eaed59f95162563e0cc6d0e8d5b86b1c7be8b1b0ac3343d039686868660405161156d93929190611e31565b60405180910390a461098286868686868661169b565b826001600160a01b0316846001600160a01b03167f2849b43074093a05396b6f2a937dee8565b15a48a7b3d4bffb732a5017380af584846040516114d6929190611e61565b60006115db826301ffc9a760e01b6115fb565b8015610e3d57506115f4826001600160e01b03196115fb565b1592915050565b604080516001600160e01b03198316602480830191909152825180830390910181526044909101909152602080820180516001600160e01b03166301ffc9a760e01b178152825160009392849283928392918391908a617530fa92503d9150600051905082801561166d575060208210155b80156116795750600081115b979650505050505050565b606061169384846000856116ec565b949350505050565b836001600160a01b0316856001600160a01b0316876001600160a01b03167f7ff126db8024424bbfd9826e8ab82ff59136289ea440b04b39a0df1b03b9cabf86868660405161148193929190611e31565b60608247101561174d5760405162461bcd60e51b815260206004820152602660248201527f416464726573733a20696e73756666696369656e742062616c616e636520666f6044820152651c8818d85b1b60d21b6064820152608401610147565b6001600160a01b0385163b6117a45760405162461bcd60e51b815260206004820152601d60248201527f416464726573733a2063616c6c20746f206e6f6e2d636f6e74726163740000006044820152606401610147565b600080866001600160a01b031685876040516117c09190611f03565b60006040518083038185875af1925050503d80600081146117fd576040519150601f19603f3d011682016040523d82523d6000602084013e611802565b606091505b50915091506116798282866060831561181c575081611357565b82511561182c5782518084602001fd5b8160405162461bcd60e51b81526004016101479190611b4a565b60208082526037908201527f5374616e646172644272696467653a2066756e6374696f6e2063616e206f6e6c60408201527f792062652063616c6c65642066726f6d20616e20454f41000000000000000000606082015260800190565b6001600160a01b03811681146118b857600080fd5b50565b60008083601f8401126118cd57600080fd5b50813567ffffffffffffffff8111156118e557600080fd5b6020830191508360208285010111156118fd57600080fd5b9250929050565b600080600080600080600060c0888a03121561191f57600080fd5b873561192a816118a3565b9650602088013561193a816118a3565b9550604088013561194a816118a3565b9450606088013561195a816118a3565b93506080880135925060a088013567ffffffffffffffff81111561197d57600080fd5b6119898a828b016118bb565b989b979a50959850939692959293505050565b803563ffffffff811681146119b057600080fd5b919050565b6000806000604084860312156119ca57600080fd5b6119d38461199c565b9250602084013567ffffffffffffffff8111156119ef57600080fd5b6119fb868287016118bb565b9497909650939450505050565b600080600080600060808688031215611a2057600080fd5b8535611a2b816118a3565b94506020860135611a3b816118a3565b935060408601359250606086013567ffffffffffffffff811115611a5e57600080fd5b611a6a888289016118bb565b969995985093965092949392505050565b600080600080600080600060c0888a031215611a9657600080fd5b8735611aa1816118a3565b96506020880135611ab1816118a3565b95506040880135611ac1816118a3565b945060608801359350611ad66080890161199c565b925060a088013567ffffffffffffffff81111561197d57600080fd5b60005b83811015611b0d578181015183820152602001611af5565b8381111561041a5750506000910152565b60008151808452611b36816020860160208601611af2565b601f01601f19169290920160200192915050565b6020815260006113576020830184611b1e565b60008060008060008060a08789031215611b7657600080fd5b8635611b81816118a3565b95506020870135611b91816118a3565b945060408701359350611ba66060880161199c565b9250608087013567ffffffffffffffff811115611bc257600080fd5b611bce89828a016118bb565b979a9699509497509295939492505050565b60008060408385031215611bf357600080fd5b8235611bfe816118a3565b91506020830135611c0e816118a3565b809150509250929050565b60008060008060608587031215611c2f57600080fd5b8435611c3a816118a3565b9350611c486020860161199c565b9250604085013567ffffffffffffffff811115611c6457600080fd5b611c70878288016118bb565b95989497509550505050565b600060208284031215611c8e57600080fd5b8135611357816118a3565b600060208284031215611cab57600080fd5b8151611357816118a3565b60208082526041908201527f5374616e646172644272696467653a2066756e6374696f6e2063616e206f6e6c60408201527f792062652063616c6c65642066726f6d20746865206f746865722062726964676060820152606560f81b608082015260a00190565b6020808252604a908201527f5374616e646172644272696467653a2077726f6e672072656d6f746520746f6b60408201527f656e20666f72204f7074696d69736d204d696e7461626c65204552433230206c60608201526937b1b0b6103a37b5b2b760b11b608082015260a00190565b634e487b7160e01b600052601160045260246000fd5b600082821015611db557611db5611d8d565b500390565b6001600160a01b0385811682528416602082015260408101839052608060608201819052600090611ded90830184611b1e565b9695505050505050565b6001600160a01b0384168152606060208201819052600090611e1b90830185611b1e565b905063ffffffff83166040830152949350505050565b60018060a01b0384168152826020820152606060408201526000611e586060830184611b1e565b95945050505050565b8281526040602082015260006116936040830184611b1e565b60008219821115611e8d57611e8d611d8d565b500190565b6001600160a01b03878116825286811660208301528581166040830152841660608201526080810183905260c060a08201819052600090611ed590830184611b1e565b98975050505050505050565b600060208284031215611ef357600080fd5b8151801515811461135757600080fd5b60008251611f15818460208701611af2565b919091019291505056fea164736f6c634300080f000a",
  "numDeployments": 1,
  "solcInputHash": "0x0000000000000000000000000000000000000000000000000000000000000000",
  "storageLayout": {
    "storage": [
      {
        "astId": 45016,
        "contract": "src/L1/L1StandardBridge.sol:L1StandardBridge",
        "label": "_initialized",
        "offset": 0,
        "slot": "0",
        "type": "t_uint8"
      },
      {
        "astId": 45019,
        "contract": "src/L1/L1StandardBridge.sol:L1StandardBridge",
        "label": "_initializing",
        "offset": 1,
        "slot": "0",
        "type": "t_bool"
      },
      {
        "astId": 112138,
        "contract": "src/L1/L1StandardBridge.sol:L1StandardBridge",
        "label": "spacer_0_2_20",
        "offset": 2,
        "slot": "0",
        "type": "t_address"
      },
      {
        "astId": 112141,
        "contract": "src/L1/L1StandardBridge.sol:L1StandardBridge",
        "label": "spacer_1_0_20",
        "offset": 0,
        "slot": "1",
        "type": "t_address"
      },
      {
        "astId": 112148,
        "contract": "src/L1/L1StandardBridge.sol:L1StandardBridge",
        "label": "deposits",
        "offset": 0,
        "slot": "2",
        "type": "t_mapping(t_address,t_mapping(t_address,t_uint256))"
      },
      {
        "astId": 112152,
        "contract": "src/L1/L1StandardBridge.sol:L1StandardBridge",
        "label": "messenger",
        "offset": 0,
        "slot": "3",
        "type": "t_contract(CrossDomainMessenger)110022"
      },
      {
        "astId": 112157,
        "contract": "src/L1/L1StandardBridge.sol:L1StandardBridge",
        "label": "__gap",
        "offset": 0,
        "slot": "4",
        "type": "t_array(t_uint256)46_storage"
      }
    ],
    "types": {
      "t_address": {
        "encoding": "inplace",
        "label": "address",
        "numberOfBytes": "20"
      },
      "t_array(t_uint256)46_storage": {
        "encoding": "inplace",
        "label": "uint256[46]",
        "numberOfBytes": "1472",
        "base": "t_uint256"
      },
      "t_bool": {
        "encoding": "inplace",
        "label": "bool",
        "numberOfBytes": "1"
      },
      "t_contract(CrossDomainMessenger)110022": {
        "encoding": "inplace",
        "label": "contract CrossDomainMessenger",
        "numberOfBytes": "20"
      },
      "t_mapping(t_address,t_mapping(t_address,t_uint256))": {
        "encoding": "mapping",
        "key": "t_address",
        "label": "mapping(address => mapping(address => uint256))",
        "numberOfBytes": "32",
        "value": "t_mapping(t_address,t_uint256)"
      },
      "t_mapping(t_address,t_uint256)": {
        "encoding": "mapping",
        "key": "t_address",
        "label": "mapping(address => uint256)",
        "numberOfBytes": "32",
        "value": "t_uint256"
      },
      "t_uint256": {
        "encoding": "inplace",
        "label": "uint256",
        "numberOfBytes": "32"
      },
      "t_uint8": {
        "encoding": "inplace",
        "label": "uint8",
        "numberOfBytes": "1"
      }
    }
  },
  "transactionHash": "0x442a958fbda2d2b4f407f398391009407ba86ef34822af14652073d9cc0eeaf2"
}