{
  "abi": [
    {
      "inputs": [
        {
          "internalType": "contract YieldManager",
          "name": "_yieldManager",
          "type": "address"
        }
      ],
      "stateMutability": "nonpayable",
      "type": "constructor"
    },
    {
      "inputs": [],
      "name": "CallerIsNotYieldManager",
      "type": "error"
    },
    {
      "inputs": [],
      "name": "ContextIsNotYieldManager",
      "type": "error"
    },
    {
      "inputs": [],
      "name": "InsufficientStakableFunds",
      "type": "error"
    },
    {
      "inputs": [],
      "name": "NotSupported",
      "type": "error"
    },
    {
      "anonymous": false,
      "inputs": [
        {
          "indexed": true,
          "internalType": "bytes32",
          "name": "provider",
          "type": "bytes32"
        },
        {
          "indexed": false,
          "internalType": "uint256",
          "name": "claimedAmount",
          "type": "uint256"
        },
        {
          "indexed": false,
          "internalType": "uint256",
          "name": "expectedAmount",
          "type": "uint256"
        }
      ],
      "name": "Claimed",
      "type": "event"
    },
    {
      "anonymous": false,
      "inputs": [
        {
          "indexed": true,
          "internalType": "bytes32",
          "name": "provider",
          "type": "bytes32"
        },
        {
          "indexed": false,
          "internalType": "uint256",
          "name": "amount",
          "type": "uint256"
        }
      ],
      "name": "InsurancePremiumPaid",
      "type": "event"
    },
    {
      "anonymous": false,
      "inputs": [
        {
          "indexed": true,
          "internalType": "bytes32",
          "name": "provider",
          "type": "bytes32"
        },
        {
          "indexed": false,
          "internalType": "uint256",
          "name": "amount",
          "type": "uint256"
        }
      ],
      "name": "InsuranceWithdrawn",
      "type": "event"
    },
    {
      "anonymous": false,
      "inputs": [
        {
          "indexed": true,
          "internalType": "uint256",
          "name": "requestId",
          "type": "uint256"
        },
        {
          "indexed": false,
          "internalType": "uint256",
          "name": "amount",
          "type": "uint256"
        }
      ],
      "name": "LidoUnstakeInitiated",
      "type": "event"
    },
    {
      "anonymous": false,
      "inputs": [
        {
          "indexed": true,
          "internalType": "bytes32",
          "name": "provider",
          "type": "bytes32"
        },
        {
          "indexed": false,
          "internalType": "uint256",
          "name": "amount",
          "type": "uint256"
        }
      ],
      "name": "Pending",
      "type": "event"
    },
    {
      "anonymous": false,
      "inputs": [
        {
          "indexed": true,
          "internalType": "bytes32",
          "name": "provider",
          "type": "bytes32"
        },
        {
          "indexed": false,
          "internalType": "uint256",
          "name": "amount",
          "type": "uint256"
        }
      ],
      "name": "Staked",
      "type": "event"
    },
    {
      "anonymous": false,
      "inputs": [
        {
          "indexed": true,
          "internalType": "bytes32",
          "name": "provider",
          "type": "bytes32"
        },
        {
          "indexed": false,
          "internalType": "uint256",
          "name": "amount",
          "type": "uint256"
        }
      ],
      "name": "Unstaked",
      "type": "event"
    },
    {
      "anonymous": false,
      "inputs": [
        {
          "indexed": true,
          "internalType": "bytes32",
          "name": "provider",
          "type": "bytes32"
        },
        {
          "indexed": false,
          "internalType": "int256",
          "name": "yield",
          "type": "int256"
        }
      ],
      "name": "YieldCommit",
      "type": "event"
    },
    {
      "inputs": [],
      "name": "LIDO",
      "outputs": [
        {
          "internalType": "contract ILido",
          "name": "",
          "type": "address"
        }
      ],
      "stateMutability": "view",
      "type": "function"
    },
    {
      "inputs": [],
      "name": "THIS",
      "outputs": [
        {
          "internalType": "address",
          "name": "",
          "type": "address"
        }
      ],
      "stateMutability": "view",
      "type": "function"
    },
    {
      "inputs": [],
      "name": "WITHDRAWAL_QUEUE",
      "outputs": [
        {
          "internalType": "contract IWithdrawalQueue",
          "name": "",
          "type": "address"
        }
      ],
      "stateMutability": "view",
      "type": "function"
    },
    {
      "inputs": [],
      "name": "YIELD_MANAGER",
      "outputs": [
        {
          "internalType": "contract YieldManager",
          "name": "",
          "type": "address"
        }
      ],
      "stateMutability": "view",
      "type": "function"
    },
    {
      "inputs": [],
      "name": "claimBatchSize",
      "outputs": [
        {
          "internalType": "uint256",
          "name": "",
          "type": "uint256"
        }
      ],
      "stateMutability": "view",
      "type": "function"
    },
    {
      "inputs": [],
      "name": "commitYield",
      "outputs": [
        {
          "internalType": "int256",
          "name": "",
          "type": "int256"
        }
      ],
      "stateMutability": "nonpayable",
      "type": "function"
    },
    {
      "inputs": [
        {
          "internalType": "uint256",
          "name": "lidoRequestId",
          "type": "uint256"
        }
      ],
      "name": "enqueueUnstakeRequest",
      "outputs": [],
      "stateMutability": "nonpayable",
      "type": "function"
    },
    {
      "inputs": [],
      "name": "id",
      "outputs": [
        {
          "internalType": "bytes32",
          "name": "",
          "type": "bytes32"
        }
      ],
      "stateMutability": "view",
      "type": "function"
    },
    {
      "inputs": [],
      "name": "initialize",
      "outputs": [],
      "stateMutability": "nonpayable",
      "type": "function"
    },
    {
      "inputs": [],
      "name": "insuranceBalance",
      "outputs": [
        {
          "internalType": "uint256",
          "name": "",
          "type": "uint256"
        }
      ],
      "stateMutability": "view",
      "type": "function"
    },
    {
      "inputs": [
        {
          "internalType": "address",
          "name": "token",
          "type": "address"
        }
      ],
      "name": "isStakingEnabled",
      "outputs": [
        {
          "internalType": "bool",
          "name": "",
          "type": "bool"
        }
      ],
      "stateMutability": "view",
      "type": "function"
    },
    {
      "inputs": [],
      "name": "lastClaimedIndex",
      "outputs": [
        {
          "internalType": "uint256",
          "name": "",
          "type": "uint256"
        }
      ],
      "stateMutability": "view",
      "type": "function"
    },
    {
      "inputs": [],
      "name": "lastUnstakeRequestIndex",
      "outputs": [
        {
          "internalType": "uint256",
          "name": "",
          "type": "uint256"
        }
      ],
      "stateMutability": "view",
      "type": "function"
    },
    {
      "inputs": [],
      "name": "name",
      "outputs": [
        {
          "internalType": "string",
          "name": "",
          "type": "string"
        }
      ],
      "stateMutability": "pure",
      "type": "function"
    },
    {
      "inputs": [
        {
          "internalType": "uint256",
          "name": "amount",
          "type": "uint256"
        }
      ],
      "name": "payInsurancePremium",
      "outputs": [],
      "stateMutability": "nonpayable",
      "type": "function"
    },
    {
      "inputs": [],
      "name": "pendingBalance",
      "outputs": [
        {
          "internalType": "uint256",
          "name": "",
          "type": "uint256"
        }
      ],
      "stateMutability": "view",
      "type": "function"
    },
    {
      "inputs": [],
      "name": "preCommitYieldReportDelegateCallHook",
      "outputs": [],
      "stateMutability": "nonpayable",
      "type": "function"
    },
    {
      "inputs": [
        {
          "internalType": "uint256",
          "name": "claimed",
          "type": "uint256"
        },
        {
          "internalType": "uint256",
          "name": "expected",
          "type": "uint256"
        }
      ],
      "name": "recordClaimed",
      "outputs": [],
      "stateMutability": "nonpayable",
      "type": "function"
    },
    {
      "inputs": [
        {
          "internalType": "uint256",
          "name": "amount",
          "type": "uint256"
        }
      ],
      "name": "recordStakedDeposit",
      "outputs": [],
      "stateMutability": "nonpayable",
      "type": "function"
    },
    {
      "inputs": [
        {
          "internalType": "uint256",
          "name": "pending",
          "type": "uint256"
        },
        {
          "internalType": "uint256",
          "name": "claimed",
          "type": "uint256"
        },
        {
          "internalType": "uint256",
          "name": "expected",
          "type": "uint256"
        }
      ],
      "name": "recordUnstaked",
      "outputs": [],
      "stateMutability": "nonpayable",
      "type": "function"
    },
    {
      "inputs": [
        {
          "internalType": "uint256",
          "name": "index",
          "type": "uint256"
        }
      ],
      "name": "setLastClaimedIndex",
      "outputs": [],
      "stateMutability": "nonpayable",
      "type": "function"
    },
    {
      "inputs": [
        {
          "internalType": "uint256",
          "name": "amount",
          "type": "uint256"
        }
      ],
      "name": "stake",
      "outputs": [],
      "stateMutability": "nonpayable",
      "type": "function"
    },
    {
      "inputs": [],
      "name": "stakedBalance",
      "outputs": [
        {
          "internalType": "uint256",
          "name": "",
          "type": "uint256"
        }
      ],
      "stateMutability": "view",
      "type": "function"
    },
    {
      "inputs": [],
      "name": "stakedPrincipal",
      "outputs": [
        {
          "internalType": "uint256",
          "name": "",
          "type": "uint256"
        }
      ],
      "stateMutability": "view",
      "type": "function"
    },
    {
      "inputs": [],
      "name": "supportsInsurancePayment",
      "outputs": [
        {
          "internalType": "bool",
          "name": "",
          "type": "bool"
        }
      ],
      "stateMutability": "view",
      "type": "function"
    },
    {
      "inputs": [],
      "name": "totalValue",
      "outputs": [
        {
          "internalType": "uint256",
          "name": "",
          "type": "uint256"
        }
      ],
      "stateMutability": "view",
      "type": "function"
    },
    {
      "inputs": [
        {
          "internalType": "uint256",
          "name": "amount",
          "type": "uint256"
        }
      ],
      "name": "unstake",
      "outputs": [
        {
          "internalType": "uint256",
          "name": "pending",
          "type": "uint256"
        },
        {
          "internalType": "uint256",
          "name": "claimed",
          "type": "uint256"
        }
      ],
      "stateMutability": "nonpayable",
      "type": "function"
    },
    {
      "inputs": [
        {
          "internalType": "uint256",
          "name": "",
          "type": "uint256"
        }
      ],
      "name": "unstakeRequests",
      "outputs": [
        {
          "internalType": "uint256",
          "name": "",
          "type": "uint256"
        }
      ],
      "stateMutability": "view",
      "type": "function"
    },
    {
      "inputs": [],
      "name": "version",
      "outputs": [
        {
          "internalType": "string",
          "name": "",
          "type": "string"
        }
      ],
      "stateMutability": "view",
      "type": "function"
    },
    {
      "inputs": [
        {
          "internalType": "uint256",
          "name": "amount",
          "type": "uint256"
        }
      ],
      "name": "withdrawFromInsurance",
      "outputs": [],
      "stateMutability": "nonpayable",
      "type": "function"
    },
    {
      "inputs": [],
      "name": "yield",
      "outputs": [
        {
          "internalType": "int256",
          "name": "",
          "type": "int256"
        }
      ],
      "stateMutability": "view",
      "type": "function"
    }
  ],
  "address": "0x4316A00D31da1313617DbB04fD92F9fF8D1aF7Db",
  "args": [
    "0x98078db053902644191f93988341E31289E1C8FE"
  ],
  "bytecode": "0x610140604052600a610120523480156200001857600080fd5b5060405162002781380380620027818339810160408190526200003b91620000ab565b6001608052600060a081905260c05280306001600160a01b038216036200006157600080fd5b6001600160a01b031660e0525030610100526002805460018101825560009182527f405787fa12a823e0f2b7631cc41b3ba8828b3321ca811111fa75cd3aa3bb5ace0155620000dd565b600060208284031215620000be57600080fd5b81516001600160a01b0381168114620000d657600080fd5b9392505050565b60805160a05160c05160e0516101005161012051612590620001f160003960008181610240015281816116d3015261170e015260008181610267015281816106fd015261157a0152600081816102ae01528181610488015281816105bd01528181610670015281816107ca0152818161081f01528181610870015281816109ba01528181610a1101528181610ac701528181610c0301528181610cea01528181610d8701528181610e0501528181610e9301528181610fcc0152818161100c01528181611193015281816112420152818161133c01528181611406015281816115380152818161198c01528181611c150152611cd801526000610959015260006109300152600061090701526125906000f3fe608060405234801561001057600080fd5b50600436106101e55760003560e01c8063699340f41161010f578063bbaff1e2116100a2578063ecc7f64211610071578063ecc7f6421461042a578063f304f5e51461043d578063f87975af14610445578063fffdfcdd1461045857600080fd5b8063bbaff1e2146103e9578063d4c3eea0146103fc578063d6696c3414610404578063e0c784551461041757600080fd5b80638b21f170116100de5780638b21f170146103a05780639b757594146103bb578063a694fc3a146103ce578063af640d0f146103e157600080fd5b8063699340f4146103615780638129fc1c1461037c57806385254adf146103845780638607cfbc1461038d57600080fd5b80632e17de781161018757806354fd4d501161015657806354fd4d501461033557806357b4d18e1461033d5780635b9f00161461034657806366785d931461034e57600080fd5b80632e17de78146102d857806347bc48381461030057806349fbb83c1461030a5780634bfb431f1461031d57600080fd5b80630b6014e9116101c35780630b6014e9146102625780631223a75a146102a1578063219ebb9c146102a957806328593984146102d057600080fd5b80630577d6d5146101ea57806306fdde03146102055780630975e1131461023b575b600080fd5b6101f2610461565b6040519081526020015b60405180910390f35b6040805180820190915260118152702634b237acb4b2b632283937bb34b232b960791b60208201525b6040516101fc9190611fa3565b6101f27f000000000000000000000000000000000000000000000000000000000000000081565b6102897f000000000000000000000000000000000000000000000000000000000000000081565b6040516001600160a01b0390911681526020016101fc565b6101f2610576565b6102897f000000000000000000000000000000000000000000000000000000000000000081565b6101f2610588565b6102eb6102e6366004611fd6565b6105af565b604080519283526020830191909152016101fc565b6103086107bf565b005b610308610318366004611fd6565b610814565b610325610862565b60405190151581526020016101fc565b61022e610900565b6101f260015481565b6101f26109a3565b61030861035c366004611fd6565b610a06565b61028973889edc2edab5f40e902b864ad4d7ade8e412f9b181565b610308610bf8565b6101f260005481565b61030861039b366004611fd6565b610d7c565b61028973ae7ab96520de3a18e5e111b5eaab095312d7fe8481565b6103086103c9366004611fd6565b610dfa565b6103086103dc366004611fd6565b610fc1565b6101f2611124565b6103086103f7366004611fd6565b611188565b6101f2611220565b610308610412366004611fef565b611237565b610325610425366004612026565b61128a565b61030861043836600461204a565b611331565b6101f26113f9565b6101f2610453366004611fd6565b61149b565b6101f260035481565b600073ae7ab96520de3a18e5e111b5eaab095312d7fe846001600160a01b03166370a082317f00000000000000000000000000000000000000000000000000000000000000006001600160a01b03166389cf32046040518163ffffffff1660e01b8152600401602060405180830381865afa1580156104e4573d6000803e3d6000fd5b505050506040513d601f19601f820116820180604052508101906105089190612076565b6040516001600160e01b031960e084901b1681526001600160a01b0390911660048201526024015b602060405180830381865afa15801561054d573d6000803e3d6000fd5b505050506040513d601f19601f820116820180604052508101906105719190612093565b905090565b600254600090610571906001906120c2565b60006105956000546114bc565b6105a56105a06109a3565b6114bc565b61057191906120d9565b600080306001600160a01b037f000000000000000000000000000000000000000000000000000000000000000016146105fb576040516356adf13560e11b815260040160405180910390fd5b6040805160018082528183019092526000916020808301908036833701905050905083816000815181106106315761063161212e565b6020908102919091010152604051636b34082160e11b815260009073889edc2edab5f40e902b864ad4d7ade8e412f9b19063d6681042906106989085907f00000000000000000000000000000000000000000000000000000000000000009060040161217f565b6000604051808303816000875af11580156106b7573d6000803e3d6000fd5b505050506040513d6000823e601f3d908101601f191682016040526106df9190810190612227565b6000815181106106f1576106f161212e565b602002602001015190507f00000000000000000000000000000000000000000000000000000000000000006001600160a01b0316638607cfbc826040518263ffffffff1660e01b815260040161074991815260200190565b600060405180830381600087803b15801561076357600080fd5b505af1158015610777573d6000803e3d6000fd5b50505050807f3a08f8b9539a8aa14387f6b7142791e654c662badc5fe365c2d742f55f8cd348866040516107ad91815260200190565b60405180910390a28493505050915091565b306001600160a01b037f00000000000000000000000000000000000000000000000000000000000000001614610808576040516356adf13560e11b815260040160405180910390fd5b61081061152a565b5050565b336001600160a01b037f0000000000000000000000000000000000000000000000000000000000000000161461085d5760405163a1cfbf5960e01b815260040160405180910390fd5b600355565b6000806001600160a01b03167f00000000000000000000000000000000000000000000000000000000000000006001600160a01b03166389cf32046040518163ffffffff1660e01b8152600401602060405180830381865afa1580156108cc573d6000803e3d6000fd5b505050506040513d601f19601f820116820180604052508101906108f09190612076565b6001600160a01b03161415905090565b606061092b7f0000000000000000000000000000000000000000000000000000000000000000611d4e565b6109547f0000000000000000000000000000000000000000000000000000000000000000611d4e565b61097d7f0000000000000000000000000000000000000000000000000000000000000000611d4e565b60405160200161098f939291906122bd565b604051602081830303815290604052905090565b6040516370a0823160e01b81526001600160a01b037f000000000000000000000000000000000000000000000000000000000000000016600482015260009073ae7ab96520de3a18e5e111b5eaab095312d7fe84906370a0823190602401610530565b306001600160a01b037f00000000000000000000000000000000000000000000000000000000000000001614610a4f576040516356adf13560e11b815260040160405180910390fd5b610a57610862565b610aa25760405162461bcd60e51b81526020600482015260176024820152761a5b9cdd5c985b98d9481b9bdd081cdd5c1c1bdc9d1959604a1b60448201526064015b60405180910390fd5b73ae7ab96520de3a18e5e111b5eaab095312d7fe846001600160a01b031663a9059cbb7f00000000000000000000000000000000000000000000000000000000000000006001600160a01b03166389cf32046040518163ffffffff1660e01b8152600401602060405180830381865afa158015610b23573d6000803e3d6000fd5b505050506040513d601f19601f82011682018060405250810190610b479190612076565b6040516001600160e01b031960e084901b1681526001600160a01b039091166004820152602481018490526044016020604051808303816000875af1158015610b94573d6000803e3d6000fd5b505050506040513d601f19601f82011682018060405250810190610bb8919061232c565b50610bc1611124565b6040518281527faffd2c8a23858f2212a849a3444eb4c3fb22123fbca27db6fe859fa0d4c5cc3f906020015b60405180910390a250565b306001600160a01b037f00000000000000000000000000000000000000000000000000000000000000001614610c41576040516356adf13560e11b815260040160405180910390fd5b60405163095ea7b360e01b815273889edc2edab5f40e902b864ad4d7ade8e412f9b16004820152600019602482015273ae7ab96520de3a18e5e111b5eaab095312d7fe849063095ea7b3906044016020604051808303816000875af1158015610cae573d6000803e3d6000fd5b505050506040513d601f19601f82011682018060405250810190610cd2919061232c565b5060405163095ea7b360e01b81526001600160a01b037f0000000000000000000000000000000000000000000000000000000000000000166004820152600019602482015273ae7ab96520de3a18e5e111b5eaab095312d7fe849063095ea7b3906044016020604051808303816000875af1158015610d55573d6000803e3d6000fd5b505050506040513d601f19601f82011682018060405250810190610d79919061232c565b50565b336001600160a01b037f00000000000000000000000000000000000000000000000000000000000000001614610dc55760405163a1cfbf5960e01b815260040160405180910390fd5b600280546001810182556000919091527f405787fa12a823e0f2b7631cc41b3ba8828b3321ca811111fa75cd3aa3bb5ace0155565b306001600160a01b037f00000000000000000000000000000000000000000000000000000000000000001614610e43576040516356adf13560e11b815260040160405180910390fd5b610e4b610862565b610e915760405162461bcd60e51b81526020600482015260176024820152761a5b9cdd5c985b98d9481b9bdd081cdd5c1c1bdc9d1959604a1b6044820152606401610a99565b7f00000000000000000000000000000000000000000000000000000000000000006001600160a01b03166389cf32046040518163ffffffff1660e01b8152600401602060405180830381865afa158015610eef573d6000803e3d6000fd5b505050506040513d601f19601f82011682018060405250810190610f139190612076565b604051631a3f4bd360e31b815273ae7ab96520de3a18e5e111b5eaab095312d7fe846004820152602481018390526001600160a01b03919091169063d1fa5e9890604401600060405180830381600087803b158015610f7157600080fd5b505af1158015610f85573d6000803e3d6000fd5b50505050610f91611124565b6040518281527fb3043c5816fb49ca84ebff0b0bb517bd2622af93452a267f3404513cf549fc1b90602001610bed565b306001600160a01b037f0000000000000000000000000000000000000000000000000000000000000000161461100a576040516356adf13560e11b815260040160405180910390fd5b7f00000000000000000000000000000000000000000000000000000000000000006001600160a01b031663ab2f0e516040518163ffffffff1660e01b8152600401602060405180830381865afa158015611068573d6000803e3d6000fd5b505050506040513d601f19601f8201168201806040525081019061108c9190612093565b8111156110ac576040516360c6463f60e11b815260040160405180910390fd5b60405163a1903eab60e01b81526000600482015273ae7ab96520de3a18e5e111b5eaab095312d7fe849063a1903eab90839060240160206040518083038185885af11580156110ff573d6000803e3d6000fd5b50505050506040513d601f19601f820116820180604052508101906108109190612093565b60006111546040805180820190915260118152702634b237acb4b2b632283937bb34b232b960791b602082015290565b61115c610900565b60405160200161116d929190612347565b60405160208183030381529060405280519060200120905090565b336001600160a01b037f000000000000000000000000000000000000000000000000000000000000000016146111d15760405163a1cfbf5960e01b815260040160405180910390fd5b806000808282546111e29190612376565b909155506111f09050611124565b6040518281527fad8699b31aa71e27625c441f641b4732d76e1b7475068543aaaee79bd2c3d1f690602001610bed565b600060015461122d6109a3565b6105719190612376565b336001600160a01b037f000000000000000000000000000000000000000000000000000000000000000016146112805760405163a1cfbf5960e01b815260040160405180910390fd5b6108108282611e57565b60006001600160a01b03821673ae7ab96520de3a18e5e111b5eaab095312d7fe8414801561132b575073ae7ab96520de3a18e5e111b5eaab095312d7fe846001600160a01b0316631ea7ca896040518163ffffffff1660e01b8152600401602060405180830381865afa158015611305573d6000803e3d6000fd5b505050506040513d601f19601f82011682018060405250810190611329919061232c565b155b92915050565b336001600160a01b037f0000000000000000000000000000000000000000000000000000000000000000161461137a5760405163a1cfbf5960e01b815260040160405180910390fd5b61138381611ed4565b82156113bb578115801561139657508083145b6113b25760405162461bcd60e51b8152600401610a999061238e565b6113bb83611f23565b81156113f457821580156113ce57508082145b6113ea5760405162461bcd60e51b8152600401610a999061238e565b6113f48282611e57565b505050565b6000336001600160a01b037f000000000000000000000000000000000000000000000000000000000000000016146114445760405163a1cfbf5960e01b815260040160405180910390fd5b600061144e610588565b90506114586109a3565b600055611463611124565b6040518281527ffa0a4034400e62602f330f5e62f285a6baa4bdfb16c11b3ff7c4b65ce7f7d76f9060200160405180910390a2905090565b600281815481106114ab57600080fd5b600091825260209091200154905081565b60006001600160ff1b038211156115265760405162461bcd60e51b815260206004820152602860248201527f53616665436173743a2076616c756520646f65736e27742066697420696e2061604482015267371034b73a191a9b60c11b6064820152608401610a99565b5090565b600080306001600160a01b037f00000000000000000000000000000000000000000000000000000000000000001614611576576040516356adf13560e11b815260040160405180910390fd5b60007f000000000000000000000000000000000000000000000000000000000000000090506000816001600160a01b031663fffdfcdd6040518163ffffffff1660e01b8152600401602060405180830381865afa1580156115db573d6000803e3d6000fd5b505050506040513d601f19601f820116820180604052508101906115ff9190612093565b90506000826001600160a01b0316631223a75a6040518163ffffffff1660e01b8152600401602060405180830381865afa158015611641573d6000803e3d6000fd5b505050506040513d601f19601f820116820180604052508101906116659190612093565b905080820361167b575060009485945092505050565b8082106116c05760405162461bcd60e51b81526020600482015260136024820152720d2dcecc2d8d2c840c6d8c2d2da40d2dcc8caf606b1b6044820152606401610a99565b60006116cd836001612376565b905060007f00000000000000000000000000000000000000000000000000000000000000006116fc85856120c2565b11611707578261173d565b60016117337f000000000000000000000000000000000000000000000000000000000000000084612376565b61173d91906120c2565b9050600061174b83836120c2565b611756906001612376565b67ffffffffffffffff81111561176e5761176e612118565b604051908082528060200260200182016040528015611797578160200160208202803683370190505b509050825b8281116118445760405163f87975af60e01b8152600481018290526001600160a01b0388169063f87975af90602401602060405180830381865afa1580156117e8573d6000803e3d6000fd5b505050506040513d601f19601f8201168201806040525081019061180c9190612093565b8261181786846120c2565b815181106118275761182761212e565b60209081029190910101528061183c816123d3565b91505061179c565b604051635c625c2d60e11b815260009073889edc2edab5f40e902b864ad4d7ade8e412f9b19063b8c4b85a9061187e9086906004016123ec565b600060405180830381865afa15801561189b573d6000803e3d6000fd5b505050506040513d6000823e601f3d908101601f191682016040526118c391908101906123ff565b9050600091505b805182101561195a578082815181106118e5576118e561212e565b6020026020010151608001518015611918575080828151811061190a5761190a61212e565b602002602001015160a00151155b1561195a5780828151811061192f5761192f61212e565b602002602001015160000151896119469190612376565b985081611952816123d3565b9250506118ca565b60006119668884612376565b9050878103611982575060009a8b9a5098505050505050505050565b6001600160a01b037f0000000000000000000000000000000000000000000000000000000000000000163160008467ffffffffffffffff8111156119c8576119c8612118565b6040519080825280602002602001820160405280156119f1578160200160208202803683370190505b50905060005b85811015611a4857868181518110611a1157611a1161212e565b6020026020010151828281518110611a2b57611a2b61212e565b602090810291909101015280611a40816123d3565b9150506119f7565b50600073889edc2edab5f40e902b864ad4d7ade8e412f9b16001600160a01b03166362abe3fa83600173889edc2edab5f40e902b864ad4d7ade8e412f9b16001600160a01b031663526eae3e6040518163ffffffff1660e01b8152600401602060405180830381865afa158015611ac3573d6000803e3d6000fd5b505050506040513d601f19601f82011682018060405250810190611ae79190612093565b6040518463ffffffff1660e01b8152600401611b05939291906124f2565b600060405180830381865afa158015611b22573d6000803e3d6000fd5b505050506040513d6000823e601f3d908101601f19168201604052611b4a9190810190612227565b60405163127eee0f60e21b8152600481018690529091506001600160a01b038d16906349fbb83c90602401600060405180830381600087803b158015611b8f57600080fd5b505af1158015611ba3573d6000803e3d6000fd5b505060405163e3afe0a360e01b815273889edc2edab5f40e902b864ad4d7ade8e412f9b1925063e3afe0a39150611be09085908590600401612517565b600060405180830381600087803b158015611bfa57600080fd5b505af1158015611c0e573d6000803e3d6000fd5b50505050827f00000000000000000000000000000000000000000000000000000000000000006001600160a01b031631611c4891906120c2565b60405163359a5b0d60e21b815260048101829052602481018f9052909e506001600160a01b038d169063d6696c3490604401600060405180830381600087803b158015611c9457600080fd5b505af1158015611ca8573d6000803e3d6000fd5b5050505060008e8e611cba91906120c2565b90508015611d3d57604051630d6ce79160e41b8152600481018290527f00000000000000000000000000000000000000000000000000000000000000006001600160a01b03169063d6ce791090602401600060405180830381600087803b158015611d2457600080fd5b505af1158015611d38573d6000803e3d6000fd5b505050505b505050505050505050505050509091565b606081600003611d755750506040805180820190915260018152600360fc1b602082015290565b8160005b8115611d9f5780611d89816123d3565b9150611d989050600a8361255b565b9150611d79565b60008167ffffffffffffffff811115611dba57611dba612118565b6040519080825280601f01601f191660200182016040528015611de4576020820181803683370190505b5090505b8415611e4f57611df96001836120c2565b9150611e06600a8661256f565b611e11906030612376565b60f81b818381518110611e2657611e2661212e565b60200101906001600160f81b031916908160001a905350611e48600a8661255b565b9450611de8565b949350505050565b80821115611e775760405162461bcd60e51b8152600401610a999061238e565b8060016000828254611e8991906120c2565b90915550611e979050611124565b60408051848152602081018490527f41628d0ba42442e4aa4fc514eeb97bb7154969e70e6678229c836f3b9732ba90910160405180910390a25050565b80600080828254611ee591906120c2565b90915550611ef39050611124565b6040518281527feaf9a24a861b99687156137f32a9abfa90e5dd93a1eb9fb70cf4400e86b0839a90602001610bed565b8060016000828254611f359190612376565b90915550611f439050611124565b6040518281527fe1f09d265bac18d7d10d26c357f29ddecd4facd1906bf96ce8fbb33fc34badbc90602001610bed565b60005b83811015611f8e578181015183820152602001611f76565b83811115611f9d576000848401525b50505050565b6020815260008251806020840152611fc2816040850160208701611f73565b601f01601f19169190910160400192915050565b600060208284031215611fe857600080fd5b5035919050565b6000806040838503121561200257600080fd5b50508035926020909101359150565b6001600160a01b0381168114610d7957600080fd5b60006020828403121561203857600080fd5b813561204381612011565b9392505050565b60008060006060848603121561205f57600080fd5b505081359360208301359350604090920135919050565b60006020828403121561208857600080fd5b815161204381612011565b6000602082840312156120a557600080fd5b5051919050565b634e487b7160e01b600052601160045260246000fd5b6000828210156120d4576120d46120ac565b500390565b60008083128015600160ff1b8501841216156120f7576120f76120ac565b6001600160ff1b0384018313811615612112576121126120ac565b50500390565b634e487b7160e01b600052604160045260246000fd5b634e487b7160e01b600052603260045260246000fd5b600081518084526020808501945080840160005b8381101561217457815187529582019590820190600101612158565b509495945050505050565b6040815260006121926040830185612144565b905060018060a01b03831660208301529392505050565b60405160c0810167ffffffffffffffff811182821017156121cc576121cc612118565b60405290565b604051601f8201601f1916810167ffffffffffffffff811182821017156121fb576121fb612118565b604052919050565b600067ffffffffffffffff82111561221d5761221d612118565b5060051b60200190565b6000602080838503121561223a57600080fd5b825167ffffffffffffffff81111561225157600080fd5b8301601f8101851361226257600080fd5b805161227561227082612203565b6121d2565b81815260059190911b8201830190838101908783111561229457600080fd5b928401925b828410156122b257835182529284019290840190612299565b979650505050505050565b600084516122cf818460208901611f73565b8083019050601760f91b80825285516122ef816001850160208a01611f73565b6001920191820152835161230a816002840160208801611f73565b0160020195945050505050565b8051801515811461232757600080fd5b919050565b60006020828403121561233e57600080fd5b61204382612317565b60008351612359818460208801611f73565b83519083019061236d818360208801611f73565b01949350505050565b60008219821115612389576123896120ac565b500190565b60208082526025908201527f696e76616c6964207969656c642070726f766964657220696d706c656d656e7460408201526430ba34b7b760d91b606082015260800190565b6000600182016123e5576123e56120ac565b5060010190565b6020815260006120436020830184612144565b6000602080838503121561241257600080fd5b825167ffffffffffffffff81111561242957600080fd5b8301601f8101851361243a57600080fd5b805161244861227082612203565b81815260c0918202830184019184820191908884111561246757600080fd5b938501935b838510156124e65780858a0312156124845760008081fd5b61248c6121a9565b8551815286860151878201526040808701516124a781612011565b908201526060868101519082015260806124c2818801612317565b9082015260a06124d3878201612317565b908201528352938401939185019161246c565b50979650505050505050565b6060815260006125056060830186612144565b60208301949094525060400152919050565b60408152600061252a6040830185612144565b828103602084015261253c8185612144565b95945050505050565b634e487b7160e01b600052601260045260246000fd5b60008261256a5761256a612545565b500490565b60008261257e5761257e612545565b50069056fea164736f6c634300080f000a",
  "numDeployments": 1,
  "solcInputHash": "0x0000000000000000000000000000000000000000000000000000000000000000",
  "storageLayout": {
    "storage": [
      {
        "astId": 106695,
        "contract": "src/mainnet-bridge/yield-providers/LidoYieldProvider.sol:LidoYieldProvider",
        "label": "stakedPrincipal",
        "offset": 0,
        "slot": "0",
        "type": "t_uint256"
      },
      {
        "astId": 106697,
        "contract": "src/mainnet-bridge/yield-providers/LidoYieldProvider.sol:LidoYieldProvider",
        "label": "pendingBalance",
        "offset": 0,
        "slot": "1",
        "type": "t_uint256"
      },
      {
        "astId": 105723,
        "contract": "src/mainnet-bridge/yield-providers/LidoYieldProvider.sol:LidoYieldProvider",
        "label": "unstakeRequests",
        "offset": 0,
        "slot": "2",
        "type": "t_array(t_uint256)dyn_storage"
      },
      {
        "astId": 105725,
        "contract": "src/mainnet-bridge/yield-providers/LidoYieldProvider.sol:LidoYieldProvider",
        "label": "lastClaimedIndex",
        "offset": 0,
        "slot": "3",
        "type": "t_uint256"
      }
    ],
    "types": {
      "t_array(t_uint256)dyn_storage": {
        "encoding": "dynamic_array",
        "label": "uint256[]",
        "numberOfBytes": "32",
        "base": "t_uint256"
      },
      "t_uint256": {
        "encoding": "inplace",
        "label": "uint256",
        "numberOfBytes": "32"
      }
    }
  },
  "transactionHash": "0x12efe85d01d2217f40aabea79e9715f53913edcb02ba643d51d00b1a06e6fb16"
}