{
  "abi": [
    {
      "inputs": [],
      "stateMutability": "nonpayable",
      "type": "constructor"
    },
    {
      "anonymous": false,
      "inputs": [
        {
          "indexed": false,
          "internalType": "uint8",
          "name": "version",
          "type": "uint8"
        }
      ],
      "name": "Initialized",
      "type": "event"
    },
    {
      "anonymous": false,
      "inputs": [
        {
          "indexed": false,
          "internalType": "address",
          "name": "account",
          "type": "address"
        }
      ],
      "name": "Paused",
      "type": "event"
    },
    {
      "anonymous": false,
      "inputs": [
        {
          "indexed": true,
          "internalType": "address",
          "name": "from",
          "type": "address"
        },
        {
          "indexed": true,
          "internalType": "address",
          "name": "to",
          "type": "address"
        },
        {
          "indexed": true,
          "internalType": "uint256",
          "name": "version",
          "type": "uint256"
        },
        {
          "indexed": false,
          "internalType": "bytes",
          "name": "opaqueData",
          "type": "bytes"
        }
      ],
      "name": "TransactionDeposited",
      "type": "event"
    },
    {
      "anonymous": false,
      "inputs": [
        {
          "indexed": false,
          "internalType": "address",
          "name": "account",
          "type": "address"
        }
      ],
      "name": "Unpaused",
      "type": "event"
    },
    {
      "anonymous": false,
      "inputs": [
        {
          "indexed": true,
          "internalType": "bytes32",
          "name": "withdrawalHash",
          "type": "bytes32"
        },
        {
          "indexed": true,
          "internalType": "uint256",
          "name": "hintId",
          "type": "uint256"
        },
        {
          "indexed": false,
          "internalType": "bool",
          "name": "success",
          "type": "bool"
        }
      ],
      "name": "WithdrawalFinalized",
      "type": "event"
    },
    {
      "anonymous": false,
      "inputs": [
        {
          "indexed": true,
          "internalType": "bytes32",
          "name": "withdrawalHash",
          "type": "bytes32"
        },
        {
          "indexed": true,
          "internalType": "address",
          "name": "from",
          "type": "address"
        },
        {
          "indexed": true,
          "internalType": "address",
          "name": "to",
          "type": "address"
        },
        {
          "indexed": false,
          "internalType": "uint256",
          "name": "requestId",
          "type": "uint256"
        }
      ],
      "name": "WithdrawalProven",
      "type": "event"
    },
    {
      "inputs": [],
      "name": "GUARDIAN",
      "outputs": [
        {
          "internalType": "address",
          "name": "",
          "type": "address"
        }
      ],
      "stateMutability": "view",
      "type": "function"
    },
    {
      "inputs": [],
      "name": "L2_ORACLE",
      "outputs": [
        {
          "internalType": "contract L2OutputOracle",
          "name": "",
          "type": "address"
        }
      ],
      "stateMutability": "view",
      "type": "function"
    },
    {
      "inputs": [],
      "name": "SYSTEM_CONFIG",
      "outputs": [
        {
          "internalType": "contract SystemConfig",
          "name": "",
          "type": "address"
        }
      ],
      "stateMutability": "view",
      "type": "function"
    },
    {
      "inputs": [
        {
          "internalType": "address",
          "name": "_to",
          "type": "address"
        },
        {
          "internalType": "uint256",
          "name": "_value",
          "type": "uint256"
        },
        {
          "internalType": "uint64",
          "name": "_gasLimit",
          "type": "uint64"
        },
        {
          "internalType": "bool",
          "name": "_isCreation",
          "type": "bool"
        },
        {
          "internalType": "bytes",
          "name": "_data",
          "type": "bytes"
        }
      ],
      "name": "depositTransaction",
      "outputs": [],
      "stateMutability": "payable",
      "type": "function"
    },
    {
      "inputs": [
        {
          "internalType": "uint256",
          "name": "hintId",
          "type": "uint256"
        },
        {
          "components": [
            {
              "internalType": "uint256",
              "name": "nonce",
              "type": "uint256"
            },
            {
              "internalType": "address",
              "name": "sender",
              "type": "address"
            },
            {
              "internalType": "address",
              "name": "target",
              "type": "address"
            },
            {
              "internalType": "uint256",
              "name": "value",
              "type": "uint256"
            },
            {
              "internalType": "uint256",
              "name": "gasLimit",
              "type": "uint256"
            },
            {
              "internalType": "bytes",
              "name": "data",
              "type": "bytes"
            }
          ],
          "internalType": "struct Types.WithdrawalTransaction",
          "name": "_tx",
          "type": "tuple"
        }
      ],
      "name": "finalizeWithdrawalTransaction",
      "outputs": [],
      "stateMutability": "nonpayable",
      "type": "function"
    },
    {
      "inputs": [
        {
          "internalType": "bytes32",
          "name": "",
          "type": "bytes32"
        }
      ],
      "name": "finalizedWithdrawals",
      "outputs": [
        {
          "internalType": "bool",
          "name": "",
          "type": "bool"
        }
      ],
      "stateMutability": "view",
      "type": "function"
    },
    {
      "inputs": [],
      "name": "guardian",
      "outputs": [
        {
          "internalType": "address",
          "name": "",
          "type": "address"
        }
      ],
      "stateMutability": "view",
      "type": "function"
    },
    {
      "inputs": [
        {
          "internalType": "contract L2OutputOracle",
          "name": "_l2Oracle",
          "type": "address"
        },
        {
          "internalType": "address",
          "name": "_guardian",
          "type": "address"
        },
        {
          "internalType": "contract SystemConfig",
          "name": "_systemConfig",
          "type": "address"
        },
        {
          "internalType": "bool",
          "name": "_paused",
          "type": "bool"
        },
        {
          "internalType": "contract ETHYieldManager",
          "name": "_yieldManager",
          "type": "address"
        }
      ],
      "name": "initialize",
      "outputs": [],
      "stateMutability": "nonpayable",
      "type": "function"
    },
    {
      "inputs": [
        {
          "internalType": "uint256",
          "name": "_l2OutputIndex",
          "type": "uint256"
        }
      ],
      "name": "isOutputFinalized",
      "outputs": [
        {
          "internalType": "bool",
          "name": "",
          "type": "bool"
        }
      ],
      "stateMutability": "view",
      "type": "function"
    },
    {
      "inputs": [],
      "name": "l2Oracle",
      "outputs": [
        {
          "internalType": "contract L2OutputOracle",
          "name": "",
          "type": "address"
        }
      ],
      "stateMutability": "view",
      "type": "function"
    },
    {
      "inputs": [],
      "name": "l2Sender",
      "outputs": [
        {
          "internalType": "address",
          "name": "",
          "type": "address"
        }
      ],
      "stateMutability": "view",
      "type": "function"
    },
    {
      "inputs": [
        {
          "internalType": "uint64",
          "name": "_byteCount",
          "type": "uint64"
        }
      ],
      "name": "minimumGasLimit",
      "outputs": [
        {
          "internalType": "uint64",
          "name": "",
          "type": "uint64"
        }
      ],
      "stateMutability": "pure",
      "type": "function"
    },
    {
      "inputs": [],
      "name": "params",
      "outputs": [
        {
          "internalType": "uint128",
          "name": "prevBaseFee",
          "type": "uint128"
        },
        {
          "internalType": "uint64",
          "name": "prevBoughtGas",
          "type": "uint64"
        },
        {
          "internalType": "uint64",
          "name": "prevBlockNum",
          "type": "uint64"
        }
      ],
      "stateMutability": "view",
      "type": "function"
    },
    {
      "inputs": [],
      "name": "pause",
      "outputs": [],
      "stateMutability": "nonpayable",
      "type": "function"
    },
    {
      "inputs": [],
      "name": "paused",
      "outputs": [
        {
          "internalType": "bool",
          "name": "",
          "type": "bool"
        }
      ],
      "stateMutability": "view",
      "type": "function"
    },
    {
      "inputs": [
        {
          "components": [
            {
              "internalType": "uint256",
              "name": "nonce",
              "type": "uint256"
            },
            {
              "internalType": "address",
              "name": "sender",
              "type": "address"
            },
            {
              "internalType": "address",
              "name": "target",
              "type": "address"
            },
            {
              "internalType": "uint256",
              "name": "value",
              "type": "uint256"
            },
            {
              "internalType": "uint256",
              "name": "gasLimit",
              "type": "uint256"
            },
            {
              "internalType": "bytes",
              "name": "data",
              "type": "bytes"
            }
          ],
          "internalType": "struct Types.WithdrawalTransaction",
          "name": "_tx",
          "type": "tuple"
        },
        {
          "internalType": "uint256",
          "name": "_l2OutputIndex",
          "type": "uint256"
        },
        {
          "components": [
            {
              "internalType": "bytes32",
              "name": "version",
              "type": "bytes32"
            },
            {
              "internalType": "bytes32",
              "name": "stateRoot",
              "type": "bytes32"
            },
            {
              "internalType": "bytes32",
              "name": "messagePasserStorageRoot",
              "type": "bytes32"
            },
            {
              "internalType": "bytes32",
              "name": "latestBlockhash",
              "type": "bytes32"
            }
          ],
          "internalType": "struct Types.OutputRootProof",
          "name": "_outputRootProof",
          "type": "tuple"
        },
        {
          "internalType": "bytes[]",
          "name": "_withdrawalProof",
          "type": "bytes[]"
        }
      ],
      "name": "proveWithdrawalTransaction",
      "outputs": [],
      "stateMutability": "nonpayable",
      "type": "function"
    },
    {
      "inputs": [
        {
          "internalType": "bytes32",
          "name": "",
          "type": "bytes32"
        }
      ],
      "name": "provenWithdrawals",
      "outputs": [
        {
          "internalType": "bytes32",
          "name": "outputRoot",
          "type": "bytes32"
        },
        {
          "internalType": "uint128",
          "name": "timestamp",
          "type": "uint128"
        },
        {
          "internalType": "uint128",
          "name": "l2OutputIndex",
          "type": "uint128"
        },
        {
          "internalType": "uint256",
          "name": "requestId",
          "type": "uint256"
        }
      ],
      "stateMutability": "view",
      "type": "function"
    },
    {
      "inputs": [],
      "name": "systemConfig",
      "outputs": [
        {
          "internalType": "contract SystemConfig",
          "name": "",
          "type": "address"
        }
      ],
      "stateMutability": "view",
      "type": "function"
    },
    {
      "inputs": [],
      "name": "unpause",
      "outputs": [],
      "stateMutability": "nonpayable",
      "type": "function"
    },
    {
      "inputs": [],
      "name": "version",
      "outputs": [
        {
          "internalType": "string",
          "name": "",
          "type": "string"
        }
      ],
      "stateMutability": "view",
      "type": "function"
    },
    {
      "inputs": [],
      "name": "yieldManager",
      "outputs": [
        {
          "internalType": "contract ETHYieldManager",
          "name": "",
          "type": "address"
        }
      ],
      "stateMutability": "view",
      "type": "function"
    },
    {
      "stateMutability": "payable",
      "type": "receive"
    }
  ],
  "address": "0xd7bfDa9B3b014b16bada89F206607a8Ac7c6FB32",
  "args": [],
  "bytecode": "0x60806040523480156200001157600080fd5b50620000236000808060018162000029565b62000262565b600054600190610100900460ff161580156200004c575060005460ff8083169116105b620000b55760405162461bcd60e51b815260206004820152602e60248201527f496e697469616c697a61626c653a20636f6e747261637420697320616c72656160448201526d191e481a5b9a5d1a585b1a5e995960921b60648201526084015b60405180910390fd5b6000805461ffff191660ff8316176101001790556032546001600160a01b0316620000ef57603280546001600160a01b03191661dead1790555b60358054603680546001600160a01b03199081166001600160a01b03898116919091179092556037805482168a84161790556001600160a81b03199092166101008a83160260ff19161786151517909255603880549091169184169190911790556200015a620001a3565b6000805461ff001916905560405160ff821681527f7f26b83ff96e1f2b6a682f133852f6798a09c465da95921460cefb38474024989060200160405180910390a1505050505050565b600054610100900460ff16620002105760405162461bcd60e51b815260206004820152602b60248201527f496e697469616c697a61626c653a20636f6e7472616374206973206e6f74206960448201526a6e697469616c697a696e6760a81b6064820152608401620000ac565b600154600160c01b90046001600160401b0316600003620002605760408051606081018252633b9aca0080825260006020830152436001600160401b031691909201819052600160c01b02176001555b565b6146bb80620002726000396000f3fe60806040526004361061012d5760003560e01c8063724c184c116100ab578063a14238e71161006f578063a14238e71461037d578063a35d99df146103ad578063cff0ab96146103e5578063e965084c14610450578063e9e05c42146104d1578063f0498750146104e457600080fd5b8063724c184c146102e557806380b7af18146103035780638456cb59146103235780639b5f694a146103385780639bf62d821461035d57600080fd5b8063452a9320116100f2578063452a93201461021c5780634870496f1461023c57806354fd4d501461025c5780635c975abb1461029b5780636dbffb78146102c557600080fd5b80621c2ff61461016b57806333d7e2bd146101a7578063390f7570146101c75780633dca9c41146101e75780633f4ba83a1461020757600080fd5b36610166576038546001600160a01b03163314610164576101643334620186a0600060405180602001604052806000815250610502565b005b600080fd5b34801561017757600080fd5b5060355461010090046001600160a01b03165b6040516001600160a01b0390911681526020015b60405180910390f35b3480156101b357600080fd5b5060365461018a906001600160a01b031681565b3480156101d357600080fd5b506101646101e2366004613c53565b610955565b3480156101f357600080fd5b50610164610202366004613e27565b610ac5565b34801561021357600080fd5b506101646111c1565b34801561022857600080fd5b5060375461018a906001600160a01b031681565b34801561024857600080fd5b50610164610257366004613e6d565b61126d565b34801561026857600080fd5b5061028e604051806040016040528060068152602001650312e31302e360d41b81525081565b60405161019e9190613f86565b3480156102a757600080fd5b506035546102b59060ff1681565b604051901515815260200161019e565b3480156102d157600080fd5b506102b56102e0366004613f99565b61184d565b3480156102f157600080fd5b506037546001600160a01b031661018a565b34801561030f57600080fd5b5060385461018a906001600160a01b031681565b34801561032f57600080fd5b506101646118dd565b34801561034457600080fd5b5060355461018a9061010090046001600160a01b031681565b34801561036957600080fd5b5060325461018a906001600160a01b031681565b34801561038957600080fd5b506102b5610398366004613f99565b60336020526000908152604090205460ff1681565b3480156103b957600080fd5b506103cd6103c8366004613fce565b611984565b6040516001600160401b03909116815260200161019e565b3480156103f157600080fd5b50600154610421906001600160801b038116906001600160401b03600160801b8204811691600160c01b90041683565b604080516001600160801b0390941684526001600160401b03928316602085015291169082015260600161019e565b34801561045c57600080fd5b506104a161046b366004613f99565b60346020526000908152604090208054600182015460029092015490916001600160801b0380821692600160801b909204169084565b60405161019e94939291909384526001600160801b03928316602085015291166040830152606082015260800190565b6101646104df366004613fe9565b610502565b3480156104f057600080fd5b506036546001600160a01b031661018a565b8260005a90508315610592576001600160a01b03871615610592576040805162461bcd60e51b81526020600482015260248101919091527f4f7074696d69736d506f7274616c3a206d7573742073656e6420746f2061646460448201527f72657373283029207768656e206372656174696e67206120636f6e747261637460648201526084015b60405180910390fd5b61059c8351611984565b6001600160401b0316856001600160401b031610156106095760405162461bcd60e51b815260206004820152602360248201527f4f7074696d69736d506f7274616c3a20676173206c696d697420746f6f20736d604482015262185b1b60ea1b6064820152608401610589565b6201d4c08351111561065d5760405162461bcd60e51b815260206004820152601e60248201527f4f7074696d69736d506f7274616c3a206461746120746f6f206c6172676500006044820152606401610589565b3332811461067e575033731111000000000000000000000000000000001111015b60606004604360981b01196001600160a01b038a160161083857603860009054906101000a90046001600160a01b03166001600160a01b03166371ea21c26040518163ffffffff1660e01b8152600401602060405180830381865afa1580156106eb573d6000803e3d6000fd5b505050506040513d601f19601f8201168201806040525081019061070f9190614065565b6001600160a01b0316336001600160a01b03161415806107a35750603854604080516338f510e160e11b815290516000926001600160a01b0316916371ea21c29160048083019260209291908290030181865afa158015610774573d6000803e3d6000fd5b505050506040513d601f19601f820116820180604052508101906107989190614065565b6001600160a01b0316145b156108095760405162461bcd60e51b815260206004820152603060248201527f4f7074696d69736d506f7274616c3a206f6e6c792074686520426c617374427260448201526f1a5919d94818d85b8819195c1bdcda5d60821b6064820152608401610589565b8788888888604051602001610822959493929190614082565b6040516020818303038152906040529050610863565b3488888888604051602001610851959493929190614082565b60405160208183030381529060405290505b34156108f357603854600090610886906001600160a01b0316620186a03461199d565b9050806108f15760405162461bcd60e51b815260206004820152603360248201527f4f7074696d69736d506f7274616c3a20455448207472616e7366657220746f20604482015272165a595b1913585b9859d95c8819985a5b1959606a1b6064820152608401610589565b505b6000896001600160a01b0316836001600160a01b03167fb3813568d9991fc951961fcb4c784893574240a28925604d09fc577c55bb7c32846040516109389190613f86565b60405180910390a4505061094c82826119b5565b50505050505050565b600054600190610100900460ff16158015610977575060005460ff8083169116105b6109da5760405162461bcd60e51b815260206004820152602e60248201527f496e697469616c697a61626c653a20636f6e747261637420697320616c72656160448201526d191e481a5b9a5d1a585b1a5e995960921b6064820152608401610589565b6000805461ffff191660ff8316176101001790556032546001600160a01b0316610a1357603280546001600160a01b03191661dead1790555b60358054603680546001600160a01b03199081166001600160a01b03898116919091179092556037805482168a84161790556001600160a81b03199092166101008a83160260ff1916178615151790925560388054909116918416919091179055610a7c611c4e565b6000805461ff001916905560405160ff821681527f7f26b83ff96e1f2b6a682f133852f6798a09c465da95921460cefb38474024989060200160405180910390a1505050505050565b60355460ff1615610b115760405162461bcd60e51b815260206004820152601660248201527513dc1d1a5b5a5cdb541bdc9d185b0e881c185d5cd95960521b6044820152606401610589565b6032546001600160a01b031661dead14610b935760405162461bcd60e51b815260206004820152603f60248201527f4f7074696d69736d506f7274616c3a2063616e206f6e6c79207472696767657260448201527f206f6e65207769746864726177616c20706572207472616e73616374696f6e006064820152608401610589565b6000610b9e82611d0a565b600081815260346020908152604080832081516080810183528154815260018201546001600160801b03808216958301869052600160801b90910416928101929092526002015460608201529293509003610c565760405162461bcd60e51b815260206004820152603260248201527f4f7074696d69736d506f7274616c3a207769746864726177616c20686173206e6044820152711bdd081899595b881c1c9bdd995b881e595d60721b6064820152608401610589565b603560019054906101000a90046001600160a01b03166001600160a01b031663887862726040518163ffffffff1660e01b8152600401602060405180830381865afa158015610ca9573d6000803e3d6000fd5b505050506040513d601f19601f82011682018060405250810190610ccd91906140d1565b81602001516001600160801b03161015610d635760405162461bcd60e51b815260206004820152604b60248201527f4f7074696d69736d506f7274616c3a207769746864726177616c2074696d657360448201527f74616d70206c657373207468616e204c32204f7261636c65207374617274696e60648201526a0672074696d657374616d760ac1b608482015260a401610589565b610d7981602001516001600160801b0316611d57565b610df95760405162461bcd60e51b815260206004820152604560248201527f4f7074696d69736d506f7274616c3a2070726f76656e2077697468647261776160448201527f6c2066696e616c697a6174696f6e20706572696f6420686173206e6f7420656c606482015264185c1cd95960da1b608482015260a401610589565b603554604082810151905163a25ae55760e01b81526001600160801b03909116600482015260009161010090046001600160a01b03169063a25ae55790602401606060405180830381865afa158015610e56573d6000803e3d6000fd5b505050506040513d601f19601f82011682018060405250810190610e7a9190614101565b8251815191925014610f065760405162461bcd60e51b815260206004820152604960248201527f4f7074696d69736d506f7274616c3a206f757470757420726f6f742070726f7660448201527f656e206973206e6f74207468652073616d652061732063757272656e74206f756064820152681d1c1d5d081c9bdbdd60ba1b608482015260a401610589565b610f1c81602001516001600160801b0316611d57565b610f9a5760405162461bcd60e51b815260206004820152604360248201527f4f7074696d69736d506f7274616c3a206f75747075742070726f706f73616c2060448201527f66696e616c697a6174696f6e20706572696f6420686173206e6f7420656c61706064820152621cd95960ea1b608482015260a401610589565b60008381526033602052604090205460ff16156110175760405162461bcd60e51b815260206004820152603560248201527f4f7074696d69736d506f7274616c3a207769746864726177616c2068617320616044820152741b1c9958591e481899595b88199a5b985b1a5e9959605a1b6064820152608401610589565b60008381526033602090815260408220805460ff19166001179055850151603280546001600160a01b039092166001600160a01b03199092169190911790556060850151156110eb576038546060840151604051633c84d03960e21b815260048101919091526024810188905247916001600160a01b03169063f21340e4906044016020604051808303816000875af11580156110b8573d6000803e3d6000fd5b505050506040513d601f19601f820116820180604052508101906110dc9190614165565b506110e78147614198565b9150505b600061110586604001518760800151848960a00151611de2565b603280546001600160a01b03191661dead179055604051909150879086907f36d89e6190aa646d1a48286f8ad05e60a144483f42fd7e0ea08baba79343645b9061115490851515815260200190565b60405180910390a38015801561116a5750326001145b1561094c5760405162461bcd60e51b815260206004820152602160248201527f4f7074696d69736d506f7274616c3a207769746864726177616c206661696c656044820152601960fa1b6064820152608401610589565b6037546001600160a01b0316331461122d5760405162461bcd60e51b815260206004820152602960248201527f4f7074696d69736d506f7274616c3a206f6e6c7920677561726469616e2063616044820152686e20756e706175736560b81b6064820152608401610589565b6035805460ff191690556040513381527f5db9ee0a495bf2e6ff9c91a7834c1ba4fdd244a5e8aa4e537bd38aeae4b073aa906020015b60405180910390a1565b60355460ff16156112b95760405162461bcd60e51b815260206004820152601660248201527513dc1d1a5b5a5cdb541bdc9d185b0e881c185d5cd95960521b6044820152606401610589565b306001600160a01b031685604001516001600160a01b0316036113445760405162461bcd60e51b815260206004820152603f60248201527f4f7074696d69736d506f7274616c3a20796f752063616e6e6f742073656e642060448201527f6d6573736167657320746f2074686520706f7274616c20636f6e7472616374006064820152608401610589565b60355460405163a25ae55760e01b81526004810186905260009161010090046001600160a01b03169063a25ae55790602401606060405180830381865afa158015611393573d6000803e3d6000fd5b505050506040513d601f19601f820116820180604052508101906113b79190614101565b5190506113d16113cc368690038601866141af565b611e40565b81146114315760405162461bcd60e51b815260206004820152602960248201527f4f7074696d69736d506f7274616c3a20696e76616c6964206f7574707574207260448201526837b7ba10383937b7b360b91b6064820152608401610589565b600061143c87611d0a565b60008181526034602090815260409182902082516080810184528154815260018201546001600160801b03808216948301859052600160801b909104169381019390935260020154606083015291925090158061151957508051603554604080840151905163a25ae55760e01b81526001600160801b0390911660048201526101009091046001600160a01b03169063a25ae55790602401606060405180830381865afa1580156114f1573d6000803e3d6000fd5b505050506040513d601f19601f820116820180604052508101906115159190614101565b5114155b61158b5760405162461bcd60e51b815260206004820152603760248201527f4f7074696d69736d506f7274616c3a207769746864726177616c20686173682060448201527f68617320616c7265616479206265656e2070726f76656e0000000000000000006064820152608401610589565b6040805160208101849052600091810182905260600160408051601f19818403018152828252805160209182012090830181905292506115fc910160408051601f1981840301815282820190915260018252600160f81b6020830152906115f2888a614214565b8a60400135611e7f565b6116635760405162461bcd60e51b815260206004820152603260248201527f4f7074696d69736d506f7274616c3a20696e76616c696420776974686472617760448201527130b61034b731b63ab9b4b7b710383937b7b360711b6064820152608401610589565b6000808a60600151118015611683575060208301516001600160801b0316155b156117095760385460608b01516040516313dccf3d60e31b81526001600160a01b0390921691639ee679e8916116bf9160040190815260200190565b6020604051808303816000875af11580156116de573d6000803e3d6000fd5b505050506040513d601f19601f8201168201806040525081019061170291906140d1565b9050611710565b5060608201515b60385460408b01516001600160a01b0391821691160361178d5760405162461bcd60e51b815260206004820152603260248201527f4f7074696d69736d506f7274616c3a20756e617574686f72697a65642063616c60448201527136103a37903cb4b2b6321036b0b730b3b2b960711b6064820152608401610589565b604080516080810182528681526001600160801b0342811660208084019182528d83168486019081526060850187815260008b81526034845287902095518655925190518416600160801b029316929092176001840155516002909201919091558b820151908c015191516001600160a01b03918216929091169086907f5d5446905f1f582d57d04ced5b1bed0f1a6847bcee57f7dd9d6f2ec12ab9ec2e906118399086815260200190565b60405180910390a450505050505050505050565b60355460405163a25ae55760e01b8152600481018390526000916118d7916101009091046001600160a01b03169063a25ae55790602401606060405180830381865afa1580156118a1573d6000803e3d6000fd5b505050506040513d601f19601f820116820180604052508101906118c59190614101565b602001516001600160801b0316611d57565b92915050565b6037546001600160a01b031633146119475760405162461bcd60e51b815260206004820152602760248201527f4f7074696d69736d506f7274616c3a206f6e6c7920677561726469616e2063616044820152666e20706175736560c81b6064820152608401610589565b6035805460ff191660011790556040513381527f62e78cea01bee320cd4e420270b5ea74000d11b0c9f74754ebdbfc544b05a25890602001611263565b6000611991826010614297565b6118d7906152086142c6565b600080600080600080868989f19150505b9392505050565b6001546000906119d590600160c01b90046001600160401b031643614198565b905060006119e1611ea3565b90506000816020015160ff16826000015163ffffffff16611a029190614307565b90508215611af157600154600090611a2b908390600160801b90046001600160401b0316614335565b90506000836040015160ff1683611a429190614374565b600154611a599084906001600160801b0316614374565b611a639190614307565b600154909150600090611aa290611a849084906001600160801b03166143f9565b866060015163ffffffff168760a001516001600160801b0316611f43565b90506001861115611ad157611ace611a8482876040015160ff1660018a611ac99190614198565b611f60565b90505b6001600160801b0316600160c01b6001600160401b034316021760015550505b60018054869190601090611b16908490600160801b90046001600160401b03166142c6565b92506101000a8154816001600160401b0302191690836001600160401b03160217905550816000015163ffffffff16600160000160109054906101000a90046001600160401b03166001600160401b03161315611bdb5760405162461bcd60e51b815260206004820152603e60248201527f5265736f757263654d65746572696e673a2063616e6e6f7420627579206d6f7260448201527f6520676173207468616e20617661696c61626c6520676173206c696d697400006064820152608401610589565b600154600090611bfd906001600160801b03166001600160401b03881661443a565b90506000611c0f48633b9aca00611fb5565b611c199083614459565b905060005a611c289088614198565b905080821115611c4457611c44611c3f8284614198565b611fcc565b5050505050505050565b600054610100900460ff16611cb95760405162461bcd60e51b815260206004820152602b60248201527f496e697469616c697a61626c653a20636f6e7472616374206973206e6f74206960448201526a6e697469616c697a696e6760a81b6064820152608401610589565b600154600160c01b90046001600160401b0316600003611d085760408051606081018252633b9aca0080825260006020830152436001600160401b031691909201819052600160c01b02176001555b565b80516020808301516040808501516060860151608087015160a08801519351600097611d3a97909695910161446d565b604051602081830303815290604052805190602001209050919050565b6000603560019054906101000a90046001600160a01b03166001600160a01b031663f4daa2916040518163ffffffff1660e01b8152600401602060405180830381865afa158015611dac573d6000803e3d6000fd5b505050506040513d601f19601f82011682018060405250810190611dd091906140d1565b611dda90836144b9565b421192915050565b6000806000611df2866000611ffa565b905080611e28576308c379a06000526020805278185361666543616c6c3a204e6f7420656e6f756768206761736058526064601cfd5b600080855160208701888b5af1979650505050505050565b60008160000151826020015183604001518460600151604051602001611d3a949392919093845260208401929092526040830152606082015260800190565b600080611e8b86612018565b9050611e998186868661204a565b9695505050505050565b6040805160c08082018352600080835260208301819052828401819052606083018190526080830181905260a083015260365483516366398d8160e11b8152935192936001600160a01b039091169263cc731b02926004808401939192918290030181865afa158015611f1a573d6000803e3d6000fd5b505050506040513d601f19601f82011682018060405250810190611f3e91906144f6565b905090565b6000611f58611f52858561207a565b8361208a565b949350505050565b6000670de0b6b3a7640000611fa1611f788583614307565b611f8a90670de0b6b3a7640000614335565b611f9c85670de0b6b3a7640000614374565b612099565b611fab9086614374565b611f589190614307565b600081831015611fc557816119ae565b5090919050565b6000805a90505b825a611fdf9083614198565b1015611ff557611fee82614594565b9150611fd3565b505050565b600080603f83619c4001026040850201603f5a021015949350505050565b6060818051906020012060405160200161203491815260200190565b6040516020818303038152906040529050919050565b60006120718461205b8786866120ca565b8051602091820120825192909101919091201490565b95945050505050565b600081831215611fc557816119ae565b6000818312611fc557816119ae565b60006119ae670de0b6b3a7640000836120b186612960565b6120bb9190614374565b6120c59190614307565b612b3b565b606060008451116121155760405162461bcd60e51b81526020600482015260156024820152744d65726b6c65547269653a20656d707479206b657960581b6044820152606401610589565b600061212084612ce4565b9050600061212d86612dcf565b905060008460405160200161214491815260200190565b60405160208183030381529060405290506000805b8451811015612909576000858281518110612176576121766145ad565b6020026020010151905084518311156121e85760405162461bcd60e51b815260206004820152602e60248201527f4d65726b6c65547269653a206b657920696e646578206578636565647320746f60448201526d0e8c2d840d6caf240d8cadccee8d60931b6064820152608401610589565b8260000361228757805180516020918201206040516122369261221092910190815260200190565b604051602081830303815290604052858051602091820120825192909101919091201490565b6122825760405162461bcd60e51b815260206004820152601d60248201527f4d65726b6c65547269653a20696e76616c696420726f6f7420686173680000006044820152606401610589565b61237d565b80515160201161230d57805180516020918201206040516122b19261221092910190815260200190565b6122825760405162461bcd60e51b815260206004820152602760248201527f4d65726b6c65547269653a20696e76616c6964206c6172676520696e7465726e6044820152660c2d840d0c2e6d60cb1b6064820152608401610589565b80518451602080870191909120825191909201201461237d5760405162461bcd60e51b815260206004820152602660248201527f4d65726b6c65547269653a20696e76616c696420696e7465726e616c206e6f646044820152650ca40d0c2e6d60d31b6064820152608401610589565b612389601060016144b9565b8160200151510361253157845183036124c9576123c381602001516010815181106123b6576123b66145ad565b6020026020010151612e32565b9650600087511161243c5760405162461bcd60e51b815260206004820152603b60248201527f4d65726b6c65547269653a2076616c7565206c656e677468206d75737420626560448201527f2067726561746572207468616e207a65726f20286272616e63682900000000006064820152608401610589565b6001865161244a9190614198565b82146124be5760405162461bcd60e51b815260206004820152603a60248201527f4d65726b6c65547269653a2076616c7565206e6f6465206d757374206265206c60448201527f617374206e6f646520696e2070726f6f6620286272616e6368290000000000006064820152608401610589565b5050505050506119ae565b60008584815181106124dd576124dd6145ad565b602001015160f81c60f81b60f81c9050600082602001518260ff1681518110612508576125086145ad565b6020026020010151905061251b81612f55565b95506125286001866144b9565b945050506128f6565b60028160200151510361289d57600061254982612f7a565b9050600081600081518110612560576125606145ad565b016020015160f81c905060006125776002836145c3565b6125829060026145e5565b90506000612593848360ff16612f9e565b905060006125a18a89612f9e565b905060006125af8383612fd4565b9050808351146126275760405162461bcd60e51b815260206004820152603a60248201527f4d65726b6c65547269653a20706174682072656d61696e646572206d7573742060448201527f736861726520616c6c206e6962626c65732077697468206b65790000000000006064820152608401610589565b60ff85166002148061263c575060ff85166003145b156127dd57808251146126b75760405162461bcd60e51b815260206004820152603d60248201527f4d65726b6c65547269653a206b65792072656d61696e646572206d757374206260448201527f65206964656e746963616c20746f20706174682072656d61696e6465720000006064820152608401610589565b6126d187602001516001815181106123b6576123b66145ad565b9c5060008d511161274a5760405162461bcd60e51b815260206004820152603960248201527f4d65726b6c65547269653a2076616c7565206c656e677468206d75737420626560448201527f2067726561746572207468616e207a65726f20286c65616629000000000000006064820152608401610589565b60018c516127589190614198565b88146127cc5760405162461bcd60e51b815260206004820152603860248201527f4d65726b6c65547269653a2076616c7565206e6f6465206d757374206265206c60448201527f617374206e6f646520696e2070726f6f6620286c6561662900000000000000006064820152608401610589565b5050505050505050505050506119ae565b60ff851615806127f0575060ff85166001145b1561282f5761281c876020015160018151811061280f5761280f6145ad565b6020026020010151612f55565b9950612828818a6144b9565b9850612892565b60405162461bcd60e51b815260206004820152603260248201527f4d65726b6c65547269653a2072656365697665642061206e6f64652077697468604482015271040c2dc40eadcd6dcdeeedc40e0e4caccd2f60731b6064820152608401610589565b5050505050506128f6565b60405162461bcd60e51b815260206004820152602860248201527f4d65726b6c65547269653a20726563656976656420616e20756e706172736561604482015267626c65206e6f646560c01b6064820152608401610589565b508061290181614594565b915050612159565b5060405162461bcd60e51b815260206004820152602560248201527f4d65726b6c65547269653a2072616e206f7574206f662070726f6f6620656c656044820152646d656e747360d81b6064820152608401610589565b600080821361299d5760405162461bcd60e51b815260206004820152600960248201526815539111519253915160ba1b6044820152606401610589565b600060606129aa84613058565b03609f8181039490941b90931c6c465772b2bbbb5f824b15207a3081018102606090811d6d0388eaa27412d5aca026815d636e018202811d6d0df99ac502031bf953eff472fdcc018202811d6d13cdffb29d51d99322bdff5f2211018202811d6d0a0f742023def783a307a986912e018202811d6d01920d8043ca89b5239253284e42018202811d6c0b7a86d7375468fac667a0a527016c29508e458543d8aa4df2abee7883018302821d6d0139601a2efabe717e604cbb4894018302821d6d02247f7a7b6594320649aa03aba1018302821d6c8c3f38e95a6b1ff2ab1c3b343619018302821d6d02384773bdf1ac5676facced60901901830290911d6cb9a025d814b29c212b8b1a07cd1901909102780a09507084cc699bb0e71ea869ffffffffffffffffffffffff190105711340daa0d5f769dba1915cef59f0815a5506027d0267a36c0c95b3975ab3ee5b203a7614a3f75373f047d803ae7b6687f2b393909302929092017d57115e47018c7177eebf7cd370a3356a1b7863008a5ae8028c72b88642840160ae1d92915050565b6000680248ce36a70cb26b3e198213612b5657506000919050565b680755bf798b4a1bf1e58212612b9d5760405162461bcd60e51b815260206004820152600c60248201526b4558505f4f564552464c4f5760a01b6044820152606401610589565b6503782dace9d9604e83901b059150600060606bb17217f7d1cf79abc9e3b39884821b056001605f1b01901d6bb17217f7d1cf79abc9e3b39881029093036c240c330e9fb2d9cbaf0fd5aafb1981018102606090811d6d0277594991cfc85f6e2461837cd9018202811d6d1a521255e34f6a5061b25ef1c9c319018202811d6db1bbb201f443cf962f1a1d3db4a5018202811d6e02c72388d9f74f51a9331fed693f1419018202811d6e05180bb14799ab47a8a8cb2a527d57016d02d16720577bd19bf614176fe9ea6c10fe68e7fd37d0007b713f765084018402831d9081019084016d01d3967ed30fc4f89c02bab5708119010290911d6e0587f503bb6ea29d25fcb740196450019091026d360d7aeea093263ecc6e0ecb291760621b010574029d9dc38563c32e5c2f6dc192ee70ef65f9978af30260c3939093039290921c92915050565b8051606090806001600160401b03811115612d0157612d01613cc4565b604051908082528060200260200182016040528015612d4657816020015b6040805180820190915260608082526020820152815260200190600190039081612d1f5790505b50915060005b81811015612dc8576040518060400160405280858381518110612d7157612d716145ad565b60200260200101518152602001612da0868481518110612d9357612d936145ad565b60200260200101516130f6565b815250838281518110612db557612db56145ad565b6020908102919091010152600101612d4c565b5050919050565b606080604051905082518060011b603f8101601f1916830160405280835250602084016020830160005b83811015612e27578060011b82018184015160001a8060041c8253600f811660018301535050600101612df9565b509295945050505050565b60606000806000612e4285613109565b919450925090506000816001811115612e5d57612e5d614608565b14612ed05760405162461bcd60e51b815260206004820152603960248201527f524c505265616465723a206465636f646564206974656d207479706520666f7260448201527f206279746573206973206e6f7420612064617461206974656d000000000000006064820152608401610589565b612eda82846144b9565b855114612f465760405162461bcd60e51b815260206004820152603460248201527f524c505265616465723a2062797465732076616c756520636f6e7461696e732060448201527330b71034b73b30b634b2103932b6b0b4b73232b960611b6064820152608401610589565b612071856020015184846137cc565b60606020826000015110612f7157612f6c82612e32565b6118d7565b6118d78261385f565b60606118d7612f9983602001516000815181106123b6576123b66145ad565b612dcf565b606082518210612fbd57506040805160208101909152600081526118d7565b6119ae8383848651612fcf9190614198565b613875565b6000808251845110612fe7578251612fea565b83515b90505b80821080156130415750828281518110613009576130096145ad565b602001015160f81c60f81b6001600160f81b031916848381518110613030576130306145ad565b01602001516001600160f81b031916145b1561305157816001019150612fed565b5092915050565b60008082116130955760405162461bcd60e51b815260206004820152600960248201526815539111519253915160ba1b6044820152606401610589565b5060016001600160801b03821160071b82811c6001600160401b031060061b1782811c63ffffffff1060051b1782811c61ffff1060041b1782811c60ff10600390811b90911783811c600f1060021b1783811c909110821b1791821c111790565b60606118d7613104836139b7565b613a0a565b6000806000808460000151116131315760405162461bcd60e51b81526004016105899061461e565b6020840151805160001a607f81116131565760006001600094509450945050506137c5565b60b781116132b357600061316b608083614198565b9050808760000151116131eb5760405162461bcd60e51b815260206004820152604e602482015260008051602061468f83398151915260448201527f742062652067726561746572207468616e20737472696e67206c656e6774682060648201526d2873686f727420737472696e672960901b608482015260a401610589565b6001838101516001600160f81b03191690821415806132185750600160ff1b6001600160f81b0319821610155b6132a05760405162461bcd60e51b815260206004820152604d60248201527f524c505265616465723a20696e76616c6964207072656669782c2073696e676c60448201527f652062797465203c203078383020617265206e6f74207072656669786564202860648201526c73686f727420737472696e672960981b608482015260a401610589565b50600195509350600092506137c5915050565b60bf81116134f45760006132c860b783614198565b90508087600001511161334b5760405162461bcd60e51b8152602060048201526051602482015260008051602061468f83398151915260448201527f74206265203e207468616e206c656e677468206f6620737472696e67206c656e60648201527067746820286c6f6e6720737472696e672960781b608482015260a401610589565b60018301516001600160f81b03191660008190036133d25760405162461bcd60e51b815260206004820152604a602482015260008051602061468f83398151915260448201527f74206e6f74206861766520616e79206c656164696e67207a65726f7320286c6f6064820152696e6720737472696e672960b01b608482015260a401610589565b600184015160088302610100031c603781116134555760405162461bcd60e51b8152602060048201526048602482015260008051602061468f83398151915260448201527f742062652067726561746572207468616e20353520627974657320286c6f6e6760648201526720737472696e672960c01b608482015260a401610589565b61345f81846144b9565b8951116134d75760405162461bcd60e51b815260206004820152604c602482015260008051602061468f83398151915260448201527f742062652067726561746572207468616e20746f74616c206c656e677468202860648201526b6c6f6e6720737472696e672960a01b608482015260a401610589565b6134e28360016144b9565b97509550600094506137c59350505050565b60f7811161359657600061350960c083614198565b9050808760000151116135855760405162461bcd60e51b815260206004820152604a602482015260008051602061468f83398151915260448201527f742062652067726561746572207468616e206c697374206c656e677468202873606482015269686f7274206c6973742960b01b608482015260a401610589565b6001955093508492506137c5915050565b60006135a360f783614198565b9050808760000151116136225760405162461bcd60e51b815260206004820152604d602482015260008051602061468f83398151915260448201527f74206265203e207468616e206c656e677468206f66206c697374206c656e677460648201526c6820286c6f6e67206c6973742960981b608482015260a401610589565b60018301516001600160f81b03191660008190036136a75760405162461bcd60e51b8152602060048201526048602482015260008051602061468f83398151915260448201527f74206e6f74206861766520616e79206c656164696e67207a65726f7320286c6f6064820152676e67206c6973742960c01b608482015260a401610589565b600184015160088302610100031c603781116137285760405162461bcd60e51b8152602060048201526046602482015260008051602061468f83398151915260448201527f742062652067726561746572207468616e20353520627974657320286c6f6e67606482015265206c6973742960d01b608482015260a401610589565b61373281846144b9565b8951116137a85760405162461bcd60e51b815260206004820152604a602482015260008051602061468f83398151915260448201527f742062652067726561746572207468616e20746f74616c206c656e67746820286064820152696c6f6e67206c6973742960b01b608482015260a401610589565b6137b38360016144b9565b97509550600194506137c59350505050565b9193909250565b6060816001600160401b038111156137e6576137e6613cc4565b6040519080825280601f01601f191660200182016040528015613810576020820181803683370190505b50905081156119ae57600061382584866144b9565b90506020820160005b8481101561384657828101518282015260200161382e565b84811115613855576000858301525b5050509392505050565b60606118d78260200151600084600001516137cc565b60608182601f0110156138bb5760405162461bcd60e51b815260206004820152600e60248201526d736c6963655f6f766572666c6f7760901b6044820152606401610589565b8282840110156138fe5760405162461bcd60e51b815260206004820152600e60248201526d736c6963655f6f766572666c6f7760901b6044820152606401610589565b818301845110156139455760405162461bcd60e51b8152602060048201526011602482015270736c6963655f6f75744f66426f756e647360781b6044820152606401610589565b60608215801561396457604051915060008252602082016040526139ae565b6040519150601f8416801560200281840101858101878315602002848b0101015b8183101561399d578051835260209283019201613985565b5050858452601f01601f1916604052505b50949350505050565b604080518082019091526000808252602082015260008251116139ec5760405162461bcd60e51b81526004016105899061461e565b50604080518082019091528151815260209182019181019190915290565b60606000806000613a1a85613109565b919450925090506001816001811115613a3557613a35614608565b14613aa85760405162461bcd60e51b815260206004820152603860248201527f524c505265616465723a206465636f646564206974656d207479706520666f7260448201527f206c697374206973206e6f742061206c697374206974656d00000000000000006064820152608401610589565b8451613ab483856144b9565b14613b1c5760405162461bcd60e51b815260206004820152603260248201527f524c505265616465723a206c697374206974656d2068617320616e20696e76616044820152713634b2103230ba30903932b6b0b4b73232b960711b6064820152608401610589565b604080516020808252610420820190925290816020015b6040805180820190915260008082526020820152815260200190600190039081613b335790505093506000835b8651811015613c2157600080613ba66040518060400160405280858c60000151613b8a9190614198565b8152602001858c60200151613b9f91906144b9565b9052613109565b509150915060405180604001604052808383613bc291906144b9565b8152602001848b60200151613bd791906144b9565b815250888581518110613bec57613bec6145ad565b6020908102919091010152613c026001856144b9565b9350613c0e81836144b9565b613c1890846144b9565b92505050613b60565b50845250919392505050565b6001600160a01b0381168114613c4257600080fd5b50565b8015158114613c4257600080fd5b600080600080600060a08688031215613c6b57600080fd5b8535613c7681613c2d565b94506020860135613c8681613c2d565b93506040860135613c9681613c2d565b92506060860135613ca681613c45565b91506080860135613cb681613c2d565b809150509295509295909350565b634e487b7160e01b600052604160045260246000fd5b604051601f8201601f191681016001600160401b0381118282101715613d0257613d02613cc4565b604052919050565b600082601f830112613d1b57600080fd5b81356001600160401b03811115613d3457613d34613cc4565b613d47601f8201601f1916602001613cda565b818152846020838601011115613d5c57600080fd5b816020850160208301376000918101602001919091529392505050565b600060c08284031215613d8b57600080fd5b60405160c081016001600160401b038282108183111715613dae57613dae613cc4565b816040528293508435835260208501359150613dc982613c2d565b81602084015260408501359150613ddf82613c2d565b816040840152606085013560608401526080850135608084015260a0850135915080821115613e0d57600080fd5b50613e1a85828601613d0a565b60a0830152505092915050565b60008060408385031215613e3a57600080fd5b8235915060208301356001600160401b03811115613e5757600080fd5b613e6385828601613d79565b9150509250929050565b600080600080600085870360e0811215613e8657600080fd5b86356001600160401b0380821115613e9d57600080fd5b613ea98a838b01613d79565b9750602089013596506080603f1984011215613ec457600080fd5b60408901955060c0890135925080831115613ede57600080fd5b828901925089601f840112613ef257600080fd5b8235915080821115613f0357600080fd5b508860208260051b8401011115613f1957600080fd5b959894975092955050506020019190565b60005b83811015613f45578181015183820152602001613f2d565b83811115613f54576000848401525b50505050565b60008151808452613f72816020860160208601613f2a565b601f01601f19169290920160200192915050565b6020815260006119ae6020830184613f5a565b600060208284031215613fab57600080fd5b5035919050565b80356001600160401b0381168114613fc957600080fd5b919050565b600060208284031215613fe057600080fd5b6119ae82613fb2565b600080600080600060a0868803121561400157600080fd5b853561400c81613c2d565b94506020860135935061402160408701613fb2565b9250606086013561403181613c45565b915060808601356001600160401b0381111561404c57600080fd5b61405888828901613d0a565b9150509295509295909350565b60006020828403121561407757600080fd5b81516119ae81613c2d565b8581528460208201526001600160401b0360c01b8460c01b16604082015282151560f81b6048820152600082516140c0816049850160208701613f2a565b919091016049019695505050505050565b6000602082840312156140e357600080fd5b5051919050565b80516001600160801b0381168114613fc957600080fd5b60006060828403121561411357600080fd5b604051606081018181106001600160401b038211171561413557614135613cc4565b60405282518152614148602084016140ea565b6020820152614159604084016140ea565b60408201529392505050565b60006020828403121561417757600080fd5b81516119ae81613c45565b634e487b7160e01b600052601160045260246000fd5b6000828210156141aa576141aa614182565b500390565b6000608082840312156141c157600080fd5b604051608081018181106001600160401b03821117156141e3576141e3613cc4565b8060405250823581526020830135602082015260408301356040820152606083013560608201528091505092915050565b60006001600160401b038084111561422e5761422e613cc4565b8360051b602061423f818301613cda565b86815291850191818101903684111561425757600080fd5b865b8481101561428b578035868111156142715760008081fd5b61427d36828b01613d0a565b845250918301918301614259565b50979650505050505050565b60006001600160401b03808316818516818304811182151516156142bd576142bd614182565b02949350505050565b60006001600160401b038083168185168083038211156142e8576142e8614182565b01949350505050565b634e487b7160e01b600052601260045260246000fd5b600082614316576143166142f1565b600160ff1b82146000198414161561433057614330614182565b500590565b60008083128015600160ff1b85018412161561435357614353614182565b6001600160ff1b038401831381161561436e5761436e614182565b50500390565b60006001600160ff1b038184138284138082168684048611161561439a5761439a614182565b600160ff1b60008712828116878305891216156143b9576143b9614182565b600087129250878205871284841616156143d5576143d5614182565b878505871281841616156143eb576143eb614182565b505050929093029392505050565b600080821280156001600160ff1b038490038513161561441b5761441b614182565b600160ff1b839003841281161561443457614434614182565b50500190565b600081600019048311821515161561445457614454614182565b500290565b600082614468576144686142f1565b500490565b8681526001600160a01b03868116602083015285166040820152606081018490526080810183905260c060a082018190526000906144ad90830184613f5a565b98975050505050505050565b600082198211156144cc576144cc614182565b500190565b805163ffffffff81168114613fc957600080fd5b805160ff81168114613fc957600080fd5b600060c0828403121561450857600080fd5b60405160c081018181106001600160401b038211171561452a5761452a613cc4565b604052614536836144d1565b8152614544602084016144e5565b6020820152614555604084016144e5565b6040820152614566606084016144d1565b6060820152614577608084016144d1565b608082015261458860a084016140ea565b60a08201529392505050565b6000600182016145a6576145a6614182565b5060010190565b634e487b7160e01b600052603260045260246000fd5b600060ff8316806145d6576145d66142f1565b8060ff84160691505092915050565b600060ff821660ff8416808210156145ff576145ff614182565b90039392505050565b634e487b7160e01b600052602160045260246000fd5b6020808252604a908201527f524c505265616465723a206c656e677468206f6620616e20524c50206974656d60408201527f206d7573742062652067726561746572207468616e207a65726f20746f206265606082015269206465636f6461626c6560b01b608082015260a0019056fe524c505265616465723a206c656e677468206f6620636f6e74656e74206d7573a164736f6c634300080f000a",
  "numDeployments": 1,
  "solcInputHash": "0x0000000000000000000000000000000000000000000000000000000000000000",
  "storageLayout": {
    "storage": [
      {
        "astId": 49747,
        "contract": "src/L1/OptimismPortal.sol:OptimismPortal",
        "label": "_initialized",
        "offset": 0,
        "slot": "0",
        "type": "t_uint8"
      },
      {
        "astId": 49750,
        "contract": "src/L1/OptimismPortal.sol:OptimismPortal",
        "label": "_initializing",
        "offset": 1,
        "slot": "0",
        "type": "t_bool"
      },
      {
        "astId": 83765,
        "contract": "src/L1/OptimismPortal.sol:OptimismPortal",
        "label": "params",
        "offset": 0,
        "slot": "1",
        "type": "t_struct(ResourceParams)83748_storage"
      },
      {
        "astId": 83770,
        "contract": "src/L1/OptimismPortal.sol:OptimismPortal",
        "label": "__gap",
        "offset": 0,
        "slot": "2",
        "type": "t_array(t_uint256)48_storage"
      },
      {
        "astId": 82621,
        "contract": "src/L1/OptimismPortal.sol:OptimismPortal",
        "label": "l2Sender",
        "offset": 0,
        "slot": "50",
        "type": "t_address"
      },
      {
        "astId": 82626,
        "contract": "src/L1/OptimismPortal.sol:OptimismPortal",
        "label": "finalizedWithdrawals",
        "offset": 0,
        "slot": "51",
        "type": "t_mapping(t_bytes32,t_bool)"
      },
      {
        "astId": 82632,
        "contract": "src/L1/OptimismPortal.sol:OptimismPortal",
        "label": "provenWithdrawals",
        "offset": 0,
        "slot": "52",
        "type": "t_mapping(t_bytes32,t_struct(ProvenWithdrawal)82606_storage)"
      },
      {
        "astId": 82635,
        "contract": "src/L1/OptimismPortal.sol:OptimismPortal",
        "label": "paused",
        "offset": 0,
        "slot": "53",
        "type": "t_bool"
      },
      {
        "astId": 82639,
        "contract": "src/L1/OptimismPortal.sol:OptimismPortal",
        "label": "l2Oracle",
        "offset": 1,
        "slot": "53",
        "type": "t_contract(L2OutputOracle)82562"
      },
      {
        "astId": 82643,
        "contract": "src/L1/OptimismPortal.sol:OptimismPortal",
        "label": "systemConfig",
        "offset": 0,
        "slot": "54",
        "type": "t_contract(SystemConfig)84877"
      },
      {
        "astId": 82646,
        "contract": "src/L1/OptimismPortal.sol:OptimismPortal",
        "label": "guardian",
        "offset": 0,
        "slot": "55",
        "type": "t_address"
      },
      {
        "astId": 82650,
        "contract": "src/L1/OptimismPortal.sol:OptimismPortal",
        "label": "yieldManager",
        "offset": 0,
        "slot": "56",
        "type": "t_contract(ETHYieldManager)100927"
      }
    ],
    "types": {
      "t_address": {
        "encoding": "inplace",
        "label": "address",
        "numberOfBytes": "20"
      },
      "t_array(t_uint256)48_storage": {
        "encoding": "inplace",
        "label": "uint256[48]",
        "numberOfBytes": "1536",
        "base": "t_uint256"
      },
      "t_bool": {
        "encoding": "inplace",
        "label": "bool",
        "numberOfBytes": "1"
      },
      "t_bytes32": {
        "encoding": "inplace",
        "label": "bytes32",
        "numberOfBytes": "32"
      },
      "t_contract(ETHYieldManager)100927": {
        "encoding": "inplace",
        "label": "contract ETHYieldManager",
        "numberOfBytes": "20"
      },
      "t_contract(L2OutputOracle)82562": {
        "encoding": "inplace",
        "label": "contract L2OutputOracle",
        "numberOfBytes": "20"
      },
      "t_contract(SystemConfig)84877": {
        "encoding": "inplace",
        "label": "contract SystemConfig",
        "numberOfBytes": "20"
      },
      "t_mapping(t_bytes32,t_bool)": {
        "encoding": "mapping",
        "key": "t_bytes32",
        "label": "mapping(bytes32 => bool)",
        "numberOfBytes": "32",
        "value": "t_bool"
      },
      "t_mapping(t_bytes32,t_struct(ProvenWithdrawal)82606_storage)": {
        "encoding": "mapping",
        "key": "t_bytes32",
        "label": "mapping(bytes32 => struct OptimismPortal.ProvenWithdrawal)",
        "numberOfBytes": "32",
        "value": "t_struct(ProvenWithdrawal)82606_storage"
      },
      "t_struct(ProvenWithdrawal)82606_storage": {
        "encoding": "inplace",
        "label": "struct OptimismPortal.ProvenWithdrawal",
        "numberOfBytes": "96",
        "members": [
          {
            "astId": 82599,
            "contract": "src/L1/OptimismPortal.sol:OptimismPortal",
            "label": "outputRoot",
            "offset": 0,
            "slot": "0",
            "type": "t_bytes32"
          },
          {
            "astId": 82601,
            "contract": "src/L1/OptimismPortal.sol:OptimismPortal",
            "label": "timestamp",
            "offset": 0,
            "slot": "1",
            "type": "t_uint128"
          },
          {
            "astId": 82603,
            "contract": "src/L1/OptimismPortal.sol:OptimismPortal",
            "label": "l2OutputIndex",
            "offset": 16,
            "slot": "1",
            "type": "t_uint128"
          },
          {
            "astId": 82605,
            "contract": "src/L1/OptimismPortal.sol:OptimismPortal",
            "label": "requestId",
            "offset": 0,
            "slot": "2",
            "type": "t_uint256"
          }
        ]
      },
      "t_struct(ResourceParams)83748_storage": {
        "encoding": "inplace",
        "label": "struct ResourceMetering.ResourceParams",
        "numberOfBytes": "32",
        "members": [
          {
            "astId": 83743,
            "contract": "src/L1/OptimismPortal.sol:OptimismPortal",
            "label": "prevBaseFee",
            "offset": 0,
            "slot": "0",
            "type": "t_uint128"
          },
          {
            "astId": 83745,
            "contract": "src/L1/OptimismPortal.sol:OptimismPortal",
            "label": "prevBoughtGas",
            "offset": 16,
            "slot": "0",
            "type": "t_uint64"
          },
          {
            "astId": 83747,
            "contract": "src/L1/OptimismPortal.sol:OptimismPortal",
            "label": "prevBlockNum",
            "offset": 24,
            "slot": "0",
            "type": "t_uint64"
          }
        ]
      },
      "t_uint128": {
        "encoding": "inplace",
        "label": "uint128",
        "numberOfBytes": "16"
      },
      "t_uint256": {
        "encoding": "inplace",
        "label": "uint256",
        "numberOfBytes": "32"
      },
      "t_uint64": {
        "encoding": "inplace",
        "label": "uint64",
        "numberOfBytes": "8"
      },
      "t_uint8": {
        "encoding": "inplace",
        "label": "uint8",
        "numberOfBytes": "1"
      }
    }
  },
  "transactionHash": "0xc589728769547b43d0963b1d210b29c0d8f0fdcc7007391f202af3bb8d28a8fd"
}