{
  "abi": [
    {
      "inputs": [
        {
          "internalType": "address",
          "name": "_owner",
          "type": "address"
        }
      ],
      "stateMutability": "nonpayable",
      "type": "constructor"
    },
    {
      "anonymous": false,
      "inputs": [
        {
          "indexed": true,
          "internalType": "address",
          "name": "previousOwner",
          "type": "address"
        },
        {
          "indexed": true,
          "internalType": "address",
          "name": "newOwner",
          "type": "address"
        }
      ],
      "name": "OwnershipTransferred",
      "type": "event"
    },
    {
      "inputs": [],
      "name": "addressManager",
      "outputs": [
        {
          "internalType": "contract AddressManager",
          "name": "",
          "type": "address"
        }
      ],
      "stateMutability": "view",
      "type": "function"
    },
    {
      "inputs": [
        {
          "internalType": "address payable",
          "name": "_proxy",
          "type": "address"
        },
        {
          "internalType": "address",
          "name": "_newAdmin",
          "type": "address"
        }
      ],
      "name": "changeProxyAdmin",
      "outputs": [],
      "stateMutability": "nonpayable",
      "type": "function"
    },
    {
      "inputs": [
        {
          "internalType": "address payable",
          "name": "_proxy",
          "type": "address"
        }
      ],
      "name": "getProxyAdmin",
      "outputs": [
        {
          "internalType": "address",
          "name": "",
          "type": "address"
        }
      ],
      "stateMutability": "view",
      "type": "function"
    },
    {
      "inputs": [
        {
          "internalType": "address",
          "name": "_proxy",
          "type": "address"
        }
      ],
      "name": "getProxyImplementation",
      "outputs": [
        {
          "internalType": "address",
          "name": "",
          "type": "address"
        }
      ],
      "stateMutability": "view",
      "type": "function"
    },
    {
      "inputs": [
        {
          "internalType": "address",
          "name": "",
          "type": "address"
        }
      ],
      "name": "implementationName",
      "outputs": [
        {
          "internalType": "string",
          "name": "",
          "type": "string"
        }
      ],
      "stateMutability": "view",
      "type": "function"
    },
    {
      "inputs": [],
      "name": "isUpgrading",
      "outputs": [
        {
          "internalType": "bool",
          "name": "",
          "type": "bool"
        }
      ],
      "stateMutability": "view",
      "type": "function"
    },
    {
      "inputs": [],
      "name": "owner",
      "outputs": [
        {
          "internalType": "address",
          "name": "",
          "type": "address"
        }
      ],
      "stateMutability": "view",
      "type": "function"
    },
    {
      "inputs": [
        {
          "internalType": "address",
          "name": "",
          "type": "address"
        }
      ],
      "name": "proxyType",
      "outputs": [
        {
          "internalType": "enum ProxyAdmin.ProxyType",
          "name": "",
          "type": "uint8"
        }
      ],
      "stateMutability": "view",
      "type": "function"
    },
    {
      "inputs": [],
      "name": "renounceOwnership",
      "outputs": [],
      "stateMutability": "nonpayable",
      "type": "function"
    },
    {
      "inputs": [
        {
          "internalType": "string",
          "name": "_name",
          "type": "string"
        },
        {
          "internalType": "address",
          "name": "_address",
          "type": "address"
        }
      ],
      "name": "setAddress",
      "outputs": [],
      "stateMutability": "nonpayable",
      "type": "function"
    },
    {
      "inputs": [
        {
          "internalType": "contract AddressManager",
          "name": "_address",
          "type": "address"
        }
      ],
      "name": "setAddressManager",
      "outputs": [],
      "stateMutability": "nonpayable",
      "type": "function"
    },
    {
      "inputs": [
        {
          "internalType": "address",
          "name": "_address",
          "type": "address"
        },
        {
          "internalType": "string",
          "name": "_name",
          "type": "string"
        }
      ],
      "name": "setImplementationName",
      "outputs": [],
      "stateMutability": "nonpayable",
      "type": "function"
    },
    {
      "inputs": [
        {
          "internalType": "address",
          "name": "_address",
          "type": "address"
        },
        {
          "internalType": "enum ProxyAdmin.ProxyType",
          "name": "_type",
          "type": "uint8"
        }
      ],
      "name": "setProxyType",
      "outputs": [],
      "stateMutability": "nonpayable",
      "type": "function"
    },
    {
      "inputs": [
        {
          "internalType": "bool",
          "name": "_upgrading",
          "type": "bool"
        }
      ],
      "name": "setUpgrading",
      "outputs": [],
      "stateMutability": "nonpayable",
      "type": "function"
    },
    {
      "inputs": [
        {
          "internalType": "address",
          "name": "newOwner",
          "type": "address"
        }
      ],
      "name": "transferOwnership",
      "outputs": [],
      "stateMutability": "nonpayable",
      "type": "function"
    },
    {
      "inputs": [
        {
          "internalType": "address payable",
          "name": "_proxy",
          "type": "address"
        },
        {
          "internalType": "address",
          "name": "_implementation",
          "type": "address"
        }
      ],
      "name": "upgrade",
      "outputs": [],
      "stateMutability": "nonpayable",
      "type": "function"
    },
    {
      "inputs": [
        {
          "internalType": "address payable",
          "name": "_proxy",
          "type": "address"
        },
        {
          "internalType": "address",
          "name": "_implementation",
          "type": "address"
        },
        {
          "internalType": "bytes",
          "name": "_data",
          "type": "bytes"
        }
      ],
      "name": "upgradeAndCall",
      "outputs": [],
      "stateMutability": "payable",
      "type": "function"
    }
  ],
  "address": "0x364289230b8cc7d9120eF962AF37ebCFe23cE883",
  "args": [
    "0x263EFB012774435efFB168f9Ebd94f7b03BDb825"
  ],
  "bytecode": "0x608060405234801561001057600080fd5b5060405161152238038061152283398101604081905261002f91610097565b61003833610047565b61004181610047565b506100c7565b600080546001600160a01b038381166001600160a01b0319831681178455604051919092169283917f8be0079c531659141344cd1fd0a4f28419497f9722a3daafe3b4186f6b6457e09190a35050565b6000602082840312156100a957600080fd5b81516001600160a01b03811681146100c057600080fd5b9392505050565b61144c806100d66000396000f3fe6080604052600436106100fe5760003560e01c8063860f7cda1161009557806399a88ec41161006457806399a88ec4146102b25780639b2ea4bd146102d2578063b7947262146102f2578063f2fde38b1461031c578063f3b7dead1461033c57600080fd5b8063860f7cda146102415780638d52d4a0146102615780638da5cb5b146102815780639623609d1461029f57600080fd5b80633ab76e9f116100d15780633ab76e9f146101af5780636bd9f516146101cf578063715018a61461020c5780637eff275e1461022157600080fd5b80630652b57a1461010357806307c8f7b014610125578063204e1c7a14610145578063238181ae14610182575b600080fd5b34801561010f57600080fd5b5061012361011e366004610e31565b61035c565b005b34801561013157600080fd5b50610123610140366004610e4e565b610386565b34801561015157600080fd5b50610165610160366004610e31565b6103ac565b6040516001600160a01b0390911681526020015b60405180910390f35b34801561018e57600080fd5b506101a261019d366004610e31565b61056b565b6040516101799190610ec8565b3480156101bb57600080fd5b50600354610165906001600160a01b031681565b3480156101db57600080fd5b506101ff6101ea366004610e31565b60016020526000908152604090205460ff1681565b6040516101799190610ef1565b34801561021857600080fd5b50610123610605565b34801561022d57600080fd5b5061012361023c366004610f19565b610619565b34801561024d57600080fd5b5061012361025c36600461101f565b61074d565b34801561026d57600080fd5b5061012361027c36600461106f565b610777565b34801561028d57600080fd5b506000546001600160a01b0316610165565b6101236102ad3660046110a1565b6107c0565b3480156102be57600080fd5b506101236102cd366004610f19565b610950565b3480156102de57600080fd5b506101236102ed366004611117565b610b54565b3480156102fe57600080fd5b50600354600160a01b900460ff166040519015158152602001610179565b34801561032857600080fd5b50610123610337366004610e31565b610bc4565b34801561034857600080fd5b50610165610357366004610e31565b610c3d565b610364610d72565b600380546001600160a01b0319166001600160a01b0392909216919091179055565b61038e610d72565b60038054911515600160a01b0260ff60a01b19909216919091179055565b6001600160a01b03811660009081526001602052604081205460ff16818160028111156103db576103db610edb565b0361044957826001600160a01b0316635c60da1b6040518163ffffffff1660e01b8152600401602060405180830381865afa15801561041e573d6000803e3d6000fd5b505050506040513d601f19601f82011682018060405250810190610442919061115e565b9392505050565b600181600281111561045d5761045d610edb565b036104a057826001600160a01b031663aaf10f426040518163ffffffff1660e01b8152600401602060405180830381865afa15801561041e573d6000803e3d6000fd5b60028160028111156104b4576104b4610edb565b03610518576003546001600160a01b0384811660009081526002602052604090819020905163bf40fac160e01b8152919092169163bf40fac1916104fb91906004016111af565b602060405180830381865afa15801561041e573d6000803e3d6000fd5b60405162461bcd60e51b815260206004820152601e60248201527f50726f787941646d696e3a20756e6b6e6f776e2070726f78792074797065000060448201526064015b60405180910390fd5b50919050565b600260205260009081526040902080546105849061117b565b80601f01602080910402602001604051908101604052809291908181526020018280546105b09061117b565b80156105fd5780601f106105d2576101008083540402835291602001916105fd565b820191906000526020600020905b8154815290600101906020018083116105e057829003601f168201915b505050505081565b61060d610d72565b6106176000610dcc565b565b610621610d72565b6001600160a01b03821660009081526001602052604081205460ff169081600281111561065057610650610edb565b036106b6576040516308f2839760e41b81526001600160a01b038381166004830152841690638f283970906024015b600060405180830381600087803b15801561069957600080fd5b505af11580156106ad573d6000803e3d6000fd5b50505050505050565b60018160028111156106ca576106ca610edb565b036106fd576040516313af403560e01b81526001600160a01b0383811660048301528416906313af40359060240161067f565b600281600281111561071157610711610edb565b036105185760035460405163f2fde38b60e01b81526001600160a01b0384811660048301529091169063f2fde38b9060240161067f565b505050565b610755610d72565b6001600160a01b03821660009081526002602052604090206107488282611280565b61077f610d72565b6001600160a01b03821660009081526001602081905260409091208054839260ff19909116908360028111156107b7576107b7610edb565b02179055505050565b6107c8610d72565b6001600160a01b03831660009081526001602052604081205460ff16908160028111156107f7576107f7610edb565b036108795760405163278f794360e11b81526001600160a01b03851690634f1ef28690349061082c9087908790600401611340565b60006040518083038185885af115801561084a573d6000803e3d6000fd5b50505050506040513d6000823e601f3d908101601f19168201604052610873919081019061136c565b5061094a565b6108838484610950565b6000846001600160a01b0316348460405161089e91906113e3565b60006040518083038185875af1925050503d80600081146108db576040519150601f19603f3d011682016040523d82523d6000602084013e6108e0565b606091505b50509050806109485760405162461bcd60e51b815260206004820152602e60248201527f50726f787941646d696e3a2063616c6c20746f2070726f78792061667465722060448201526d1d5c19dc9859194819985a5b195960921b606482015260840161055c565b505b50505050565b610958610d72565b6001600160a01b03821660009081526001602052604081205460ff169081600281111561098757610987610edb565b036109ba57604051631b2ce7f360e11b81526001600160a01b038381166004830152841690633659cfe69060240161067f565b60018160028111156109ce576109ce610edb565b03610a2757604051634d8587ed60e11b81527f360894a13ba1a3210667c828492db98dca3e2076cc3735a920a3ca505d382bbc60048201526001600160a01b038381166024830152841690639b0b0fda9060440161067f565b6002816002811115610a3b57610a3b610edb565b03610b4c576001600160a01b03831660009081526002602052604081208054610a639061117b565b80601f0160208091040260200160405190810160405280929190818152602001828054610a8f9061117b565b8015610adc5780601f10610ab157610100808354040283529160200191610adc565b820191906000526020600020905b815481529060010190602001808311610abf57829003601f168201915b5050600354604051639b2ea4bd60e01b81529495506001600160a01b031693639b2ea4bd9350610b14925085915087906004016113ff565b600060405180830381600087803b158015610b2e57600080fd5b505af1158015610b42573d6000803e3d6000fd5b5050505050505050565b610748611429565b610b5c610d72565b600354604051639b2ea4bd60e01b81526001600160a01b0390911690639b2ea4bd90610b8e90859085906004016113ff565b600060405180830381600087803b158015610ba857600080fd5b505af1158015610bbc573d6000803e3d6000fd5b505050505050565b610bcc610d72565b6001600160a01b038116610c315760405162461bcd60e51b815260206004820152602660248201527f4f776e61626c653a206e6577206f776e657220697320746865207a65726f206160448201526564647265737360d01b606482015260840161055c565b610c3a81610dcc565b50565b6001600160a01b03811660009081526001602052604081205460ff1681816002811115610c6c57610c6c610edb565b03610caf57826001600160a01b031663f851a4406040518163ffffffff1660e01b8152600401602060405180830381865afa15801561041e573d6000803e3d6000fd5b6001816002811115610cc357610cc3610edb565b03610d0657826001600160a01b031663893d20e86040518163ffffffff1660e01b8152600401602060405180830381865afa15801561041e573d6000803e3d6000fd5b6002816002811115610d1a57610d1a610edb565b0361051857600360009054906101000a90046001600160a01b03166001600160a01b0316638da5cb5b6040518163ffffffff1660e01b8152600401602060405180830381865afa15801561041e573d6000803e3d6000fd5b6000546001600160a01b031633146106175760405162461bcd60e51b815260206004820181905260248201527f4f776e61626c653a2063616c6c6572206973206e6f7420746865206f776e6572604482015260640161055c565b600080546001600160a01b038381166001600160a01b0319831681178455604051919092169283917f8be0079c531659141344cd1fd0a4f28419497f9722a3daafe3b4186f6b6457e09190a35050565b6001600160a01b0381168114610c3a57600080fd5b600060208284031215610e4357600080fd5b813561044281610e1c565b600060208284031215610e6057600080fd5b8135801515811461044257600080fd5b60005b83811015610e8b578181015183820152602001610e73565b8381111561094a5750506000910152565b60008151808452610eb4816020860160208601610e70565b601f01601f19169290920160200192915050565b6020815260006104426020830184610e9c565b634e487b7160e01b600052602160045260246000fd5b6020810160038310610f1357634e487b7160e01b600052602160045260246000fd5b91905290565b60008060408385031215610f2c57600080fd5b8235610f3781610e1c565b91506020830135610f4781610e1c565b809150509250929050565b634e487b7160e01b600052604160045260246000fd5b604051601f8201601f1916810167ffffffffffffffff81118282101715610f9157610f91610f52565b604052919050565b600067ffffffffffffffff821115610fb357610fb3610f52565b50601f01601f191660200190565b6000610fd4610fcf84610f99565b610f68565b9050828152838383011115610fe857600080fd5b828260208301376000602084830101529392505050565b600082601f83011261101057600080fd5b61044283833560208501610fc1565b6000806040838503121561103257600080fd5b823561103d81610e1c565b9150602083013567ffffffffffffffff81111561105957600080fd5b61106585828601610fff565b9150509250929050565b6000806040838503121561108257600080fd5b823561108d81610e1c565b9150602083013560038110610f4757600080fd5b6000806000606084860312156110b657600080fd5b83356110c181610e1c565b925060208401356110d181610e1c565b9150604084013567ffffffffffffffff8111156110ed57600080fd5b8401601f810186136110fe57600080fd5b61110d86823560208401610fc1565b9150509250925092565b6000806040838503121561112a57600080fd5b823567ffffffffffffffff81111561114157600080fd5b61114d85828601610fff565b9250506020830135610f4781610e1c565b60006020828403121561117057600080fd5b815161044281610e1c565b600181811c9082168061118f57607f821691505b60208210810361056557634e487b7160e01b600052602260045260246000fd5b60006020808352600084546111c38161117b565b808487015260406001808416600081146111e457600181146111fe5761122c565b60ff1985168984015283151560051b89018301955061122c565b896000528660002060005b858110156112245781548b8201860152908301908801611209565b8a0184019650505b509398975050505050505050565b601f82111561074857600081815260208120601f850160051c810160208610156112615750805b601f850160051c820191505b81811015610bbc5782815560010161126d565b815167ffffffffffffffff81111561129a5761129a610f52565b6112ae816112a8845461117b565b8461123a565b602080601f8311600181146112e357600084156112cb5750858301515b600019600386901b1c1916600185901b178555610bbc565b600085815260208120601f198616915b82811015611312578886015182559484019460019091019084016112f3565b50858210156113305787850151600019600388901b60f8161c191681555b5050505050600190811b01905550565b6001600160a01b038316815260406020820181905260009061136490830184610e9c565b949350505050565b60006020828403121561137e57600080fd5b815167ffffffffffffffff81111561139557600080fd5b8201601f810184136113a657600080fd5b80516113b4610fcf82610f99565b8181528560208385010111156113c957600080fd5b6113da826020830160208601610e70565b95945050505050565b600082516113f5818460208701610e70565b9190910192915050565b6040815260006114126040830185610e9c565b905060018060a01b03831660208301529392505050565b634e487b7160e01b600052600160045260246000fdfea164736f6c634300080f000a",
  "numDeployments": 1,
  "solcInputHash": "0x0000000000000000000000000000000000000000000000000000000000000000",
  "storageLayout": {
    "storage": [
      {
        "astId": 49455,
        "contract": "src/universal/ProxyAdmin.sol:ProxyAdmin",
        "label": "_owner",
        "offset": 0,
        "slot": "0",
        "type": "t_address"
      },
      {
        "astId": 111607,
        "contract": "src/universal/ProxyAdmin.sol:ProxyAdmin",
        "label": "proxyType",
        "offset": 0,
        "slot": "1",
        "type": "t_mapping(t_address,t_enum(ProxyType)111601)"
      },
      {
        "astId": 111612,
        "contract": "src/universal/ProxyAdmin.sol:ProxyAdmin",
        "label": "implementationName",
        "offset": 0,
        "slot": "2",
        "type": "t_mapping(t_address,t_string_storage)"
      },
      {
        "astId": 111616,
        "contract": "src/universal/ProxyAdmin.sol:ProxyAdmin",
        "label": "addressManager",
        "offset": 0,
        "slot": "3",
        "type": "t_contract(AddressManager)96501"
      },
      {
        "astId": 111619,
        "contract": "src/universal/ProxyAdmin.sol:ProxyAdmin",
        "label": "upgrading",
        "offset": 20,
        "slot": "3",
        "type": "t_bool"
      }
    ],
    "types": {
      "t_address": {
        "encoding": "inplace",
        "label": "address",
        "numberOfBytes": "20"
      },
      "t_bool": {
        "encoding": "inplace",
        "label": "bool",
        "numberOfBytes": "1"
      },
      "t_contract(AddressManager)96501": {
        "encoding": "inplace",
        "label": "contract AddressManager",
        "numberOfBytes": "20"
      },
      "t_enum(ProxyType)111601": {
        "encoding": "inplace",
        "label": "enum ProxyAdmin.ProxyType",
        "numberOfBytes": "1"
      },
      "t_mapping(t_address,t_enum(ProxyType)111601)": {
        "encoding": "mapping",
        "key": "t_address",
        "label": "mapping(address => enum ProxyAdmin.ProxyType)",
        "numberOfBytes": "32",
        "value": "t_enum(ProxyType)111601"
      },
      "t_mapping(t_address,t_string_storage)": {
        "encoding": "mapping",
        "key": "t_address",
        "label": "mapping(address => string)",
        "numberOfBytes": "32",
        "value": "t_string_storage"
      },
      "t_string_storage": {
        "encoding": "bytes",
        "label": "string",
        "numberOfBytes": "32"
      }
    }
  },
  "transactionHash": "0x250140cdcbd95474931efbeb751d4de9529f9819583a1c3a377c5828f8ffe206"
}