{
  "abi": [
    {
      "inputs": [],
      "stateMutability": "nonpayable",
      "type": "constructor"
    },
    {
      "anonymous": false,
      "inputs": [
        {
          "indexed": true,
          "internalType": "uint256",
          "name": "version",
          "type": "uint256"
        },
        {
          "indexed": true,
          "internalType": "enum SystemConfig.UpdateType",
          "name": "updateType",
          "type": "uint8"
        },
        {
          "indexed": false,
          "internalType": "bytes",
          "name": "data",
          "type": "bytes"
        }
      ],
      "name": "ConfigUpdate",
      "type": "event"
    },
    {
      "anonymous": false,
      "inputs": [
        {
          "indexed": false,
          "internalType": "uint8",
          "name": "version",
          "type": "uint8"
        }
      ],
      "name": "Initialized",
      "type": "event"
    },
    {
      "anonymous": false,
      "inputs": [
        {
          "indexed": true,
          "internalType": "address",
          "name": "previousOwner",
          "type": "address"
        },
        {
          "indexed": true,
          "internalType": "address",
          "name": "newOwner",
          "type": "address"
        }
      ],
      "name": "OwnershipTransferred",
      "type": "event"
    },
    {
      "inputs": [],
      "name": "BATCH_INBOX_SLOT",
      "outputs": [
        {
          "internalType": "bytes32",
          "name": "",
          "type": "bytes32"
        }
      ],
      "stateMutability": "view",
      "type": "function"
    },
    {
      "inputs": [],
      "name": "L1_CROSS_DOMAIN_MESSENGER_SLOT",
      "outputs": [
        {
          "internalType": "bytes32",
          "name": "",
          "type": "bytes32"
        }
      ],
      "stateMutability": "view",
      "type": "function"
    },
    {
      "inputs": [],
      "name": "L1_ERC_721_BRIDGE_SLOT",
      "outputs": [
        {
          "internalType": "bytes32",
          "name": "",
          "type": "bytes32"
        }
      ],
      "stateMutability": "view",
      "type": "function"
    },
    {
      "inputs": [],
      "name": "L1_STANDARD_BRIDGE_SLOT",
      "outputs": [
        {
          "internalType": "bytes32",
          "name": "",
          "type": "bytes32"
        }
      ],
      "stateMutability": "view",
      "type": "function"
    },
    {
      "inputs": [],
      "name": "L2_OUTPUT_ORACLE_SLOT",
      "outputs": [
        {
          "internalType": "bytes32",
          "name": "",
          "type": "bytes32"
        }
      ],
      "stateMutability": "view",
      "type": "function"
    },
    {
      "inputs": [],
      "name": "OPTIMISM_MINTABLE_ERC20_FACTORY_SLOT",
      "outputs": [
        {
          "internalType": "bytes32",
          "name": "",
          "type": "bytes32"
        }
      ],
      "stateMutability": "view",
      "type": "function"
    },
    {
      "inputs": [],
      "name": "OPTIMISM_PORTAL_SLOT",
      "outputs": [
        {
          "internalType": "bytes32",
          "name": "",
          "type": "bytes32"
        }
      ],
      "stateMutability": "view",
      "type": "function"
    },
    {
      "inputs": [],
      "name": "UNSAFE_BLOCK_SIGNER_SLOT",
      "outputs": [
        {
          "internalType": "bytes32",
          "name": "",
          "type": "bytes32"
        }
      ],
      "stateMutability": "view",
      "type": "function"
    },
    {
      "inputs": [],
      "name": "VERSION",
      "outputs": [
        {
          "internalType": "uint256",
          "name": "",
          "type": "uint256"
        }
      ],
      "stateMutability": "view",
      "type": "function"
    },
    {
      "inputs": [],
      "name": "batchInbox",
      "outputs": [
        {
          "internalType": "address",
          "name": "addr_",
          "type": "address"
        }
      ],
      "stateMutability": "view",
      "type": "function"
    },
    {
      "inputs": [],
      "name": "batcherHash",
      "outputs": [
        {
          "internalType": "bytes32",
          "name": "",
          "type": "bytes32"
        }
      ],
      "stateMutability": "view",
      "type": "function"
    },
    {
      "inputs": [],
      "name": "gasLimit",
      "outputs": [
        {
          "internalType": "uint64",
          "name": "",
          "type": "uint64"
        }
      ],
      "stateMutability": "view",
      "type": "function"
    },
    {
      "inputs": [
        {
          "internalType": "address",
          "name": "_owner",
          "type": "address"
        },
        {
          "internalType": "uint256",
          "name": "_overhead",
          "type": "uint256"
        },
        {
          "internalType": "uint256",
          "name": "_scalar",
          "type": "uint256"
        },
        {
          "internalType": "bytes32",
          "name": "_batcherHash",
          "type": "bytes32"
        },
        {
          "internalType": "uint64",
          "name": "_gasLimit",
          "type": "uint64"
        },
        {
          "internalType": "address",
          "name": "_unsafeBlockSigner",
          "type": "address"
        },
        {
          "components": [
            {
              "internalType": "uint32",
              "name": "maxResourceLimit",
              "type": "uint32"
            },
            {
              "internalType": "uint8",
              "name": "elasticityMultiplier",
              "type": "uint8"
            },
            {
              "internalType": "uint8",
              "name": "baseFeeMaxChangeDenominator",
              "type": "uint8"
            },
            {
              "internalType": "uint32",
              "name": "minimumBaseFee",
              "type": "uint32"
            },
            {
              "internalType": "uint32",
              "name": "systemTxMaxGas",
              "type": "uint32"
            },
            {
              "internalType": "uint128",
              "name": "maximumBaseFee",
              "type": "uint128"
            }
          ],
          "internalType": "struct ResourceMetering.ResourceConfig",
          "name": "_config",
          "type": "tuple"
        },
        {
          "internalType": "uint256",
          "name": "_startBlock",
          "type": "uint256"
        },
        {
          "internalType": "address",
          "name": "_batchInbox",
          "type": "address"
        },
        {
          "components": [
            {
              "internalType": "address",
              "name": "l1CrossDomainMessenger",
              "type": "address"
            },
            {
              "internalType": "address",
              "name": "l1ERC721Bridge",
              "type": "address"
            },
            {
              "internalType": "address",
              "name": "l1StandardBridge",
              "type": "address"
            },
            {
              "internalType": "address",
              "name": "l2OutputOracle",
              "type": "address"
            },
            {
              "internalType": "address",
              "name": "optimismPortal",
              "type": "address"
            },
            {
              "internalType": "address",
              "name": "optimismMintableERC20Factory",
              "type": "address"
            }
          ],
          "internalType": "struct SystemConfig.Addresses",
          "name": "_addresses",
          "type": "tuple"
        }
      ],
      "name": "initialize",
      "outputs": [],
      "stateMutability": "nonpayable",
      "type": "function"
    },
    {
      "inputs": [],
      "name": "l1CrossDomainMessenger",
      "outputs": [
        {
          "internalType": "address",
          "name": "addr_",
          "type": "address"
        }
      ],
      "stateMutability": "view",
      "type": "function"
    },
    {
      "inputs": [],
      "name": "l1ERC721Bridge",
      "outputs": [
        {
          "internalType": "address",
          "name": "addr_",
          "type": "address"
        }
      ],
      "stateMutability": "view",
      "type": "function"
    },
    {
      "inputs": [],
      "name": "l1StandardBridge",
      "outputs": [
        {
          "internalType": "address",
          "name": "addr_",
          "type": "address"
        }
      ],
      "stateMutability": "view",
      "type": "function"
    },
    {
      "inputs": [],
      "name": "l2OutputOracle",
      "outputs": [
        {
          "internalType": "address",
          "name": "addr_",
          "type": "address"
        }
      ],
      "stateMutability": "view",
      "type": "function"
    },
    {
      "inputs": [],
      "name": "minimumGasLimit",
      "outputs": [
        {
          "internalType": "uint64",
          "name": "",
          "type": "uint64"
        }
      ],
      "stateMutability": "view",
      "type": "function"
    },
    {
      "inputs": [],
      "name": "optimismMintableERC20Factory",
      "outputs": [
        {
          "internalType": "address",
          "name": "addr_",
          "type": "address"
        }
      ],
      "stateMutability": "view",
      "type": "function"
    },
    {
      "inputs": [],
      "name": "optimismPortal",
      "outputs": [
        {
          "internalType": "address",
          "name": "addr_",
          "type": "address"
        }
      ],
      "stateMutability": "view",
      "type": "function"
    },
    {
      "inputs": [],
      "name": "overhead",
      "outputs": [
        {
          "internalType": "uint256",
          "name": "",
          "type": "uint256"
        }
      ],
      "stateMutability": "view",
      "type": "function"
    },
    {
      "inputs": [],
      "name": "owner",
      "outputs": [
        {
          "internalType": "address",
          "name": "",
          "type": "address"
        }
      ],
      "stateMutability": "view",
      "type": "function"
    },
    {
      "inputs": [],
      "name": "renounceOwnership",
      "outputs": [],
      "stateMutability": "nonpayable",
      "type": "function"
    },
    {
      "inputs": [],
      "name": "resourceConfig",
      "outputs": [
        {
          "components": [
            {
              "internalType": "uint32",
              "name": "maxResourceLimit",
              "type": "uint32"
            },
            {
              "internalType": "uint8",
              "name": "elasticityMultiplier",
              "type": "uint8"
            },
            {
              "internalType": "uint8",
              "name": "baseFeeMaxChangeDenominator",
              "type": "uint8"
            },
            {
              "internalType": "uint32",
              "name": "minimumBaseFee",
              "type": "uint32"
            },
            {
              "internalType": "uint32",
              "name": "systemTxMaxGas",
              "type": "uint32"
            },
            {
              "internalType": "uint128",
              "name": "maximumBaseFee",
              "type": "uint128"
            }
          ],
          "internalType": "struct ResourceMetering.ResourceConfig",
          "name": "",
          "type": "tuple"
        }
      ],
      "stateMutability": "view",
      "type": "function"
    },
    {
      "inputs": [],
      "name": "scalar",
      "outputs": [
        {
          "internalType": "uint256",
          "name": "",
          "type": "uint256"
        }
      ],
      "stateMutability": "view",
      "type": "function"
    },
    {
      "inputs": [
        {
          "internalType": "bytes32",
          "name": "_batcherHash",
          "type": "bytes32"
        }
      ],
      "name": "setBatcherHash",
      "outputs": [],
      "stateMutability": "nonpayable",
      "type": "function"
    },
    {
      "inputs": [
        {
          "internalType": "uint256",
          "name": "_overhead",
          "type": "uint256"
        },
        {
          "internalType": "uint256",
          "name": "_scalar",
          "type": "uint256"
        }
      ],
      "name": "setGasConfig",
      "outputs": [],
      "stateMutability": "nonpayable",
      "type": "function"
    },
    {
      "inputs": [
        {
          "internalType": "uint64",
          "name": "_gasLimit",
          "type": "uint64"
        }
      ],
      "name": "setGasLimit",
      "outputs": [],
      "stateMutability": "nonpayable",
      "type": "function"
    },
    {
      "inputs": [
        {
          "components": [
            {
              "internalType": "uint32",
              "name": "maxResourceLimit",
              "type": "uint32"
            },
            {
              "internalType": "uint8",
              "name": "elasticityMultiplier",
              "type": "uint8"
            },
            {
              "internalType": "uint8",
              "name": "baseFeeMaxChangeDenominator",
              "type": "uint8"
            },
            {
              "internalType": "uint32",
              "name": "minimumBaseFee",
              "type": "uint32"
            },
            {
              "internalType": "uint32",
              "name": "systemTxMaxGas",
              "type": "uint32"
            },
            {
              "internalType": "uint128",
              "name": "maximumBaseFee",
              "type": "uint128"
            }
          ],
          "internalType": "struct ResourceMetering.ResourceConfig",
          "name": "_config",
          "type": "tuple"
        }
      ],
      "name": "setResourceConfig",
      "outputs": [],
      "stateMutability": "nonpayable",
      "type": "function"
    },
    {
      "inputs": [
        {
          "internalType": "address",
          "name": "_unsafeBlockSigner",
          "type": "address"
        }
      ],
      "name": "setUnsafeBlockSigner",
      "outputs": [],
      "stateMutability": "nonpayable",
      "type": "function"
    },
    {
      "inputs": [],
      "name": "startBlock",
      "outputs": [
        {
          "internalType": "uint256",
          "name": "",
          "type": "uint256"
        }
      ],
      "stateMutability": "view",
      "type": "function"
    },
    {
      "inputs": [
        {
          "internalType": "address",
          "name": "newOwner",
          "type": "address"
        }
      ],
      "name": "transferOwnership",
      "outputs": [],
      "stateMutability": "nonpayable",
      "type": "function"
    },
    {
      "inputs": [],
      "name": "unsafeBlockSigner",
      "outputs": [
        {
          "internalType": "address",
          "name": "addr_",
          "type": "address"
        }
      ],
      "stateMutability": "view",
      "type": "function"
    },
    {
      "inputs": [],
      "name": "version",
      "outputs": [
        {
          "internalType": "string",
          "name": "",
          "type": "string"
        }
      ],
      "stateMutability": "view",
      "type": "function"
    }
  ],
  "address": "0xA150f19B681a06E1a0B7E03934299a9bf9238cb7",
  "args": [],
  "bytecode": "0x60806040523480156200001157600080fd5b506040805160c080820183526001808352602080840182905260028486015260006060808601829052608080870183905260a08088018490528851968701895283875293860183905296850182905284018190529483018590528201849052620000909361dead93909283928392909183919060001990839062000096565b62000ccc565b600054600190610100900460ff16158015620000b9575060005460ff8083169116105b620001225760405162461bcd60e51b815260206004820152602e60248201527f496e697469616c697a61626c653a20636f6e747261637420697320616c72656160448201526d191e481a5b9a5d1a585b1a5e995960921b60648201526084015b60405180910390fd5b6000805461ffff191660ff831617610100179055620001406200043a565b6200014b8b620004a2565b620001568862000521565b620001628a8a62000573565b6200016d87620005d7565b620001788662000674565b620001be620001a960017f71ac12829d66ee73d8d95bff50b3589745ce57edae70a3fb111a2342464dc59862000ba9565b60001b84620006dc60201b62000bba1760201c565b62000208620001ef60017f383f291819e6d54073bc9a648251d97421076bdd101933c0c022219ce958063762000ba9565b60001b8360000151620006dc60201b62000bba1760201c565b620002526200023960017f46adcbebc6be8ce551740c29c47c8798210f23f7f4086c41752944352568d5a862000ba9565b60001b8360200151620006dc60201b62000bba1760201c565b6200029c6200028360017f9904ba90dde5696cda05c9e0dab5cbaa0fea005ace4d11218a02ac668dad637762000ba9565b60001b8360400151620006dc60201b62000bba1760201c565b620002e6620002cd60017fe52a667f71ec761b9b381c7b76ca9b852adf7e8905da0e0ad49986a0a687181662000ba9565b60001b8360600151620006dc60201b62000bba1760201c565b620003306200031760017f4b6c74f9e688cb39801f2112c14a8c57232a3fc5202e1444126d4bce86eb19ad62000ba9565b60001b8360800151620006dc60201b62000bba1760201c565b6200037a6200036160017fa04c5bb938ca6fc46d95553abf0a76345ce3e722a30bf4f74928b8e7d852320d62000ba9565b60001b8360a00151620006dc60201b62000bba1760201c565b6200038584620006e0565b62000390856200070d565b6200039a62000a51565b6001600160401b0316876001600160401b03161015620003ec5760405162461bcd60e51b815260206004820152601f602482015260008051602062002365833981519152604482015260640162000119565b6000805461ff001916905560405160ff821681527f7f26b83ff96e1f2b6a682f133852f6798a09c465da95921460cefb38474024989060200160405180910390a15050505050505050505050565b600054610100900460ff16620004965760405162461bcd60e51b815260206004820152602b6024820152600080516020620023a583398151915260448201526a6e697469616c697a696e6760a81b606482015260840162000119565b620004a062000a7e565b565b620004ac62000ae5565b6001600160a01b038116620005135760405162461bcd60e51b815260206004820152602660248201527f4f776e61626c653a206e6577206f776e657220697320746865207a65726f206160448201526564647265737360d01b606482015260840162000119565b6200051e8162000b41565b50565b60678190556040805160208082018490528251808303909101815290820190915260005b6000600080516020620023858339815191528360405162000567919062000bc3565b60405180910390a35050565b60658290556066819055604080516020810184905290810182905260009060600160408051601f198184030181529190529050600160006000805160206200238583398151915283604051620005ca919062000bc3565b60405180910390a3505050565b620005e162000a51565b6001600160401b0316816001600160401b03161015620006335760405162461bcd60e51b815260206004820152601f602482015260008051602062002365833981519152604482015260640162000119565b606880546001600160401b0319166001600160401b038316908117909155604080516020808201939093528151808203909301835281019052600262000545565b620006ab7f65a7ed542fb37fe237fdfbdd70b31598523fe5b32879e307bae27a0bd9581c0882620006dc60201b62000bba1760201c565b604080516001600160a01b03831660208201526000910160408051601f198184030181529190529050600362000545565b9055565b8015801590620006f05750606a54155b15620006fb57606a55565b606a546000036200051e5743606a5550565b8060a001516001600160801b0316816060015163ffffffff1611156200079c5760405162461bcd60e51b815260206004820152603560248201527f53797374656d436f6e6669673a206d696e206261736520666565206d7573742060448201527f6265206c657373207468616e206d617820626173650000000000000000000000606482015260840162000119565b6001816040015160ff16116200080d5760405162461bcd60e51b815260206004820152602f60248201527f53797374656d436f6e6669673a2064656e6f6d696e61746f72206d757374206260448201526e65206c6172676572207468616e203160881b606482015260840162000119565b606854608082015182516001600160401b03909216916200082f919062000c1b565b63ffffffff161115620008745760405162461bcd60e51b815260206004820152601f602482015260008051602062002365833981519152604482015260640162000119565b6000816020015160ff1611620008e55760405162461bcd60e51b815260206004820152602f60248201527f53797374656d436f6e6669673a20656c6173746963697479206d756c7469706c60448201526e06965722063616e6e6f74206265203608c1b606482015260840162000119565b8051602082015163ffffffff82169160ff909116906200090790829062000c46565b62000913919062000c78565b63ffffffff16146200098e5760405162461bcd60e51b815260206004820152603760248201527f53797374656d436f6e6669673a20707265636973696f6e206c6f73732077697460448201527f6820746172676574207265736f75726365206c696d6974000000000000000000606482015260840162000119565b805160698054602084015160408501516060860151608087015160a09097015163ffffffff96871664ffffffffff199095169490941764010000000060ff948516021764ffffffffff60281b191665010000000000939092169290920263ffffffff60301b19161766010000000000009185169190910217600160501b600160f01b0319166a01000000000000000000009390941692909202600160701b600160f01b03191692909217600160701b6001600160801b0390921691909102179055565b60695460009062000a799063ffffffff6a010000000000000000000082048116911662000ca7565b905090565b600054610100900460ff1662000ada5760405162461bcd60e51b815260206004820152602b6024820152600080516020620023a583398151915260448201526a6e697469616c697a696e6760a81b606482015260840162000119565b620004a03362000b41565b6033546001600160a01b03163314620004a05760405162461bcd60e51b815260206004820181905260248201527f4f776e61626c653a2063616c6c6572206973206e6f7420746865206f776e6572604482015260640162000119565b603380546001600160a01b038381166001600160a01b0319831681179093556040519116919082907f8be0079c531659141344cd1fd0a4f28419497f9722a3daafe3b4186f6b6457e090600090a35050565b634e487b7160e01b600052601160045260246000fd5b60008282101562000bbe5762000bbe62000b93565b500390565b600060208083528351808285015260005b8181101562000bf25785810183015185820160400152820162000bd4565b8181111562000c05576000604083870101525b50601f01601f1916929092016040019392505050565b600063ffffffff80831681851680830382111562000c3d5762000c3d62000b93565b01949350505050565b600063ffffffff8084168062000c6c57634e487b7160e01b600052601260045260246000fd5b92169190910492915050565b600063ffffffff8083168185168183048111821515161562000c9e5762000c9e62000b93565b02949350505050565b60006001600160401b0382811684821680830382111562000c3d5762000c3d62000b93565b6116898062000cdc6000396000f3fe608060405234801561001057600080fd5b50600436106102065760003560e01c8063935f029e1161011a578063cc731b02116100ad578063f45e65d81161007c578063f45e65d8146104e3578063f68016b7146104ec578063f8c68de014610500578063fd32aa0f14610508578063ffa1ad741461051057600080fd5b8063cc731b02146103af578063dac6e63a146104bf578063e81b2c6d146104c7578063f2fde38b146104d057600080fd5b8063bc49ce5f116100e9578063bc49ce5f14610379578063c4e8ddfa14610381578063c71973f614610389578063c9b26f611461039c57600080fd5b8063935f029e146103435780639b7d7f0a14610356578063a71198691461035e578063b40a817c1461036657600080fd5b80634add321d1161019d57806354fd4d501161016c57806354fd4d50146102e85780635d73369c1461031a57806361d1576814610322578063715018a61461032a5780638da5cb5b1461033257600080fd5b80634add321d146102855780634d9f1559146102a65780634f16540b146102ae5780635228a6ac146102d557600080fd5b806318d13918116101d957806318d139181461025757806319f5cea81461026c5780631fd19ee11461027457806348cd4cb11461027c57600080fd5b806306c926571461020b578063078f29cf146102265780630a49cb03146102465780630c18c1621461024e575b600080fd5b610213610518565b6040519081526020015b60405180910390f35b61022e610546565b6040516001600160a01b03909116815260200161021d565b61022e61057f565b61021360655481565b61026a6102653660046111e3565b6105af565b005b6102136105c3565b61022e6105ee565b610213606a5481565b61028d610618565b60405167ffffffffffffffff909116815260200161021d565b61022e610637565b6102137f65a7ed542fb37fe237fdfbdd70b31598523fe5b32879e307bae27a0bd9581c0881565b61026a6102e3366004611338565b610667565b61030d604051806040016040528060068152602001650312e31302e360d41b81525081565b60405161021d91906114a0565b610213610950565b61021361097b565b61026a6109a6565b6033546001600160a01b031661022e565b61026a6103513660046114b3565b6109ba565b61022e6109d0565b61022e610a00565b61026a6103743660046114d5565b610a30565b610213610a41565b61022e610a6c565b61026a6103973660046114f0565b610a9c565b61026a6103aa36600461150c565b610aad565b6104586040805160c081018252600080825260208201819052918101829052606081018290526080810182905260a0810191909152506040805160c08101825260695463ffffffff8082168352640100000000820460ff908116602085015265010000000000830416938301939093526601000000000000810483166060830152600160501b81049092166080820152600160701b9091046001600160801b031660a082015290565b60405161021d9190600060c08201905063ffffffff80845116835260ff602085015116602084015260ff6040850151166040840152806060850151166060840152806080850151166080840152506001600160801b0360a08401511660a083015292915050565b61022e610abe565b61021360675481565b61026a6104de3660046111e3565b610aee565b61021360665481565b60685461028d9067ffffffffffffffff1681565b610213610b64565b610213610b8f565b610213600081565b61054360017fa04c5bb938ca6fc46d95553abf0a76345ce3e722a30bf4f74928b8e7d852320d61153b565b81565b600061057a61057660017f9904ba90dde5696cda05c9e0dab5cbaa0fea005ace4d11218a02ac668dad637761153b565b5490565b905090565b600061057a61057660017f4b6c74f9e688cb39801f2112c14a8c57232a3fc5202e1444126d4bce86eb19ad61153b565b6105b7610bbe565b6105c081610c18565b50565b61054360017f46adcbebc6be8ce551740c29c47c8798210f23f7f4086c41752944352568d5a861153b565b600061057a7f65a7ed542fb37fe237fdfbdd70b31598523fe5b32879e307bae27a0bd9581c085490565b60695460009061057a9063ffffffff600160501b820481169116611552565b600061057a61057660017fe52a667f71ec761b9b381c7b76ca9b852adf7e8905da0e0ad49986a0a687181661153b565b600054600190610100900460ff16158015610689575060005460ff8083169116105b6106f15760405162461bcd60e51b815260206004820152602e60248201527f496e697469616c697a61626c653a20636f6e747261637420697320616c72656160448201526d191e481a5b9a5d1a585b1a5e995960921b60648201526084015b60405180910390fd5b6000805461ffff191660ff83161761010017905561070d610caa565b6107168b610aee565b61071f88610cd9565b6107298a8a610d01565b61073287610d74565b61073b86610c18565b61076e61076960017f71ac12829d66ee73d8d95bff50b3589745ce57edae70a3fb111a2342464dc59861153b565b849055565b6107a261079c60017f383f291819e6d54073bc9a648251d97421076bdd101933c0c022219ce958063761153b565b83519055565b6107d96107d060017f46adcbebc6be8ce551740c29c47c8798210f23f7f4086c41752944352568d5a861153b565b60208401519055565b61081061080760017f9904ba90dde5696cda05c9e0dab5cbaa0fea005ace4d11218a02ac668dad637761153b565b60408401519055565b61084761083e60017fe52a667f71ec761b9b381c7b76ca9b852adf7e8905da0e0ad49986a0a687181661153b565b60608401519055565b61087e61087560017f4b6c74f9e688cb39801f2112c14a8c57232a3fc5202e1444126d4bce86eb19ad61153b565b60808401519055565b6108b56108ac60017fa04c5bb938ca6fc46d95553abf0a76345ce3e722a30bf4f74928b8e7d852320d61153b565b60a08401519055565b6108be84610df1565b6108c785610e1b565b6108cf610618565b67ffffffffffffffff168767ffffffffffffffff1610156109025760405162461bcd60e51b81526004016106e89061157e565b6000805461ff001916905560405160ff821681527f7f26b83ff96e1f2b6a682f133852f6798a09c465da95921460cefb38474024989060200160405180910390a15050505050505050505050565b61054360017f383f291819e6d54073bc9a648251d97421076bdd101933c0c022219ce958063761153b565b61054360017fe52a667f71ec761b9b381c7b76ca9b852adf7e8905da0e0ad49986a0a687181661153b565b6109ae610bbe565b6109b86000611145565b565b6109c2610bbe565b6109cc8282610d01565b5050565b600061057a61057660017fa04c5bb938ca6fc46d95553abf0a76345ce3e722a30bf4f74928b8e7d852320d61153b565b600061057a61057660017f383f291819e6d54073bc9a648251d97421076bdd101933c0c022219ce958063761153b565b610a38610bbe565b6105c081610d74565b61054360017f71ac12829d66ee73d8d95bff50b3589745ce57edae70a3fb111a2342464dc59861153b565b600061057a61057660017f46adcbebc6be8ce551740c29c47c8798210f23f7f4086c41752944352568d5a861153b565b610aa4610bbe565b6105c081610e1b565b610ab5610bbe565b6105c081610cd9565b600061057a61057660017f71ac12829d66ee73d8d95bff50b3589745ce57edae70a3fb111a2342464dc59861153b565b610af6610bbe565b6001600160a01b038116610b5b5760405162461bcd60e51b815260206004820152602660248201527f4f776e61626c653a206e6577206f776e657220697320746865207a65726f206160448201526564647265737360d01b60648201526084016106e8565b6105c081611145565b61054360017f9904ba90dde5696cda05c9e0dab5cbaa0fea005ace4d11218a02ac668dad637761153b565b61054360017f4b6c74f9e688cb39801f2112c14a8c57232a3fc5202e1444126d4bce86eb19ad61153b565b9055565b6033546001600160a01b031633146109b85760405162461bcd60e51b815260206004820181905260248201527f4f776e61626c653a2063616c6c6572206973206e6f7420746865206f776e657260448201526064016106e8565b610c417f65a7ed542fb37fe237fdfbdd70b31598523fe5b32879e307bae27a0bd9581c08829055565b604080516001600160a01b03831660208201526000910160408051601f19818403018152919052905060035b60007f1d2b0bda21d56b8bd12d4f94ebacffdfb35f5e226f84b461103bb8beab6353be83604051610c9e91906114a0565b60405180910390a35050565b600054610100900460ff16610cd15760405162461bcd60e51b81526004016106e8906115b5565b6109b8611197565b6067819055604080516020808201849052825180830390910181529082019091526000610c6d565b60658290556066819055604080516020810184905290810182905260009060600160408051601f198184030181529190529050600160007f1d2b0bda21d56b8bd12d4f94ebacffdfb35f5e226f84b461103bb8beab6353be83604051610d6791906114a0565b60405180910390a3505050565b610d7c610618565b67ffffffffffffffff168167ffffffffffffffff161015610daf5760405162461bcd60e51b81526004016106e89061157e565b6068805467ffffffffffffffff191667ffffffffffffffff83169081179091556040805160208082019390935281518082039093018352810190526002610c6d565b8015801590610e005750606a54155b15610e0a57606a55565b606a546000036105c05743606a5550565b8060a001516001600160801b0316816060015163ffffffff161115610ea05760405162461bcd60e51b815260206004820152603560248201527f53797374656d436f6e6669673a206d696e206261736520666565206d757374206044820152746265206c657373207468616e206d6178206261736560581b60648201526084016106e8565b6001816040015160ff1611610f0f5760405162461bcd60e51b815260206004820152602f60248201527f53797374656d436f6e6669673a2064656e6f6d696e61746f72206d757374206260448201526e65206c6172676572207468616e203160881b60648201526084016106e8565b6068546080820151825167ffffffffffffffff90921691610f309190611600565b63ffffffff161115610f545760405162461bcd60e51b81526004016106e89061157e565b6000816020015160ff1611610fc35760405162461bcd60e51b815260206004820152602f60248201527f53797374656d436f6e6669673a20656c6173746963697479206d756c7469706c60448201526e06965722063616e6e6f74206265203608c1b60648201526084016106e8565b8051602082015163ffffffff82169160ff90911690610fe390829061161f565b610fed9190611650565b63ffffffff16146110665760405162461bcd60e51b815260206004820152603760248201527f53797374656d436f6e6669673a20707265636973696f6e206c6f73732077697460448201527f6820746172676574207265736f75726365206c696d697400000000000000000060648201526084016106e8565b805160698054602084015160408501516060860151608087015160a09097015163ffffffff96871664ffffffffff199095169490941764010000000060ff948516021769ffffffffff0000000000191665010000000000939092169290920269ffffffff000000000000191617660100000000000091851691909102177fffff0000000000000000000000000000000000000000ffffffffffffffffffff16600160501b93909416929092026fffffffffffffffffffffffffffffffff60701b191692909217600160701b6001600160801b0390921691909102179055565b603380546001600160a01b038381166001600160a01b0319831681179093556040519116919082907f8be0079c531659141344cd1fd0a4f28419497f9722a3daafe3b4186f6b6457e090600090a35050565b600054610100900460ff166111be5760405162461bcd60e51b81526004016106e8906115b5565b6109b833611145565b80356001600160a01b03811681146111de57600080fd5b919050565b6000602082840312156111f557600080fd5b6111fe826111c7565b9392505050565b803567ffffffffffffffff811681146111de57600080fd5b60405160c0810167ffffffffffffffff8111828210171561124e57634e487b7160e01b600052604160045260246000fd5b60405290565b803563ffffffff811681146111de57600080fd5b803560ff811681146111de57600080fd5b600060c0828403121561128b57600080fd5b60405160c0810181811067ffffffffffffffff821117156112bc57634e487b7160e01b600052604160045260246000fd5b6040529050806112cb83611254565b81526112d960208401611268565b60208201526112ea60408401611268565b60408201526112fb60608401611254565b606082015261130c60808401611254565b608082015260a08301356001600160801b038116811461132b57600080fd5b60a0919091015292915050565b6000806000806000806000806000808a8c0361028081121561135957600080fd5b6113628c6111c7565b9a5060208c0135995060408c0135985060608c0135975061138560808d01611205565b965061139360a08d016111c7565b95506113a28d60c08e01611279565b94506101808c013593506113b96101a08d016111c7565b925060c06101bf19820112156113ce57600080fd5b506113d761121d565b6113e46101c08d016111c7565b81526113f36101e08d016111c7565b60208201526114056102008d016111c7565b60408201526114176102208d016111c7565b60608201526114296102408d016111c7565b608082015261143b6102608d016111c7565b60a0820152809150509295989b9194979a5092959850565b6000815180845260005b818110156114795760208185018101518683018201520161145d565b8181111561148b576000602083870101525b50601f01601f19169290920160200192915050565b6020815260006111fe6020830184611453565b600080604083850312156114c657600080fd5b50508035926020909101359150565b6000602082840312156114e757600080fd5b6111fe82611205565b600060c0828403121561150257600080fd5b6111fe8383611279565b60006020828403121561151e57600080fd5b5035919050565b634e487b7160e01b600052601160045260246000fd5b60008282101561154d5761154d611525565b500390565b600067ffffffffffffffff80831681851680830382111561157557611575611525565b01949350505050565b6020808252601f908201527f53797374656d436f6e6669673a20676173206c696d697420746f6f206c6f7700604082015260600190565b6020808252602b908201527f496e697469616c697a61626c653a20636f6e7472616374206973206e6f74206960408201526a6e697469616c697a696e6760a81b606082015260800190565b600063ffffffff80831681851680830382111561157557611575611525565b600063ffffffff8084168061164457634e487b7160e01b600052601260045260246000fd5b92169190910492915050565b600063ffffffff8083168185168183048111821515161561167357611673611525565b0294935050505056fea164736f6c634300080f000a53797374656d436f6e6669673a20676173206c696d697420746f6f206c6f77001d2b0bda21d56b8bd12d4f94ebacffdfb35f5e226f84b461103bb8beab6353be496e697469616c697a61626c653a20636f6e7472616374206973206e6f742069",
  "numDeployments": 1,
  "solcInputHash": "0x0000000000000000000000000000000000000000000000000000000000000000",
  "storageLayout": {
    "storage": [
      {
        "astId": 45016,
        "contract": "src/L1/SystemConfig.sol:SystemConfig",
        "label": "_initialized",
        "offset": 0,
        "slot": "0",
        "type": "t_uint8"
      },
      {
        "astId": 45019,
        "contract": "src/L1/SystemConfig.sol:SystemConfig",
        "label": "_initializing",
        "offset": 1,
        "slot": "0",
        "type": "t_bool"
      },
      {
        "astId": 47463,
        "contract": "src/L1/SystemConfig.sol:SystemConfig",
        "label": "__gap",
        "offset": 0,
        "slot": "1",
        "type": "t_array(t_uint256)50_storage"
      },
      {
        "astId": 44863,
        "contract": "src/L1/SystemConfig.sol:SystemConfig",
        "label": "_owner",
        "offset": 0,
        "slot": "51",
        "type": "t_address"
      },
      {
        "astId": 44983,
        "contract": "src/L1/SystemConfig.sol:SystemConfig",
        "label": "__gap",
        "offset": 0,
        "slot": "52",
        "type": "t_array(t_uint256)49_storage"
      },
      {
        "astId": 84229,
        "contract": "src/L1/SystemConfig.sol:SystemConfig",
        "label": "overhead",
        "offset": 0,
        "slot": "101",
        "type": "t_uint256"
      },
      {
        "astId": 84232,
        "contract": "src/L1/SystemConfig.sol:SystemConfig",
        "label": "scalar",
        "offset": 0,
        "slot": "102",
        "type": "t_uint256"
      },
      {
        "astId": 84235,
        "contract": "src/L1/SystemConfig.sol:SystemConfig",
        "label": "batcherHash",
        "offset": 0,
        "slot": "103",
        "type": "t_bytes32"
      },
      {
        "astId": 84238,
        "contract": "src/L1/SystemConfig.sol:SystemConfig",
        "label": "gasLimit",
        "offset": 0,
        "slot": "104",
        "type": "t_uint64"
      },
      {
        "astId": 84242,
        "contract": "src/L1/SystemConfig.sol:SystemConfig",
        "label": "_resourceConfig",
        "offset": 0,
        "slot": "105",
        "type": "t_struct(ResourceConfig)83761_storage"
      },
      {
        "astId": 84255,
        "contract": "src/L1/SystemConfig.sol:SystemConfig",
        "label": "startBlock",
        "offset": 0,
        "slot": "106",
        "type": "t_uint256"
      }
    ],
    "types": {
      "t_address": {
        "encoding": "inplace",
        "label": "address",
        "numberOfBytes": "20"
      },
      "t_array(t_uint256)49_storage": {
        "encoding": "inplace",
        "label": "uint256[49]",
        "numberOfBytes": "1568",
        "base": "t_uint256"
      },
      "t_array(t_uint256)50_storage": {
        "encoding": "inplace",
        "label": "uint256[50]",
        "numberOfBytes": "1600",
        "base": "t_uint256"
      },
      "t_bool": {
        "encoding": "inplace",
        "label": "bool",
        "numberOfBytes": "1"
      },
      "t_bytes32": {
        "encoding": "inplace",
        "label": "bytes32",
        "numberOfBytes": "32"
      },
      "t_struct(ResourceConfig)83761_storage": {
        "encoding": "inplace",
        "label": "struct ResourceMetering.ResourceConfig",
        "numberOfBytes": "32",
        "members": [
          {
            "astId": 83750,
            "contract": "src/L1/SystemConfig.sol:SystemConfig",
            "label": "maxResourceLimit",
            "offset": 0,
            "slot": "0",
            "type": "t_uint32"
          },
          {
            "astId": 83752,
            "contract": "src/L1/SystemConfig.sol:SystemConfig",
            "label": "elasticityMultiplier",
            "offset": 4,
            "slot": "0",
            "type": "t_uint8"
          },
          {
            "astId": 83754,
            "contract": "src/L1/SystemConfig.sol:SystemConfig",
            "label": "baseFeeMaxChangeDenominator",
            "offset": 5,
            "slot": "0",
            "type": "t_uint8"
          },
          {
            "astId": 83756,
            "contract": "src/L1/SystemConfig.sol:SystemConfig",
            "label": "minimumBaseFee",
            "offset": 6,
            "slot": "0",
            "type": "t_uint32"
          },
          {
            "astId": 83758,
            "contract": "src/L1/SystemConfig.sol:SystemConfig",
            "label": "systemTxMaxGas",
            "offset": 10,
            "slot": "0",
            "type": "t_uint32"
          },
          {
            "astId": 83760,
            "contract": "src/L1/SystemConfig.sol:SystemConfig",
            "label": "maximumBaseFee",
            "offset": 14,
            "slot": "0",
            "type": "t_uint128"
          }
        ]
      },
      "t_uint128": {
        "encoding": "inplace",
        "label": "uint128",
        "numberOfBytes": "16"
      },
      "t_uint256": {
        "encoding": "inplace",
        "label": "uint256",
        "numberOfBytes": "32"
      },
      "t_uint32": {
        "encoding": "inplace",
        "label": "uint32",
        "numberOfBytes": "4"
      },
      "t_uint64": {
        "encoding": "inplace",
        "label": "uint64",
        "numberOfBytes": "8"
      },
      "t_uint8": {
        "encoding": "inplace",
        "label": "uint8",
        "numberOfBytes": "1"
      }
    }
  },
  "transactionHash": "0x070d0953d52fe6cf80e091a35591f9c54bf2f92bdbd2e6b8fc7f9b291adf6789"
}