{
  "abi": [
    {
      "inputs": [
        {
          "internalType": "contract YieldManager",
          "name": "_yieldManager",
          "type": "address"
        }
      ],
      "stateMutability": "nonpayable",
      "type": "constructor"
    },
    {
      "inputs": [],
      "name": "CannotSetAdminAsZeroAddress",
      "type": "error"
    },
    {
      "inputs": [],
      "name": "InsufficientBalance",
      "type": "error"
    },
    {
      "inputs": [],
      "name": "OnlyAdmin",
      "type": "error"
    },
    {
      "inputs": [],
      "name": "OnlyAdminOrYieldManager",
      "type": "error"
    },
    {
      "anonymous": false,
      "inputs": [
        {
          "indexed": false,
          "internalType": "uint8",
          "name": "version",
          "type": "uint8"
        }
      ],
      "name": "Initialized",
      "type": "event"
    },
    {
      "inputs": [],
      "name": "admin",
      "outputs": [
        {
          "internalType": "address",
          "name": "",
          "type": "address"
        }
      ],
      "stateMutability": "view",
      "type": "function"
    },
    {
      "inputs": [
        {
          "internalType": "address",
          "name": "token",
          "type": "address"
        },
        {
          "internalType": "uint256",
          "name": "amount",
          "type": "uint256"
        }
      ],
      "name": "coverLoss",
      "outputs": [],
      "stateMutability": "nonpayable",
      "type": "function"
    },
    {
      "inputs": [
        {
          "internalType": "address",
          "name": "_admin",
          "type": "address"
        }
      ],
      "name": "initialize",
      "outputs": [],
      "stateMutability": "nonpayable",
      "type": "function"
    },
    {
      "inputs": [
        {
          "internalType": "address",
          "name": "_admin",
          "type": "address"
        }
      ],
      "name": "setAdmin",
      "outputs": [],
      "stateMutability": "nonpayable",
      "type": "function"
    },
    {
      "inputs": [],
      "name": "version",
      "outputs": [
        {
          "internalType": "string",
          "name": "",
          "type": "string"
        }
      ],
      "stateMutability": "view",
      "type": "function"
    }
  ],
  "address": "0xEDeFE92e0CEF091149E1749Dd12d8F44Dd94DBb3",
  "args": [],
  "bytecode": "0x61010060405234801561001157600080fd5b50604051610c8b380380610c8b833981016040819052610030916101ad565b6001608052600060a081905260c08190526001600160a01b03821660e0526100579061005d565b506101dd565b600054610100900460ff161580801561007d5750600054600160ff909116105b806100a857506100963061019e60201b6104611760201c565b1580156100a8575060005460ff166001145b61010f5760405162461bcd60e51b815260206004820152602e60248201527f496e697469616c697a61626c653a20636f6e747261637420697320616c72656160448201526d191e481a5b9a5d1a585b1a5e995960921b606482015260840160405180910390fd5b6000805460ff191660011790558015610132576000805461ff0019166101001790555b6000805462010000600160b01b031916620100006001600160a01b03851602179055801561019a576000805461ff0019169055604051600181527f7f26b83ff96e1f2b6a682f133852f6798a09c465da95921460cefb38474024989060200160405180910390a15b5050565b6001600160a01b03163b151590565b6000602082840312156101bf57600080fd5b81516001600160a01b03811681146101d657600080fd5b9392505050565b60805160a05160c05160e051610a6f61021c60003960008181610363015261043c0152600061013f015260006101160152600060ed0152610a6f6000f3fe608060405234801561001057600080fd5b50600436106100575760003560e01c806354fd4d501461005c578063704b6c021461007a578063c4d66de81461008f578063d1fa5e98146100a2578063f851a440146100b5575b600080fd5b6100646100e6565b6040516100719190610855565b60405180910390f35b61008d6100883660046108a4565b610189565b005b61008d61009d3660046108a4565b61020b565b61008d6100b03660046108bf565b61033c565b6000546100ce906201000090046001600160a01b031681565b6040516001600160a01b039091168152602001610071565b60606101117f0000000000000000000000000000000000000000000000000000000000000000610470565b61013a7f0000000000000000000000000000000000000000000000000000000000000000610470565b6101637f0000000000000000000000000000000000000000000000000000000000000000610470565b604051602001610175939291906108e9565b604051602081830303815290604052905090565b6000546201000090046001600160a01b031633146101ba57604051634755657960e01b815260040160405180910390fd5b6001600160a01b0381166101e1576040516332e2c87160e01b815260040160405180910390fd5b600080546001600160a01b03909216620100000262010000600160b01b0319909216919091179055565b600054610100900460ff161580801561022b5750600054600160ff909116105b806102455750303b158015610245575060005460ff166001145b6102ad5760405162461bcd60e51b815260206004820152602e60248201527f496e697469616c697a61626c653a20636f6e747261637420697320616c72656160448201526d191e481a5b9a5d1a585b1a5e995960921b60648201526084015b60405180910390fd5b6000805460ff1916600117905580156102d0576000805461ff0019166101001790555b6000805462010000600160b01b031916620100006001600160a01b038516021790558015610338576000805461ff0019169055604051600181527f7f26b83ff96e1f2b6a682f133852f6798a09c465da95921460cefb38474024989060200160405180910390a15b5050565b6000546201000090046001600160a01b031633148015906103865750336001600160a01b037f00000000000000000000000000000000000000000000000000000000000000001614155b156103a4576040516354b0340d60e11b815260040160405180910390fd5b6040516370a0823160e01b815230600482015281906001600160a01b038416906370a0823190602401602060405180830381865afa1580156103ea573d6000803e3d6000fd5b505050506040513d601f19601f8201168201806040525081019061040e9190610943565b101561042d57604051631e9acf1760e31b815260040160405180910390fd5b6103386001600160a01b0383167f000000000000000000000000000000000000000000000000000000000000000083610579565b6001600160a01b03163b151590565b6060816000036104975750506040805180820190915260018152600360fc1b602082015290565b8160005b81156104c157806104ab81610972565b91506104ba9050600a836109a1565b915061049b565b60008167ffffffffffffffff8111156104dc576104dc6109b5565b6040519080825280601f01601f191660200182016040528015610506576020820181803683370190505b5090505b84156105715761051b6001836109cb565b9150610528600a866109e2565b6105339060306109f6565b60f81b81838151811061054857610548610a0e565b60200101906001600160f81b031916908160001a90535061056a600a866109a1565b945061050a565b949350505050565b604080516001600160a01b038416602482015260448082018490528251808303909101815260649091019091526020810180516001600160e01b031663a9059cbb60e01b1790526105cb9084906105d0565b505050565b6000610625826040518060400160405280602081526020017f5361666545524332303a206c6f772d6c6576656c2063616c6c206661696c6564815250856001600160a01b03166106a29092919063ffffffff16565b8051909150156105cb57808060200190518101906106439190610a24565b6105cb5760405162461bcd60e51b815260206004820152602a60248201527f5361666545524332303a204552433230206f7065726174696f6e20646964206e6044820152691bdd081cdd58d8d9595960b21b60648201526084016102a4565b60606106b184846000856106bb565b90505b9392505050565b60608247101561071c5760405162461bcd60e51b815260206004820152602660248201527f416464726573733a20696e73756666696369656e742062616c616e636520666f6044820152651c8818d85b1b60d21b60648201526084016102a4565b6001600160a01b0385163b6107735760405162461bcd60e51b815260206004820152601d60248201527f416464726573733a2063616c6c20746f206e6f6e2d636f6e747261637400000060448201526064016102a4565b600080866001600160a01b0316858760405161078f9190610a46565b60006040518083038185875af1925050503d80600081146107cc576040519150601f19603f3d011682016040523d82523d6000602084013e6107d1565b606091505b50915091506107e18282866107ec565b979650505050505050565b606083156107fb5750816106b4565b82511561080b5782518084602001fd5b8160405162461bcd60e51b81526004016102a49190610855565b60005b83811015610840578181015183820152602001610828565b8381111561084f576000848401525b50505050565b6020815260008251806020840152610874816040850160208701610825565b601f01601f19169190910160400192915050565b80356001600160a01b038116811461089f57600080fd5b919050565b6000602082840312156108b657600080fd5b6106b482610888565b600080604083850312156108d257600080fd5b6108db83610888565b946020939093013593505050565b600084516108fb818460208901610825565b8083019050601760f91b808252855161091b816001850160208a01610825565b60019201918201528351610936816002840160208801610825565b0160020195945050505050565b60006020828403121561095557600080fd5b5051919050565b634e487b7160e01b600052601160045260246000fd5b6000600182016109845761098461095c565b5060010190565b634e487b7160e01b600052601260045260246000fd5b6000826109b0576109b061098b565b500490565b634e487b7160e01b600052604160045260246000fd5b6000828210156109dd576109dd61095c565b500390565b6000826109f1576109f161098b565b500690565b60008219821115610a0957610a0961095c565b500190565b634e487b7160e01b600052603260045260246000fd5b600060208284031215610a3657600080fd5b815180151581146106b457600080fd5b60008251610a58818460208701610825565b919091019291505056fea164736f6c634300080f000a",
  "numDeployments": 1,
  "solcInputHash": "0x0000000000000000000000000000000000000000000000000000000000000000",
  "storageLayout": {
    "storage": [
      {
        "astId": 45016,
        "contract": "src/mainnet-bridge/Insurance.sol:Insurance",
        "label": "_initialized",
        "offset": 0,
        "slot": "0",
        "type": "t_uint8"
      },
      {
        "astId": 45019,
        "contract": "src/mainnet-bridge/Insurance.sol:Insurance",
        "label": "_initializing",
        "offset": 1,
        "slot": "0",
        "type": "t_bool"
      },
      {
        "astId": 100950,
        "contract": "src/mainnet-bridge/Insurance.sol:Insurance",
        "label": "admin",
        "offset": 2,
        "slot": "0",
        "type": "t_address"
      }
    ],
    "types": {
      "t_address": {
        "encoding": "inplace",
        "label": "address",
        "numberOfBytes": "20"
      },
      "t_bool": {
        "encoding": "inplace",
        "label": "bool",
        "numberOfBytes": "1"
      },
      "t_uint8": {
        "encoding": "inplace",
        "label": "uint8",
        "numberOfBytes": "1"
      }
    }
  },
  "transactionHash": "0x14e68eb3bff46e35df8fd7141bdea8e7f29af3d6d92ce3faa0f22fa710f27098"
}