{
  "abi": [
    {
      "inputs": [
        {
          "internalType": "contract YieldManager",
          "name": "_yieldManager",
          "type": "address"
        }
      ],
      "stateMutability": "nonpayable",
      "type": "constructor"
    },
    {
      "inputs": [],
      "name": "CallerIsNotYieldManager",
      "type": "error"
    },
    {
      "inputs": [],
      "name": "ContextIsNotYieldManager",
      "type": "error"
    },
    {
      "inputs": [],
      "name": "InsufficientStakableFunds",
      "type": "error"
    },
    {
      "inputs": [],
      "name": "NotSupported",
      "type": "error"
    },
    {
      "anonymous": false,
      "inputs": [
        {
          "indexed": true,
          "internalType": "bytes32",
          "name": "provider",
          "type": "bytes32"
        },
        {
          "indexed": false,
          "internalType": "uint256",
          "name": "claimedAmount",
          "type": "uint256"
        },
        {
          "indexed": false,
          "internalType": "uint256",
          "name": "expectedAmount",
          "type": "uint256"
        }
      ],
      "name": "Claimed",
      "type": "event"
    },
    {
      "anonymous": false,
      "inputs": [
        {
          "indexed": true,
          "internalType": "bytes32",
          "name": "provider",
          "type": "bytes32"
        },
        {
          "indexed": false,
          "internalType": "uint256",
          "name": "amount",
          "type": "uint256"
        }
      ],
      "name": "InsurancePremiumPaid",
      "type": "event"
    },
    {
      "anonymous": false,
      "inputs": [
        {
          "indexed": true,
          "internalType": "bytes32",
          "name": "provider",
          "type": "bytes32"
        },
        {
          "indexed": false,
          "internalType": "uint256",
          "name": "amount",
          "type": "uint256"
        }
      ],
      "name": "InsuranceWithdrawn",
      "type": "event"
    },
    {
      "anonymous": false,
      "inputs": [
        {
          "indexed": true,
          "internalType": "bytes32",
          "name": "provider",
          "type": "bytes32"
        },
        {
          "indexed": false,
          "internalType": "uint256",
          "name": "amount",
          "type": "uint256"
        }
      ],
      "name": "Pending",
      "type": "event"
    },
    {
      "anonymous": false,
      "inputs": [
        {
          "indexed": true,
          "internalType": "bytes32",
          "name": "provider",
          "type": "bytes32"
        },
        {
          "indexed": false,
          "internalType": "uint256",
          "name": "amount",
          "type": "uint256"
        }
      ],
      "name": "Staked",
      "type": "event"
    },
    {
      "anonymous": false,
      "inputs": [
        {
          "indexed": true,
          "internalType": "bytes32",
          "name": "provider",
          "type": "bytes32"
        },
        {
          "indexed": false,
          "internalType": "uint256",
          "name": "amount",
          "type": "uint256"
        }
      ],
      "name": "Unstaked",
      "type": "event"
    },
    {
      "anonymous": false,
      "inputs": [
        {
          "indexed": true,
          "internalType": "bytes32",
          "name": "provider",
          "type": "bytes32"
        },
        {
          "indexed": false,
          "internalType": "int256",
          "name": "yield",
          "type": "int256"
        }
      ],
      "name": "YieldCommit",
      "type": "event"
    },
    {
      "inputs": [],
      "name": "DAI",
      "outputs": [
        {
          "internalType": "contract IERC20",
          "name": "",
          "type": "address"
        }
      ],
      "stateMutability": "view",
      "type": "function"
    },
    {
      "inputs": [],
      "name": "DSR_MANAGER",
      "outputs": [
        {
          "internalType": "contract IDsrManager",
          "name": "",
          "type": "address"
        }
      ],
      "stateMutability": "view",
      "type": "function"
    },
    {
      "inputs": [],
      "name": "YIELD_MANAGER",
      "outputs": [
        {
          "internalType": "contract YieldManager",
          "name": "",
          "type": "address"
        }
      ],
      "stateMutability": "view",
      "type": "function"
    },
    {
      "inputs": [],
      "name": "commitYield",
      "outputs": [
        {
          "internalType": "int256",
          "name": "",
          "type": "int256"
        }
      ],
      "stateMutability": "nonpayable",
      "type": "function"
    },
    {
      "inputs": [],
      "name": "id",
      "outputs": [
        {
          "internalType": "bytes32",
          "name": "",
          "type": "bytes32"
        }
      ],
      "stateMutability": "view",
      "type": "function"
    },
    {
      "inputs": [],
      "name": "initialize",
      "outputs": [],
      "stateMutability": "nonpayable",
      "type": "function"
    },
    {
      "inputs": [],
      "name": "insuranceBalance",
      "outputs": [
        {
          "internalType": "uint256",
          "name": "",
          "type": "uint256"
        }
      ],
      "stateMutability": "view",
      "type": "function"
    },
    {
      "inputs": [
        {
          "internalType": "address",
          "name": "token",
          "type": "address"
        }
      ],
      "name": "isStakingEnabled",
      "outputs": [
        {
          "internalType": "bool",
          "name": "",
          "type": "bool"
        }
      ],
      "stateMutability": "view",
      "type": "function"
    },
    {
      "inputs": [],
      "name": "name",
      "outputs": [
        {
          "internalType": "string",
          "name": "",
          "type": "string"
        }
      ],
      "stateMutability": "pure",
      "type": "function"
    },
    {
      "inputs": [
        {
          "internalType": "uint256",
          "name": "amount",
          "type": "uint256"
        }
      ],
      "name": "payInsurancePremium",
      "outputs": [],
      "stateMutability": "nonpayable",
      "type": "function"
    },
    {
      "inputs": [],
      "name": "pendingBalance",
      "outputs": [
        {
          "internalType": "uint256",
          "name": "",
          "type": "uint256"
        }
      ],
      "stateMutability": "view",
      "type": "function"
    },
    {
      "inputs": [],
      "name": "preCommitYieldReportDelegateCallHook",
      "outputs": [],
      "stateMutability": "nonpayable",
      "type": "function"
    },
    {
      "inputs": [
        {
          "internalType": "uint256",
          "name": "amount",
          "type": "uint256"
        }
      ],
      "name": "recordStakedDeposit",
      "outputs": [],
      "stateMutability": "nonpayable",
      "type": "function"
    },
    {
      "inputs": [
        {
          "internalType": "uint256",
          "name": "pending",
          "type": "uint256"
        },
        {
          "internalType": "uint256",
          "name": "claimed",
          "type": "uint256"
        },
        {
          "internalType": "uint256",
          "name": "expected",
          "type": "uint256"
        }
      ],
      "name": "recordUnstaked",
      "outputs": [],
      "stateMutability": "nonpayable",
      "type": "function"
    },
    {
      "inputs": [
        {
          "internalType": "uint256",
          "name": "amount",
          "type": "uint256"
        }
      ],
      "name": "stake",
      "outputs": [],
      "stateMutability": "nonpayable",
      "type": "function"
    },
    {
      "inputs": [],
      "name": "stakedBalance",
      "outputs": [
        {
          "internalType": "uint256",
          "name": "",
          "type": "uint256"
        }
      ],
      "stateMutability": "view",
      "type": "function"
    },
    {
      "inputs": [],
      "name": "stakedPrincipal",
      "outputs": [
        {
          "internalType": "uint256",
          "name": "",
          "type": "uint256"
        }
      ],
      "stateMutability": "view",
      "type": "function"
    },
    {
      "inputs": [],
      "name": "supportsInsurancePayment",
      "outputs": [
        {
          "internalType": "bool",
          "name": "",
          "type": "bool"
        }
      ],
      "stateMutability": "view",
      "type": "function"
    },
    {
      "inputs": [],
      "name": "totalValue",
      "outputs": [
        {
          "internalType": "uint256",
          "name": "",
          "type": "uint256"
        }
      ],
      "stateMutability": "view",
      "type": "function"
    },
    {
      "inputs": [
        {
          "internalType": "uint256",
          "name": "amount",
          "type": "uint256"
        }
      ],
      "name": "unstake",
      "outputs": [
        {
          "internalType": "uint256",
          "name": "pending",
          "type": "uint256"
        },
        {
          "internalType": "uint256",
          "name": "claimed",
          "type": "uint256"
        }
      ],
      "stateMutability": "nonpayable",
      "type": "function"
    },
    {
      "inputs": [],
      "name": "version",
      "outputs": [
        {
          "internalType": "string",
          "name": "",
          "type": "string"
        }
      ],
      "stateMutability": "view",
      "type": "function"
    },
    {
      "inputs": [
        {
          "internalType": "uint256",
          "name": "amount",
          "type": "uint256"
        }
      ],
      "name": "withdrawFromInsurance",
      "outputs": [],
      "stateMutability": "nonpayable",
      "type": "function"
    },
    {
      "inputs": [],
      "name": "yield",
      "outputs": [
        {
          "internalType": "int256",
          "name": "",
          "type": "int256"
        }
      ],
      "stateMutability": "view",
      "type": "function"
    }
  ],
  "address": "0x0733F618118bF420b6b604c969498ecf143681a8",
  "args": [
    "0xa230285d5683C74935aD14c446e137c8c8828438"
  ],
  "bytecode": "0x61010060405234801561001157600080fd5b50604051611c33380380611c3383398101604081905261003091610067565b6001608052600060a081905260c05280306001600160a01b0382160361005557600080fd5b6001600160a01b031660e05250610097565b60006020828403121561007957600080fd5b81516001600160a01b038116811461009057600080fd5b9392505050565b60805160a05160c05160e051611ae561014e600039600081816101a70152818161034401528181610466015281816104c10152818161054e0152818161059c015281816108bd0152818161096e01528181610a1c01528181610abe01528181610bfb01528181610cd801528181610d6601528181610e9f01528181610edf01528181610f9c0152818161108a0152818161132501526113ef015260006106850152600061065c015260006106330152611ae56000f3fe608060405234801561001057600080fd5b506004361061014d5760003560e01c80638129fc1c116100c3578063d4c3eea01161007c578063d4c3eea0146102b1578063dc42e463146102b9578063e0bab4c4146102d4578063e0c78455146102ef578063ecc7f64214610302578063f304f5e51461031557600080fd5b80638129fc1c1461025f57806385254adf146102675780639b75759414610270578063a694fc3a14610283578063af640d0f14610296578063bbaff1e21461029e57600080fd5b806347bc48381161011557806347bc4838146102115780634bfb431f1461021b57806354fd4d501461023357806357b4d18e1461023b5780635b9f00161461024457806366785d931461024c57600080fd5b80630577d6d51461015257806306fdde031461016d578063219ebb9c146101a257806328593984146101e15780632e17de78146101e9575b600080fd5b61015a61031d565b6040519081526020015b60405180910390f35b60408051808201909152601081526f2229a92cb4b2b632283937bb34b232b960811b60208201525b60405161016491906117fa565b6101c97f000000000000000000000000000000000000000000000000000000000000000081565b6040516001600160a01b039091168152602001610164565b61015a610431565b6101fc6101f736600461182d565b610458565b60408051928352602083019190915201610164565b610219610543565b005b61022361058e565b6040519015158152602001610164565b61019561062c565b61015a60015481565b61015a6106cf565b61021961025a36600461182d565b610963565b610219610bf0565b61015a60005481565b61021961027e36600461182d565b610ccd565b61021961029136600461182d565b610e94565b61015a61101c565b6102196102ac36600461182d565b61107f565b61015a611117565b6101c973373238337bfe1146fb49989fc222523f83081ddb81565b6101c9736b175474e89094c44da98b954eedeac495271d0f81565b6102236102fd36600461185b565b61112e565b61021961031036600461187f565b61131a565b61015a6113e2565b6000736b175474e89094c44da98b954eedeac495271d0f6001600160a01b03166370a082317f00000000000000000000000000000000000000000000000000000000000000006001600160a01b03166389cf32046040518163ffffffff1660e01b8152600401602060405180830381865afa1580156103a0573d6000803e3d6000fd5b505050506040513d601f19601f820116820180604052508101906103c491906118ab565b6040516001600160e01b031960e084901b1681526001600160a01b039091166004820152602401602060405180830381865afa158015610408573d6000803e3d6000fd5b505050506040513d601f19601f8201168201806040525081019061042c91906118c8565b905090565b600061043e600054611484565b61044e6104496106cf565b611484565b61042c91906118f7565b600080306001600160a01b037f000000000000000000000000000000000000000000000000000000000000000016146104a4576040516356adf13560e11b815260040160405180910390fd5b821561053f5760405163ef693bed60e01b81526001600160a01b037f00000000000000000000000000000000000000000000000000000000000000001660048201526024810184905273373238337bfe1146fb49989fc222523f83081ddb9063ef693bed90604401600060405180830381600087803b15801561052657600080fd5b505af115801561053a573d6000803e3d6000fd5b505050505b5091565b306001600160a01b037f0000000000000000000000000000000000000000000000000000000000000000161461058c576040516356adf13560e11b815260040160405180910390fd5b565b6000806001600160a01b03167f00000000000000000000000000000000000000000000000000000000000000006001600160a01b03166389cf32046040518163ffffffff1660e01b8152600401602060405180830381865afa1580156105f8573d6000803e3d6000fd5b505050506040513d601f19601f8201168201806040525081019061061c91906118ab565b6001600160a01b03161415905090565b60606106577f00000000000000000000000000000000000000000000000000000000000000006114f2565b6106807f00000000000000000000000000000000000000000000000000000000000000006114f2565b6106a97f00000000000000000000000000000000000000000000000000000000000000006114f2565b6040516020016106bb93929190611936565b604051602081830303815290604052905090565b60008073373238337bfe1146fb49989fc222523f83081ddb6001600160a01b0316634ba2363a6040518163ffffffff1660e01b8152600401602060405180830381865afa158015610724573d6000803e3d6000fd5b505050506040513d601f19601f8201168201806040525081019061074891906118ab565b905060006108a6610832836001600160a01b031663487bf0826040518163ffffffff1660e01b8152600401602060405180830381865afa158015610790573d6000803e3d6000fd5b505050506040513d601f19601f820116820180604052508101906107b491906118c8565b846001600160a01b03166320aba08b6040518163ffffffff1660e01b8152600401602060405180830381865afa1580156107f2573d6000803e3d6000fd5b505050506040513d601f19601f8201168201806040525081019061081691906118c8565b6108209042611990565b6b033b2e3c9fd0803ce80000006115fb565b836001600160a01b031663c92aecc46040518163ffffffff1660e01b8152600401602060405180830381865afa158015610870573d6000803e3d6000fd5b505050506040513d601f19601f8201168201806040525081019061089491906118c8565b6b033b2e3c9fd0803ce80000006116b9565b6040516388787f2b60e01b81526001600160a01b037f000000000000000000000000000000000000000000000000000000000000000016600482015290915061095c9073373238337bfe1146fb49989fc222523f83081ddb906388787f2b90602401602060405180830381865afa158015610925573d6000803e3d6000fd5b505050506040513d601f19601f8201168201806040525081019061094991906118c8565b826b033b2e3c9fd0803ce80000006116b9565b9250505090565b306001600160a01b037f000000000000000000000000000000000000000000000000000000000000000016146109ac576040516356adf13560e11b815260040160405180910390fd5b6109b461058e565b6109ff5760405162461bcd60e51b81526020600482015260176024820152761a5b9cdd5c985b98d9481b9bdd081cdd5c1c1bdc9d1959604a1b60448201526064015b60405180910390fd5b8015610bb15760405163ef693bed60e01b81526001600160a01b037f00000000000000000000000000000000000000000000000000000000000000001660048201526024810182905273373238337bfe1146fb49989fc222523f83081ddb9063ef693bed90604401600060405180830381600087803b158015610a8157600080fd5b505af1158015610a95573d6000803e3d6000fd5b50505050736b175474e89094c44da98b954eedeac495271d0f6001600160a01b031663a9059cbb7f00000000000000000000000000000000000000000000000000000000000000006001600160a01b03166389cf32046040518163ffffffff1660e01b8152600401602060405180830381865afa158015610b1a573d6000803e3d6000fd5b505050506040513d601f19601f82011682018060405250810190610b3e91906118ab565b6040516001600160e01b031960e084901b1681526001600160a01b039091166004820152602481018490526044016020604051808303816000875af1158015610b8b573d6000803e3d6000fd5b505050506040513d601f19601f82011682018060405250810190610baf91906119a7565b505b610bb961101c565b6040518281527faffd2c8a23858f2212a849a3444eb4c3fb22123fbca27db6fe859fa0d4c5cc3f906020015b60405180910390a250565b306001600160a01b037f00000000000000000000000000000000000000000000000000000000000000001614610c39576040516356adf13560e11b815260040160405180910390fd5b60405163095ea7b360e01b815273373238337bfe1146fb49989fc222523f83081ddb60048201526000196024820152736b175474e89094c44da98b954eedeac495271d0f9063095ea7b3906044016020604051808303816000875af1158015610ca6573d6000803e3d6000fd5b505050506040513d601f19601f82011682018060405250810190610cca91906119a7565b50565b306001600160a01b037f00000000000000000000000000000000000000000000000000000000000000001614610d16576040516356adf13560e11b815260040160405180910390fd5b610d1e61058e565b610d645760405162461bcd60e51b81526020600482015260176024820152761a5b9cdd5c985b98d9481b9bdd081cdd5c1c1bdc9d1959604a1b60448201526064016109f6565b7f00000000000000000000000000000000000000000000000000000000000000006001600160a01b03166389cf32046040518163ffffffff1660e01b8152600401602060405180830381865afa158015610dc2573d6000803e3d6000fd5b505050506040513d601f19601f82011682018060405250810190610de691906118ab565b604051631a3f4bd360e31b8152736b175474e89094c44da98b954eedeac495271d0f6004820152602481018390526001600160a01b03919091169063d1fa5e9890604401600060405180830381600087803b158015610e4457600080fd5b505af1158015610e58573d6000803e3d6000fd5b50505050610e6461101c565b6040518281527fb3043c5816fb49ca84ebff0b0bb517bd2622af93452a267f3404513cf549fc1b90602001610be5565b306001600160a01b037f00000000000000000000000000000000000000000000000000000000000000001614610edd576040516356adf13560e11b815260040160405180910390fd5b7f00000000000000000000000000000000000000000000000000000000000000006001600160a01b031663ab2f0e516040518163ffffffff1660e01b8152600401602060405180830381865afa158015610f3b573d6000803e3d6000fd5b505050506040513d601f19601f82011682018060405250810190610f5f91906118c8565b811115610f7f576040516360c6463f60e11b815260040160405180910390fd5b8015610cca57604051633b4da69f60e01b81526001600160a01b037f00000000000000000000000000000000000000000000000000000000000000001660048201526024810182905273373238337bfe1146fb49989fc222523f83081ddb90633b4da69f90604401600060405180830381600087803b15801561100157600080fd5b505af1158015611015573d6000803e3d6000fd5b5050505050565b600061104b60408051808201909152601081526f2229a92cb4b2b632283937bb34b232b960811b602082015290565b61105361062c565b6040516020016110649291906119c9565b60405160208183030381529060405280519060200120905090565b336001600160a01b037f000000000000000000000000000000000000000000000000000000000000000016146110c85760405163a1cfbf5960e01b815260040160405180910390fd5b806000808282546110d991906119f8565b909155506110e7905061101c565b6040518281527fad8699b31aa71e27625c441f641b4732d76e1b7475068543aaaee79bd2c3d1f690602001610be5565b60006001546111246106cf565b61042c91906119f8565b60006001600160a01b038216736b175474e89094c44da98b954eedeac495271d0f148015611232575073373238337bfe1146fb49989fc222523f83081ddb6001600160a01b0316634ba2363a6040518163ffffffff1660e01b8152600401602060405180830381865afa1580156111a9573d6000803e3d6000fd5b505050506040513d601f19601f820116820180604052508101906111cd91906118ab565b6001600160a01b031663957aa58c6040518163ffffffff1660e01b8152600401602060405180830381865afa15801561120a573d6000803e3d6000fd5b505050506040513d601f19601f8201168201806040525081019061122e91906118c8565b6001145b8015611314575073373238337bfe1146fb49989fc222523f83081ddb6001600160a01b031663c11645bc6040518163ffffffff1660e01b8152600401602060405180830381865afa15801561128b573d6000803e3d6000fd5b505050506040513d601f19601f820116820180604052508101906112af91906118ab565b6001600160a01b031663957aa58c6040518163ffffffff1660e01b8152600401602060405180830381865afa1580156112ec573d6000803e3d6000fd5b505050506040513d601f19601f8201168201806040525081019061131091906118c8565b6001145b92915050565b336001600160a01b037f000000000000000000000000000000000000000000000000000000000000000016146113635760405163a1cfbf5960e01b815260040160405180910390fd5b61136c816116d8565b82156113a4578115801561137f57508083145b61139b5760405162461bcd60e51b81526004016109f690611a10565b6113a483611727565b81156113dd57821580156113b757508082145b6113d35760405162461bcd60e51b81526004016109f690611a10565b6113dd8282611785565b505050565b6000336001600160a01b037f0000000000000000000000000000000000000000000000000000000000000000161461142d5760405163a1cfbf5960e01b815260040160405180910390fd5b6000611437610431565b90506114416106cf565b60005561144c61101c565b6040518281527ffa0a4034400e62602f330f5e62f285a6baa4bdfb16c11b3ff7c4b65ce7f7d76f9060200160405180910390a2905090565b60006001600160ff1b038211156114ee5760405162461bcd60e51b815260206004820152602860248201527f53616665436173743a2076616c756520646f65736e27742066697420696e2061604482015267371034b73a191a9b60c11b60648201526084016109f6565b5090565b6060816000036115195750506040805180820190915260018152600360fc1b602082015290565b8160005b8115611543578061152d81611a55565b915061153c9050600a83611a84565b915061151d565b60008167ffffffffffffffff81111561155e5761155e611a98565b6040519080825280601f01601f191660200182016040528015611588576020820181803683370190505b5090505b84156115f35761159d600183611990565b91506115aa600a86611aae565b6115b59060306119f8565b60f81b8183815181106115ca576115ca611ac2565b60200101906001600160f81b031916908160001a9053506115ec600a86611a84565b945061158c565b949350505050565b600083801561169b576001841680156116165785925061161a565b8392505b508260011c8460011c94505b8415611695578560801c1561163a57600080fd5b8586028181018181101561164d57600080fd5b859004965050600185161561168a57858302838782041461167357861561167357600080fd5b8181018181101561168357600080fd5b8590049350505b8460011c9450611626565b506116b1565b8380156116ab57600092506116af565b8392505b505b509392505050565b8282028115158415858304851417166116d157600080fd5b0492915050565b806000808282546116e99190611990565b909155506116f7905061101c565b6040518281527feaf9a24a861b99687156137f32a9abfa90e5dd93a1eb9fb70cf4400e86b0839a90602001610be5565b60405162461bcd60e51b815260206004820152602d60248201527f4453525969656c6450726f76696465723a207265636f726450656e64696e672060448201526c1b9bdd081cdd5c1c1bdc9d1959609a1b60648201526084016109f6565b61178d61101c565b60408051848152602081018490527f41628d0ba42442e4aa4fc514eeb97bb7154969e70e6678229c836f3b9732ba90910160405180910390a25050565b60005b838110156117e55781810151838201526020016117cd565b838111156117f4576000848401525b50505050565b60208152600082518060208401526118198160408501602087016117ca565b601f01601f19169190910160400192915050565b60006020828403121561183f57600080fd5b5035919050565b6001600160a01b0381168114610cca57600080fd5b60006020828403121561186d57600080fd5b813561187881611846565b9392505050565b60008060006060848603121561189457600080fd5b505081359360208301359350604090920135919050565b6000602082840312156118bd57600080fd5b815161187881611846565b6000602082840312156118da57600080fd5b5051919050565b634e487b7160e01b600052601160045260246000fd5b60008083128015600160ff1b850184121615611915576119156118e1565b6001600160ff1b0384018313811615611930576119306118e1565b50500390565b600084516119488184602089016117ca565b8083019050601760f91b8082528551611968816001850160208a016117ca565b600192019182015283516119838160028401602088016117ca565b0160020195945050505050565b6000828210156119a2576119a26118e1565b500390565b6000602082840312156119b957600080fd5b8151801515811461187857600080fd5b600083516119db8184602088016117ca565b8351908301906119ef8183602088016117ca565b01949350505050565b60008219821115611a0b57611a0b6118e1565b500190565b60208082526025908201527f696e76616c6964207969656c642070726f766964657220696d706c656d656e7460408201526430ba34b7b760d91b606082015260800190565b600060018201611a6757611a676118e1565b5060010190565b634e487b7160e01b600052601260045260246000fd5b600082611a9357611a93611a6e565b500490565b634e487b7160e01b600052604160045260246000fd5b600082611abd57611abd611a6e565b500690565b634e487b7160e01b600052603260045260246000fdfea164736f6c634300080f000a",
  "numDeployments": 1,
  "solcInputHash": "0x0000000000000000000000000000000000000000000000000000000000000000",
  "storageLayout": {
    "storage": [
      {
        "astId": 106695,
        "contract": "src/mainnet-bridge/yield-providers/DSRYieldProvider.sol:DSRYieldProvider",
        "label": "stakedPrincipal",
        "offset": 0,
        "slot": "0",
        "type": "t_uint256"
      },
      {
        "astId": 106697,
        "contract": "src/mainnet-bridge/yield-providers/DSRYieldProvider.sol:DSRYieldProvider",
        "label": "pendingBalance",
        "offset": 0,
        "slot": "1",
        "type": "t_uint256"
      }
    ],
    "types": {
      "t_uint256": {
        "encoding": "inplace",
        "label": "uint256",
        "numberOfBytes": "32"
      }
    }
  },
  "transactionHash": "0x325159977cbebd60f4cc88d882f635399669669a18e6bf36cd06bc4a4721c9b5"
}