{
  "abi": [
    {
      "inputs": [
        {
          "internalType": "address",
          "name": "_token",
          "type": "address"
        }
      ],
      "stateMutability": "nonpayable",
      "type": "constructor"
    },
    {
      "inputs": [],
      "name": "CallerIsNotAdmin",
      "type": "error"
    },
    {
      "inputs": [],
      "name": "CallerIsNotBlastBridge",
      "type": "error"
    },
    {
      "inputs": [],
      "name": "CallerIsNotRecipient",
      "type": "error"
    },
    {
      "inputs": [],
      "name": "FailedToInitializeProvider",
      "type": "error"
    },
    {
      "inputs": [],
      "name": "IncorrectInputAmountUsed",
      "type": "error"
    },
    {
      "inputs": [],
      "name": "InsufficientBalance",
      "type": "error"
    },
    {
      "inputs": [],
      "name": "InsufficientBalance",
      "type": "error"
    },
    {
      "inputs": [],
      "name": "InsufficientInsuranceBalance",
      "type": "error"
    },
    {
      "inputs": [],
      "name": "InvalidExtraData",
      "type": "error"
    },
    {
      "inputs": [
        {
          "internalType": "uint256",
          "name": "_hint",
          "type": "uint256"
        }
      ],
      "name": "InvalidHint",
      "type": "error"
    },
    {
      "inputs": [
        {
          "internalType": "uint256",
          "name": "_requestId",
          "type": "uint256"
        }
      ],
      "name": "InvalidRequestId",
      "type": "error"
    },
    {
      "inputs": [
        {
          "internalType": "uint256",
          "name": "startId",
          "type": "uint256"
        },
        {
          "internalType": "uint256",
          "name": "endId",
          "type": "uint256"
        }
      ],
      "name": "InvalidRequestIdRange",
      "type": "error"
    },
    {
      "inputs": [],
      "name": "InvalidSharePrice",
      "type": "error"
    },
    {
      "inputs": [],
      "name": "InvalidTokenIndex",
      "type": "error"
    },
    {
      "inputs": [],
      "name": "MinimumAmountNotMet",
      "type": "error"
    },
    {
      "inputs": [],
      "name": "NegativeYieldFromInsuredProvider",
      "type": "error"
    },
    {
      "inputs": [],
      "name": "NegativeYieldIncrease",
      "type": "error"
    },
    {
      "inputs": [],
      "name": "ProviderAddressDoesNotMatchIndex",
      "type": "error"
    },
    {
      "inputs": [],
      "name": "ProviderNotFound",
      "type": "error"
    },
    {
      "inputs": [
        {
          "internalType": "uint256",
          "name": "_requestId",
          "type": "uint256"
        }
      ],
      "name": "RequestAlreadyClaimed",
      "type": "error"
    },
    {
      "inputs": [],
      "name": "RequestIdsNotSorted",
      "type": "error"
    },
    {
      "inputs": [
        {
          "internalType": "uint256",
          "name": "_requestId",
          "type": "uint256"
        }
      ],
      "name": "RequestNotFoundOrNotFinalized",
      "type": "error"
    },
    {
      "inputs": [],
      "name": "TotalValueIsZero",
      "type": "error"
    },
    {
      "inputs": [],
      "name": "UnsupportedToken",
      "type": "error"
    },
    {
      "inputs": [],
      "name": "WithdrawalTransferFailed",
      "type": "error"
    },
    {
      "inputs": [],
      "name": "YieldProviderIsNotMeantForThisManager",
      "type": "error"
    },
    {
      "anonymous": false,
      "inputs": [
        {
          "indexed": false,
          "internalType": "uint8",
          "name": "version",
          "type": "uint8"
        }
      ],
      "name": "Initialized",
      "type": "event"
    },
    {
      "anonymous": false,
      "inputs": [
        {
          "indexed": true,
          "internalType": "address",
          "name": "previousOwner",
          "type": "address"
        },
        {
          "indexed": true,
          "internalType": "address",
          "name": "newOwner",
          "type": "address"
        }
      ],
      "name": "OwnershipTransferStarted",
      "type": "event"
    },
    {
      "anonymous": false,
      "inputs": [
        {
          "indexed": true,
          "internalType": "address",
          "name": "previousOwner",
          "type": "address"
        },
        {
          "indexed": true,
          "internalType": "address",
          "name": "newOwner",
          "type": "address"
        }
      ],
      "name": "OwnershipTransferred",
      "type": "event"
    },
    {
      "anonymous": false,
      "inputs": [
        {
          "indexed": true,
          "internalType": "uint256",
          "name": "requestId",
          "type": "uint256"
        },
        {
          "indexed": true,
          "internalType": "address",
          "name": "recipient",
          "type": "address"
        },
        {
          "indexed": false,
          "internalType": "uint256",
          "name": "amountOfETH",
          "type": "uint256"
        }
      ],
      "name": "WithdrawalClaimed",
      "type": "event"
    },
    {
      "anonymous": false,
      "inputs": [
        {
          "indexed": true,
          "internalType": "uint256",
          "name": "requestId",
          "type": "uint256"
        },
        {
          "indexed": true,
          "internalType": "address",
          "name": "requestor",
          "type": "address"
        },
        {
          "indexed": true,
          "internalType": "address",
          "name": "recipient",
          "type": "address"
        },
        {
          "indexed": false,
          "internalType": "uint256",
          "name": "amount",
          "type": "uint256"
        }
      ],
      "name": "WithdrawalRequested",
      "type": "event"
    },
    {
      "anonymous": false,
      "inputs": [
        {
          "indexed": true,
          "internalType": "uint256",
          "name": "from",
          "type": "uint256"
        },
        {
          "indexed": true,
          "internalType": "uint256",
          "name": "to",
          "type": "uint256"
        },
        {
          "indexed": true,
          "internalType": "uint256",
          "name": "checkpointId",
          "type": "uint256"
        },
        {
          "indexed": false,
          "internalType": "uint256",
          "name": "amountOfETHLocked",
          "type": "uint256"
        },
        {
          "indexed": false,
          "internalType": "uint256",
          "name": "timestamp",
          "type": "uint256"
        },
        {
          "indexed": false,
          "internalType": "uint256",
          "name": "sharePrice",
          "type": "uint256"
        }
      ],
      "name": "WithdrawalsFinalized",
      "type": "event"
    },
    {
      "anonymous": false,
      "inputs": [
        {
          "indexed": false,
          "internalType": "int256",
          "name": "yield",
          "type": "int256"
        },
        {
          "indexed": false,
          "internalType": "uint256",
          "name": "insurancePremiumPaid",
          "type": "uint256"
        },
        {
          "indexed": false,
          "internalType": "uint256",
          "name": "insuranceWithdrawn",
          "type": "uint256"
        }
      ],
      "name": "YieldReport",
      "type": "event"
    },
    {
      "inputs": [],
      "name": "MAX_INSURANCE_FEE_BIPS",
      "outputs": [
        {
          "internalType": "uint256",
          "name": "",
          "type": "uint256"
        }
      ],
      "stateMutability": "view",
      "type": "function"
    },
    {
      "inputs": [],
      "name": "TOKEN",
      "outputs": [
        {
          "internalType": "address",
          "name": "",
          "type": "address"
        }
      ],
      "stateMutability": "view",
      "type": "function"
    },
    {
      "inputs": [],
      "name": "acceptOwnership",
      "outputs": [],
      "stateMutability": "nonpayable",
      "type": "function"
    },
    {
      "inputs": [],
      "name": "accumulatedNegativeYields",
      "outputs": [
        {
          "internalType": "uint256",
          "name": "",
          "type": "uint256"
        }
      ],
      "stateMutability": "view",
      "type": "function"
    },
    {
      "inputs": [
        {
          "internalType": "address",
          "name": "provider",
          "type": "address"
        }
      ],
      "name": "addProvider",
      "outputs": [],
      "stateMutability": "nonpayable",
      "type": "function"
    },
    {
      "inputs": [],
      "name": "admin",
      "outputs": [
        {
          "internalType": "address",
          "name": "",
          "type": "address"
        }
      ],
      "stateMutability": "view",
      "type": "function"
    },
    {
      "inputs": [],
      "name": "availableBalance",
      "outputs": [
        {
          "internalType": "uint256",
          "name": "",
          "type": "uint256"
        }
      ],
      "stateMutability": "view",
      "type": "function"
    },
    {
      "inputs": [],
      "name": "blastBridge",
      "outputs": [
        {
          "internalType": "address",
          "name": "",
          "type": "address"
        }
      ],
      "stateMutability": "view",
      "type": "function"
    },
    {
      "inputs": [
        {
          "internalType": "uint256",
          "name": "_requestId",
          "type": "uint256"
        },
        {
          "internalType": "uint256",
          "name": "_hintId",
          "type": "uint256"
        }
      ],
      "name": "claimWithdrawal",
      "outputs": [
        {
          "internalType": "bool",
          "name": "success",
          "type": "bool"
        }
      ],
      "stateMutability": "nonpayable",
      "type": "function"
    },
    {
      "inputs": [
        {
          "internalType": "bool",
          "name": "enableInsurance",
          "type": "bool"
        }
      ],
      "name": "commitYieldReport",
      "outputs": [],
      "stateMutability": "nonpayable",
      "type": "function"
    },
    {
      "inputs": [
        {
          "internalType": "address",
          "name": "token",
          "type": "address"
        },
        {
          "internalType": "uint256",
          "name": "amount",
          "type": "uint256"
        }
      ],
      "name": "commitYieldReportAfterInsuranceWithdrawal",
      "outputs": [],
      "stateMutability": "nonpayable",
      "type": "function"
    },
    {
      "inputs": [
        {
          "internalType": "address",
          "name": "inputTokenAddress",
          "type": "address"
        },
        {
          "internalType": "uint256",
          "name": "inputAmountWad",
          "type": "uint256"
        },
        {
          "internalType": "bytes",
          "name": "_extraData",
          "type": "bytes"
        }
      ],
      "name": "convert",
      "outputs": [
        {
          "internalType": "uint256",
          "name": "",
          "type": "uint256"
        }
      ],
      "stateMutability": "nonpayable",
      "type": "function"
    },
    {
      "inputs": [
        {
          "internalType": "uint256",
          "name": "requestId",
          "type": "uint256"
        }
      ],
      "name": "finalize",
      "outputs": [
        {
          "internalType": "uint256",
          "name": "checkpointId",
          "type": "uint256"
        }
      ],
      "stateMutability": "nonpayable",
      "type": "function"
    },
    {
      "inputs": [
        {
          "internalType": "uint256",
          "name": "_requestId",
          "type": "uint256"
        },
        {
          "internalType": "uint256",
          "name": "_start",
          "type": "uint256"
        },
        {
          "internalType": "uint256",
          "name": "_end",
          "type": "uint256"
        }
      ],
      "name": "findCheckpointHint",
      "outputs": [
        {
          "internalType": "uint256",
          "name": "",
          "type": "uint256"
        }
      ],
      "stateMutability": "view",
      "type": "function"
    },
    {
      "inputs": [
        {
          "internalType": "uint256[]",
          "name": "_requestIds",
          "type": "uint256[]"
        },
        {
          "internalType": "uint256",
          "name": "_firstIndex",
          "type": "uint256"
        },
        {
          "internalType": "uint256",
          "name": "_lastIndex",
          "type": "uint256"
        }
      ],
      "name": "findCheckpointHints",
      "outputs": [
        {
          "internalType": "uint256[]",
          "name": "hintIds",
          "type": "uint256[]"
        }
      ],
      "stateMutability": "view",
      "type": "function"
    },
    {
      "inputs": [
        {
          "internalType": "uint256[]",
          "name": "_requestIds",
          "type": "uint256[]"
        },
        {
          "internalType": "uint256[]",
          "name": "_hintIds",
          "type": "uint256[]"
        }
      ],
      "name": "getClaimableEther",
      "outputs": [
        {
          "internalType": "uint256[]",
          "name": "claimableEthValues",
          "type": "uint256[]"
        }
      ],
      "stateMutability": "view",
      "type": "function"
    },
    {
      "inputs": [],
      "name": "getLastCheckpointId",
      "outputs": [
        {
          "internalType": "uint256",
          "name": "",
          "type": "uint256"
        }
      ],
      "stateMutability": "view",
      "type": "function"
    },
    {
      "inputs": [],
      "name": "getLastFinalizedRequestId",
      "outputs": [
        {
          "internalType": "uint256",
          "name": "",
          "type": "uint256"
        }
      ],
      "stateMutability": "view",
      "type": "function"
    },
    {
      "inputs": [],
      "name": "getLastRequestId",
      "outputs": [
        {
          "internalType": "uint256",
          "name": "",
          "type": "uint256"
        }
      ],
      "stateMutability": "view",
      "type": "function"
    },
    {
      "inputs": [],
      "name": "getLockedBalance",
      "outputs": [
        {
          "internalType": "uint256",
          "name": "",
          "type": "uint256"
        }
      ],
      "stateMutability": "view",
      "type": "function"
    },
    {
      "inputs": [
        {
          "internalType": "uint256",
          "name": "idx",
          "type": "uint256"
        }
      ],
      "name": "getProviderInfoAt",
      "outputs": [
        {
          "components": [
            {
              "internalType": "bytes32",
              "name": "id",
              "type": "bytes32"
            },
            {
              "internalType": "address",
              "name": "providerAddress",
              "type": "address"
            },
            {
              "internalType": "uint256",
              "name": "stakedBalance",
              "type": "uint256"
            },
            {
              "internalType": "uint256",
              "name": "pendingBalance",
              "type": "uint256"
            },
            {
              "internalType": "uint256",
              "name": "stakedPrincipal",
              "type": "uint256"
            },
            {
              "internalType": "uint256",
              "name": "totalValue",
              "type": "uint256"
            },
            {
              "internalType": "int256",
              "name": "yield",
              "type": "int256"
            }
          ],
          "internalType": "struct YieldManager.ProviderInfo",
          "name": "info",
          "type": "tuple"
        }
      ],
      "stateMutability": "view",
      "type": "function"
    },
    {
      "inputs": [
        {
          "internalType": "address",
          "name": "_owner",
          "type": "address"
        }
      ],
      "name": "getWithdrawalRequests",
      "outputs": [
        {
          "internalType": "uint256[]",
          "name": "requestIds",
          "type": "uint256[]"
        }
      ],
      "stateMutability": "view",
      "type": "function"
    },
    {
      "inputs": [
        {
          "internalType": "uint256[]",
          "name": "_requestIds",
          "type": "uint256[]"
        }
      ],
      "name": "getWithdrawalStatus",
      "outputs": [
        {
          "components": [
            {
              "internalType": "uint256",
              "name": "amount",
              "type": "uint256"
            },
            {
              "internalType": "address",
              "name": "recipient",
              "type": "address"
            },
            {
              "internalType": "uint256",
              "name": "timestamp",
              "type": "uint256"
            },
            {
              "internalType": "bool",
              "name": "isFinalized",
              "type": "bool"
            },
            {
              "internalType": "bool",
              "name": "isClaimed",
              "type": "bool"
            }
          ],
          "internalType": "struct WithdrawalQueue.WithdrawalRequestStatus[]",
          "name": "statuses",
          "type": "tuple[]"
        }
      ],
      "stateMutability": "view",
      "type": "function"
    },
    {
      "inputs": [
        {
          "internalType": "contract OptimismPortal",
          "name": "_portal",
          "type": "address"
        },
        {
          "internalType": "address",
          "name": "_owner",
          "type": "address"
        }
      ],
      "name": "initialize",
      "outputs": [],
      "stateMutability": "nonpayable",
      "type": "function"
    },
    {
      "inputs": [],
      "name": "insurance",
      "outputs": [
        {
          "internalType": "address",
          "name": "",
          "type": "address"
        }
      ],
      "stateMutability": "view",
      "type": "function"
    },
    {
      "inputs": [],
      "name": "insuranceFeeBips",
      "outputs": [
        {
          "internalType": "uint256",
          "name": "",
          "type": "uint256"
        }
      ],
      "stateMutability": "view",
      "type": "function"
    },
    {
      "inputs": [],
      "name": "insuranceWithdrawalBuffer",
      "outputs": [
        {
          "internalType": "uint256",
          "name": "",
          "type": "uint256"
        }
      ],
      "stateMutability": "view",
      "type": "function"
    },
    {
      "inputs": [],
      "name": "owner",
      "outputs": [
        {
          "internalType": "address",
          "name": "",
          "type": "address"
        }
      ],
      "stateMutability": "view",
      "type": "function"
    },
    {
      "inputs": [],
      "name": "pendingOwner",
      "outputs": [
        {
          "internalType": "address",
          "name": "",
          "type": "address"
        }
      ],
      "stateMutability": "view",
      "type": "function"
    },
    {
      "inputs": [],
      "name": "portal",
      "outputs": [
        {
          "internalType": "contract OptimismPortal",
          "name": "",
          "type": "address"
        }
      ],
      "stateMutability": "view",
      "type": "function"
    },
    {
      "inputs": [
        {
          "internalType": "uint256",
          "name": "amount",
          "type": "uint256"
        }
      ],
      "name": "recordNegativeYield",
      "outputs": [],
      "stateMutability": "nonpayable",
      "type": "function"
    },
    {
      "inputs": [
        {
          "internalType": "address",
          "name": "providerAddress",
          "type": "address"
        },
        {
          "internalType": "uint256",
          "name": "amount",
          "type": "uint256"
        }
      ],
      "name": "recordStakedDeposit",
      "outputs": [],
      "stateMutability": "nonpayable",
      "type": "function"
    },
    {
      "inputs": [
        {
          "internalType": "address",
          "name": "provider",
          "type": "address"
        }
      ],
      "name": "removeProvider",
      "outputs": [],
      "stateMutability": "nonpayable",
      "type": "function"
    },
    {
      "inputs": [],
      "name": "renounceOwnership",
      "outputs": [],
      "stateMutability": "nonpayable",
      "type": "function"
    },
    {
      "inputs": [
        {
          "internalType": "address",
          "name": "recipient",
          "type": "address"
        },
        {
          "internalType": "uint256",
          "name": "amount",
          "type": "uint256"
        }
      ],
      "name": "requestWithdrawal",
      "outputs": [
        {
          "internalType": "uint256",
          "name": "",
          "type": "uint256"
        }
      ],
      "stateMutability": "nonpayable",
      "type": "function"
    },
    {
      "inputs": [
        {
          "internalType": "address",
          "name": "_admin",
          "type": "address"
        }
      ],
      "name": "setAdmin",
      "outputs": [],
      "stateMutability": "nonpayable",
      "type": "function"
    },
    {
      "inputs": [
        {
          "internalType": "address",
          "name": "_blastBridge",
          "type": "address"
        }
      ],
      "name": "setBlastBridge",
      "outputs": [],
      "stateMutability": "nonpayable",
      "type": "function"
    },
    {
      "inputs": [
        {
          "internalType": "address",
          "name": "_insurance",
          "type": "address"
        },
        {
          "internalType": "uint256",
          "name": "_insuranceFeeBips",
          "type": "uint256"
        },
        {
          "internalType": "uint256",
          "name": "_withdrawalBuffer",
          "type": "uint256"
        }
      ],
      "name": "setInsurance",
      "outputs": [],
      "stateMutability": "nonpayable",
      "type": "function"
    },
    {
      "inputs": [],
      "name": "sharePrice",
      "outputs": [
        {
          "internalType": "uint256",
          "name": "",
          "type": "uint256"
        }
      ],
      "stateMutability": "view",
      "type": "function"
    },
    {
      "inputs": [
        {
          "internalType": "uint256",
          "name": "idx",
          "type": "uint256"
        },
        {
          "internalType": "address",
          "name": "providerAddress",
          "type": "address"
        },
        {
          "internalType": "uint256",
          "name": "amount",
          "type": "uint256"
        }
      ],
      "name": "stake",
      "outputs": [],
      "stateMutability": "nonpayable",
      "type": "function"
    },
    {
      "inputs": [],
      "name": "tokenBalance",
      "outputs": [
        {
          "internalType": "uint256",
          "name": "",
          "type": "uint256"
        }
      ],
      "stateMutability": "view",
      "type": "function"
    },
    {
      "inputs": [],
      "name": "totalProviderValue",
      "outputs": [
        {
          "internalType": "uint256",
          "name": "sum",
          "type": "uint256"
        }
      ],
      "stateMutability": "view",
      "type": "function"
    },
    {
      "inputs": [],
      "name": "totalValue",
      "outputs": [
        {
          "internalType": "uint256",
          "name": "",
          "type": "uint256"
        }
      ],
      "stateMutability": "view",
      "type": "function"
    },
    {
      "inputs": [
        {
          "internalType": "address",
          "name": "newOwner",
          "type": "address"
        }
      ],
      "name": "transferOwnership",
      "outputs": [],
      "stateMutability": "nonpayable",
      "type": "function"
    },
    {
      "inputs": [],
      "name": "unfinalizedRequestNumber",
      "outputs": [
        {
          "internalType": "uint256",
          "name": "",
          "type": "uint256"
        }
      ],
      "stateMutability": "view",
      "type": "function"
    },
    {
      "inputs": [
        {
          "internalType": "uint256",
          "name": "idx",
          "type": "uint256"
        },
        {
          "internalType": "address",
          "name": "providerAddress",
          "type": "address"
        },
        {
          "internalType": "uint256",
          "name": "amount",
          "type": "uint256"
        }
      ],
      "name": "unstake",
      "outputs": [],
      "stateMutability": "nonpayable",
      "type": "function"
    },
    {
      "inputs": [],
      "name": "version",
      "outputs": [
        {
          "internalType": "string",
          "name": "",
          "type": "string"
        }
      ],
      "stateMutability": "view",
      "type": "function"
    }
  ],
  "address": "0xE1cB7358311eCc408e1EFC47ceDc6740A8F68013",
  "args": [],
  "bytecode": "0x6101006040523480156200001257600080fd5b5060405162004c4238038062004c42833981016040819052620000359162000123565b6001600160a01b038116608052600160a052600060c081905260e0526200005b62000062565b5062000155565b600054610100900460ff1615620000cf5760405162461bcd60e51b815260206004820152602760248201527f496e697469616c697a61626c653a20636f6e747261637420697320696e697469604482015266616c697a696e6760c81b606482015260840160405180910390fd5b60005460ff9081161462000121576000805460ff191660ff9081179091556040519081527f7f26b83ff96e1f2b6a682f133852f6798a09c465da95921460cefb38474024989060200160405180910390a15b565b6000602082840312156200013657600080fd5b81516001600160a01b03811681146200014e57600080fd5b9392505050565b60805160a05160c05160e051614a90620001b2600039600061100b01526000610fe201526000610fb901526000818161048301528181610b66015281816114210152818161152b01528181611ed90152611f270152614a906000f3fe608060405234801561001057600080fd5b50600436106102955760003560e01c806389cf320411610167578063d11b1ae0116100ce578063f0c8c0dd11610087578063f0c8c0dd146105c1578063f19d06f0146105d4578063f21340e4146105dc578063f2fde38b146105ff578063f851a44014610612578063fe1e7d711461062557600080fd5b8063d11b1ae014610566578063d4c3eea01461056f578063d6ce791014610577578063da95ebf71461058a578063e30c39781461059d578063e7518fb6146105ae57600080fd5b8063ab2f0e5111610120578063ab2f0e5114610512578063b1d3c61e1461051a578063b8c4b85a14610523578063bfdbfe8314610543578063c2fc7aff1461054b578063c97912d81461055357600080fd5b806389cf3204146104ad57806389eabf02146104c05780638a355a57146104d35780638da5cb5b146104e6578063959598c4146104f75780639e1a4d191461050a57600080fd5b806354fd4d501161020b578063715018a6116101c4578063715018a61461044857806371ea21c21461045057806379ba5097146104635780637d031b651461046b57806382bfefc81461047e57806387269729146104a557600080fd5b806354fd4d50146103af57806362abe3fa146103c45780636425666b146103e45780636e9c931c1461040f5780636f3ed5e314610422578063704b6c021461043557600080fd5b80632844be5f1161025d5780632844be5f146102ee57806346e2577a14610301578063485cc955146103145780634f069a131461032757806351787ffa1461032f57806351a7c7161461039c57600080fd5b806305261aea1461029a5780630eb5238c146102c057806319c2b4c3146102c95780631b14ace8146102d15780632549e0b1146102e6575b600080fd5b6102ad6102a83660046140b0565b61062e565b6040519081526020015b60405180910390f35b6102ad60cf5481565b609a546102ad565b6102e46102df3660046140de565b6106a8565b005b609d546102ad565b6102ad6102fc36600461410a565b61075a565b6102e461030f366004614136565b610939565b6102e4610322366004614153565b610a84565b609b546102ad565b61034261033d3660046140b0565b610be6565b6040516102b79190815181526020808301516001600160a01b03169082015260408083015190820152606080830151908201526080808301519082015260a0808301519082015260c0918201519181019190915260e00190565b6102e46103aa36600461418c565b610eca565b6103b7610fb2565b6040516102b79190614220565b6103d76103d2366004614278565b611055565b6040516102b791906142c9565b60d0546103f7906001600160a01b031681565b6040516001600160a01b0390911681526020016102b7565b6102e461041d36600461418c565b611174565b6102e461043036600461430d565b611244565b6102e4610443366004614136565b611297565b6102e46112d4565b60cc546103f7906001600160a01b031681565b6102e46112e8565b6103d7610479366004614136565b611362565b6103f77f000000000000000000000000000000000000000000000000000000000000000081565b6102ad61138c565b60cb546103f7906001600160a01b031681565b6102ad6104ce366004614358565b6113ed565b6102e46104e1366004614136565b61144f565b6033546001600160a01b03166103f7565b6102e46105053660046140de565b611462565b6102ad611513565b6102ad6115a3565b6102ad60cd5481565b610536610531366004614425565b6115c0565b6040516102b79190614467565b6102ad611698565b6102ad611741565b6103d76105613660046144e2565b611753565b6102ad60ce5481565b6102ad611815565b6102e46105853660046140b0565b611831565b6102ad6105983660046140de565b61189a565b6065546001600160a01b03166103f7565b6102e46105bc36600461455c565b6118d2565b6102e46105cf366004614136565b611d91565b609c546102ad565b6105ef6105ea366004614579565b611dce565b60405190151581526020016102b7565b6102e461060d366004614136565b611fbe565b60ca546103f7906001600160a01b031681565b6102ad61271081565b60ca546000906001600160a01b0316331461065c57604051638dfa73db60e01b815260040160405180910390fd5b6000806106788461066b6115a3565b61067361138c565b61202f565b94509092509050808211156106a15760cd5461069d9061069883856145b1565b612295565b60cd555b5050919050565b60ca546001600160a01b031633146106d357604051638dfa73db60e01b815260040160405180910390fd5b60cb546001600160a01b03166106e857600080fd5b60cb54604051631a3f4bd360e31b81526001600160a01b039091169063d1fa5e989061071a90859085906004016145c8565b600060405180830381600087803b15801561073457600080fd5b505af1158015610748573d6000803e3d6000fd5b5050505061075660016118d2565b5050565b600083158061076a5750609a5484115b15610790576040516364b4f07960e11b8152600481018590526024015b60405180910390fd5b609c5483158061079f57508083115b156107c757604051637189425760e01b81526004810185905260248101849052604401610787565b8015806107d55750609b5485115b806107df57508284115b156107ee576000915050610932565b60998381548110610801576108016145e1565b9060005260206000209060020201600001548510610872578083036108295782915050610932565b60996108368460016145f7565b81548110610846576108466145e1565b9060005260206000209060020201600001548510156108685782915050610932565b6000915050610932565b60998481548110610885576108856145e1565b9060005260206000209060020201600001548510156108a8576000915050610932565b8360006108b66001866145b1565b90505b8181111561092d57600060026108cf84846145f7565b6108da9060016145f7565b6108e49190614625565b905087609982815481106108fa576108fa6145e1565b9060005260206000209060020201600001541161091957809250610927565b6109246001826145b1565b91505b506108b9565b509150505b9392505050565b6109416122ab565b306001600160a01b0316816001600160a01b031663219ebb9c6040518163ffffffff1660e01b8152600401602060405180830381865afa158015610989573d6000803e3d6000fd5b505050506040513d601f19601f820116820180604052508101906109ad9190614639565b6001600160a01b0316146109d457604051638d8eed3b60e01b815260040160405180910390fd5b6109df60c882612305565b5060408051600481526024810182526020810180516001600160e01b031663204a7f0760e21b17905290516000916001600160a01b03841691610a229190614656565b600060405180830381855af49150503d8060008114610a5d576040519150601f19603f3d011682016040523d82523d6000602084013e610a62565b606091505b505090508061075657604051630fb6449b60e21b815260040160405180910390fd5b600054610100900460ff1615808015610aa45750600054600160ff909116105b80610abe5750303b158015610abe575060005460ff166001145b610b215760405162461bcd60e51b815260206004820152602e60248201527f496e697469616c697a61626c653a20636f6e747261637420697320616c72656160448201526d191e481a5b9a5d1a585b1a5e995960921b6064820152608401610787565b6000805460ff191660011790558015610b44576000805461ff0019166101001790555b610b4e838361231a565b736b175474e89094c44da98b954eedeac495271d0e197f00000000000000000000000000000000000000000000000000000000000000006001600160a01b031601610b9b57610b9b61237d565b8015610be1576000805461ff0019169055604051600181527f7f26b83ff96e1f2b6a682f133852f6798a09c465da95921460cefb38474024989060200160405180910390a15b505050565b610c326040518060e001604052806000801916815260200160006001600160a01b0316815260200160008152602001600081526020016000815260200160008152602001600081525090565b6000610c3f60c8846126dc565b9050806001600160a01b031663af640d0f6040518163ffffffff1660e01b8152600401602060405180830381865afa158015610c7f573d6000803e3d6000fd5b505050506040513d601f19601f82011682018060405250810190610ca39190614672565b82526001600160a01b038116602080840182905260408051632dcf800b60e11b81529051635b9f0016926004808401939192918290030181865afa158015610cef573d6000803e3d6000fd5b505050506040513d601f19601f82011682018060405250810190610d139190614672565b826040018181525050806001600160a01b03166357b4d18e6040518163ffffffff1660e01b8152600401602060405180830381865afa158015610d5a573d6000803e3d6000fd5b505050506040513d601f19601f82011682018060405250810190610d7e9190614672565b826060018181525050806001600160a01b03166385254adf6040518163ffffffff1660e01b8152600401602060405180830381865afa158015610dc5573d6000803e3d6000fd5b505050506040513d601f19601f82011682018060405250810190610de99190614672565b826080018181525050806001600160a01b031663d4c3eea06040518163ffffffff1660e01b8152600401602060405180830381865afa158015610e30573d6000803e3d6000fd5b505050506040513d601f19601f82011682018060405250810190610e549190614672565b8260a0018181525050806001600160a01b031663285939846040518163ffffffff1660e01b8152600401602060405180830381865afa158015610e9b573d6000803e3d6000fd5b505050506040513d601f19601f82011682018060405250810190610ebf9190614672565b60c083015250919050565b60ca546001600160a01b03163314610ef557604051638dfa73db60e01b815260040160405180910390fd5b6001600160a01b038216610f0a60c8856126dc565b6001600160a01b031614610f3157604051638f700e7960e01b815260040160405180910390fd5b600080610f3e84846126e8565b604051637663fb2160e11b815260048101839052602481018290526044810186905291935091506001600160a01b0385169063ecc7f64290606401600060405180830381600087803b158015610f9357600080fd5b505af1158015610fa7573d6000803e3d6000fd5b505050505050505050565b6060610fdd7f00000000000000000000000000000000000000000000000000000000000000006127c4565b6110067f00000000000000000000000000000000000000000000000000000000000000006127c4565b61102f7f00000000000000000000000000000000000000000000000000000000000000006127c4565b6040516020016110419392919061468b565b604051602081830303815290604052905090565b60608367ffffffffffffffff81111561107057611070614342565b604051908082528060200260200182016040528015611099578160200160208202803683370190505b5090506000805b8581101561116a57818787838181106110bb576110bb6145e1565b9050602002013510156110e15760405163374e8bd160e01b815260040160405180910390fd5b6111048787838181106110f6576110f66145e1565b90506020020135868661075a565b838281518110611116576111166145e1565b602002602001018181525050828181518110611134576111346145e1565b60200260200101519450868682818110611150576111506145e1565b90506020020135915080611163906146e5565b90506110a0565b5050949350505050565b60ca546001600160a01b0316331461119f57604051638dfa73db60e01b815260040160405180910390fd5b6001600160a01b0382166111b460c8856126dc565b6001600160a01b0316146111db57604051638f700e7960e01b815260040160405180910390fd5b6111e582826128c5565b604051635dd7f8f160e11b8152600481018290526001600160a01b0383169063bbaff1e290602401600060405180830381600087803b15801561122757600080fd5b505af115801561123b573d6000803e3d6000fd5b50505050505050565b61124c6122ab565b6001600160a01b03831661125f57600080fd5b61271082111561126e57600080fd5b60cb80546001600160a01b0319166001600160a01b03949094169390931790925560ce5560cf55565b61129f6122ab565b6001600160a01b0381166112b257600080fd5b60ca80546001600160a01b0319166001600160a01b0392909216919091179055565b6112dc6122ab565b6112e6600061297a565b565b60655433906001600160a01b031681146113565760405162461bcd60e51b815260206004820152602960248201527f4f776e61626c6532537465703a2063616c6c6572206973206e6f7420746865206044820152683732bb9037bbb732b960b91b6064820152608401610787565b61135f8161297a565b50565b6001600160a01b038116600090815260986020526040902060609061138690612993565b92915050565b600080611397611815565b9050806000036113ba576040516332feec7f60e21b815260040160405180910390fd5b60cd546113c790826145f7565b6113dd6b033b2e3c9fd0803ce8000000836146fe565b6113e79190614625565b91505090565b60cc546000906001600160a01b0316331461141b5760405163575faf4160e11b815260040160405180910390fd5b611447847f000000000000000000000000000000000000000000000000000000000000000085856129a0565b949350505050565b6114576122ab565b61075660c882612a12565b60cc546001600160a01b0316331461148d5760405163575faf4160e11b815260040160405180910390fd5b61149860c883612a27565b6114b55760405163b1cd090360e01b815260040160405180910390fd5b604051635dd7f8f160e11b8152600481018290526001600160a01b0383169063bbaff1e290602401600060405180830381600087803b1580156114f757600080fd5b505af115801561150b573d6000803e3d6000fd5b505050505050565b6040516370a0823160e01b81523060048201526000907f00000000000000000000000000000000000000000000000000000000000000006001600160a01b0316906370a0823190602401602060405180830381865afa15801561157a573d6000803e3d6000fd5b505050506040513d601f19601f8201168201806040525081019061159e9190614672565b905090565b60006115ae609d5490565b6115b6611513565b61159e91906145b1565b60608167ffffffffffffffff8111156115db576115db614342565b60405190808252806020026020018201604052801561163457816020015b6040805160a0810182526000808252602080830182905292820181905260608201819052608082015282526000199092019101816115f95790505b50905060005b8281101561169157611663848483818110611657576116576145e1565b90506020020135612a49565b828281518110611675576116756145e1565b60200260200101819052508061168a906146e5565b905061163a565b5092915050565b6000806116a560c8612c12565b905060005b8181101561173c576116bd60c8826126dc565b6001600160a01b031663d4c3eea06040518163ffffffff1660e01b8152600401602060405180830381865afa1580156116fa573d6000803e3d6000fd5b505050506040513d601f19601f8201168201806040525081019061171e9190614672565b61172890846145f7565b925080611734816146e5565b9150506116aa565b505090565b6000609b54609a5461159e91906145b1565b60608367ffffffffffffffff81111561176e5761176e614342565b604051908082528060200260200182016040528015611797578160200160208202803683370190505b50905060005b8481101561180c576117df8686838181106117ba576117ba6145e1565b905060200201358585848181106117d3576117d36145e1565b90506020020135612c1c565b8282815181106117f1576117f16145e1565b6020908102919091010152611805816146e5565b905061179d565b50949350505050565b600061181f611698565b6118276115a3565b61159e91906145f7565b3330146118805760405162461bcd60e51b815260206004820152601b60248201527f43616c6c6572206973206e6f74207468697320636f6e747261637400000000006044820152606401610787565b8060cd600082825461189291906145f7565b909155505050565b60cc546000906001600160a01b031633146118c85760405163575faf4160e11b815260040160405180910390fd5b6109328383612caf565b60ca546001600160a01b031633146118fd57604051638dfa73db60e01b815260040160405180910390fd5b600061190960c8612c12565b60cd5490915060008080805b85811015611c985761193061192b60c8836126dc565b612eba565b600061193d60c8836126dc565b6001600160a01b031663285939846040518163ffffffff1660e01b8152600401602060405180830381865afa15801561197a573d6000803e3d6000fd5b505050506040513d601f19601f8201168201806040525081019061199e9190614672565b90506000888015611a1657506119b560c8846126dc565b6001600160a01b0316634bfb431f6040518163ffffffff1660e01b8152600401602060405180830381865afa1580156119f2573d6000803e3d6000fd5b505050506040513d601f19601f82011682018060405250810190611a16919061471d565b8015611a2c575060cb546001600160a01b031615155b15611b53576000821315611a7c5761271060ce5483611a4b91906146fe565b611a559190614625565b9050611a6b611a6560c8856126dc565b82612f5d565b611a7581876145f7565b9550611b53565b6000821215611b5357600060cf54611a9384612fb1565b611a9d91906145f7565b90506000611aac60c8866126dc565b6001600160a01b0316630577d6d56040518163ffffffff1660e01b8152600401602060405180830381865afa158015611ae9573d6000803e3d6000fd5b505050506040513d601f19601f82011682018060405250810190611b0d9190614672565b905081811015611b3057604051633eb0171360e01b815260040160405180910390fd5b611b44611b3e60c8876126dc565b83612fc8565b611b4e82886145f7565b965050505b6000611b6060c8856126dc565b6001600160a01b031663f304f5e56040518163ffffffff1660e01b81526004016020604051808303816000875af1158015611b9f573d6000803e3d6000fd5b505050506040513d601f19601f82011682018060405250810190611bc39190614672565b9050898015611c395750611bd860c8856126dc565b6001600160a01b0316634bfb431f6040518163ffffffff1660e01b8152600401602060405180830381865afa158015611c15573d6000803e3d6000fd5b505050506040513d601f19601f82011682018060405250810190611c39919061471d565b8015611c4f575060cb546001600160a01b031615155b15611c76576000811215611c765760405163ef0175db60e01b815260040160405180910390fd5b611c80818661473a565b94505050508080611c90906146e5565b915050611915565b5060cd5415611cb957611cac60cd5461301c565b611cb6908261477b565b90505b60408051828152602081018590529081018390527ede4b58e7863b1e3dce7259a138136239427388d53e4844f369cdee7a81dbf59060600160405180910390a16000811215611d1657611d0e816000196147ba565b60cd55611d65565b600060cd819055811315611d65576040805160248082018490528251808303909101815260449091019091526020810180516001600160e01b0316635b9af12b60e01b179052611d6590613086565b858015611d7357508360cd54115b1561150b5760405163528dc37160e11b815260040160405180910390fd5b611d996122ab565b6001600160a01b038116611dac57600080fd5b60cc80546001600160a01b0319166001600160a01b0392909216919091179055565b600082600003611df4576040516364b4f07960e11b815260048101849052602401610787565b609b54831115611e1a5760405163095ca04560e31b815260048101849052602401610787565b600060978481548110611e2f57611e2f6145e1565b906000526020600020906002020190508060010160199054906101000a900460ff1615611e725760405163f0e0cc2d60e01b815260048101859052602401610787565b60018101805460ff60c81b198116600160c81b179091556001600160a01b0316338114611eb25760405163f406fde960e01b815260040160405180910390fd5b6000611ebe86866130fe565b905080609d6000828254611ed291906145b1565b90915550507f00000000000000000000000000000000000000000000000000000000000000006001600160a01b0316611f1a57611f1382620186a0836132e4565b9350611f53565b611f4e6001600160a01b037f00000000000000000000000000000000000000000000000000000000000000001683836132fa565b600193505b83611f7157604051634c82c35160e11b815260040160405180910390fd5b816001600160a01b0316867f8adb7a84b2998a8d11cd9284395f95d5a99f160be785ae79998c654979bd3d9a83604051611fad91815260200190565b60405180910390a350505092915050565b611fc66122ab565b606580546001600160a01b0383166001600160a01b03199091168117909155611ff76033546001600160a01b031690565b6001600160a01b03167f38d16b8cac22d99fc7c124b9cd0de2d3fa1faef420bfe791d8c362d765e2270060405160405180910390a350565b60008060006b033b2e3c9fd0803ce80000008411156120615760405163e5dd50c360e01b815260040160405180910390fd5b851561228c57609a5486111561208d576040516364b4f07960e11b815260048101879052602401610787565b609b548087116120b3576040516364b4f07960e11b815260048101889052602401610787565b6000609782815481106120c8576120c86145e1565b6000918252602080832060408051608081018252600290940290910180546001600160801b03168452600101546001600160a01b0381169284019290925264ffffffffff600160a01b8304169083015260ff600160c81b909104161515606082015260978054919350908a908110612142576121426145e1565b60009182526020918290206040805160808101825260029390930290910180546001600160801b03168084526001909101546001600160a01b03811694840194909452600160a01b840464ffffffffff1691830191909152600160c81b90920460ff161515606082015283519092506121ba9161483f565b6001600160801b031695506b033b2e3c9fd0803ce80000006121dc88886146fe565b6121e69190614625565b94508785111561220957604051631e9acf1760e31b815260040160405180910390fd5b60006122168460016145f7565b905085609d600082825461222a91906145f7565b9091555050609b8a905561223e8189613350565b604080518881524260208201529081018a905290955085908b9083907f59382740d48c89a44d8866c8e7071aa24351a82e5f38e4674ab82aa8a18119bc9060600160405180910390a4505050505b93509350939050565b60008183116122a5576000610932565b50900390565b6033546001600160a01b031633146112e65760405162461bcd60e51b815260206004820181905260248201527f4f776e61626c653a2063616c6c6572206973206e6f7420746865206f776e65726044820152606401610787565b6000610932836001600160a01b0384166133ed565b600054610100900460ff166123415760405162461bcd60e51b815260040161078790614867565b61234961343c565b61235161346b565b61235a8161297a565b5060d080546001600160a01b0319166001600160a01b0392909216919091179055565b60405163095ea7b360e01b815273a0b86991c6218b36c1d19d4a2e9eb0ce3606eb489063095ea7b3906123cc9073bebc44782c7db0a1a60cb6fe97d0b483032ff1c790600019906004016145c8565b6020604051808303816000875af11580156123eb573d6000803e3d6000fd5b505050506040513d601f19601f8201168201806040525081019061240f919061471d565b5060405163095ea7b360e01b815273a0b86991c6218b36c1d19d4a2e9eb0ce3606eb489063095ea7b39061245f90730a59649758aa4d66e25f08dd01271e891fe5219990600019906004016145c8565b6020604051808303816000875af115801561247e573d6000803e3d6000fd5b505050506040513d601f19601f820116820180604052508101906124a2919061471d565b5060405163095ea7b360e01b815273dac17f958d2ee523a2206206994597c13d831ec79063095ea7b3906124f29073bebc44782c7db0a1a60cb6fe97d0b483032ff1c790600019906004016145c8565b600060405180830381600087803b15801561250c57600080fd5b505af1158015612520573d6000803e3d6000fd5b505060405163095ea7b360e01b8152736b175474e89094c44da98b954eedeac495271d0f925063095ea7b391506125739073bebc44782c7db0a1a60cb6fe97d0b483032ff1c790600019906004016145c8565b6020604051808303816000875af1158015612592573d6000803e3d6000fd5b505050506040513d601f19601f820116820180604052508101906125b6919061471d565b5060405163095ea7b360e01b8152736b175474e89094c44da98b954eedeac495271d0f9063095ea7b39061260690730a59649758aa4d66e25f08dd01271e891fe5219990600019906004016145c8565b6020604051808303816000875af1158015612625573d6000803e3d6000fd5b505050506040513d601f19601f82011682018060405250810190612649919061471d565b5060405163095ea7b360e01b8152736b175474e89094c44da98b954eedeac495271d0f9063095ea7b390612699907389b78cfa322f6c5de0abceecab66aee45393cc5a90600019906004016145c8565b6020604051808303816000875af11580156126b8573d6000803e3d6000fd5b505050506040513d601f19601f8201168201806040525081019061135f919061471d565b600061093283836135f9565b600080600080856001600160a01b03168560405160240161270b91815260200190565b60408051601f198184030181529181526020820180516001600160e01b03166305c2fbcf60e31b179052516127409190614656565b600060405180830381855af49150503d806000811461277b576040519150601f19603f3d011682016040523d82523d6000602084013e612780565b606091505b5091509150816127a25760405162461bcd60e51b8152600401610787906148b2565b808060200190518101906127b691906148df565b9350935050505b9250929050565b6060816000036127eb5750506040805180820190915260018152600360fc1b602082015290565b8160005b811561281557806127ff816146e5565b915061280e9050600a83614625565b91506127ef565b60008167ffffffffffffffff81111561283057612830614342565b6040519080825280601f01601f19166020018201604052801561285a576020820181803683370190505b5090505b84156114475761286f6001836145b1565b915061287c600a86614903565b6128879060306145f7565b60f81b81838151811061289c5761289c6145e1565b60200101906001600160f81b031916908160001a9053506128be600a86614625565b945061285e565b6000826001600160a01b0316826040516024016128e491815260200190565b60408051601f198184030181529181526020820180516001600160e01b031663534a7e1d60e11b179052516129199190614656565b600060405180830381855af49150503d8060008114612954576040519150601f19603f3d011682016040523d82523d6000602084013e612959565b606091505b5050905080610be15760405162461bcd60e51b8152600401610787906148b2565b606580546001600160a01b031916905561135f81613623565b6060600061093283613675565b6000836001600160a01b0316856001600160a01b0316036129c2575081611447565b736b175474e89094c44da98b954eedeac495271d0e196001600160a01b038516016129f9576129f28584846136d1565b9050611447565b60405163350b944160e11b815260040160405180910390fd5b6000610932836001600160a01b0384166137a7565b6001600160a01b03811660009081526001830160205260408120541515610932565b6040805160a081018252600080825260208201819052918101829052606081018290526080810191909152811580612a825750609a5482115b15612aa3576040516364b4f07960e11b815260048101839052602401610787565b600060978381548110612ab857612ab86145e1565b600091825260208083206040805160808101825260029490940290910180546001600160801b031684526001908101546001600160a01b03811693850193909352600160a01b830464ffffffffff1691840191909152600160c81b90910460ff1615156060830152909250609790612b3090866145b1565b81548110612b4057612b406145e1565b60009182526020918290206040805160808101825260029390930290910180546001600160801b03168352600101546001600160a01b03811693830193909352600160a01b830464ffffffffff1682820152600160c81b90920460ff1615156060820152815160a08101909252805184519193508291612bc0919061483f565b6001600160801b0316815260200183602001516001600160a01b03168152602001836040015164ffffffffff168152602001609b54861115151581526020018360600151151581525092505050919050565b6000611386825490565b6000821580612c2c5750609a5483115b15612c4d576040516364b4f07960e11b815260048101849052602401610787565b609b54831115612c5f57506000611386565b600060978481548110612c7457612c746145e1565b906000526020600020906002020190508060010160199054906101000a900460ff1615612ca5576000915050611386565b61144784846130fe565b600080609a549050600060978281548110612ccc57612ccc6145e1565b6000918252602080832060408051608081018252600290940290910180546001600160801b03168452600101546001600160a01b0381169284019290925264ffffffffff600160a01b8304169083015260ff600160c81b90910416151560608201529150612d398561389a565b8251612d459190614917565b9050612d528360016145f7565b609a819055604080516080810182526001600160801b0380851682526001600160a01b03808b16602080850182815264ffffffffff428116878901908152600060608901818152609780546001810182559083528a5160029091027f354a83ed9988f79f6038d4c7a7dadbad8af32f4ad6df893e0e5807a1b1944ff98101805492909b166001600160801b03199092169190911790995593517f354a83ed9988f79f6038d4c7a7dadbad8af32f4ad6df893e0e5807a1b1944ffa9098018054925194511515600160c81b0260ff60c81b1995909416600160a01b026001600160c81b031990931698909716979097171791909116179092558252609890529190912091955090612e629086613903565b50866001600160a01b0316336001600160a01b0316867eae2c76ca218353c7995e13a4af773a35837cb6ebb8288092d8190bcd9c8f6889604051612ea891815260200190565b60405180910390a45050505092915050565b60408051600481526024810182526020810180516001600160e01b03166308f7890760e31b17905290516000916001600160a01b03841691612efc9190614656565b600060405180830381855af49150503d8060008114612f37576040519150601f19603f3d011682016040523d82523d6000602084013e612f3c565b606091505b50509050806107565760405162461bcd60e51b8152600401610787906148b2565b6000826001600160a01b031682604051602401612f7c91815260200190565b60408051601f198184030181529181526020820180516001600160e01b03166366785d9360e01b179052516129199190614656565b600080821215612fc45781600003611386565b5090565b6000826001600160a01b031682604051602401612fe791815260200190565b60408051601f198184030181529181526020820180516001600160e01b03166326dd5d6560e21b179052516129199190614656565b60006001600160ff1b03821115612fc45760405162461bcd60e51b815260206004820152602860248201527f53616665436173743a2076616c756520646f65736e27742066697420696e2061604482015267371034b73a191a9b60c11b6064820152608401610787565b60d0546040516374f02e2160e11b81526001600160a01b039091169063e9e05c42906130c9906003604360981b019060009062030d409082908890600401614942565b600060405180830381600087803b1580156130e357600080fd5b505af11580156130f7573d6000803e3d6000fd5b5050505050565b60008160000361312457604051636773bc7160e11b815260048101839052602401610787565b609c548083111561314b57604051636773bc7160e11b815260048101849052602401610787565b600060998481548110613160576131606145e1565b906000526020600020906002020160405180604001604052908160008201548152602001600182015481525050905080600001518510156131b757604051636773bc7160e11b815260048101859052602401610787565b8184101561323657600060996131ce8660016145f7565b815481106131de576131de6145e1565b90600052602060002090600202016040518060400160405290816000820154815260200160018201548152505090508060000151861061323457604051636773bc7160e11b815260048101869052602401610787565b505b600060976132456001886145b1565b81548110613255576132556145e1565b9060005260206000209060020201905060006097878154811061327a5761327a6145e1565b600091825260208220845460029092020180549093506132a6916001600160801b03908116911661483f565b6001600160801b031690506b033b2e3c9fd0803ce80000008460200151826132ce91906146fe565b6132d89190614625565b98975050505050505050565b600080600080600080868989f195945050505050565b610be18363a9059cbb60e01b84846040516024016133199291906145c8565b60408051601f198184030181529190526020810180516001600160e01b03166001600160e01b03199093169290921790915261390f565b60408051808201909152828152602081018281526099805460018082018355600092835293517f72a152ddfb8e864297c917af52ea6c1c68aead0fee1a62673fcc7e0c94979d0060029092029182015591517f72a152ddfb8e864297c917af52ea6c1c68aead0fee1a62673fcc7e0c94979d0190920191909155609c805491929183906133de9084906145f7565b9091555050609c549392505050565b600081815260018301602052604081205461343457508154600181810184556000848152602080822090930184905584548482528286019093526040902091909155611386565b506000611386565b600054610100900460ff166134635760405162461bcd60e51b815260040161078790614867565b6112e66139e1565b600054610100900460ff166134925760405162461bcd60e51b815260040161078790614867565b604080516080810182526000808252602080830182815264ffffffffff428116858701908152600160608701818152609780548084018255908852975160029889027f354a83ed9988f79f6038d4c7a7dadbad8af32f4ad6df893e0e5807a1b1944ff9810180546001600160801b03939093166001600160801b03199093169290921790915594517f354a83ed9988f79f6038d4c7a7dadbad8af32f4ad6df893e0e5807a1b1944ffa9095018054935191511515600160c81b0260ff60c81b1992909516600160a01b026001600160c81b03199094166001600160a01b03969096169590951792909217919091169190911790915584518086019095528285529084018281526099805492830181559092529251929091027f72a152ddfb8e864297c917af52ea6c1c68aead0fee1a62673fcc7e0c94979d00810192909255517f72a152ddfb8e864297c917af52ea6c1c68aead0fee1a62673fcc7e0c94979d0190910155565b6000826000018281548110613610576136106145e1565b9060005260206000200154905092915050565b603380546001600160a01b038381166001600160a01b0319831681179093556040519116919082907f8be0079c531659141344cd1fd0a4f28419497f9722a3daafe3b4186f6b6457e090600090a35050565b6060816000018054806020026020016040519081016040528092919081815260200182805480156136c557602002820191906000526020600020905b8154815260200190600101908083116136b1575b50505050509050919050565b6000736b175474e89094c44da98b954eedeac495271d0e196001600160a01b038516016136ff575081610932565b815160201461372157604051633d5b82cb60e11b815260040160405180910390fd5b6000828060200190518101906137379190614672565b905073a0b86991c6218b36c1d19d4a2e9eb0ce3606eb47196001600160a01b038616016137745761376c600160008684613a11565b915050610932565b73dac17f958d2ee523a2206206994597c13d831ec6196001600160a01b038616016129f95761376c600260008684613a11565b600081815260018301602052604081205480156138905760006137cb6001836145b1565b85549091506000906137df906001906145b1565b90508181146138445760008660000182815481106137ff576137ff6145e1565b9060005260206000200154905080876000018481548110613822576138226145e1565b6000918252602080832090910192909255918252600188019052604090208390555b85548690806138555761385561497d565b600190038181906000526020600020016000905590558560010160008681526020019081526020016000206000905560019350505050611386565b6000915050611386565b60006001600160801b03821115612fc45760405162461bcd60e51b815260206004820152602760248201527f53616665436173743a2076616c756520646f65736e27742066697420696e20316044820152663238206269747360c81b6064820152608401610787565b600061093283836133ed565b6000613964826040518060400160405280602081526020017f5361666545524332303a206c6f772d6c6576656c2063616c6c206661696c6564815250856001600160a01b0316613ce09092919063ffffffff16565b805190915015610be15780806020019051810190613982919061471d565b610be15760405162461bcd60e51b815260206004820152602a60248201527f5361666545524332303a204552433230206f7065726174696f6e20646964206e6044820152691bdd081cdd58d8d9595960b21b6064820152608401610787565b600054610100900460ff16613a085760405162461bcd60e51b815260040161078790614867565b6112e63361297a565b60008085600f0b12158015613a295750600385600f0b125b8015613a395750600084600f0b12155b8015613a485750600384600f0b125b613a5157600080fd5b83600f0b85600f0b03613a6357600080fd5b8215611447576000613a758487613cef565b90506000613a838487613cef565b905081613a8f88613d24565b1015613aae57604051631e9acf1760e31b815260040160405180910390fd5b6000613ab987613d24565b9050600f88900b6001148015613ad15750600f87900b155b15613b4657604051634acc893b60e11b81527389b78cfa322f6c5de0abceecab66aee45393cc5a90639599127690613b0f90309087906004016145c8565b600060405180830381600087803b158015613b2957600080fd5b505af1158015613b3d573d6000803e3d6000fd5b50505050613c9e565b600f88900b158015613b5c5750600f87900b6001145b15613c1f576000613b6c89613d24565b90507389b78cfa322f6c5de0abceecab66aee45393cc5a638d7ef9bb30613b9289613e59565b6040518363ffffffff1660e01b8152600401613baf9291906145c8565b600060405180830381600087803b158015613bc957600080fd5b505af1158015613bdd573d6000803e3d6000fd5b505050506000613bec8a613d24565b613bf690836145b1565b9050878114613c18576040516321afc32b60e01b815260040160405180910390fd5b5050613c9e565b604051630f7c084960e21b8152600f89810b600483015288900b6024820152604481018490526064810183905273bebc44782c7db0a1a60cb6fe97d0b483032ff1c790633df0212490608401600060405180830381600087803b158015613c8557600080fd5b505af1158015613c99573d6000803e3d6000fd5b505050505b80613ca888613d24565b613cb291906145b1565b935081841015613cd557604051631b88e6f960e31b815260040160405180910390fd5b505050949350505050565b60606114478484600085613e68565b6000600f82900b60021480613d085750600f82900b6001145b15613d1d57613d1683613e59565b9050611386565b5090919050565b6000306001600160a01b03166382bfefc86040518163ffffffff1660e01b8152600401602060405180830381865afa158015613d64573d6000803e3d6000fd5b505050506040513d601f19601f82011682018060405250810190613d889190614639565b6001600160a01b0316613d9a83613f99565b6001600160a01b031603613e0a57306001600160a01b031663ab2f0e516040518163ffffffff1660e01b8152600401602060405180830381865afa158015613de6573d6000803e3d6000fd5b505050506040513d601f19601f820116820180604052508101906113869190614672565b613e1382613f99565b6040516370a0823160e01b81523060048201526001600160a01b0391909116906370a0823190602401602060405180830381865afa158015613de6573d6000803e3d6000fd5b60006113868260126006614028565b606082471015613ec95760405162461bcd60e51b815260206004820152602660248201527f416464726573733a20696e73756666696369656e742062616c616e636520666f6044820152651c8818d85b1b60d21b6064820152608401610787565b6001600160a01b0385163b613f205760405162461bcd60e51b815260206004820152601d60248201527f416464726573733a2063616c6c20746f206e6f6e2d636f6e74726163740000006044820152606401610787565b600080866001600160a01b03168587604051613f3c9190614656565b60006040518083038185875af1925050503d8060008114613f79576040519150601f19603f3d011682016040523d82523d6000602084013e613f7e565b606091505b5091509150613f8e828286614077565b979650505050505050565b6000600019600f83900b01613fc3575073a0b86991c6218b36c1d19d4a2e9eb0ce3606eb48919050565b600119600f83900b01613feb575073dac17f958d2ee523a2206206994597c13d831ec7919050565b600f82900b61400f5750736b175474e89094c44da98b954eedeac495271d0f919050565b60405163609f982f60e01b815260040160405180910390fd5b6000818311156140585761403c82846145b1565b61404790600a614a77565b6140519085614625565b9050610932565b61406283836145b1565b61406d90600a614a77565b61405190856146fe565b60608315614086575081610932565b8251156140965782518084602001fd5b8160405162461bcd60e51b81526004016107879190614220565b6000602082840312156140c257600080fd5b5035919050565b6001600160a01b038116811461135f57600080fd5b600080604083850312156140f157600080fd5b82356140fc816140c9565b946020939093013593505050565b60008060006060848603121561411f57600080fd5b505081359360208301359350604090920135919050565b60006020828403121561414857600080fd5b8135610932816140c9565b6000806040838503121561416657600080fd5b8235614171816140c9565b91506020830135614181816140c9565b809150509250929050565b6000806000606084860312156141a157600080fd5b8335925060208401356141b3816140c9565b929592945050506040919091013590565b60005b838110156141df5781810151838201526020016141c7565b838111156141ee576000848401525b50505050565b6000815180845261420c8160208601602086016141c4565b601f01601f19169290920160200192915050565b60208152600061093260208301846141f4565b60008083601f84011261424557600080fd5b50813567ffffffffffffffff81111561425d57600080fd5b6020830191508360208260051b85010111156127bd57600080fd5b6000806000806060858703121561428e57600080fd5b843567ffffffffffffffff8111156142a557600080fd5b6142b187828801614233565b90989097506020870135966040013595509350505050565b6020808252825182820181905260009190848201906040850190845b81811015614301578351835292840192918401916001016142e5565b50909695505050505050565b60008060006060848603121561432257600080fd5b833561432d816140c9565b95602085013595506040909401359392505050565b634e487b7160e01b600052604160045260246000fd5b60008060006060848603121561436d57600080fd5b8335614378816140c9565b925060208401359150604084013567ffffffffffffffff8082111561439c57600080fd5b818601915086601f8301126143b057600080fd5b8135818111156143c2576143c2614342565b604051601f8201601f19908116603f011681019083821181831017156143ea576143ea614342565b8160405282815289602084870101111561440357600080fd5b8260208601602083013760006020848301015280955050505050509250925092565b6000806020838503121561443857600080fd5b823567ffffffffffffffff81111561444f57600080fd5b61445b85828601614233565b90969095509350505050565b602080825282518282018190526000919060409081850190868401855b828110156144d557815180518552868101516001600160a01b031687860152858101518686015260608082015115159086015260809081015115159085015260a09093019290850190600101614484565b5091979650505050505050565b600080600080604085870312156144f857600080fd5b843567ffffffffffffffff8082111561451057600080fd5b61451c88838901614233565b9096509450602087013591508082111561453557600080fd5b5061454287828801614233565b95989497509550505050565b801515811461135f57600080fd5b60006020828403121561456e57600080fd5b81356109328161454e565b6000806040838503121561458c57600080fd5b50508035926020909101359150565b634e487b7160e01b600052601160045260246000fd5b6000828210156145c3576145c361459b565b500390565b6001600160a01b03929092168252602082015260400190565b634e487b7160e01b600052603260045260246000fd5b6000821982111561460a5761460a61459b565b500190565b634e487b7160e01b600052601260045260246000fd5b6000826146345761463461460f565b500490565b60006020828403121561464b57600080fd5b8151610932816140c9565b600082516146688184602087016141c4565b9190910192915050565b60006020828403121561468457600080fd5b5051919050565b6000845161469d8184602089016141c4565b8083019050601760f91b80825285516146bd816001850160208a016141c4565b600192019182015283516146d88160028401602088016141c4565b0160020195945050505050565b6000600182016146f7576146f761459b565b5060010190565b60008160001904831182151516156147185761471861459b565b500290565b60006020828403121561472f57600080fd5b81516109328161454e565b600080821280156001600160ff1b038490038513161561475c5761475c61459b565b600160ff1b83900384128116156147755761477561459b565b50500190565b60008083128015600160ff1b8501841216156147995761479961459b565b6001600160ff1b03840183138116156147b4576147b461459b565b50500390565b60006001600160ff1b03818413828413808216868404861116156147e0576147e061459b565b600160ff1b60008712828116878305891216156147ff576147ff61459b565b6000871292508782058712848416161561481b5761481b61459b565b878505871281841616156148315761483161459b565b505050929093029392505050565b60006001600160801b038381169083168181101561485f5761485f61459b565b039392505050565b6020808252602b908201527f496e697469616c697a61626c653a20636f6e7472616374206973206e6f74206960408201526a6e697469616c697a696e6760a81b606082015260800190565b60208082526013908201527219195b1959d85d1958d85b1b0819985a5b1959606a1b604082015260600190565b600080604083850312156148f257600080fd5b505080516020909101519092909150565b6000826149125761491261460f565b500690565b60006001600160801b038083168185168083038211156149395761493961459b565b01949350505050565b60018060a01b038616815284602082015263ffffffff84166040820152821515606082015260a060808201526000613f8e60a08301846141f4565b634e487b7160e01b600052603160045260246000fd5b600181815b808511156149ce5781600019048211156149b4576149b461459b565b808516156149c157918102915b93841c9390800290614998565b509250929050565b6000826149e557506001611386565b816149f257506000611386565b8160018114614a085760028114614a1257614a2e565b6001915050611386565b60ff841115614a2357614a2361459b565b50506001821b611386565b5060208310610133831016604e8410600b8410161715614a51575081810a611386565b614a5b8383614993565b8060001904821115614a6f57614a6f61459b565b029392505050565b600061093283836149d656fea164736f6c634300080f000a",
  "numDeployments": 1,
  "solcInputHash": "0x0000000000000000000000000000000000000000000000000000000000000000",
  "storageLayout": {
    "storage": [
      {
        "astId": 45016,
        "contract": "src/mainnet-bridge/USDYieldManager.sol:USDYieldManager",
        "label": "_initialized",
        "offset": 0,
        "slot": "0",
        "type": "t_uint8"
      },
      {
        "astId": 45019,
        "contract": "src/mainnet-bridge/USDYieldManager.sol:USDYieldManager",
        "label": "_initializing",
        "offset": 1,
        "slot": "0",
        "type": "t_bool"
      },
      {
        "astId": 47463,
        "contract": "src/mainnet-bridge/USDYieldManager.sol:USDYieldManager",
        "label": "__gap",
        "offset": 0,
        "slot": "1",
        "type": "t_array(t_uint256)50_storage"
      },
      {
        "astId": 44863,
        "contract": "src/mainnet-bridge/USDYieldManager.sol:USDYieldManager",
        "label": "_owner",
        "offset": 0,
        "slot": "51",
        "type": "t_address"
      },
      {
        "astId": 44983,
        "contract": "src/mainnet-bridge/USDYieldManager.sol:USDYieldManager",
        "label": "__gap",
        "offset": 0,
        "slot": "52",
        "type": "t_array(t_uint256)49_storage"
      },
      {
        "astId": 44772,
        "contract": "src/mainnet-bridge/USDYieldManager.sol:USDYieldManager",
        "label": "_pendingOwner",
        "offset": 0,
        "slot": "101",
        "type": "t_address"
      },
      {
        "astId": 44851,
        "contract": "src/mainnet-bridge/USDYieldManager.sol:USDYieldManager",
        "label": "__gap",
        "offset": 0,
        "slot": "102",
        "type": "t_array(t_uint256)49_storage"
      },
      {
        "astId": 103848,
        "contract": "src/mainnet-bridge/USDYieldManager.sol:USDYieldManager",
        "label": "_requests",
        "offset": 0,
        "slot": "151",
        "type": "t_array(t_struct(WithdrawalRequest)103883_storage)dyn_storage"
      },
      {
        "astId": 103853,
        "contract": "src/mainnet-bridge/USDYieldManager.sol:USDYieldManager",
        "label": "_requestsByOwner",
        "offset": 0,
        "slot": "152",
        "type": "t_mapping(t_address,t_struct(UintSet)57588_storage)"
      },
      {
        "astId": 103857,
        "contract": "src/mainnet-bridge/USDYieldManager.sol:USDYieldManager",
        "label": "_checkpoints",
        "offset": 0,
        "slot": "153",
        "type": "t_array(t_struct(Checkpoint)103904_storage)dyn_storage"
      },
      {
        "astId": 103859,
        "contract": "src/mainnet-bridge/USDYieldManager.sol:USDYieldManager",
        "label": "lastRequestId",
        "offset": 0,
        "slot": "154",
        "type": "t_uint256"
      },
      {
        "astId": 103861,
        "contract": "src/mainnet-bridge/USDYieldManager.sol:USDYieldManager",
        "label": "lastFinalizedRequestId",
        "offset": 0,
        "slot": "155",
        "type": "t_uint256"
      },
      {
        "astId": 103863,
        "contract": "src/mainnet-bridge/USDYieldManager.sol:USDYieldManager",
        "label": "lastCheckpointId",
        "offset": 0,
        "slot": "156",
        "type": "t_uint256"
      },
      {
        "astId": 103865,
        "contract": "src/mainnet-bridge/USDYieldManager.sol:USDYieldManager",
        "label": "lockedBalance",
        "offset": 0,
        "slot": "157",
        "type": "t_uint256"
      },
      {
        "astId": 103870,
        "contract": "src/mainnet-bridge/USDYieldManager.sol:USDYieldManager",
        "label": "__gap",
        "offset": 0,
        "slot": "158",
        "type": "t_array(t_uint256)42_storage"
      },
      {
        "astId": 102858,
        "contract": "src/mainnet-bridge/USDYieldManager.sol:USDYieldManager",
        "label": "_providers",
        "offset": 0,
        "slot": "200",
        "type": "t_struct(AddressSet)57431_storage"
      },
      {
        "astId": 102861,
        "contract": "src/mainnet-bridge/USDYieldManager.sol:USDYieldManager",
        "label": "admin",
        "offset": 0,
        "slot": "202",
        "type": "t_address"
      },
      {
        "astId": 102864,
        "contract": "src/mainnet-bridge/USDYieldManager.sol:USDYieldManager",
        "label": "insurance",
        "offset": 0,
        "slot": "203",
        "type": "t_address"
      },
      {
        "astId": 102867,
        "contract": "src/mainnet-bridge/USDYieldManager.sol:USDYieldManager",
        "label": "blastBridge",
        "offset": 0,
        "slot": "204",
        "type": "t_address"
      },
      {
        "astId": 102870,
        "contract": "src/mainnet-bridge/USDYieldManager.sol:USDYieldManager",
        "label": "accumulatedNegativeYields",
        "offset": 0,
        "slot": "205",
        "type": "t_uint256"
      },
      {
        "astId": 102873,
        "contract": "src/mainnet-bridge/USDYieldManager.sol:USDYieldManager",
        "label": "insuranceFeeBips",
        "offset": 0,
        "slot": "206",
        "type": "t_uint256"
      },
      {
        "astId": 102876,
        "contract": "src/mainnet-bridge/USDYieldManager.sol:USDYieldManager",
        "label": "insuranceWithdrawalBuffer",
        "offset": 0,
        "slot": "207",
        "type": "t_uint256"
      },
      {
        "astId": 102880,
        "contract": "src/mainnet-bridge/USDYieldManager.sol:USDYieldManager",
        "label": "portal",
        "offset": 0,
        "slot": "208",
        "type": "t_contract(OptimismPortal)83475"
      },
      {
        "astId": 102885,
        "contract": "src/mainnet-bridge/USDYieldManager.sol:USDYieldManager",
        "label": "__gap",
        "offset": 0,
        "slot": "209",
        "type": "t_array(t_uint256)41_storage"
      }
    ],
    "types": {
      "t_address": {
        "encoding": "inplace",
        "label": "address",
        "numberOfBytes": "20"
      },
      "t_array(t_bytes32)dyn_storage": {
        "encoding": "dynamic_array",
        "label": "bytes32[]",
        "numberOfBytes": "32",
        "base": "t_bytes32"
      },
      "t_array(t_struct(Checkpoint)103904_storage)dyn_storage": {
        "encoding": "dynamic_array",
        "label": "struct WithdrawalQueue.Checkpoint[]",
        "numberOfBytes": "32",
        "base": "t_struct(Checkpoint)103904_storage"
      },
      "t_array(t_struct(WithdrawalRequest)103883_storage)dyn_storage": {
        "encoding": "dynamic_array",
        "label": "struct WithdrawalQueue.WithdrawalRequest[]",
        "numberOfBytes": "32",
        "base": "t_struct(WithdrawalRequest)103883_storage"
      },
      "t_array(t_uint256)41_storage": {
        "encoding": "inplace",
        "label": "uint256[41]",
        "numberOfBytes": "1312",
        "base": "t_uint256"
      },
      "t_array(t_uint256)42_storage": {
        "encoding": "inplace",
        "label": "uint256[42]",
        "numberOfBytes": "1344",
        "base": "t_uint256"
      },
      "t_array(t_uint256)49_storage": {
        "encoding": "inplace",
        "label": "uint256[49]",
        "numberOfBytes": "1568",
        "base": "t_uint256"
      },
      "t_array(t_uint256)50_storage": {
        "encoding": "inplace",
        "label": "uint256[50]",
        "numberOfBytes": "1600",
        "base": "t_uint256"
      },
      "t_bool": {
        "encoding": "inplace",
        "label": "bool",
        "numberOfBytes": "1"
      },
      "t_bytes32": {
        "encoding": "inplace",
        "label": "bytes32",
        "numberOfBytes": "32"
      },
      "t_contract(OptimismPortal)83475": {
        "encoding": "inplace",
        "label": "contract OptimismPortal",
        "numberOfBytes": "20"
      },
      "t_mapping(t_address,t_struct(UintSet)57588_storage)": {
        "encoding": "mapping",
        "key": "t_address",
        "label": "mapping(address => struct EnumerableSet.UintSet)",
        "numberOfBytes": "32",
        "value": "t_struct(UintSet)57588_storage"
      },
      "t_mapping(t_bytes32,t_uint256)": {
        "encoding": "mapping",
        "key": "t_bytes32",
        "label": "mapping(bytes32 => uint256)",
        "numberOfBytes": "32",
        "value": "t_uint256"
      },
      "t_struct(AddressSet)57431_storage": {
        "encoding": "inplace",
        "label": "struct EnumerableSet.AddressSet",
        "numberOfBytes": "64",
        "members": [
          {
            "astId": 57430,
            "contract": "src/mainnet-bridge/USDYieldManager.sol:USDYieldManager",
            "label": "_inner",
            "offset": 0,
            "slot": "0",
            "type": "t_struct(Set)57130_storage"
          }
        ]
      },
      "t_struct(Checkpoint)103904_storage": {
        "encoding": "inplace",
        "label": "struct WithdrawalQueue.Checkpoint",
        "numberOfBytes": "64",
        "members": [
          {
            "astId": 103901,
            "contract": "src/mainnet-bridge/USDYieldManager.sol:USDYieldManager",
            "label": "fromRequestId",
            "offset": 0,
            "slot": "0",
            "type": "t_uint256"
          },
          {
            "astId": 103903,
            "contract": "src/mainnet-bridge/USDYieldManager.sol:USDYieldManager",
            "label": "sharePrice",
            "offset": 0,
            "slot": "1",
            "type": "t_uint256"
          }
        ]
      },
      "t_struct(Set)57130_storage": {
        "encoding": "inplace",
        "label": "struct EnumerableSet.Set",
        "numberOfBytes": "64",
        "members": [
          {
            "astId": 57125,
            "contract": "src/mainnet-bridge/USDYieldManager.sol:USDYieldManager",
            "label": "_values",
            "offset": 0,
            "slot": "0",
            "type": "t_array(t_bytes32)dyn_storage"
          },
          {
            "astId": 57129,
            "contract": "src/mainnet-bridge/USDYieldManager.sol:USDYieldManager",
            "label": "_indexes",
            "offset": 0,
            "slot": "1",
            "type": "t_mapping(t_bytes32,t_uint256)"
          }
        ]
      },
      "t_struct(UintSet)57588_storage": {
        "encoding": "inplace",
        "label": "struct EnumerableSet.UintSet",
        "numberOfBytes": "64",
        "members": [
          {
            "astId": 57587,
            "contract": "src/mainnet-bridge/USDYieldManager.sol:USDYieldManager",
            "label": "_inner",
            "offset": 0,
            "slot": "0",
            "type": "t_struct(Set)57130_storage"
          }
        ]
      },
      "t_struct(WithdrawalRequest)103883_storage": {
        "encoding": "inplace",
        "label": "struct WithdrawalQueue.WithdrawalRequest",
        "numberOfBytes": "64",
        "members": [
          {
            "astId": 103873,
            "contract": "src/mainnet-bridge/USDYieldManager.sol:USDYieldManager",
            "label": "cumulativeAmount",
            "offset": 0,
            "slot": "0",
            "type": "t_uint128"
          },
          {
            "astId": 103876,
            "contract": "src/mainnet-bridge/USDYieldManager.sol:USDYieldManager",
            "label": "recipient",
            "offset": 0,
            "slot": "1",
            "type": "t_address"
          },
          {
            "astId": 103879,
            "contract": "src/mainnet-bridge/USDYieldManager.sol:USDYieldManager",
            "label": "timestamp",
            "offset": 20,
            "slot": "1",
            "type": "t_uint40"
          },
          {
            "astId": 103882,
            "contract": "src/mainnet-bridge/USDYieldManager.sol:USDYieldManager",
            "label": "claimed",
            "offset": 25,
            "slot": "1",
            "type": "t_bool"
          }
        ]
      },
      "t_uint128": {
        "encoding": "inplace",
        "label": "uint128",
        "numberOfBytes": "16"
      },
      "t_uint256": {
        "encoding": "inplace",
        "label": "uint256",
        "numberOfBytes": "32"
      },
      "t_uint40": {
        "encoding": "inplace",
        "label": "uint40",
        "numberOfBytes": "5"
      },
      "t_uint8": {
        "encoding": "inplace",
        "label": "uint8",
        "numberOfBytes": "1"
      }
    }
  },
  "transactionHash": "0xf1accf6fc465961130188ddf837077e8151cf079da32377a8e059d6d1ca8ee36"
}