{
  "abi": [
    {
      "inputs": [
        {
          "internalType": "address",
          "name": "_owner",
          "type": "address"
        }
      ],
      "stateMutability": "nonpayable",
      "type": "constructor"
    },
    {
      "stateMutability": "payable",
      "type": "fallback"
    },
    {
      "inputs": [],
      "name": "getImplementation",
      "outputs": [
        {
          "internalType": "address",
          "name": "",
          "type": "address"
        }
      ],
      "stateMutability": "nonpayable",
      "type": "function"
    },
    {
      "inputs": [],
      "name": "getOwner",
      "outputs": [
        {
          "internalType": "address",
          "name": "",
          "type": "address"
        }
      ],
      "stateMutability": "nonpayable",
      "type": "function"
    },
    {
      "inputs": [
        {
          "internalType": "bytes",
          "name": "_code",
          "type": "bytes"
        }
      ],
      "name": "setCode",
      "outputs": [],
      "stateMutability": "nonpayable",
      "type": "function"
    },
    {
      "inputs": [
        {
          "internalType": "address",
          "name": "_owner",
          "type": "address"
        }
      ],
      "name": "setOwner",
      "outputs": [],
      "stateMutability": "nonpayable",
      "type": "function"
    },
    {
      "inputs": [
        {
          "internalType": "bytes32",
          "name": "_key",
          "type": "bytes32"
        },
        {
          "internalType": "bytes32",
          "name": "_value",
          "type": "bytes32"
        }
      ],
      "name": "setStorage",
      "outputs": [],
      "stateMutability": "nonpayable",
      "type": "function"
    },
    {
      "stateMutability": "payable",
      "type": "receive"
    }
  ],
  "address": "0xa230285d5683C74935aD14c446e137c8c8828438",
  "args": [
    "0x364289230b8cc7d9120eF962AF37ebCFe23cE883"
  ],
  "bytecode": "0x608060405234801561001057600080fd5b506040516107f73803806107f783398101604081905261002f9161005d565b610057817fb53127684a568b3173ae13b9f8a6016e243e63b6e8ee1178d6a717850b5d610355565b5061008d565b60006020828403121561006f57600080fd5b81516001600160a01b038116811461008657600080fd5b9392505050565b61075b8061009c6000396000f3fe60806040526004361061004e5760003560e01c806313af4035146100655780636c5d4ad014610085578063893d20e8146100a55780639b0b0fda146100d6578063aaf10f42146100f65761005d565b3661005d5761005b61010b565b005b61005b61010b565b34801561007157600080fd5b5061005b610080366004610565565b6102f9565b34801561009157600080fd5b5061005b6100a03660046105ab565b61034c565b3480156100b157600080fd5b506100ba61047c565b6040516001600160a01b03909116815260200160405180910390f35b3480156100e257600080fd5b5061005b6100f136600461065c565b6104d5565b34801561010257600080fd5b506100ba610517565b600061012360008051602061070f8339815191525490565b60408051600481526024810182526020810180516001600160e01b0316635bca393160e11b179052905191925060009182916001600160a01b0385169161016a91906106b9565b600060405180830381855afa9150503d80600081146101a5576040519150601f19603f3d011682016040523d82523d6000602084013e6101aa565b606091505b50915091508180156101bd575080516020145b1561024d576000818060200190518101906101d891906106c5565b9050801561024b5760405162461bcd60e51b815260206004820152603560248201527f4c314368756753706c61736850726f78793a2073797374656d206973206375726044820152741c995b9d1b1e4818995a5b99c81d5c19dc98591959605a1b60648201526084015b60405180910390fd5b505b600061026560008051602061072f8339815191525490565b90506001600160a01b0381166102d65760405162461bcd60e51b815260206004820152603060248201527f4c314368756753706c61736850726f78793a20696d706c656d656e746174696f60448201526f1b881a5cc81b9bdd081cd95d081e595d60821b6064820152608401610242565b3660008037600080366000845af43d6000803e806102f3573d6000fd5b503d6000f35b60008051602061070f833981519152546001600160a01b0316336001600160a01b03161480610326575033155b15610344576103418160008051602061070f83398151915255565b50565b61034161010b565b60008051602061070f833981519152546001600160a01b0316336001600160a01b03161480610379575033155b1561034457600061039660008051602061072f8339815191525490565b9050803f82516020840120036103aa575050565b6040516000906103d0906c600d380380600d6000396000f360981b9085906020016106de565b604051602081830303815290604052905060008151602083016000f084516020860120909150813f146104605760405162461bcd60e51b815260206004820152603260248201527f4c314368756753706c61736850726f78793a20636f646520776173206e6f742060448201527118dbdc9c9958dd1b1e4819195c1b1bde595960721b6064820152608401610242565b6104768160008051602061072f83398151915255565b50505050565b600061049460008051602061070f8339815191525490565b6001600160a01b0316336001600160a01b031614806104b1575033155b156104ca575060008051602061070f8339815191525490565b6104d261010b565b90565b60008051602061070f833981519152546001600160a01b0316336001600160a01b03161480610502575033155b1561050b579055565b61051361010b565b5050565b600061052f60008051602061070f8339815191525490565b6001600160a01b0316336001600160a01b0316148061054c575033155b156104ca575060008051602061072f8339815191525490565b60006020828403121561057757600080fd5b81356001600160a01b038116811461058e57600080fd5b9392505050565b634e487b7160e01b600052604160045260246000fd5b6000602082840312156105bd57600080fd5b813567ffffffffffffffff808211156105d557600080fd5b818401915084601f8301126105e957600080fd5b8135818111156105fb576105fb610595565b604051601f8201601f19908116603f0116810190838211818310171561062357610623610595565b8160405282815287602084870101111561063c57600080fd5b826020860160208301376000928101602001929092525095945050505050565b6000806040838503121561066f57600080fd5b50508035926020909101359150565b6000815160005b8181101561069f5760208185018101518683015201610685565b818111156106ae576000828601525b509290920192915050565b600061058e828461067e565b6000602082840312156106d757600080fd5b5051919050565b72ffffffffffffffffffffffffffffffffffffff19831681526000610706600d83018461067e565b94935050505056feb53127684a568b3173ae13b9f8a6016e243e63b6e8ee1178d6a717850b5d6103360894a13ba1a3210667c828492db98dca3e2076cc3735a920a3ca505d382bbca164736f6c634300080f000a",
  "numDeployments": 1,
  "solcInputHash": "0x0000000000000000000000000000000000000000000000000000000000000000",
  "storageLayout": {
    "storage": [],
    "types": {}
  },
  "transactionHash": "0x05853bedcd6c1bd897acc807d7da29839810416c6b8b349acd827ee091df5606"
}