{
  "abi": [
    {
      "inputs": [],
      "stateMutability": "nonpayable",
      "type": "constructor"
    },
    {
      "inputs": [
        {
          "internalType": "uint256",
          "name": "_firstArrayLength",
          "type": "uint256"
        },
        {
          "internalType": "uint256",
          "name": "_secondArrayLength",
          "type": "uint256"
        }
      ],
      "name": "ArraysLengthMismatch",
      "type": "error"
    },
    {
      "inputs": [],
      "name": "BatchesAreNotSorted",
      "type": "error"
    },
    {
      "inputs": [],
      "name": "CallerIsNotAdmin",
      "type": "error"
    },
    {
      "inputs": [],
      "name": "CallerIsNotBlastBridge",
      "type": "error"
    },
    {
      "inputs": [],
      "name": "CallerIsNotPortal",
      "type": "error"
    },
    {
      "inputs": [],
      "name": "CallerIsNotRecipient",
      "type": "error"
    },
    {
      "inputs": [],
      "name": "CantSendValueRecipientMayHaveReverted",
      "type": "error"
    },
    {
      "inputs": [],
      "name": "EmptyBatches",
      "type": "error"
    },
    {
      "inputs": [],
      "name": "FailedToInitializeProvider",
      "type": "error"
    },
    {
      "inputs": [],
      "name": "InsufficientBalance",
      "type": "error"
    },
    {
      "inputs": [],
      "name": "InsufficientInsuranceBalance",
      "type": "error"
    },
    {
      "inputs": [
        {
          "internalType": "uint256",
          "name": "_hint",
          "type": "uint256"
        }
      ],
      "name": "InvalidHint",
      "type": "error"
    },
    {
      "inputs": [],
      "name": "InvalidReportTimestamp",
      "type": "error"
    },
    {
      "inputs": [
        {
          "internalType": "uint256",
          "name": "_requestId",
          "type": "uint256"
        }
      ],
      "name": "InvalidRequestId",
      "type": "error"
    },
    {
      "inputs": [
        {
          "internalType": "uint256",
          "name": "startId",
          "type": "uint256"
        },
        {
          "internalType": "uint256",
          "name": "endId",
          "type": "uint256"
        }
      ],
      "name": "InvalidRequestIdRange",
      "type": "error"
    },
    {
      "inputs": [],
      "name": "InvalidSharePrice",
      "type": "error"
    },
    {
      "inputs": [],
      "name": "InvalidState",
      "type": "error"
    },
    {
      "inputs": [],
      "name": "NegativeYieldFromInsuredProvider",
      "type": "error"
    },
    {
      "inputs": [],
      "name": "NotEnoughEther",
      "type": "error"
    },
    {
      "inputs": [
        {
          "internalType": "address",
          "name": "_sender",
          "type": "address"
        },
        {
          "internalType": "address",
          "name": "_owner",
          "type": "address"
        }
      ],
      "name": "NotOwner",
      "type": "error"
    },
    {
      "inputs": [],
      "name": "ProviderAddressDoesNotMatchIndex",
      "type": "error"
    },
    {
      "inputs": [],
      "name": "ProviderNotFound",
      "type": "error"
    },
    {
      "inputs": [
        {
          "internalType": "uint256",
          "name": "_requestId",
          "type": "uint256"
        }
      ],
      "name": "RequestAlreadyClaimed",
      "type": "error"
    },
    {
      "inputs": [
        {
          "internalType": "uint256",
          "name": "_amount",
          "type": "uint256"
        }
      ],
      "name": "RequestAmountTooLarge",
      "type": "error"
    },
    {
      "inputs": [
        {
          "internalType": "uint256",
          "name": "_amount",
          "type": "uint256"
        }
      ],
      "name": "RequestAmountTooSmall",
      "type": "error"
    },
    {
      "inputs": [],
      "name": "RequestIdsNotSorted",
      "type": "error"
    },
    {
      "inputs": [
        {
          "internalType": "uint256",
          "name": "_requestId",
          "type": "uint256"
        }
      ],
      "name": "RequestNotFoundOrNotFinalized",
      "type": "error"
    },
    {
      "inputs": [
        {
          "internalType": "uint256",
          "name": "sent",
          "type": "uint256"
        },
        {
          "internalType": "uint256",
          "name": "maxExpected",
          "type": "uint256"
        }
      ],
      "name": "TooMuchEtherToFinalize",
      "type": "error"
    },
    {
      "inputs": [],
      "name": "TotalValueIsZero",
      "type": "error"
    },
    {
      "inputs": [],
      "name": "UnsupportedToken",
      "type": "error"
    },
    {
      "inputs": [],
      "name": "WithdrawalTransferFailed",
      "type": "error"
    },
    {
      "inputs": [],
      "name": "YieldProviderIsNotMeantForThisManager",
      "type": "error"
    },
    {
      "inputs": [],
      "name": "ZeroAmountOfETH",
      "type": "error"
    },
    {
      "inputs": [],
      "name": "ZeroRecipient",
      "type": "error"
    },
    {
      "inputs": [],
      "name": "ZeroShareRate",
      "type": "error"
    },
    {
      "inputs": [],
      "name": "ZeroTimestamp",
      "type": "error"
    },
    {
      "anonymous": false,
      "inputs": [
        {
          "indexed": false,
          "internalType": "uint8",
          "name": "version",
          "type": "uint8"
        }
      ],
      "name": "Initialized",
      "type": "event"
    },
    {
      "anonymous": false,
      "inputs": [
        {
          "indexed": true,
          "internalType": "address",
          "name": "previousOwner",
          "type": "address"
        },
        {
          "indexed": true,
          "internalType": "address",
          "name": "newOwner",
          "type": "address"
        }
      ],
      "name": "OwnershipTransferStarted",
      "type": "event"
    },
    {
      "anonymous": false,
      "inputs": [
        {
          "indexed": true,
          "internalType": "address",
          "name": "previousOwner",
          "type": "address"
        },
        {
          "indexed": true,
          "internalType": "address",
          "name": "newOwner",
          "type": "address"
        }
      ],
      "name": "OwnershipTransferred",
      "type": "event"
    },
    {
      "anonymous": false,
      "inputs": [
        {
          "indexed": true,
          "internalType": "uint256",
          "name": "requestId",
          "type": "uint256"
        },
        {
          "indexed": true,
          "internalType": "address",
          "name": "recipient",
          "type": "address"
        },
        {
          "indexed": false,
          "internalType": "uint256",
          "name": "amountOfETH",
          "type": "uint256"
        }
      ],
      "name": "WithdrawalClaimed",
      "type": "event"
    },
    {
      "anonymous": false,
      "inputs": [
        {
          "indexed": true,
          "internalType": "uint256",
          "name": "requestId",
          "type": "uint256"
        },
        {
          "indexed": true,
          "internalType": "address",
          "name": "requestor",
          "type": "address"
        },
        {
          "indexed": true,
          "internalType": "address",
          "name": "recipient",
          "type": "address"
        },
        {
          "indexed": false,
          "internalType": "uint256",
          "name": "amount",
          "type": "uint256"
        }
      ],
      "name": "WithdrawalRequested",
      "type": "event"
    },
    {
      "anonymous": false,
      "inputs": [
        {
          "indexed": true,
          "internalType": "uint256",
          "name": "from",
          "type": "uint256"
        },
        {
          "indexed": true,
          "internalType": "uint256",
          "name": "to",
          "type": "uint256"
        },
        {
          "indexed": true,
          "internalType": "uint256",
          "name": "checkpointId",
          "type": "uint256"
        },
        {
          "indexed": false,
          "internalType": "uint256",
          "name": "amountOfETHLocked",
          "type": "uint256"
        },
        {
          "indexed": false,
          "internalType": "uint256",
          "name": "timestamp",
          "type": "uint256"
        },
        {
          "indexed": false,
          "internalType": "uint256",
          "name": "sharePrice",
          "type": "uint256"
        }
      ],
      "name": "WithdrawalsFinalized",
      "type": "event"
    },
    {
      "anonymous": false,
      "inputs": [
        {
          "indexed": false,
          "internalType": "int256",
          "name": "yield",
          "type": "int256"
        },
        {
          "indexed": false,
          "internalType": "uint256",
          "name": "insurancePremiumPaid",
          "type": "uint256"
        },
        {
          "indexed": false,
          "internalType": "uint256",
          "name": "insuranceWithdrawn",
          "type": "uint256"
        }
      ],
      "name": "YieldReport",
      "type": "event"
    },
    {
      "inputs": [],
      "name": "MAX_INSURANCE_FEE_BIPS",
      "outputs": [
        {
          "internalType": "uint256",
          "name": "",
          "type": "uint256"
        }
      ],
      "stateMutability": "view",
      "type": "function"
    },
    {
      "inputs": [],
      "name": "acceptOwnership",
      "outputs": [],
      "stateMutability": "nonpayable",
      "type": "function"
    },
    {
      "inputs": [],
      "name": "accumulatedNegativeYields",
      "outputs": [
        {
          "internalType": "uint256",
          "name": "",
          "type": "uint256"
        }
      ],
      "stateMutability": "view",
      "type": "function"
    },
    {
      "inputs": [
        {
          "internalType": "address",
          "name": "provider",
          "type": "address"
        }
      ],
      "name": "addProvider",
      "outputs": [],
      "stateMutability": "nonpayable",
      "type": "function"
    },
    {
      "inputs": [],
      "name": "admin",
      "outputs": [
        {
          "internalType": "address",
          "name": "",
          "type": "address"
        }
      ],
      "stateMutability": "view",
      "type": "function"
    },
    {
      "inputs": [],
      "name": "blastBridge",
      "outputs": [
        {
          "internalType": "address",
          "name": "",
          "type": "address"
        }
      ],
      "stateMutability": "view",
      "type": "function"
    },
    {
      "inputs": [
        {
          "internalType": "uint256",
          "name": "idx",
          "type": "uint256"
        },
        {
          "internalType": "address",
          "name": "providerAddress",
          "type": "address"
        },
        {
          "internalType": "uint256[]",
          "name": "requestIds",
          "type": "uint256[]"
        }
      ],
      "name": "claimPending",
      "outputs": [],
      "stateMutability": "nonpayable",
      "type": "function"
    },
    {
      "inputs": [
        {
          "internalType": "uint256",
          "name": "_requestId",
          "type": "uint256"
        },
        {
          "internalType": "uint256",
          "name": "_hintId",
          "type": "uint256"
        }
      ],
      "name": "claimWithdrawal",
      "outputs": [
        {
          "internalType": "bool",
          "name": "success",
          "type": "bool"
        }
      ],
      "stateMutability": "nonpayable",
      "type": "function"
    },
    {
      "inputs": [
        {
          "internalType": "bool",
          "name": "enableInsurance",
          "type": "bool"
        }
      ],
      "name": "commitYieldReport",
      "outputs": [],
      "stateMutability": "nonpayable",
      "type": "function"
    },
    {
      "inputs": [
        {
          "internalType": "uint256",
          "name": "requestId",
          "type": "uint256"
        }
      ],
      "name": "finalize",
      "outputs": [
        {
          "internalType": "uint256",
          "name": "checkpointId",
          "type": "uint256"
        }
      ],
      "stateMutability": "nonpayable",
      "type": "function"
    },
    {
      "inputs": [
        {
          "internalType": "uint256",
          "name": "_requestId",
          "type": "uint256"
        },
        {
          "internalType": "uint256",
          "name": "_start",
          "type": "uint256"
        },
        {
          "internalType": "uint256",
          "name": "_end",
          "type": "uint256"
        }
      ],
      "name": "findCheckpointHint",
      "outputs": [
        {
          "internalType": "uint256",
          "name": "",
          "type": "uint256"
        }
      ],
      "stateMutability": "view",
      "type": "function"
    },
    {
      "inputs": [
        {
          "internalType": "uint256[]",
          "name": "_requestIds",
          "type": "uint256[]"
        },
        {
          "internalType": "uint256",
          "name": "_firstIndex",
          "type": "uint256"
        },
        {
          "internalType": "uint256",
          "name": "_lastIndex",
          "type": "uint256"
        }
      ],
      "name": "findCheckpointHints",
      "outputs": [
        {
          "internalType": "uint256[]",
          "name": "hintIds",
          "type": "uint256[]"
        }
      ],
      "stateMutability": "view",
      "type": "function"
    },
    {
      "inputs": [
        {
          "internalType": "uint256",
          "name": "idx",
          "type": "uint256"
        }
      ],
      "name": "getProviderInfoAt",
      "outputs": [
        {
          "components": [
            {
              "internalType": "bytes32",
              "name": "id",
              "type": "bytes32"
            },
            {
              "internalType": "address",
              "name": "providerAddress",
              "type": "address"
            },
            {
              "internalType": "uint256",
              "name": "stakedValue",
              "type": "uint256"
            },
            {
              "internalType": "uint256",
              "name": "pendingBalance",
              "type": "uint256"
            },
            {
              "internalType": "uint256",
              "name": "stakedBalance",
              "type": "uint256"
            },
            {
              "internalType": "uint256",
              "name": "totalValue",
              "type": "uint256"
            },
            {
              "internalType": "int256",
              "name": "yield",
              "type": "int256"
            }
          ],
          "internalType": "struct YieldManager.ProviderInfo",
          "name": "info",
          "type": "tuple"
        }
      ],
      "stateMutability": "view",
      "type": "function"
    },
    {
      "inputs": [],
      "name": "getTokenBalance",
      "outputs": [
        {
          "internalType": "uint256",
          "name": "",
          "type": "uint256"
        }
      ],
      "stateMutability": "view",
      "type": "function"
    },
    {
      "inputs": [
        {
          "internalType": "contract OptimismPortal",
          "name": "_portal",
          "type": "address"
        }
      ],
      "name": "initialize",
      "outputs": [],
      "stateMutability": "nonpayable",
      "type": "function"
    },
    {
      "inputs": [],
      "name": "insurance",
      "outputs": [
        {
          "internalType": "address",
          "name": "",
          "type": "address"
        }
      ],
      "stateMutability": "view",
      "type": "function"
    },
    {
      "inputs": [],
      "name": "insuranceFeeBips",
      "outputs": [
        {
          "internalType": "uint256",
          "name": "",
          "type": "uint256"
        }
      ],
      "stateMutability": "view",
      "type": "function"
    },
    {
      "inputs": [],
      "name": "insuranceWithdrawalBuffer",
      "outputs": [
        {
          "internalType": "uint256",
          "name": "",
          "type": "uint256"
        }
      ],
      "stateMutability": "view",
      "type": "function"
    },
    {
      "inputs": [],
      "name": "lockedValue",
      "outputs": [
        {
          "internalType": "uint256",
          "name": "",
          "type": "uint256"
        }
      ],
      "stateMutability": "view",
      "type": "function"
    },
    {
      "inputs": [],
      "name": "owner",
      "outputs": [
        {
          "internalType": "address",
          "name": "",
          "type": "address"
        }
      ],
      "stateMutability": "view",
      "type": "function"
    },
    {
      "inputs": [],
      "name": "pendingOwner",
      "outputs": [
        {
          "internalType": "address",
          "name": "",
          "type": "address"
        }
      ],
      "stateMutability": "view",
      "type": "function"
    },
    {
      "inputs": [],
      "name": "portal",
      "outputs": [
        {
          "internalType": "contract OptimismPortal",
          "name": "",
          "type": "address"
        }
      ],
      "stateMutability": "view",
      "type": "function"
    },
    {
      "inputs": [
        {
          "internalType": "address",
          "name": "providerAddress",
          "type": "address"
        },
        {
          "internalType": "uint256",
          "name": "amount",
          "type": "uint256"
        }
      ],
      "name": "recordStakedDeposit",
      "outputs": [],
      "stateMutability": "nonpayable",
      "type": "function"
    },
    {
      "inputs": [
        {
          "internalType": "address",
          "name": "provider",
          "type": "address"
        }
      ],
      "name": "removeProvider",
      "outputs": [],
      "stateMutability": "nonpayable",
      "type": "function"
    },
    {
      "inputs": [],
      "name": "renounceOwnership",
      "outputs": [],
      "stateMutability": "nonpayable",
      "type": "function"
    },
    {
      "inputs": [
        {
          "internalType": "uint256",
          "name": "amount",
          "type": "uint256"
        }
      ],
      "name": "requestWithdrawal",
      "outputs": [
        {
          "internalType": "uint256",
          "name": "",
          "type": "uint256"
        }
      ],
      "stateMutability": "nonpayable",
      "type": "function"
    },
    {
      "inputs": [
        {
          "internalType": "address",
          "name": "_admin",
          "type": "address"
        }
      ],
      "name": "setAdmin",
      "outputs": [],
      "stateMutability": "nonpayable",
      "type": "function"
    },
    {
      "inputs": [
        {
          "internalType": "address",
          "name": "_blastBridge",
          "type": "address"
        }
      ],
      "name": "setBlastBridge",
      "outputs": [],
      "stateMutability": "nonpayable",
      "type": "function"
    },
    {
      "inputs": [
        {
          "internalType": "address",
          "name": "_insurance",
          "type": "address"
        },
        {
          "internalType": "uint256",
          "name": "_insuranceFeeBips",
          "type": "uint256"
        },
        {
          "internalType": "uint256",
          "name": "_withdrawalBuffer",
          "type": "uint256"
        }
      ],
      "name": "setInsurance",
      "outputs": [],
      "stateMutability": "nonpayable",
      "type": "function"
    },
    {
      "inputs": [],
      "name": "sharePrice",
      "outputs": [
        {
          "internalType": "uint256",
          "name": "",
          "type": "uint256"
        }
      ],
      "stateMutability": "view",
      "type": "function"
    },
    {
      "inputs": [
        {
          "internalType": "uint256",
          "name": "idx",
          "type": "uint256"
        },
        {
          "internalType": "address",
          "name": "providerAddress",
          "type": "address"
        },
        {
          "internalType": "uint256",
          "name": "amount",
          "type": "uint256"
        }
      ],
      "name": "stake",
      "outputs": [],
      "stateMutability": "nonpayable",
      "type": "function"
    },
    {
      "inputs": [],
      "name": "totalProviderValue",
      "outputs": [
        {
          "internalType": "uint256",
          "name": "sum",
          "type": "uint256"
        }
      ],
      "stateMutability": "view",
      "type": "function"
    },
    {
      "inputs": [],
      "name": "totalValue",
      "outputs": [
        {
          "internalType": "uint256",
          "name": "",
          "type": "uint256"
        }
      ],
      "stateMutability": "view",
      "type": "function"
    },
    {
      "inputs": [
        {
          "internalType": "address",
          "name": "newOwner",
          "type": "address"
        }
      ],
      "name": "transferOwnership",
      "outputs": [],
      "stateMutability": "nonpayable",
      "type": "function"
    },
    {
      "inputs": [
        {
          "internalType": "uint256",
          "name": "idx",
          "type": "uint256"
        },
        {
          "internalType": "address",
          "name": "providerAddress",
          "type": "address"
        },
        {
          "internalType": "uint256",
          "name": "amount",
          "type": "uint256"
        }
      ],
      "name": "unstake",
      "outputs": [],
      "stateMutability": "nonpayable",
      "type": "function"
    },
    {
      "inputs": [],
      "name": "version",
      "outputs": [
        {
          "internalType": "string",
          "name": "",
          "type": "string"
        }
      ],
      "stateMutability": "view",
      "type": "function"
    },
    {
      "stateMutability": "payable",
      "type": "receive"
    }
  ],
  "address": "0x780b39606399A9f07F28eC6fd413b3691CD46529",
  "args": [],
  "bytecode": "0x61010060405234801561001157600080fd5b5060006080819052600160a081905260c082905260e0829052818061346161005f8239600061106a0152600061104101526000611018015260008181611c920152611cf901526134616000f3fe6080604052600436106102135760003560e01c806389cf320411610118578063d2c46932116100a0578063f0c8c0dd1161006f578063f0c8c0dd14610624578063f21340e414610644578063f2fde38b14610674578063f851a44014610694578063fe1e7d71146106b457600080fd5b8063d2c46932146105be578063d4c3eea0146105d1578063e30c3978146105e6578063e7518fb61461060457600080fd5b80639ee679e8116100e75780639ee679e81461053d578063b1d3c61e1461055d578063bfdbfe8314610573578063c4d66de814610588578063d11b1ae0146105a857600080fd5b806389cf3204146104bf5780638a355a57146104df5780638da5cb5b146104ff578063959598c41461051d57600080fd5b80636425666b1161019b578063715018a61161016a578063715018a61461044b57806371ea21c21461046057806379ba50971461048057806382b2e2571461049557806387269729146104aa57600080fd5b80636425666b146103b35780636e9c931c146103eb5780636f3ed5e31461040b578063704b6c021461042b57600080fd5b806346e2577a116101e257806346e2577a146102aa57806351787ffa146102ca57806351a7c7161461034457806354fd4d501461036457806362abe3fa1461038657600080fd5b806305261aea1461021f578063095afaf4146102525780630eb5238c146102745780632844be5f1461028a57600080fd5b3661021a57005b600080fd5b34801561022b57600080fd5b5061023f61023a366004612d65565b6106ca565b6040519081526020015b60405180910390f35b34801561025e57600080fd5b5061027261026d366004612ddf565b61074c565b005b34801561028057600080fd5b5061023f60d05481565b34801561029657600080fd5b5061023f6102a5366004612e3b565b61085e565b3480156102b657600080fd5b506102726102c5366004612e67565b610a3d565b3480156102d657600080fd5b506102ea6102e5366004612d65565b610b8c565b6040516102499190815181526020808301516001600160a01b03169082015260408083015190820152606080830151908201526080808301519082015260a0808301519082015260c0918201519181019190915260e00190565b34801561035057600080fd5b5061027261035f366004612e84565b610e70565b34801561037057600080fd5b50610379611011565b6040516102499190612f14565b34801561039257600080fd5b506103a66103a1366004612f27565b6110b4565b6040516102499190612f78565b3480156103bf57600080fd5b5060d1546103d3906001600160a01b031681565b6040516001600160a01b039091168152602001610249565b3480156103f757600080fd5b50610272610406366004612e84565b6111d3565b34801561041757600080fd5b50610272610426366004612fbc565b6112ab565b34801561043757600080fd5b50610272610446366004612e67565b6112fe565b34801561045757600080fd5b5061027261133b565b34801561046c57600080fd5b5060cd546103d3906001600160a01b031681565b34801561048c57600080fd5b5061027261134f565b3480156104a157600080fd5b5061023f6113c9565b3480156104b657600080fd5b5061023f6113e3565b3480156104cb57600080fd5b5060cc546103d3906001600160a01b031681565b3480156104eb57600080fd5b506102726104fa366004612e67565b611444565b34801561050b57600080fd5b506033546001600160a01b03166103d3565b34801561052957600080fd5b50610272610538366004612ff1565b611457565b34801561054957600080fd5b5061023f610558366004612d65565b6114a2565b34801561056957600080fd5b5061023f60ce5481565b34801561057f57600080fd5b5061023f6114ec565b34801561059457600080fd5b506102726105a3366004612e67565b611595565b3480156105b457600080fd5b5061023f60cf5481565b3480156105ca57600080fd5b504761023f565b3480156105dd57600080fd5b5061023f6116a7565b3480156105f257600080fd5b506065546001600160a01b03166103d3565b34801561061057600080fd5b5061027261061f36600461302b565b6116bb565b34801561063057600080fd5b5061027261063f366004612e67565b611b47565b34801561065057600080fd5b5061066461065f366004613048565b611b84565b6040519015158152602001610249565b34801561068057600080fd5b5061027261068f366004612e67565b611dd4565b3480156106a057600080fd5b5060cb546103d3906001600160a01b031681565b3480156106c057600080fd5b5061023f61271081565b60cb546000906001600160a01b031633146106f857604051638dfa73db60e01b815260040160405180910390fd5b600080610714846107076113c9565b61070f6113e3565b611e45565b60ce549095509193509150156107455761072e8183613080565b60ce600082825461073f9190613080565b90915550505b5050919050565b60cb546001600160a01b0316331461077757604051638dfa73db60e01b815260040160405180910390fd5b6001600160a01b03831661078c60c9866120ab565b6001600160a01b0316146107b357604051638f700e7960e01b815260040160405180910390fd5b60006107fa84630d74982760e31b8585808060200260200160405190810160405280939291908181526020018383602002808284376000920191909152506120b792505050565b604051635bd6854360e01b8152600481018290529091506001600160a01b03851690635bd6854390602401600060405180830381600087803b15801561083f57600080fd5b505af1158015610853573d6000803e3d6000fd5b505050505050505050565b600083158061086e575060985484115b15610894576040516364b4f07960e11b8152600481018590526024015b60405180910390fd5b609b548315806108a357508083115b156108cb57604051637189425760e01b8152600481018590526024810184905260440161088b565b8015806108d9575060995485115b806108e357508284115b156108f2576000915050610a36565b609a838154811061090557610905613097565b90600052602060002090600202016000015485106109765780830361092d5782915050610a36565b609a61093a8460016130ad565b8154811061094a5761094a613097565b90600052602060002090600202016000015485101561096c5782915050610a36565b6000915050610a36565b609a848154811061098957610989613097565b9060005260206000209060020201600001548510156109ac576000915050610a36565b8360006109ba600186613080565b90505b81811115610a3157600060026109d384846130ad565b6109de9060016130ad565b6109e891906130db565b905087609a82815481106109fe576109fe613097565b90600052602060002090600202016000015411610a1d57809250610a2b565b610a28600182613080565b91505b506109bd565b509150505b9392505050565b610a45612199565b306001600160a01b0316816001600160a01b031663219ebb9c6040518163ffffffff1660e01b8152600401602060405180830381865afa158015610a8d573d6000803e3d6000fd5b505050506040513d601f19601f82011682018060405250810190610ab191906130ef565b6001600160a01b031614610ad857604051638d8eed3b60e01b815260040160405180910390fd5b610ae360c9826121f3565b5060408051600481526024810182526020810180516001600160e01b031663204a7f0760e21b17905290516000916001600160a01b03841691610b26919061310c565b600060405180830381855af49150503d8060008114610b61576040519150601f19603f3d011682016040523d82523d6000602084013e610b66565b606091505b5050905080610b8857604051630fb6449b60e21b815260040160405180910390fd5b5050565b610bd86040518060e001604052806000801916815260200160006001600160a01b0316815260200160008152602001600081526020016000815260200160008152602001600081525090565b6000610be560c9846120ab565b9050806001600160a01b031663af640d0f6040518163ffffffff1660e01b8152600401602060405180830381865afa158015610c25573d6000803e3d6000fd5b505050506040513d601f19601f82011682018060405250810190610c499190613128565b82526001600160a01b038116602080840182905260408051632ed06c8560e11b81529051635da0d90a926004808401939192918290030181865afa158015610c95573d6000803e3d6000fd5b505050506040513d601f19601f82011682018060405250810190610cb99190613128565b826040018181525050806001600160a01b03166357b4d18e6040518163ffffffff1660e01b8152600401602060405180830381865afa158015610d00573d6000803e3d6000fd5b505050506040513d601f19601f82011682018060405250810190610d249190613128565b826060018181525050806001600160a01b0316635b9f00166040518163ffffffff1660e01b8152600401602060405180830381865afa158015610d6b573d6000803e3d6000fd5b505050506040513d601f19601f82011682018060405250810190610d8f9190613128565b826080018181525050806001600160a01b031663bfdbfe836040518163ffffffff1660e01b8152600401602060405180830381865afa158015610dd6573d6000803e3d6000fd5b505050506040513d601f19601f82011682018060405250810190610dfa9190613128565b8260a0018181525050806001600160a01b031663285939846040518163ffffffff1660e01b8152600401602060405180830381865afa158015610e41573d6000803e3d6000fd5b505050506040513d601f19601f82011682018060405250810190610e659190613128565b60c083015250919050565b60cb546001600160a01b03163314610e9b57604051638dfa73db60e01b815260040160405180910390fd5b6001600160a01b038216610eb060c9856120ab565b6001600160a01b031614610ed757604051638f700e7960e01b815260040160405180910390fd5b6000610eeb836305c2fbcf60e31b84612208565b604051638e16afe960e01b8152600481018490529091506001600160a01b03841690638e16afe990602401600060405180830381600087803b158015610f3057600080fd5b505af1158015610f44573d6000803e3d6000fd5b505050506000811115610fb057604051633b7a45db60e21b8152600481018290526001600160a01b0384169063ede9176c90602401600060405180830381600087803b158015610f9357600080fd5b505af1158015610fa7573d6000803e3d6000fd5b5050505061100b565b604051635bd6854360e01b8152600481018390526001600160a01b03841690635bd6854390602401600060405180830381600087803b158015610ff257600080fd5b505af1158015611006573d6000803e3d6000fd5b505050505b50505050565b606061103c7f000000000000000000000000000000000000000000000000000000000000000061224b565b6110657f000000000000000000000000000000000000000000000000000000000000000061224b565b61108e7f000000000000000000000000000000000000000000000000000000000000000061224b565b6040516020016110a093929190613141565b604051602081830303815290604052905090565b60608367ffffffffffffffff8111156110cf576110cf61319b565b6040519080825280602002602001820160405280156110f8578160200160208202803683370190505b5090506000805b858110156111c9578187878381811061111a5761111a613097565b9050602002013510156111405760405163374e8bd160e01b815260040160405180910390fd5b61116387878381811061115557611155613097565b90506020020135868661085e565b83828151811061117557611175613097565b60200260200101818152505082818151811061119357611193613097565b602002602001015194508686828181106111af576111af613097565b905060200201359150806111c2906131b1565b90506110ff565b5050949350505050565b60cb546001600160a01b031633146111fe57604051638dfa73db60e01b815260040160405180910390fd5b6001600160a01b03821661121360c9856120ab565b6001600160a01b03161461123a57604051638f700e7960e01b815260040160405180910390fd5b61124c8263534a7e1d60e11b83612354565b604051635dd7f8f160e11b8152600481018290526001600160a01b0383169063bbaff1e290602401600060405180830381600087803b15801561128e57600080fd5b505af11580156112a2573d6000803e3d6000fd5b50505050505050565b6112b3612199565b6001600160a01b0383166112c657600080fd5b6127108211156112d557600080fd5b60cc80546001600160a01b0319166001600160a01b03949094169390931790925560cf5560d055565b611306612199565b6001600160a01b03811661131957600080fd5b60cb80546001600160a01b0319166001600160a01b0392909216919091179055565b611343612199565b61134d600061237c565b565b60655433906001600160a01b031681146113bd5760405162461bcd60e51b815260206004820152602960248201527f4f776e61626c6532537465703a2063616c6c6572206973206e6f7420746865206044820152683732bb9037bbb732b960b91b606482015260840161088b565b6113c68161237c565b50565b60006113d4609c5490565b6113de9047613080565b905090565b6000806113ee6116a7565b905080600003611411576040516332feec7f60e21b815260040160405180910390fd5b60ce5461141e90826130ad565b6114346b033b2e3c9fd0803ce8000000836131ca565b61143e91906130db565b91505090565b61144c612199565b610b8860c982612395565b60cd546001600160a01b03163314158061147a575060cd546001600160a01b0316155b156114985760405163575faf4160e11b815260040160405180910390fd5b610b8882826123aa565b60d1546000906001600160a01b031633146114d057604051635c5536bd60e01b815260040160405180910390fd5b60d1546114e6906001600160a01b031683612430565b92915050565b6000806114f960c961260e565b905060005b818110156115905761151160c9826120ab565b6001600160a01b031663bfdbfe836040518163ffffffff1660e01b8152600401602060405180830381865afa15801561154e573d6000803e3d6000fd5b505050506040513d601f19601f820116820180604052508101906115729190613128565b61157c90846130ad565b925080611588816131b1565b9150506114fe565b505090565b600054610100900460ff16158080156115b55750600054600160ff909116105b806115cf5750303b1580156115cf575060005460ff166001145b6116325760405162461bcd60e51b815260206004820152602e60248201527f496e697469616c697a61626c653a20636f6e747261637420697320616c72656160448201526d191e481a5b9a5d1a585b1a5e995960921b606482015260840161088b565b6000805460ff191660011790558015611655576000805461ff0019166101001790555b61165e82612618565b8015610b88576000805461ff0019169055604051600181527f7f26b83ff96e1f2b6a682f133852f6798a09c465da95921460cefb38474024989060200160405180910390a15050565b60006116b16114ec565b6113de90476130ad565b60cb546001600160a01b031633146116e657604051638dfa73db60e01b815260040160405180910390fd5b60006116f260c961260e565b90506000806000805b84811015611a7b57600061171060c9836120ab565b6001600160a01b031663285939846040518163ffffffff1660e01b8152600401602060405180830381865afa15801561174d573d6000803e3d6000fd5b505050506040513d601f19601f820116820180604052508101906117719190613128565b905060008780156117e9575061178860c9846120ab565b6001600160a01b0316634bfb431f6040518163ffffffff1660e01b8152600401602060405180830381865afa1580156117c5573d6000803e3d6000fd5b505050506040513d601f19601f820116820180604052508101906117e991906131e9565b80156117ff575060cc546001600160a01b031615155b156119365760008213156118575761271060cf548361181e91906131ca565b61182891906130db565b905061184661183860c9856120ab565b6366785d9360e01b83612354565b61185081876130ad565b9550611936565b600082121561193657600060d05461186e8461267a565b61187891906130ad565b9050600061188760c9866120ab565b6001600160a01b0316630577d6d56040518163ffffffff1660e01b8152600401602060405180830381865afa1580156118c4573d6000803e3d6000fd5b505050506040513d601f19601f820116820180604052508101906118e89190613128565b90508181101561190b57604051633eb0171360e01b815260040160405180910390fd5b61192761191960c9876120ab565b6326dd5d6560e21b84612354565b61193182886130ad565b965050505b600061194360c9856120ab565b6001600160a01b031663f304f5e56040518163ffffffff1660e01b81526004016020604051808303816000875af1158015611982573d6000803e3d6000fd5b505050506040513d601f19601f820116820180604052508101906119a69190613128565b9050888015611a1c57506119bb60c9856120ab565b6001600160a01b0316634bfb431f6040518163ffffffff1660e01b8152600401602060405180830381865afa1580156119f8573d6000803e3d6000fd5b505050506040513d601f19601f82011682018060405250810190611a1c91906131e9565b8015611a32575060cc546001600160a01b031615155b15611a59576000811215611a595760405163ef0175db60e01b815260040160405180910390fd5b611a638186613206565b94505050508080611a73906131b1565b9150506116fb565b5060ce5415611a945760ce54611a919082613247565b90505b60408051828152602081018590529081018390527ede4b58e7863b1e3dce7259a138136239427388d53e4844f369cdee7a81dbf59060600160405180910390a16000811215611af157611ae981600019613286565b60ce55611b40565b600060ce819055811315611b40576040805160248082018490528251808303909101815260449091019091526020810180516001600160e01b0316635b9af12b60e01b179052611b4090612691565b5050505050565b611b4f612199565b6001600160a01b038116611b6257600080fd5b60cd80546001600160a01b0319166001600160a01b0392909216919091179055565b600082600003611baa576040516364b4f07960e11b81526004810184905260240161088b565b609954831115611bd05760405163095ca04560e31b81526004810184905260240161088b565b600060978481548110611be557611be5613097565b906000526020600020906002020190508060010160199054906101000a900460ff1615611c285760405163f0e0cc2d60e01b81526004810185905260240161088b565b60018101805460ff60c81b1916600160c81b1790556000611c4985856126ff565b905080609c6000828254611c5d9190613080565b909155505060018201546001600160a01b0316338114611c905760405163f406fde960e01b815260040160405180910390fd5b7f00000000000000000000000000000000000000000000000000000000000000006001600160a01b0316611cd357611ccc81620186a0846128e5565b9350611d69565b60405163a9059cbb60e01b81526001600160a01b038281166004830152602482018490527f0000000000000000000000000000000000000000000000000000000000000000169063a9059cbb906044016020604051808303816000875af1158015611d42573d6000803e3d6000fd5b505050506040513d601f19601f82011682018060405250810190611d6691906131e9565b93505b83611d8757604051634c82c35160e11b815260040160405180910390fd5b806001600160a01b0316867f8adb7a84b2998a8d11cd9284395f95d5a99f160be785ae79998c654979bd3d9a84604051611dc391815260200190565b60405180910390a350505092915050565b611ddc612199565b606580546001600160a01b0383166001600160a01b03199091168117909155611e0d6033546001600160a01b031690565b6001600160a01b03167f38d16b8cac22d99fc7c124b9cd0de2d3fa1faef420bfe791d8c362d765e2270060405160405180910390a350565b60008060006b033b2e3c9fd0803ce8000000841115611e775760405163e5dd50c360e01b815260040160405180910390fd5b85156120a257609854861115611ea3576040516364b4f07960e11b81526004810187905260240161088b565b609954808711611ec9576040516364b4f07960e11b81526004810188905260240161088b565b600060978281548110611ede57611ede613097565b6000918252602080832060408051608081018252600290940290910180546001600160801b03168452600101546001600160a01b0381169284019290925264ffffffffff600160a01b8304169083015260ff600160c81b909104161515606082015260978054919350908a908110611f5857611f58613097565b60009182526020918290206040805160808101825260029390930290910180546001600160801b03168084526001909101546001600160a01b03811694840194909452600160a01b840464ffffffffff1691830191909152600160c81b90920460ff16151560608201528351909250611fd09161330b565b6001600160801b031695506b033b2e3c9fd0803ce8000000611ff288886131ca565b611ffc91906130db565b94508785111561201f57604051631e9acf1760e31b815260040160405180910390fd5b600061202c8460016130ad565b905085609c600082825461204091906130ad565b909155505060998a905561205481896128fb565b604080518881524260208201529081018a905290955085908b9083907f59382740d48c89a44d8866c8e7071aa24351a82e5f38e4674ab82aa8a18119bc9060600160405180910390a4505050505b93509350939050565b6000610a368383612998565b6000806000856001600160a01b031685856040516020016120d9929190613333565b60408051601f19818403018152908290526120f39161310c565b600060405180830381855af49150503d806000811461212e576040519150601f19603f3d011682016040523d82523d6000602084013e612133565b606091505b50915091508161217b5760405162461bcd60e51b815260206004820152601360248201527219195b1959d85d1958d85b1b0819985a5b1959606a1b604482015260640161088b565b8080602001905181019061218f9190613128565b9695505050505050565b6033546001600160a01b0316331461134d5760405162461bcd60e51b815260206004820181905260248201527f4f776e61626c653a2063616c6c6572206973206e6f7420746865206f776e6572604482015260640161088b565b6000610a36836001600160a01b0384166129c2565b600060405160248101604052838152826004820152600080602483885af43d806000843e81801561223c5783519450612240565b8184fd5b505050509392505050565b6060816000036122725750506040805180820190915260018152600360fc1b602082015290565b8160005b811561229c5780612286816131b1565b91506122959050600a836130db565b9150612276565b60008167ffffffffffffffff8111156122b7576122b761319b565b6040519080825280601f01601f1916602001820160405280156122e1576020820181803683370190505b5090505b841561234c576122f6600183613080565b9150612303600a8661336e565b61230e9060306130ad565b60f81b81838151811061232357612323613097565b60200101906001600160f81b031916908160001a905350612345600a866130db565b94506122e5565b949350505050565b60405160248101604052828152816004820152600080602483875af490508061100b57600080fd5b606580546001600160a01b03191690556113c681612a11565b6000610a36836001600160a01b038416612a63565b6123b560c983612b56565b6123d25760405163b1cd090360e01b815260040160405180910390fd5b604051635dd7f8f160e11b8152600481018290526001600160a01b0383169063bbaff1e290602401600060405180830381600087803b15801561241457600080fd5b505af1158015612428573d6000803e3d6000fd5b505050505050565b600080609854905060006097828154811061244d5761244d613097565b600091825260208083206040805160808101825260029490940290910180546001600160801b03168085526001909101546001600160a01b03811693850193909352600160a01b830464ffffffffff1691840191909152600160c81b90910460ff16151560608301529092506124c4908690613382565b90506124d18360016130ad565b6098819055604080516080810182526001600160801b0384811682526001600160a01b038a811660208085018281524264ffffffffff90811687890190815260006060890181815260978054600181018255925289517f354a83ed9988f79f6038d4c7a7dadbad8af32f4ad6df893e0e5807a1b1944ff9600290930292830180546001600160801b03191691909a161790985592517f354a83ed9988f79f6038d4c7a7dadbad8af32f4ad6df893e0e5807a1b1944ffa909301805491519751939096166001600160c81b031990911617600160a01b96909116959095029490941760ff60c81b1916600160c81b941515949094029390931790915592518981529397509092339188917eae2c76ca218353c7995e13a4af773a35837cb6ebb8288092d8190bcd9c8f68910160405180910390a45050505092915050565b60006114e6825490565b600054610100900460ff1661263f5760405162461bcd60e51b815260040161088b906133ad565b612647612b78565b61264f612ba7565b60d180546001600160a01b039092166001600160a01b031992831617905560cb805490911633179055565b60008082121561268d57816000036114e6565b5090565b60d1546040516374f02e2160e11b81526001600160a01b039091169063e9e05c42906126d190604360981b9060009062030d4090829088906004016133f8565b600060405180830381600087803b1580156126eb57600080fd5b505af1158015611b40573d6000803e3d6000fd5b60008160000361272557604051636773bc7160e11b81526004810183905260240161088b565b609b548083111561274c57604051636773bc7160e11b81526004810184905260240161088b565b6000609a848154811061276157612761613097565b906000526020600020906002020160405180604001604052908160008201548152602001600182015481525050905080600001518510156127b857604051636773bc7160e11b81526004810185905260240161088b565b81841015612837576000609a6127cf8660016130ad565b815481106127df576127df613097565b90600052602060002090600202016040518060400160405290816000820154815260200160018201548152505090508060000151861061283557604051636773bc7160e11b81526004810186905260240161088b565b505b60006097612846600188613080565b8154811061285657612856613097565b9060005260206000209060020201905060006097878154811061287b5761287b613097565b600091825260208220845460029092020180549093506128a7916001600160801b03908116911661330b565b6001600160801b031690506b033b2e3c9fd0803ce80000008460200151826128cf91906131ca565b6128d991906130db565b98975050505050505050565b600080600080600080868989f195945050505050565b6040805180820190915282815260208101828152609a805460018082018355600092835293517f44da158ba27f9252712a74ff6a55c5d531f69609f1f6e7f17c4443a8e2089be460029092029182015591517f44da158ba27f9252712a74ff6a55c5d531f69609f1f6e7f17c4443a8e2089be590920191909155609b805491929183906129899084906130ad565b9091555050609b549392505050565b60008260000182815481106129af576129af613097565b9060005260206000200154905092915050565b6000818152600183016020526040812054612a09575081546001818101845560008481526020808220909301849055845484825282860190935260409020919091556114e6565b5060006114e6565b603380546001600160a01b038381166001600160a01b0319831681179093556040519116919082907f8be0079c531659141344cd1fd0a4f28419497f9722a3daafe3b4186f6b6457e090600090a35050565b60008181526001830160205260408120548015612b4c576000612a87600183613080565b8554909150600090612a9b90600190613080565b9050818114612b00576000866000018281548110612abb57612abb613097565b9060005260206000200154905080876000018481548110612ade57612ade613097565b6000918252602080832090910192909255918252600188019052604090208390555b8554869080612b1157612b1161343e565b6001900381819060005260206000200160009055905585600101600086815260200190815260200160002060009055600193505050506114e6565b60009150506114e6565b6001600160a01b03811660009081526001830160205260408120541515610a36565b600054610100900460ff16612b9f5760405162461bcd60e51b815260040161088b906133ad565b61134d612d35565b600054610100900460ff16612bce5760405162461bcd60e51b815260040161088b906133ad565b604080516080810182526000808252602080830182815264ffffffffff428116858701908152600160608701818152609780548084018255908852975160029889027f354a83ed9988f79f6038d4c7a7dadbad8af32f4ad6df893e0e5807a1b1944ff9810180546001600160801b03939093166001600160801b03199093169290921790915594517f354a83ed9988f79f6038d4c7a7dadbad8af32f4ad6df893e0e5807a1b1944ffa9095018054935191511515600160c81b0260ff60c81b1992909516600160a01b026001600160c81b03199094166001600160a01b0396909616959095179290921791909116919091179091558451808601909552828552908401828152609a805492830181559092529251929091027f44da158ba27f9252712a74ff6a55c5d531f69609f1f6e7f17c4443a8e2089be4810192909255517f44da158ba27f9252712a74ff6a55c5d531f69609f1f6e7f17c4443a8e2089be590910155565b600054610100900460ff16612d5c5760405162461bcd60e51b815260040161088b906133ad565b61134d3361237c565b600060208284031215612d7757600080fd5b5035919050565b6001600160a01b03811681146113c657600080fd5b60008083601f840112612da557600080fd5b50813567ffffffffffffffff811115612dbd57600080fd5b6020830191508360208260051b8501011115612dd857600080fd5b9250929050565b60008060008060608587031215612df557600080fd5b843593506020850135612e0781612d7e565b9250604085013567ffffffffffffffff811115612e2357600080fd5b612e2f87828801612d93565b95989497509550505050565b600080600060608486031215612e5057600080fd5b505081359360208301359350604090920135919050565b600060208284031215612e7957600080fd5b8135610a3681612d7e565b600080600060608486031215612e9957600080fd5b833592506020840135612eab81612d7e565b929592945050506040919091013590565b60005b83811015612ed7578181015183820152602001612ebf565b8381111561100b5750506000910152565b60008151808452612f00816020860160208601612ebc565b601f01601f19169290920160200192915050565b602081526000610a366020830184612ee8565b60008060008060608587031215612f3d57600080fd5b843567ffffffffffffffff811115612f5457600080fd5b612f6087828801612d93565b90989097506020870135966040013595509350505050565b6020808252825182820181905260009190848201906040850190845b81811015612fb057835183529284019291840191600101612f94565b50909695505050505050565b600080600060608486031215612fd157600080fd5b8335612fdc81612d7e565b95602085013595506040909401359392505050565b6000806040838503121561300457600080fd5b823561300f81612d7e565b946020939093013593505050565b80151581146113c657600080fd5b60006020828403121561303d57600080fd5b8135610a368161301d565b6000806040838503121561305b57600080fd5b50508035926020909101359150565b634e487b7160e01b600052601160045260246000fd5b6000828210156130925761309261306a565b500390565b634e487b7160e01b600052603260045260246000fd5b600082198211156130c0576130c061306a565b500190565b634e487b7160e01b600052601260045260246000fd5b6000826130ea576130ea6130c5565b500490565b60006020828403121561310157600080fd5b8151610a3681612d7e565b6000825161311e818460208701612ebc565b9190910192915050565b60006020828403121561313a57600080fd5b5051919050565b60008451613153818460208901612ebc565b8083019050601760f91b8082528551613173816001850160208a01612ebc565b6001920191820152835161318e816002840160208801612ebc565b0160020195945050505050565b634e487b7160e01b600052604160045260246000fd5b6000600182016131c3576131c361306a565b5060010190565b60008160001904831182151516156131e4576131e461306a565b500290565b6000602082840312156131fb57600080fd5b8151610a368161301d565b600080821280156001600160ff1b03849003851316156132285761322861306a565b600160ff1b83900384128116156132415761324161306a565b50500190565b60008083128015600160ff1b8501841216156132655761326561306a565b6001600160ff1b03840183138116156132805761328061306a565b50500390565b60006001600160ff1b03818413828413808216868404861116156132ac576132ac61306a565b600160ff1b60008712828116878305891216156132cb576132cb61306a565b600087129250878205871284841616156132e7576132e761306a565b878505871281841616156132fd576132fd61306a565b505050929093029392505050565b60006001600160801b038381169083168181101561332b5761332b61306a565b039392505050565b82815260006020808301845182860160005b8281101561336157815184529284019290840190600101613345565b5091979650505050505050565b60008261337d5761337d6130c5565b500690565b60006001600160801b038083168185168083038211156133a4576133a461306a565b01949350505050565b6020808252602b908201527f496e697469616c697a61626c653a20636f6e7472616374206973206e6f74206960408201526a6e697469616c697a696e6760a81b606082015260800190565b60018060a01b038616815284602082015263ffffffff84166040820152821515606082015260a06080820152600061343360a0830184612ee8565b979650505050505050565b634e487b7160e01b600052603160045260246000fdfea164736f6c634300080f000a",
  "solcInputHash": "0x0000000000000000000000000000000000000000000000000000000000000000",
  "storageLayout": {
    "storage": [
      {
        "astId": 29667,
        "contract": "src/mainnet-bridge/ETHYieldManager.sol:ETHYieldManager",
        "label": "_initialized",
        "offset": 0,
        "slot": "0",
        "type": "t_uint8"
      },
      {
        "astId": 29670,
        "contract": "src/mainnet-bridge/ETHYieldManager.sol:ETHYieldManager",
        "label": "_initializing",
        "offset": 1,
        "slot": "0",
        "type": "t_bool"
      },
      {
        "astId": 31363,
        "contract": "src/mainnet-bridge/ETHYieldManager.sol:ETHYieldManager",
        "label": "__gap",
        "offset": 0,
        "slot": "1",
        "type": "t_array(t_uint256)50_storage"
      },
      {
        "astId": 29514,
        "contract": "src/mainnet-bridge/ETHYieldManager.sol:ETHYieldManager",
        "label": "_owner",
        "offset": 0,
        "slot": "51",
        "type": "t_address"
      },
      {
        "astId": 29634,
        "contract": "src/mainnet-bridge/ETHYieldManager.sol:ETHYieldManager",
        "label": "__gap",
        "offset": 0,
        "slot": "52",
        "type": "t_array(t_uint256)49_storage"
      },
      {
        "astId": 29423,
        "contract": "src/mainnet-bridge/ETHYieldManager.sol:ETHYieldManager",
        "label": "_pendingOwner",
        "offset": 0,
        "slot": "101",
        "type": "t_address"
      },
      {
        "astId": 29502,
        "contract": "src/mainnet-bridge/ETHYieldManager.sol:ETHYieldManager",
        "label": "__gap",
        "offset": 0,
        "slot": "102",
        "type": "t_array(t_uint256)49_storage"
      },
      {
        "astId": 81260,
        "contract": "src/mainnet-bridge/ETHYieldManager.sol:ETHYieldManager",
        "label": "requests",
        "offset": 0,
        "slot": "151",
        "type": "t_array(t_struct(WithdrawalRequest)81290_storage)dyn_storage"
      },
      {
        "astId": 81262,
        "contract": "src/mainnet-bridge/ETHYieldManager.sol:ETHYieldManager",
        "label": "lastRequestId",
        "offset": 0,
        "slot": "152",
        "type": "t_uint256"
      },
      {
        "astId": 81264,
        "contract": "src/mainnet-bridge/ETHYieldManager.sol:ETHYieldManager",
        "label": "lastFinalizedRequestId",
        "offset": 0,
        "slot": "153",
        "type": "t_uint256"
      },
      {
        "astId": 81268,
        "contract": "src/mainnet-bridge/ETHYieldManager.sol:ETHYieldManager",
        "label": "checkpoints",
        "offset": 0,
        "slot": "154",
        "type": "t_array(t_struct(Checkpoint)81311_storage)dyn_storage"
      },
      {
        "astId": 81270,
        "contract": "src/mainnet-bridge/ETHYieldManager.sol:ETHYieldManager",
        "label": "lastCheckpointId",
        "offset": 0,
        "slot": "155",
        "type": "t_uint256"
      },
      {
        "astId": 81272,
        "contract": "src/mainnet-bridge/ETHYieldManager.sol:ETHYieldManager",
        "label": "lockedAmount",
        "offset": 0,
        "slot": "156",
        "type": "t_uint256"
      },
      {
        "astId": 81277,
        "contract": "src/mainnet-bridge/ETHYieldManager.sol:ETHYieldManager",
        "label": "__gap",
        "offset": 0,
        "slot": "157",
        "type": "t_array(t_uint256)44_storage"
      },
      {
        "astId": 80248,
        "contract": "src/mainnet-bridge/ETHYieldManager.sol:ETHYieldManager",
        "label": "_providers",
        "offset": 0,
        "slot": "201",
        "type": "t_struct(AddressSet)41257_storage"
      },
      {
        "astId": 80251,
        "contract": "src/mainnet-bridge/ETHYieldManager.sol:ETHYieldManager",
        "label": "admin",
        "offset": 0,
        "slot": "203",
        "type": "t_address"
      },
      {
        "astId": 80254,
        "contract": "src/mainnet-bridge/ETHYieldManager.sol:ETHYieldManager",
        "label": "insurance",
        "offset": 0,
        "slot": "204",
        "type": "t_address"
      },
      {
        "astId": 80257,
        "contract": "src/mainnet-bridge/ETHYieldManager.sol:ETHYieldManager",
        "label": "blastBridge",
        "offset": 0,
        "slot": "205",
        "type": "t_address"
      },
      {
        "astId": 80260,
        "contract": "src/mainnet-bridge/ETHYieldManager.sol:ETHYieldManager",
        "label": "accumulatedNegativeYields",
        "offset": 0,
        "slot": "206",
        "type": "t_uint256"
      },
      {
        "astId": 80263,
        "contract": "src/mainnet-bridge/ETHYieldManager.sol:ETHYieldManager",
        "label": "insuranceFeeBips",
        "offset": 0,
        "slot": "207",
        "type": "t_uint256"
      },
      {
        "astId": 80266,
        "contract": "src/mainnet-bridge/ETHYieldManager.sol:ETHYieldManager",
        "label": "insuranceWithdrawalBuffer",
        "offset": 0,
        "slot": "208",
        "type": "t_uint256"
      },
      {
        "astId": 80270,
        "contract": "src/mainnet-bridge/ETHYieldManager.sol:ETHYieldManager",
        "label": "portal",
        "offset": 0,
        "slot": "209",
        "type": "t_contract(OptimismPortal)61652"
      }
    ],
    "types": {
      "t_address": {
        "encoding": "inplace",
        "label": "address",
        "numberOfBytes": "20"
      },
      "t_array(t_bytes32)dyn_storage": {
        "encoding": "dynamic_array",
        "label": "bytes32[]",
        "numberOfBytes": "32",
        "base": "t_bytes32"
      },
      "t_array(t_struct(Checkpoint)81311_storage)dyn_storage": {
        "encoding": "dynamic_array",
        "label": "struct WithdrawalQueue.Checkpoint[]",
        "numberOfBytes": "32",
        "base": "t_struct(Checkpoint)81311_storage"
      },
      "t_array(t_struct(WithdrawalRequest)81290_storage)dyn_storage": {
        "encoding": "dynamic_array",
        "label": "struct WithdrawalQueue.WithdrawalRequest[]",
        "numberOfBytes": "32",
        "base": "t_struct(WithdrawalRequest)81290_storage"
      },
      "t_array(t_uint256)44_storage": {
        "encoding": "inplace",
        "label": "uint256[44]",
        "numberOfBytes": "1408",
        "base": "t_uint256"
      },
      "t_array(t_uint256)49_storage": {
        "encoding": "inplace",
        "label": "uint256[49]",
        "numberOfBytes": "1568",
        "base": "t_uint256"
      },
      "t_array(t_uint256)50_storage": {
        "encoding": "inplace",
        "label": "uint256[50]",
        "numberOfBytes": "1600",
        "base": "t_uint256"
      },
      "t_bool": {
        "encoding": "inplace",
        "label": "bool",
        "numberOfBytes": "1"
      },
      "t_bytes32": {
        "encoding": "inplace",
        "label": "bytes32",
        "numberOfBytes": "32"
      },
      "t_contract(OptimismPortal)61652": {
        "encoding": "inplace",
        "label": "contract OptimismPortal",
        "numberOfBytes": "20"
      },
      "t_mapping(t_bytes32,t_uint256)": {
        "encoding": "mapping",
        "key": "t_bytes32",
        "label": "mapping(bytes32 => uint256)",
        "numberOfBytes": "32",
        "value": "t_uint256"
      },
      "t_struct(AddressSet)41257_storage": {
        "encoding": "inplace",
        "label": "struct EnumerableSet.AddressSet",
        "numberOfBytes": "64",
        "members": [
          {
            "astId": 41256,
            "contract": "src/mainnet-bridge/ETHYieldManager.sol:ETHYieldManager",
            "label": "_inner",
            "offset": 0,
            "slot": "0",
            "type": "t_struct(Set)40956_storage"
          }
        ]
      },
      "t_struct(Checkpoint)81311_storage": {
        "encoding": "inplace",
        "label": "struct WithdrawalQueue.Checkpoint",
        "numberOfBytes": "64",
        "members": [
          {
            "astId": 81308,
            "contract": "src/mainnet-bridge/ETHYieldManager.sol:ETHYieldManager",
            "label": "fromRequestId",
            "offset": 0,
            "slot": "0",
            "type": "t_uint256"
          },
          {
            "astId": 81310,
            "contract": "src/mainnet-bridge/ETHYieldManager.sol:ETHYieldManager",
            "label": "sharePrice",
            "offset": 0,
            "slot": "1",
            "type": "t_uint256"
          }
        ]
      },
      "t_struct(Set)40956_storage": {
        "encoding": "inplace",
        "label": "struct EnumerableSet.Set",
        "numberOfBytes": "64",
        "members": [
          {
            "astId": 40951,
            "contract": "src/mainnet-bridge/ETHYieldManager.sol:ETHYieldManager",
            "label": "_values",
            "offset": 0,
            "slot": "0",
            "type": "t_array(t_bytes32)dyn_storage"
          },
          {
            "astId": 40955,
            "contract": "src/mainnet-bridge/ETHYieldManager.sol:ETHYieldManager",
            "label": "_indexes",
            "offset": 0,
            "slot": "1",
            "type": "t_mapping(t_bytes32,t_uint256)"
          }
        ]
      },
      "t_struct(WithdrawalRequest)81290_storage": {
        "encoding": "inplace",
        "label": "struct WithdrawalQueue.WithdrawalRequest",
        "numberOfBytes": "64",
        "members": [
          {
            "astId": 81280,
            "contract": "src/mainnet-bridge/ETHYieldManager.sol:ETHYieldManager",
            "label": "cumulativeAmount",
            "offset": 0,
            "slot": "0",
            "type": "t_uint128"
          },
          {
            "astId": 81283,
            "contract": "src/mainnet-bridge/ETHYieldManager.sol:ETHYieldManager",
            "label": "recipient",
            "offset": 0,
            "slot": "1",
            "type": "t_address"
          },
          {
            "astId": 81286,
            "contract": "src/mainnet-bridge/ETHYieldManager.sol:ETHYieldManager",
            "label": "timestamp",
            "offset": 20,
            "slot": "1",
            "type": "t_uint40"
          },
          {
            "astId": 81289,
            "contract": "src/mainnet-bridge/ETHYieldManager.sol:ETHYieldManager",
            "label": "claimed",
            "offset": 25,
            "slot": "1",
            "type": "t_bool"
          }
        ]
      },
      "t_uint128": {
        "encoding": "inplace",
        "label": "uint128",
        "numberOfBytes": "16"
      },
      "t_uint256": {
        "encoding": "inplace",
        "label": "uint256",
        "numberOfBytes": "32"
      },
      "t_uint40": {
        "encoding": "inplace",
        "label": "uint40",
        "numberOfBytes": "5"
      },
      "t_uint8": {
        "encoding": "inplace",
        "label": "uint8",
        "numberOfBytes": "1"
      }
    }
  },
  "transactionHash": "0x65d03b771ffbde0232d7d5c14dca46933880f37509d2f0f0d936b86195510418"
}