{
  "abi": [
    {
      "inputs": [],
      "stateMutability": "nonpayable",
      "type": "constructor"
    },
    {
      "inputs": [
        {
          "internalType": "uint256",
          "name": "_firstArrayLength",
          "type": "uint256"
        },
        {
          "internalType": "uint256",
          "name": "_secondArrayLength",
          "type": "uint256"
        }
      ],
      "name": "ArraysLengthMismatch",
      "type": "error"
    },
    {
      "inputs": [],
      "name": "BatchesAreNotSorted",
      "type": "error"
    },
    {
      "inputs": [],
      "name": "CallerIsNotAdmin",
      "type": "error"
    },
    {
      "inputs": [],
      "name": "CallerIsNotBlastBridge",
      "type": "error"
    },
    {
      "inputs": [],
      "name": "CallerIsNotRecipient",
      "type": "error"
    },
    {
      "inputs": [],
      "name": "CantSendValueRecipientMayHaveReverted",
      "type": "error"
    },
    {
      "inputs": [],
      "name": "EmptyBatches",
      "type": "error"
    },
    {
      "inputs": [],
      "name": "FailedToInitializeProvider",
      "type": "error"
    },
    {
      "inputs": [],
      "name": "InsufficientBalance",
      "type": "error"
    },
    {
      "inputs": [],
      "name": "InsufficientBalance",
      "type": "error"
    },
    {
      "inputs": [],
      "name": "InsufficientInsuranceBalance",
      "type": "error"
    },
    {
      "inputs": [],
      "name": "InvalidExtraData",
      "type": "error"
    },
    {
      "inputs": [
        {
          "internalType": "uint256",
          "name": "_hint",
          "type": "uint256"
        }
      ],
      "name": "InvalidHint",
      "type": "error"
    },
    {
      "inputs": [],
      "name": "InvalidReportTimestamp",
      "type": "error"
    },
    {
      "inputs": [
        {
          "internalType": "uint256",
          "name": "_requestId",
          "type": "uint256"
        }
      ],
      "name": "InvalidRequestId",
      "type": "error"
    },
    {
      "inputs": [
        {
          "internalType": "uint256",
          "name": "startId",
          "type": "uint256"
        },
        {
          "internalType": "uint256",
          "name": "endId",
          "type": "uint256"
        }
      ],
      "name": "InvalidRequestIdRange",
      "type": "error"
    },
    {
      "inputs": [],
      "name": "InvalidSharePrice",
      "type": "error"
    },
    {
      "inputs": [],
      "name": "InvalidState",
      "type": "error"
    },
    {
      "inputs": [],
      "name": "InvalidTokenIndex",
      "type": "error"
    },
    {
      "inputs": [],
      "name": "MinimumAmountNotMet",
      "type": "error"
    },
    {
      "inputs": [],
      "name": "NegativeYieldFromInsuredProvider",
      "type": "error"
    },
    {
      "inputs": [],
      "name": "NotEnoughEther",
      "type": "error"
    },
    {
      "inputs": [
        {
          "internalType": "address",
          "name": "_sender",
          "type": "address"
        },
        {
          "internalType": "address",
          "name": "_owner",
          "type": "address"
        }
      ],
      "name": "NotOwner",
      "type": "error"
    },
    {
      "inputs": [],
      "name": "ProviderAddressDoesNotMatchIndex",
      "type": "error"
    },
    {
      "inputs": [],
      "name": "ProviderNotFound",
      "type": "error"
    },
    {
      "inputs": [
        {
          "internalType": "uint256",
          "name": "_requestId",
          "type": "uint256"
        }
      ],
      "name": "RequestAlreadyClaimed",
      "type": "error"
    },
    {
      "inputs": [
        {
          "internalType": "uint256",
          "name": "_amount",
          "type": "uint256"
        }
      ],
      "name": "RequestAmountTooLarge",
      "type": "error"
    },
    {
      "inputs": [
        {
          "internalType": "uint256",
          "name": "_amount",
          "type": "uint256"
        }
      ],
      "name": "RequestAmountTooSmall",
      "type": "error"
    },
    {
      "inputs": [],
      "name": "RequestIdsNotSorted",
      "type": "error"
    },
    {
      "inputs": [
        {
          "internalType": "uint256",
          "name": "_requestId",
          "type": "uint256"
        }
      ],
      "name": "RequestNotFoundOrNotFinalized",
      "type": "error"
    },
    {
      "inputs": [
        {
          "internalType": "uint256",
          "name": "sent",
          "type": "uint256"
        },
        {
          "internalType": "uint256",
          "name": "maxExpected",
          "type": "uint256"
        }
      ],
      "name": "TooMuchEtherToFinalize",
      "type": "error"
    },
    {
      "inputs": [],
      "name": "TotalValueIsZero",
      "type": "error"
    },
    {
      "inputs": [],
      "name": "UnsupportedToken",
      "type": "error"
    },
    {
      "inputs": [],
      "name": "UnsupportedToken",
      "type": "error"
    },
    {
      "inputs": [],
      "name": "WithdrawalTransferFailed",
      "type": "error"
    },
    {
      "inputs": [],
      "name": "YieldProviderIsNotMeantForThisManager",
      "type": "error"
    },
    {
      "inputs": [],
      "name": "ZeroAmountOfETH",
      "type": "error"
    },
    {
      "inputs": [],
      "name": "ZeroRecipient",
      "type": "error"
    },
    {
      "inputs": [],
      "name": "ZeroShareRate",
      "type": "error"
    },
    {
      "inputs": [],
      "name": "ZeroTimestamp",
      "type": "error"
    },
    {
      "anonymous": false,
      "inputs": [
        {
          "indexed": true,
          "internalType": "address",
          "name": "localToken",
          "type": "address"
        },
        {
          "indexed": true,
          "internalType": "address",
          "name": "remoteToken",
          "type": "address"
        },
        {
          "indexed": true,
          "internalType": "address",
          "name": "from",
          "type": "address"
        },
        {
          "indexed": false,
          "internalType": "address",
          "name": "to",
          "type": "address"
        },
        {
          "indexed": false,
          "internalType": "uint256",
          "name": "amount",
          "type": "uint256"
        },
        {
          "indexed": false,
          "internalType": "bytes",
          "name": "extraData",
          "type": "bytes"
        }
      ],
      "name": "ERC20BridgeFinalized",
      "type": "event"
    },
    {
      "anonymous": false,
      "inputs": [
        {
          "indexed": true,
          "internalType": "address",
          "name": "localToken",
          "type": "address"
        },
        {
          "indexed": true,
          "internalType": "address",
          "name": "remoteToken",
          "type": "address"
        },
        {
          "indexed": true,
          "internalType": "address",
          "name": "from",
          "type": "address"
        },
        {
          "indexed": false,
          "internalType": "address",
          "name": "to",
          "type": "address"
        },
        {
          "indexed": false,
          "internalType": "uint256",
          "name": "amount",
          "type": "uint256"
        },
        {
          "indexed": false,
          "internalType": "bytes",
          "name": "extraData",
          "type": "bytes"
        }
      ],
      "name": "ERC20BridgeInitiated",
      "type": "event"
    },
    {
      "anonymous": false,
      "inputs": [
        {
          "indexed": true,
          "internalType": "address",
          "name": "from",
          "type": "address"
        },
        {
          "indexed": true,
          "internalType": "address",
          "name": "to",
          "type": "address"
        },
        {
          "indexed": false,
          "internalType": "uint256",
          "name": "amount",
          "type": "uint256"
        },
        {
          "indexed": false,
          "internalType": "bytes",
          "name": "extraData",
          "type": "bytes"
        }
      ],
      "name": "ETHBridgeFinalized",
      "type": "event"
    },
    {
      "anonymous": false,
      "inputs": [
        {
          "indexed": true,
          "internalType": "address",
          "name": "from",
          "type": "address"
        },
        {
          "indexed": true,
          "internalType": "address",
          "name": "to",
          "type": "address"
        },
        {
          "indexed": false,
          "internalType": "uint256",
          "name": "amount",
          "type": "uint256"
        },
        {
          "indexed": false,
          "internalType": "bytes",
          "name": "extraData",
          "type": "bytes"
        }
      ],
      "name": "ETHBridgeInitiated",
      "type": "event"
    },
    {
      "anonymous": false,
      "inputs": [
        {
          "indexed": false,
          "internalType": "uint8",
          "name": "version",
          "type": "uint8"
        }
      ],
      "name": "Initialized",
      "type": "event"
    },
    {
      "anonymous": false,
      "inputs": [
        {
          "indexed": true,
          "internalType": "address",
          "name": "previousOwner",
          "type": "address"
        },
        {
          "indexed": true,
          "internalType": "address",
          "name": "newOwner",
          "type": "address"
        }
      ],
      "name": "OwnershipTransferStarted",
      "type": "event"
    },
    {
      "anonymous": false,
      "inputs": [
        {
          "indexed": true,
          "internalType": "address",
          "name": "previousOwner",
          "type": "address"
        },
        {
          "indexed": true,
          "internalType": "address",
          "name": "newOwner",
          "type": "address"
        }
      ],
      "name": "OwnershipTransferred",
      "type": "event"
    },
    {
      "anonymous": false,
      "inputs": [
        {
          "indexed": true,
          "internalType": "uint256",
          "name": "requestId",
          "type": "uint256"
        },
        {
          "indexed": true,
          "internalType": "address",
          "name": "recipient",
          "type": "address"
        },
        {
          "indexed": false,
          "internalType": "uint256",
          "name": "amountOfETH",
          "type": "uint256"
        }
      ],
      "name": "WithdrawalClaimed",
      "type": "event"
    },
    {
      "anonymous": false,
      "inputs": [
        {
          "indexed": true,
          "internalType": "uint256",
          "name": "requestId",
          "type": "uint256"
        },
        {
          "indexed": true,
          "internalType": "address",
          "name": "requestor",
          "type": "address"
        },
        {
          "indexed": true,
          "internalType": "address",
          "name": "recipient",
          "type": "address"
        },
        {
          "indexed": false,
          "internalType": "uint256",
          "name": "amount",
          "type": "uint256"
        }
      ],
      "name": "WithdrawalRequested",
      "type": "event"
    },
    {
      "anonymous": false,
      "inputs": [
        {
          "indexed": true,
          "internalType": "uint256",
          "name": "from",
          "type": "uint256"
        },
        {
          "indexed": true,
          "internalType": "uint256",
          "name": "to",
          "type": "uint256"
        },
        {
          "indexed": true,
          "internalType": "uint256",
          "name": "checkpointId",
          "type": "uint256"
        },
        {
          "indexed": false,
          "internalType": "uint256",
          "name": "amountOfETHLocked",
          "type": "uint256"
        },
        {
          "indexed": false,
          "internalType": "uint256",
          "name": "timestamp",
          "type": "uint256"
        },
        {
          "indexed": false,
          "internalType": "uint256",
          "name": "sharePrice",
          "type": "uint256"
        }
      ],
      "name": "WithdrawalsFinalized",
      "type": "event"
    },
    {
      "anonymous": false,
      "inputs": [
        {
          "indexed": false,
          "internalType": "int256",
          "name": "yield",
          "type": "int256"
        },
        {
          "indexed": false,
          "internalType": "uint256",
          "name": "insurancePremiumPaid",
          "type": "uint256"
        },
        {
          "indexed": false,
          "internalType": "uint256",
          "name": "insuranceWithdrawn",
          "type": "uint256"
        }
      ],
      "name": "YieldReport",
      "type": "event"
    },
    {
      "inputs": [],
      "name": "MAX_INSURANCE_FEE_BIPS",
      "outputs": [
        {
          "internalType": "uint256",
          "name": "",
          "type": "uint256"
        }
      ],
      "stateMutability": "view",
      "type": "function"
    },
    {
      "inputs": [],
      "name": "MESSENGER",
      "outputs": [
        {
          "internalType": "contract CrossDomainMessenger",
          "name": "",
          "type": "address"
        }
      ],
      "stateMutability": "view",
      "type": "function"
    },
    {
      "inputs": [],
      "name": "OTHER_BRIDGE",
      "outputs": [
        {
          "internalType": "contract StandardBridge",
          "name": "",
          "type": "address"
        }
      ],
      "stateMutability": "view",
      "type": "function"
    },
    {
      "inputs": [],
      "name": "acceptOwnership",
      "outputs": [],
      "stateMutability": "nonpayable",
      "type": "function"
    },
    {
      "inputs": [],
      "name": "accumulatedNegativeYields",
      "outputs": [
        {
          "internalType": "uint256",
          "name": "",
          "type": "uint256"
        }
      ],
      "stateMutability": "view",
      "type": "function"
    },
    {
      "inputs": [
        {
          "internalType": "address",
          "name": "provider",
          "type": "address"
        }
      ],
      "name": "addProvider",
      "outputs": [],
      "stateMutability": "nonpayable",
      "type": "function"
    },
    {
      "inputs": [],
      "name": "admin",
      "outputs": [
        {
          "internalType": "address",
          "name": "",
          "type": "address"
        }
      ],
      "stateMutability": "view",
      "type": "function"
    },
    {
      "inputs": [],
      "name": "blastBridge",
      "outputs": [
        {
          "internalType": "address",
          "name": "",
          "type": "address"
        }
      ],
      "stateMutability": "view",
      "type": "function"
    },
    {
      "inputs": [
        {
          "internalType": "address",
          "name": "_localToken",
          "type": "address"
        },
        {
          "internalType": "address",
          "name": "_remoteToken",
          "type": "address"
        },
        {
          "internalType": "uint256",
          "name": "_amount",
          "type": "uint256"
        },
        {
          "internalType": "uint32",
          "name": "_minGasLimit",
          "type": "uint32"
        },
        {
          "internalType": "bytes",
          "name": "_extraData",
          "type": "bytes"
        }
      ],
      "name": "bridgeERC20",
      "outputs": [],
      "stateMutability": "nonpayable",
      "type": "function"
    },
    {
      "inputs": [
        {
          "internalType": "address",
          "name": "_localToken",
          "type": "address"
        },
        {
          "internalType": "address",
          "name": "_remoteToken",
          "type": "address"
        },
        {
          "internalType": "address",
          "name": "_to",
          "type": "address"
        },
        {
          "internalType": "uint256",
          "name": "_amount",
          "type": "uint256"
        },
        {
          "internalType": "uint32",
          "name": "_minGasLimit",
          "type": "uint32"
        },
        {
          "internalType": "bytes",
          "name": "_extraData",
          "type": "bytes"
        }
      ],
      "name": "bridgeERC20To",
      "outputs": [],
      "stateMutability": "nonpayable",
      "type": "function"
    },
    {
      "inputs": [
        {
          "internalType": "uint32",
          "name": "_minGasLimit",
          "type": "uint32"
        },
        {
          "internalType": "bytes",
          "name": "_extraData",
          "type": "bytes"
        }
      ],
      "name": "bridgeETH",
      "outputs": [],
      "stateMutability": "payable",
      "type": "function"
    },
    {
      "inputs": [
        {
          "internalType": "address",
          "name": "_to",
          "type": "address"
        },
        {
          "internalType": "uint32",
          "name": "_minGasLimit",
          "type": "uint32"
        },
        {
          "internalType": "bytes",
          "name": "_extraData",
          "type": "bytes"
        }
      ],
      "name": "bridgeETHTo",
      "outputs": [],
      "stateMutability": "payable",
      "type": "function"
    },
    {
      "inputs": [
        {
          "internalType": "uint256",
          "name": "idx",
          "type": "uint256"
        },
        {
          "internalType": "address",
          "name": "providerAddress",
          "type": "address"
        },
        {
          "internalType": "uint256[]",
          "name": "requestIds",
          "type": "uint256[]"
        }
      ],
      "name": "claimPending",
      "outputs": [],
      "stateMutability": "nonpayable",
      "type": "function"
    },
    {
      "inputs": [
        {
          "internalType": "uint256",
          "name": "_requestId",
          "type": "uint256"
        },
        {
          "internalType": "uint256",
          "name": "_hintId",
          "type": "uint256"
        }
      ],
      "name": "claimWithdrawal",
      "outputs": [
        {
          "internalType": "bool",
          "name": "success",
          "type": "bool"
        }
      ],
      "stateMutability": "nonpayable",
      "type": "function"
    },
    {
      "inputs": [
        {
          "internalType": "bool",
          "name": "enableInsurance",
          "type": "bool"
        }
      ],
      "name": "commitYieldReport",
      "outputs": [],
      "stateMutability": "nonpayable",
      "type": "function"
    },
    {
      "inputs": [
        {
          "internalType": "int128",
          "name": "inputToken",
          "type": "int128"
        },
        {
          "internalType": "int128",
          "name": "outputToken",
          "type": "int128"
        },
        {
          "internalType": "uint256",
          "name": "inputAmountWad",
          "type": "uint256"
        },
        {
          "internalType": "uint256",
          "name": "minOutputAmountWad",
          "type": "uint256"
        }
      ],
      "name": "convert",
      "outputs": [
        {
          "internalType": "uint256",
          "name": "amountReceived",
          "type": "uint256"
        }
      ],
      "stateMutability": "nonpayable",
      "type": "function"
    },
    {
      "inputs": [
        {
          "internalType": "address",
          "name": "",
          "type": "address"
        },
        {
          "internalType": "address",
          "name": "",
          "type": "address"
        }
      ],
      "name": "deposits",
      "outputs": [
        {
          "internalType": "uint256",
          "name": "",
          "type": "uint256"
        }
      ],
      "stateMutability": "view",
      "type": "function"
    },
    {
      "inputs": [],
      "name": "ethYieldManager",
      "outputs": [
        {
          "internalType": "contract ETHYieldManager",
          "name": "",
          "type": "address"
        }
      ],
      "stateMutability": "view",
      "type": "function"
    },
    {
      "inputs": [
        {
          "internalType": "address",
          "name": "",
          "type": "address"
        }
      ],
      "name": "ethYieldTokens",
      "outputs": [
        {
          "internalType": "bool",
          "name": "approved",
          "type": "bool"
        },
        {
          "internalType": "uint8",
          "name": "decimals",
          "type": "uint8"
        },
        {
          "internalType": "address",
          "name": "provider",
          "type": "address"
        },
        {
          "internalType": "bool",
          "name": "reportStakedBalance",
          "type": "bool"
        }
      ],
      "stateMutability": "view",
      "type": "function"
    },
    {
      "inputs": [
        {
          "internalType": "uint256",
          "name": "requestId",
          "type": "uint256"
        }
      ],
      "name": "finalize",
      "outputs": [
        {
          "internalType": "uint256",
          "name": "checkpointId",
          "type": "uint256"
        }
      ],
      "stateMutability": "nonpayable",
      "type": "function"
    },
    {
      "inputs": [
        {
          "internalType": "address",
          "name": "_localToken",
          "type": "address"
        },
        {
          "internalType": "address",
          "name": "_remoteToken",
          "type": "address"
        },
        {
          "internalType": "address",
          "name": "_from",
          "type": "address"
        },
        {
          "internalType": "address",
          "name": "_to",
          "type": "address"
        },
        {
          "internalType": "uint256",
          "name": "_amount",
          "type": "uint256"
        },
        {
          "internalType": "bytes",
          "name": "_extraData",
          "type": "bytes"
        }
      ],
      "name": "finalizeBridgeERC20",
      "outputs": [],
      "stateMutability": "nonpayable",
      "type": "function"
    },
    {
      "inputs": [
        {
          "internalType": "address",
          "name": "_from",
          "type": "address"
        },
        {
          "internalType": "address",
          "name": "_to",
          "type": "address"
        },
        {
          "internalType": "uint256",
          "name": "_amount",
          "type": "uint256"
        },
        {
          "internalType": "bytes",
          "name": "_extraData",
          "type": "bytes"
        }
      ],
      "name": "finalizeBridgeETH",
      "outputs": [],
      "stateMutability": "payable",
      "type": "function"
    },
    {
      "inputs": [
        {
          "internalType": "uint256",
          "name": "_requestId",
          "type": "uint256"
        },
        {
          "internalType": "uint256",
          "name": "_start",
          "type": "uint256"
        },
        {
          "internalType": "uint256",
          "name": "_end",
          "type": "uint256"
        }
      ],
      "name": "findCheckpointHint",
      "outputs": [
        {
          "internalType": "uint256",
          "name": "",
          "type": "uint256"
        }
      ],
      "stateMutability": "view",
      "type": "function"
    },
    {
      "inputs": [
        {
          "internalType": "uint256[]",
          "name": "_requestIds",
          "type": "uint256[]"
        },
        {
          "internalType": "uint256",
          "name": "_firstIndex",
          "type": "uint256"
        },
        {
          "internalType": "uint256",
          "name": "_lastIndex",
          "type": "uint256"
        }
      ],
      "name": "findCheckpointHints",
      "outputs": [
        {
          "internalType": "uint256[]",
          "name": "hintIds",
          "type": "uint256[]"
        }
      ],
      "stateMutability": "view",
      "type": "function"
    },
    {
      "inputs": [
        {
          "internalType": "uint256",
          "name": "idx",
          "type": "uint256"
        }
      ],
      "name": "getProviderInfoAt",
      "outputs": [
        {
          "components": [
            {
              "internalType": "bytes32",
              "name": "id",
              "type": "bytes32"
            },
            {
              "internalType": "address",
              "name": "providerAddress",
              "type": "address"
            },
            {
              "internalType": "uint256",
              "name": "stakedValue",
              "type": "uint256"
            },
            {
              "internalType": "uint256",
              "name": "pendingBalance",
              "type": "uint256"
            },
            {
              "internalType": "uint256",
              "name": "stakedBalance",
              "type": "uint256"
            },
            {
              "internalType": "uint256",
              "name": "totalValue",
              "type": "uint256"
            },
            {
              "internalType": "int256",
              "name": "yield",
              "type": "int256"
            }
          ],
          "internalType": "struct YieldManager.ProviderInfo",
          "name": "info",
          "type": "tuple"
        }
      ],
      "stateMutability": "view",
      "type": "function"
    },
    {
      "inputs": [],
      "name": "getTokenBalance",
      "outputs": [
        {
          "internalType": "uint256",
          "name": "",
          "type": "uint256"
        }
      ],
      "stateMutability": "view",
      "type": "function"
    },
    {
      "inputs": [
        {
          "internalType": "contract OptimismPortal",
          "name": "_portal",
          "type": "address"
        },
        {
          "internalType": "contract CrossDomainMessenger",
          "name": "_messenger",
          "type": "address"
        },
        {
          "internalType": "contract ETHYieldManager",
          "name": "_yieldManager",
          "type": "address"
        }
      ],
      "name": "initialize",
      "outputs": [],
      "stateMutability": "nonpayable",
      "type": "function"
    },
    {
      "inputs": [],
      "name": "insurance",
      "outputs": [
        {
          "internalType": "address",
          "name": "",
          "type": "address"
        }
      ],
      "stateMutability": "view",
      "type": "function"
    },
    {
      "inputs": [],
      "name": "insuranceFeeBips",
      "outputs": [
        {
          "internalType": "uint256",
          "name": "",
          "type": "uint256"
        }
      ],
      "stateMutability": "view",
      "type": "function"
    },
    {
      "inputs": [],
      "name": "insuranceWithdrawalBuffer",
      "outputs": [
        {
          "internalType": "uint256",
          "name": "",
          "type": "uint256"
        }
      ],
      "stateMutability": "view",
      "type": "function"
    },
    {
      "inputs": [],
      "name": "lockedValue",
      "outputs": [
        {
          "internalType": "uint256",
          "name": "",
          "type": "uint256"
        }
      ],
      "stateMutability": "view",
      "type": "function"
    },
    {
      "inputs": [],
      "name": "messenger",
      "outputs": [
        {
          "internalType": "contract CrossDomainMessenger",
          "name": "",
          "type": "address"
        }
      ],
      "stateMutability": "view",
      "type": "function"
    },
    {
      "inputs": [],
      "name": "otherBridge",
      "outputs": [
        {
          "internalType": "contract StandardBridge",
          "name": "",
          "type": "address"
        }
      ],
      "stateMutability": "view",
      "type": "function"
    },
    {
      "inputs": [],
      "name": "owner",
      "outputs": [
        {
          "internalType": "address",
          "name": "",
          "type": "address"
        }
      ],
      "stateMutability": "view",
      "type": "function"
    },
    {
      "inputs": [],
      "name": "pendingOwner",
      "outputs": [
        {
          "internalType": "address",
          "name": "",
          "type": "address"
        }
      ],
      "stateMutability": "view",
      "type": "function"
    },
    {
      "inputs": [],
      "name": "portal",
      "outputs": [
        {
          "internalType": "contract OptimismPortal",
          "name": "",
          "type": "address"
        }
      ],
      "stateMutability": "view",
      "type": "function"
    },
    {
      "inputs": [
        {
          "internalType": "address",
          "name": "provider",
          "type": "address"
        }
      ],
      "name": "removeProvider",
      "outputs": [],
      "stateMutability": "nonpayable",
      "type": "function"
    },
    {
      "inputs": [],
      "name": "renounceOwnership",
      "outputs": [],
      "stateMutability": "nonpayable",
      "type": "function"
    },
    {
      "inputs": [
        {
          "internalType": "address",
          "name": "_admin",
          "type": "address"
        }
      ],
      "name": "setAdmin",
      "outputs": [],
      "stateMutability": "nonpayable",
      "type": "function"
    },
    {
      "inputs": [
        {
          "internalType": "address",
          "name": "_blastBridge",
          "type": "address"
        }
      ],
      "name": "setBlastBridge",
      "outputs": [],
      "stateMutability": "nonpayable",
      "type": "function"
    },
    {
      "inputs": [
        {
          "internalType": "address",
          "name": "token",
          "type": "address"
        },
        {
          "internalType": "bool",
          "name": "approved",
          "type": "bool"
        },
        {
          "internalType": "uint8",
          "name": "decimals",
          "type": "uint8"
        },
        {
          "internalType": "address",
          "name": "provider",
          "type": "address"
        },
        {
          "internalType": "bool",
          "name": "reportStakedBalance",
          "type": "bool"
        }
      ],
      "name": "setETHYieldToken",
      "outputs": [],
      "stateMutability": "nonpayable",
      "type": "function"
    },
    {
      "inputs": [
        {
          "internalType": "address",
          "name": "_insurance",
          "type": "address"
        },
        {
          "internalType": "uint256",
          "name": "_insuranceFeeBips",
          "type": "uint256"
        },
        {
          "internalType": "uint256",
          "name": "_withdrawalBuffer",
          "type": "uint256"
        }
      ],
      "name": "setInsurance",
      "outputs": [],
      "stateMutability": "nonpayable",
      "type": "function"
    },
    {
      "inputs": [
        {
          "internalType": "address",
          "name": "token",
          "type": "address"
        },
        {
          "internalType": "bool",
          "name": "approved",
          "type": "bool"
        },
        {
          "internalType": "uint8",
          "name": "decimals",
          "type": "uint8"
        },
        {
          "internalType": "address",
          "name": "provider",
          "type": "address"
        },
        {
          "internalType": "bool",
          "name": "reportStakedBalance",
          "type": "bool"
        }
      ],
      "name": "setUSDYieldToken",
      "outputs": [],
      "stateMutability": "nonpayable",
      "type": "function"
    },
    {
      "inputs": [],
      "name": "sharePrice",
      "outputs": [
        {
          "internalType": "uint256",
          "name": "",
          "type": "uint256"
        }
      ],
      "stateMutability": "view",
      "type": "function"
    },
    {
      "inputs": [
        {
          "internalType": "uint256",
          "name": "idx",
          "type": "uint256"
        },
        {
          "internalType": "address",
          "name": "providerAddress",
          "type": "address"
        },
        {
          "internalType": "uint256",
          "name": "amount",
          "type": "uint256"
        }
      ],
      "name": "stake",
      "outputs": [],
      "stateMutability": "nonpayable",
      "type": "function"
    },
    {
      "inputs": [],
      "name": "totalProviderValue",
      "outputs": [
        {
          "internalType": "uint256",
          "name": "sum",
          "type": "uint256"
        }
      ],
      "stateMutability": "view",
      "type": "function"
    },
    {
      "inputs": [],
      "name": "totalValue",
      "outputs": [
        {
          "internalType": "uint256",
          "name": "",
          "type": "uint256"
        }
      ],
      "stateMutability": "view",
      "type": "function"
    },
    {
      "inputs": [
        {
          "internalType": "address",
          "name": "newOwner",
          "type": "address"
        }
      ],
      "name": "transferOwnership",
      "outputs": [],
      "stateMutability": "nonpayable",
      "type": "function"
    },
    {
      "inputs": [
        {
          "internalType": "uint256",
          "name": "idx",
          "type": "uint256"
        },
        {
          "internalType": "address",
          "name": "providerAddress",
          "type": "address"
        },
        {
          "internalType": "uint256",
          "name": "amount",
          "type": "uint256"
        }
      ],
      "name": "unstake",
      "outputs": [],
      "stateMutability": "nonpayable",
      "type": "function"
    },
    {
      "inputs": [
        {
          "internalType": "address",
          "name": "",
          "type": "address"
        }
      ],
      "name": "usdYieldTokens",
      "outputs": [
        {
          "internalType": "bool",
          "name": "approved",
          "type": "bool"
        },
        {
          "internalType": "uint8",
          "name": "decimals",
          "type": "uint8"
        },
        {
          "internalType": "address",
          "name": "provider",
          "type": "address"
        },
        {
          "internalType": "bool",
          "name": "reportStakedBalance",
          "type": "bool"
        }
      ],
      "stateMutability": "view",
      "type": "function"
    },
    {
      "inputs": [],
      "name": "version",
      "outputs": [
        {
          "internalType": "string",
          "name": "",
          "type": "string"
        }
      ],
      "stateMutability": "view",
      "type": "function"
    },
    {
      "stateMutability": "payable",
      "type": "receive"
    }
  ],
  "address": "0x1b951354abcfA76BC5Af8C348ED462fBc9B9de04",
  "args": [],
  "bytecode": "0x60c06040523480156200001157600080fd5b50734200000000000000000000000000000000000024608052736b175474e89094c44da98b954eedeac495271d0f60a052620000506000808062000056565b620005f9565b600054610100900460ff1615808015620000775750600054600160ff909116105b80620000a757506200009430620001c860201b62002b511760201c565b158015620000a7575060005460ff166001145b620001105760405162461bcd60e51b815260206004820152602e60248201527f496e697469616c697a61626c653a20636f6e747261637420697320616c72656160448201526d191e481a5b9a5d1a585b1a5e995960921b60648201526084015b60405180910390fd5b6000805460ff19166001179055801562000134576000805461ff0019166101001790555b61012e80546001600160a01b0319166001600160a01b0384161790556200015b83620001d7565b620001668462000255565b6200017b620002f160201b62001d511760201c565b8015620001c2576000805461ff0019169055604051600181527f7f26b83ff96e1f2b6a682f133852f6798a09c465da95921460cefb38474024989060200160405180910390a15b50505050565b6001600160a01b03163b151590565b600054610100900460ff16620002335760405162461bcd60e51b815260206004820152602b602482015260008051602062005a2f83398151915260448201526a6e697469616c697a696e6760a81b606482015260840162000107565b600380546001600160a01b0319166001600160a01b0392909216919091179055565b600054610100900460ff16620002b15760405162461bcd60e51b815260206004820152602b602482015260008051602062005a2f83398151915260448201526a6e697469616c697a696e6760a81b606482015260840162000107565b620002bb620002f3565b620002c562000359565b61010280546001600160a01b039092166001600160a01b031992831617905560fc805490911633179055565b565b600054610100900460ff166200034f5760405162461bcd60e51b815260206004820152602b602482015260008051602062005a2f83398151915260448201526a6e697469616c697a696e6760a81b606482015260840162000107565b620002f16200051c565b600054610100900460ff16620003b55760405162461bcd60e51b815260206004820152602b602482015260008051602062005a2f83398151915260448201526a6e697469616c697a696e6760a81b606482015260840162000107565b604080516080810182526000808252602080830182815264ffffffffff42811685870190815260016060870181815260c880548084018255908852975160029889027fe71fac6fb785942cc6c6404a423f94f32a28ae66d69ff41494c38bfd4788b2f8810180546001600160801b03939093166001600160801b03199093169290921790915594517fe71fac6fb785942cc6c6404a423f94f32a28ae66d69ff41494c38bfd4788b2f99095018054935191511515600160c81b0260ff60c81b1992909516600160a01b026001600160c81b03199094166001600160a01b039690961695909517929092179190911691909117909155845180860190955282855290840182815260cb805492830181559092529251929091027fa7ce836d032b2bf62b7e2097a8e0a6d8aeb35405ad15271e96d3b0188a1d06fb810192909255517fa7ce836d032b2bf62b7e2097a8e0a6d8aeb35405ad15271e96d3b0188a1d06fc90910155565b600054610100900460ff16620005785760405162461bcd60e51b815260206004820152602b602482015260008051602062005a2f83398151915260448201526a6e697469616c697a696e6760a81b606482015260840162000107565b620002f133609680546001600160a01b0319169055620005a481620005a7602090811b62002b6017901c565b50565b606480546001600160a01b038381166001600160a01b0319831681179093556040519116919082907f8be0079c531659141344cd1fd0a4f28419497f9722a3daafe3b4186f6b6457e090600090a35050565b60805160a0516153d86200065760003960008181610cf301528181611ded015281816122460152818161299e0152612a050152600081816106c50152818161083f01528181610b1201528181610c0201526110a201526153d86000f3fe6080604052600436106102e85760003560e01c80638726972911610190578063d2c46932116100dc578063e7518fb611610095578063f21340e41161006f578063f21340e4146109ea578063f2fde38b14610a1a578063f851a44014610a3a578063fe1e7d7114610a5a57600080fd5b8063e7518fb614610989578063ebf413eb146109a9578063f0c8c0dd146109ca57600080fd5b8063d2c46932146108ba578063d4c3eea0146108cf578063d81dc899146108e4578063d9ffb9d614610938578063e11013dd14610958578063e30c39781461096b57600080fd5b8063b1d3c61e11610149578063c89701a211610123578063c89701a214610830578063c8fb153314610863578063d11b1ae014610883578063d24aefd11461089a57600080fd5b8063b1d3c61e146107e5578063bfdbfe83146107fb578063c0c53b8b1461081057600080fd5b8063872697291461071c57806389cf3204146107315780638a355a57146107515780638da5cb5b146107715780638f601f661461078f578063927ede2d146107c757600080fd5b806354fd4d501161024f578063704b6c021161020857806379ba5097116101e257806379ba50971461069e5780637f46ddb2146106b357806382b2e257146106e757806387087623146106fc57600080fd5b8063704b6c0214610649578063715018a61461066957806371ea21c21461067e57600080fd5b806354fd4d50146104f557806362abe3fa146105335780636425666b146105605780636734eb24146105815780636e9c931c146106095780636f3ed5e31461062957600080fd5b80632844be5f116102a15780632844be5f146103c35780633cb747bf146103e357806346e2577a1461041b57806351787ffa1461043b57806351a7c716146104b5578063540abf73146104d557600080fd5b80630166a07a1461031357806305261aea14610333578063095afaf41461036657806309fc8843146103865780630eb5238c146103995780631635f5fd146103b057600080fd5b3661030e5761030c33333462030d4060405180602001604052806000815250610a70565b005b600080fd5b34801561031f57600080fd5b5061030c61032e366004614659565b610bd0565b34801561033f57600080fd5b5061035361034e3660046146f1565b610e75565b6040519081526020015b60405180910390f35b34801561037257600080fd5b5061030c61038136600461474f565b610ef7565b61030c6103943660046147bf565b611009565b3480156103a557600080fd5b506103536101015481565b61030c6103be366004614812565b611070565b3480156103cf57600080fd5b506103536103de366004614885565b6112c8565b3480156103ef57600080fd5b50600354610403906001600160a01b031681565b6040516001600160a01b03909116815260200161035d565b34801561042757600080fd5b5061030c6104363660046148b1565b6114a2565b34801561044757600080fd5b5061045b6104563660046146f1565b6115f1565b60405161035d9190815181526020808301516001600160a01b03169082015260408083015190820152606080830151908201526080808301519082015260a0808301519082015260c0918201519181019190915260e00190565b3480156104c157600080fd5b5061030c6104d03660046148ce565b6118d5565b3480156104e157600080fd5b5061030c6104f0366004614906565b611a71565b34801561050157600080fd5b50610526604051806040016040528060058152602001640312e302e360dc1b81525081565b60405161035d91906149d5565b34801561053f57600080fd5b5061055361054e3660046149e8565b611abf565b60405161035d9190614a39565b34801561056c57600080fd5b5061010254610403906001600160a01b031681565b34801561058d57600080fd5b506105d561059c3660046148b1565b61012d6020526000908152604090205460ff8082169161010081048216916001600160a01b036201000083041691600160b01b90041684565b60408051941515855260ff90931660208501526001600160a01b03909116918301919091521515606082015260800161035d565b34801561061557600080fd5b5061030c6106243660046148ce565b611bde565b34801561063557600080fd5b5061030c610644366004614a7d565b611cad565b34801561065557600080fd5b5061030c6106643660046148b1565b611d02565b34801561067557600080fd5b5061030c611d3f565b34801561068a57600080fd5b5060fe54610403906001600160a01b031681565b3480156106aa57600080fd5b5061030c611d53565b3480156106bf57600080fd5b506104037f000000000000000000000000000000000000000000000000000000000000000081565b3480156106f357600080fd5b50610353611dcd565b34801561070857600080fd5b5061030c610717366004614ab2565b611e6f565b34801561072857600080fd5b50610353611ed3565b34801561073d57600080fd5b5060fd54610403906001600160a01b031681565b34801561075d57600080fd5b5061030c61076c3660046148b1565b611f34565b34801561077d57600080fd5b506064546001600160a01b0316610403565b34801561079b57600080fd5b506103536107aa366004614b35565b600260209081526000928352604080842090915290825290205481565b3480156107d357600080fd5b506003546001600160a01b0316610403565b3480156107f157600080fd5b5061035360ff5481565b34801561080757600080fd5b50610353611f47565b34801561081c57600080fd5b5061030c61082b366004614b6e565b611ff0565b34801561083c57600080fd5b507f0000000000000000000000000000000000000000000000000000000000000000610403565b34801561086f57600080fd5b5061030c61087e366004614bc7565b612129565b34801561088f57600080fd5b506103536101005481565b3480156108a657600080fd5b506103536108b5366004614c50565b6121e9565b3480156108c657600080fd5b5061035361222e565b3480156108db57600080fd5b506103536122b9565b3480156108f057600080fd5b506105d56108ff3660046148b1565b61012c6020526000908152604090205460ff8082169161010081048216916001600160a01b036201000083041691600160b01b90041684565b34801561094457600080fd5b5061030c610953366004614bc7565b6122d5565b61030c610966366004614c92565b612382565b34801561097757600080fd5b506096546001600160a01b0316610403565b34801561099557600080fd5b5061030c6109a4366004614ce9565b6123c5565b3480156109b557600080fd5b5061012e54610403906001600160a01b031681565b3480156109d657600080fd5b5061030c6109e53660046148b1565b612853565b3480156109f657600080fd5b50610a0a610a05366004614d06565b612890565b604051901515815260200161035d565b348015610a2657600080fd5b5061030c610a353660046148b1565b612ae0565b348015610a4657600080fd5b5060fc54610403906001600160a01b031681565b348015610a6657600080fd5b5061035361271081565b823414610aea5760405162461bcd60e51b815260206004820152603e60248201527f5374616e646172644272696467653a206272696467696e6720455448206d757360448201527f7420696e636c7564652073756666696369656e74204554482076616c7565000060648201526084015b60405180910390fd5b610af685858584612bb2565b6003546040516001600160a01b0390911690633dbb202b9085907f000000000000000000000000000000000000000000000000000000000000000090631635f5fd60e01b90610b4f908b908b9086908a90602401614d28565b60408051601f198184030181529181526020820180516001600160e01b03166001600160e01b03199485161790525160e086901b9092168252610b9792918890600401614d5b565b6000604051808303818588803b158015610bb057600080fd5b505af1158015610bc4573d6000803e3d6000fd5b50505050505050505050565b6003546001600160a01b031633148015610c7f575060035460408051636e296e4560e01b815290516001600160a01b037f00000000000000000000000000000000000000000000000000000000000000008116931691636e296e459160048083019260209291908290030181865afa158015610c50573d6000803e3d6000fd5b505050506040513d601f19601f82011682018060405250810190610c749190614d95565b6001600160a01b0316145b610c9b5760405162461bcd60e51b8152600401610ae190614db2565b306001600160a01b03851603610cc35760405162461bcd60e51b8152600401610ae190614e19565b6003546001600160a01b0390811690851603610cf15760405162461bcd60e51b8152600401610ae190614e5c565b7f00000000000000000000000000000000000000000000000000000000000000006001600160a01b0316876001600160a01b031614610d985760405162461bcd60e51b815260206004820152603b60248201527f4c31426c6173744272696467653a206f6e6c79204441492063616e206265207260448201527f65636569766564207468726f75676820746869732062726964676500000000006064820152608401610ae1565b6001600160a01b0386166022602160991b0114610e1d5760405162461bcd60e51b815260206004820152603d60248201527f4c31426c6173744272696467653a206f6e6c7920555344422063616e2062652060448201527f77697468647261776e207468726f7567682074686973206272696467650000006064820152608401610ae1565b610e61878787878787878080601f016020809104026020016040519081016040528093929190818152602001838380828437600092019190915250612c0592505050565b610e6b8484612c66565b5050505050505050565b60fc546000906001600160a01b03163314610ea357604051638dfa73db60e01b815260040160405180910390fd5b600080610ebf84610eb2611dcd565b610eba611ed3565b612e44565b60ff54909550919350915015610ef057610ed98183614eba565b60ff6000828254610eea9190614eba565b90915550505b5050919050565b60fc546001600160a01b03163314610f2257604051638dfa73db60e01b815260040160405180910390fd5b6001600160a01b038316610f3760fa866130aa565b6001600160a01b031614610f5e57604051638f700e7960e01b815260040160405180910390fd5b6000610fa584630d74982760e31b8585808060200260200160405190810160405280939291908181526020018383602002808284376000920191909152506130bf92505050565b604051635bd6854360e01b8152600481018290529091506001600160a01b03851690635bd6854390602401600060405180830381600087803b158015610fea57600080fd5b505af1158015610ffe573d6000803e3d6000fd5b505050505050505050565b333b156110285760405162461bcd60e51b8152600401610ae190614ed1565b61106b3333348686868080601f016020809104026020016040519081016040528093929190818152602001838380828437600092019190915250610a7092505050565b505050565b6003546001600160a01b03163314801561111f575060035460408051636e296e4560e01b815290516001600160a01b037f00000000000000000000000000000000000000000000000000000000000000008116931691636e296e459160048083019260209291908290030181865afa1580156110f0573d6000803e3d6000fd5b505050506040513d601f19601f820116820180604052508101906111149190614d95565b6001600160a01b0316145b61113b5760405162461bcd60e51b8152600401610ae190614db2565b8234146111b05760405162461bcd60e51b815260206004820152603a60248201527f5374616e646172644272696467653a20616d6f756e742073656e7420646f657360448201527f206e6f74206d6174636820616d6f756e742072657175697265640000000000006064820152608401610ae1565b306001600160a01b038516036111d85760405162461bcd60e51b8152600401610ae190614e19565b6003546001600160a01b03908116908516036112065760405162461bcd60e51b8152600401610ae190614e5c565b61124885858585858080601f0160208091040260200160405190810160405280939291908181526020018383808284376000920191909152506131a192505050565b6000611265855a86604051806020016040528060008152506131e6565b9050806112c05760405162461bcd60e51b815260206004820152602360248201527f5374616e646172644272696467653a20455448207472616e73666572206661696044820152621b195960ea1b6064820152608401610ae1565b505050505050565b60008315806112d8575060c95484115b156112f9576040516364b4f07960e11b815260048101859052602401610ae1565b60cc5483158061130857508083115b1561133057604051637189425760e01b81526004810185905260248101849052604401610ae1565b80158061133e575060ca5485115b8061134857508284115b1561135757600091505061149b565b60cb838154811061136a5761136a614f2e565b90600052602060002090600202016000015485106113db57808303611392578291505061149b565b60cb61139f846001614f44565b815481106113af576113af614f2e565b9060005260206000209060020201600001548510156113d1578291505061149b565b600091505061149b565b60cb84815481106113ee576113ee614f2e565b90600052602060002090600202016000015485101561141157600091505061149b565b83600061141f600186614eba565b90505b8181111561149657600060026114388484614f44565b611443906001614f44565b61144d9190614f5c565b90508760cb828154811061146357611463614f2e565b9060005260206000209060020201600001541161148257809250611490565b61148d600182614eba565b91505b50611422565b509150505b9392505050565b6114aa613200565b306001600160a01b0316816001600160a01b031663219ebb9c6040518163ffffffff1660e01b8152600401602060405180830381865afa1580156114f2573d6000803e3d6000fd5b505050506040513d601f19601f820116820180604052508101906115169190614d95565b6001600160a01b03161461153d57604051638d8eed3b60e01b815260040160405180910390fd5b61154860fa8261325a565b5060408051600481526024810182526020810180516001600160e01b031663204a7f0760e21b17905290516000916001600160a01b0384169161158b9190614f7e565b600060405180830381855af49150503d80600081146115c6576040519150601f19603f3d011682016040523d82523d6000602084013e6115cb565b606091505b50509050806115ed57604051630fb6449b60e21b815260040160405180910390fd5b5050565b61163d6040518060e001604052806000801916815260200160006001600160a01b0316815260200160008152602001600081526020016000815260200160008152602001600081525090565b600061164a60fa846130aa565b9050806001600160a01b031663af640d0f6040518163ffffffff1660e01b8152600401602060405180830381865afa15801561168a573d6000803e3d6000fd5b505050506040513d601f19601f820116820180604052508101906116ae9190614f9a565b82526001600160a01b038116602080840182905260408051632ed06c8560e11b81529051635da0d90a926004808401939192918290030181865afa1580156116fa573d6000803e3d6000fd5b505050506040513d601f19601f8201168201806040525081019061171e9190614f9a565b826040018181525050806001600160a01b03166357b4d18e6040518163ffffffff1660e01b8152600401602060405180830381865afa158015611765573d6000803e3d6000fd5b505050506040513d601f19601f820116820180604052508101906117899190614f9a565b826060018181525050806001600160a01b0316635b9f00166040518163ffffffff1660e01b8152600401602060405180830381865afa1580156117d0573d6000803e3d6000fd5b505050506040513d601f19601f820116820180604052508101906117f49190614f9a565b826080018181525050806001600160a01b031663bfdbfe836040518163ffffffff1660e01b8152600401602060405180830381865afa15801561183b573d6000803e3d6000fd5b505050506040513d601f19601f8201168201806040525081019061185f9190614f9a565b8260a0018181525050806001600160a01b031663285939846040518163ffffffff1660e01b8152600401602060405180830381865afa1580156118a6573d6000803e3d6000fd5b505050506040513d601f19601f820116820180604052508101906118ca9190614f9a565b60c083015250919050565b60fc546001600160a01b0316331461190057604051638dfa73db60e01b815260040160405180910390fd5b6001600160a01b03821661191560fa856130aa565b6001600160a01b03161461193c57604051638f700e7960e01b815260040160405180910390fd5b6000611950836305c2fbcf60e31b8461326f565b604051638e16afe960e01b8152600481018490529091506001600160a01b03841690638e16afe990602401600060405180830381600087803b15801561199557600080fd5b505af11580156119a9573d6000803e3d6000fd5b505050506000811115611a1557604051633b7a45db60e21b8152600481018290526001600160a01b0384169063ede9176c90602401600060405180830381600087803b1580156119f857600080fd5b505af1158015611a0c573d6000803e3d6000fd5b50505050611a6b565b604051635bd6854360e01b8152600481018390526001600160a01b03841690635bd6854390602401600060405180830381600087803b158015611a5757600080fd5b505af1158015610e6b573d6000803e3d6000fd5b50505050565b611ab687873388888888888080601f0160208091040260200160405190810160405280939291908181526020018383808284376000920191909152506132b292505050565b50505050505050565b60608367ffffffffffffffff811115611ada57611ada614fb3565b604051908082528060200260200182016040528015611b03578160200160208202803683370190505b5090506000805b85811015611bd45781878783818110611b2557611b25614f2e565b905060200201351015611b4b5760405163374e8bd160e01b815260040160405180910390fd5b611b6e878783818110611b6057611b60614f2e565b9050602002013586866112c8565b838281518110611b8057611b80614f2e565b602002602001018181525050828181518110611b9e57611b9e614f2e565b60200260200101519450868682818110611bba57611bba614f2e565b90506020020135915080611bcd90614fc9565b9050611b0a565b5050949350505050565b60fc546001600160a01b03163314611c0957604051638dfa73db60e01b815260040160405180910390fd5b6001600160a01b038216611c1e60fa856130aa565b6001600160a01b031614611c4557604051638f700e7960e01b815260040160405180910390fd5b611c578263534a7e1d60e11b83613891565b604051635dd7f8f160e11b8152600481018290526001600160a01b0383169063bbaff1e290602401600060405180830381600087803b158015611c9957600080fd5b505af1158015611ab6573d6000803e3d6000fd5b611cb5613200565b6001600160a01b038316611cc857600080fd5b612710821115611cd757600080fd5b60fd80546001600160a01b0319166001600160a01b0394909416939093179092556101005561010155565b611d0a613200565b6001600160a01b038116611d1d57600080fd5b60fc80546001600160a01b0319166001600160a01b0392909216919091179055565b611d47613200565b611d5160006138b9565b565b60965433906001600160a01b03168114611dc15760405162461bcd60e51b815260206004820152602960248201527f4f776e61626c6532537465703a2063616c6c6572206973206e6f7420746865206044820152683732bb9037bbb732b960b91b6064820152608401610ae1565b611dca816138b9565b50565b6000611dd860cd5490565b6040516370a0823160e01b81523060048201527f00000000000000000000000000000000000000000000000000000000000000006001600160a01b0316906370a0823190602401602060405180830381865afa158015611e3c573d6000803e3d6000fd5b505050506040513d601f19601f82011682018060405250810190611e609190614f9a565b611e6a9190614eba565b905090565b333b15611e8e5760405162461bcd60e51b8152600401610ae190614ed1565b6112c086863333888888888080601f0160208091040260200160405190810160405280939291908181526020018383808284376000920191909152506132b292505050565b600080611ede6122b9565b905080600003611f01576040516332feec7f60e21b815260040160405180910390fd5b60ff54611f0e9082614f44565b611f246b033b2e3c9fd0803ce800000083614fe2565b611f2e9190614f5c565b91505090565b611f3c613200565b6115ed60fa826138d2565b600080611f5460fa6138e7565b905060005b81811015611feb57611f6c60fa826130aa565b6001600160a01b031663bfdbfe836040518163ffffffff1660e01b8152600401602060405180830381865afa158015611fa9573d6000803e3d6000fd5b505050506040513d601f19601f82011682018060405250810190611fcd9190614f9a565b611fd79084614f44565b925080611fe381614fc9565b915050611f59565b505090565b600054610100900460ff16158080156120105750600054600160ff909116105b8061202a5750303b15801561202a575060005460ff166001145b61208d5760405162461bcd60e51b815260206004820152602e60248201527f496e697469616c697a61626c653a20636f6e747261637420697320616c72656160448201526d191e481a5b9a5d1a585b1a5e995960921b6064820152608401610ae1565b6000805460ff1916600117905580156120b0576000805461ff0019166101001790555b61012e80546001600160a01b0319166001600160a01b0384161790556120d5836138f1565b6120de8461393a565b8015611a6b576000805461ff0019169055604051600181527f7f26b83ff96e1f2b6a682f133852f6798a09c465da95921460cefb38474024989060200160405180910390a150505050565b612131613200565b6001600160a01b03851661214457600080fd5b60408051608081018252941515855260ff93841660208087019182526001600160a01b0394851687840190815293151560608801908152978516600090815261012c90915291909120945185549151925196511515600160b01b0260ff60b01b199790941662010000029690961662010000600160b81b0319929094166101000261ff00199615159690961661ffff1990911617949094179390931617919091179055565b60fc546000906001600160a01b0316331461221757604051638dfa73db60e01b815260040160405180910390fd5b6122238585858561399d565b90505b949350505050565b6040516370a0823160e01b81523060048201526000907f00000000000000000000000000000000000000000000000000000000000000006001600160a01b0316906370a0823190602401602060405180830381865afa158015612295573d6000803e3d6000fd5b505050506040513d601f19601f82011682018060405250810190611e6a9190614f9a565b60006122c3611f47565b6122cb61222e565b611e6a9190614f44565b6122dd613200565b60408051608081018252941515855260ff93841660208087019182526001600160a01b0394851687840190815293151560608801908152978516600090815261012d90915291909120945185549151925196511515600160b01b0260ff60b01b199790941662010000029690961662010000600160b81b0319929094166101000261ff00199615159690961661ffff1990911617949094179390931617919091179055565b611a6b3385348686868080601f016020809104026020016040519081016040528093929190818152602001838380828437600092019190915250610a7092505050565b60fc546001600160a01b031633146123f057604051638dfa73db60e01b815260040160405180910390fd5b60006123fc60fa6138e7565b90506000806000805b8481101561278757600061241a60fa836130aa565b6001600160a01b031663285939846040518163ffffffff1660e01b8152600401602060405180830381865afa158015612457573d6000803e3d6000fd5b505050506040513d601f19601f8201168201806040525081019061247b9190614f9a565b905060008780156124f3575061249260fa846130aa565b6001600160a01b0316634bfb431f6040518163ffffffff1660e01b8152600401602060405180830381865afa1580156124cf573d6000803e3d6000fd5b505050506040513d601f19601f820116820180604052508101906124f39190615001565b8015612509575060fd546001600160a01b031615155b156126425760008213156125625761271061010054836125299190614fe2565b6125339190614f5c565b905061255161254360fa856130aa565b6366785d9360e01b83613891565b61255b8187614f44565b9550612642565b60008212156126425760006101015461257a84613c04565b6125849190614f44565b9050600061259360fa866130aa565b6001600160a01b0316630577d6d56040518163ffffffff1660e01b8152600401602060405180830381865afa1580156125d0573d6000803e3d6000fd5b505050506040513d601f19601f820116820180604052508101906125f49190614f9a565b90508181101561261757604051633eb0171360e01b815260040160405180910390fd5b61263361262560fa876130aa565b6326dd5d6560e21b84613891565b61263d8288614f44565b965050505b600061264f60fa856130aa565b6001600160a01b031663f304f5e56040518163ffffffff1660e01b81526004016020604051808303816000875af115801561268e573d6000803e3d6000fd5b505050506040513d601f19601f820116820180604052508101906126b29190614f9a565b905088801561272857506126c760fa856130aa565b6001600160a01b0316634bfb431f6040518163ffffffff1660e01b8152600401602060405180830381865afa158015612704573d6000803e3d6000fd5b505050506040513d601f19601f820116820180604052508101906127289190615001565b801561273e575060fd546001600160a01b031615155b156127655760008112156127655760405163ef0175db60e01b815260040160405180910390fd5b61276f818661501e565b9450505050808061277f90614fc9565b915050612405565b5060ff54156127a05760ff5461279d908261505f565b90505b60408051828152602081018590529081018390527ede4b58e7863b1e3dce7259a138136239427388d53e4844f369cdee7a81dbf59060600160405180910390a160008112156127fd576127f58160001961509e565b60ff5561284c565b600060ff81905581131561284c576040805160248082018490528251808303909101815260449091019091526020810180516001600160e01b0316635b9af12b60e01b17905261284c90613c1b565b5050505050565b61285b613200565b6001600160a01b03811661286e57600080fd5b60fe80546001600160a01b0319166001600160a01b0392909216919091179055565b6000826000036128b6576040516364b4f07960e11b815260048101849052602401610ae1565b60ca548311156128dc5760405163095ca04560e31b815260048101849052602401610ae1565b600060c884815481106128f1576128f1614f2e565b906000526020600020906002020190508060010160199054906101000a900460ff16156129345760405163f0e0cc2d60e01b815260048101859052602401610ae1565b60018101805460ff60c81b1916600160c81b17905560006129558585613c8d565b90508060cd60008282546129699190614eba565b909155505060018201546001600160a01b031633811461299c5760405163f406fde960e01b815260040160405180910390fd5b7f00000000000000000000000000000000000000000000000000000000000000006001600160a01b03166129df576129d881620186a084613e73565b9350612a75565b60405163a9059cbb60e01b81526001600160a01b038281166004830152602482018490527f0000000000000000000000000000000000000000000000000000000000000000169063a9059cbb906044016020604051808303816000875af1158015612a4e573d6000803e3d6000fd5b505050506040513d601f19601f82011682018060405250810190612a729190615001565b93505b83612a9357604051634c82c35160e11b815260040160405180910390fd5b806001600160a01b0316867f8adb7a84b2998a8d11cd9284395f95d5a99f160be785ae79998c654979bd3d9a84604051612acf91815260200190565b60405180910390a350505092915050565b612ae8613200565b609680546001600160a01b0383166001600160a01b03199091168117909155612b196064546001600160a01b031690565b6001600160a01b03167f38d16b8cac22d99fc7c124b9cd0de2d3fa1faef420bfe791d8c362d765e2270060405160405180910390a350565b6001600160a01b03163b151590565b606480546001600160a01b038381166001600160a01b0319831681179093556040519116919082907f8be0079c531659141344cd1fd0a4f28419497f9722a3daafe3b4186f6b6457e090600090a35050565b826001600160a01b0316846001600160a01b03167f2849b43074093a05396b6f2a937dee8565b15a48a7b3d4bffb732a5017380af58484604051612bf7929190615123565b60405180910390a350505050565b836001600160a01b0316856001600160a01b0316876001600160a01b03167fd59c65b35445225835c83f50b6ede06a7be047d22e357073e250d9af537518cd868686604051612c569392919061513c565b60405180910390a4505050505050565b60008060c9549050600060c88281548110612c8357612c83614f2e565b600091825260208083206040805160808101825260029490940290910180546001600160801b03168085526001909101546001600160a01b03811693850193909352600160a01b830464ffffffffff1691840191909152600160c81b90910460ff1615156060830152909250612cfa908690615163565b9050612d07836001614f44565b60c9819055604080516080810182526001600160801b0384811682526001600160a01b038a811660208085018281524264ffffffffff90811687890190815260006060890181815260c88054600181018255925289517fe71fac6fb785942cc6c6404a423f94f32a28ae66d69ff41494c38bfd4788b2f8600290930292830180546001600160801b03191691909a161790985592517fe71fac6fb785942cc6c6404a423f94f32a28ae66d69ff41494c38bfd4788b2f9909301805491519751939096166001600160c81b031990911617600160a01b96909116959095029490941760ff60c81b1916600160c81b941515949094029390931790915592518981529397509092339188917eae2c76ca218353c7995e13a4af773a35837cb6ebb8288092d8190bcd9c8f68910160405180910390a45050505092915050565b60008060006b033b2e3c9fd0803ce8000000841115612e765760405163e5dd50c360e01b815260040160405180910390fd5b85156130a15760c954861115612ea2576040516364b4f07960e11b815260048101879052602401610ae1565b60ca54808711612ec8576040516364b4f07960e11b815260048101889052602401610ae1565b600060c88281548110612edd57612edd614f2e565b6000918252602080832060408051608081018252600290940290910180546001600160801b03168452600101546001600160a01b0381169284019290925264ffffffffff600160a01b8304169083015260ff600160c81b909104161515606082015260c88054919350908a908110612f5757612f57614f2e565b60009182526020918290206040805160808101825260029390930290910180546001600160801b03168084526001909101546001600160a01b03811694840194909452600160a01b840464ffffffffff1691830191909152600160c81b90920460ff16151560608201528351909250612fcf9161518e565b6001600160801b031695506b033b2e3c9fd0803ce8000000612ff18888614fe2565b612ffb9190614f5c565b94508785111561301e57604051631e9acf1760e31b815260040160405180910390fd5b600061302b846001614f44565b90508560cd600082825461303f9190614f44565b909155505060ca8a90556130538189613e89565b604080518881524260208201529081018a905290955085908b9083907f59382740d48c89a44d8866c8e7071aa24351a82e5f38e4674ab82aa8a18119bc9060600160405180910390a4505050505b93509350939050565b60006130b68383613f26565b90505b92915050565b6000806000856001600160a01b031685856040516020016130e19291906151b6565b60408051601f19818403018152908290526130fb91614f7e565b600060405180830381855af49150503d8060008114613136576040519150601f19603f3d011682016040523d82523d6000602084013e61313b565b606091505b5091509150816131835760405162461bcd60e51b815260206004820152601360248201527219195b1959d85d1958d85b1b0819985a5b1959606a1b6044820152606401610ae1565b808060200190518101906131979190614f9a565b9695505050505050565b826001600160a01b0316846001600160a01b03167f31b2166ff604fc5672ea5df08a78081d2bc6d746cadce880747f3643d819e83d8484604051612bf7929190615123565b600080600080845160208601878a8af19695505050505050565b6064546001600160a01b03163314611d515760405162461bcd60e51b815260206004820181905260248201527f4f776e61626c653a2063616c6c6572206973206e6f7420746865206f776e65726044820152606401610ae1565b60006130b6836001600160a01b038416613f50565b600060405160248101604052838152826004820152600080602483885af43d806000843e8180156132a357835194506132a7565b8184fd5b505050509392505050565b6001600160a01b03808816600081815261012d60209081526040808320815160808082018452915460ff80821615158352610100808304821684880152620100008084048b1685880152600160b01b938490048316151560608087019190915299895261012c88529786902086519586018752548083161515865290810482169685019690965295850490971692820192909252949091049091161515918301919091528051909190156135b9576001600160a01b0388166022602160991b01146133dd5760405162461bcd60e51b815260206004820152603560248201527f4c31426c6173744272696467653a207468697320746f6b656e2063616e206f6e604482015274363c90313290313934b233b2b2103a37902aa9a22160591b6064820152608401610ae1565b6040516323b872dd60e01b81526001600160a01b038881166004830152306024830152604482018790528a16906323b872dd906064016020604051808303816000875af1158015613432573d6000803e3d6000fd5b505050506040513d601f19601f820116820180604052508101906134569190615001565b50600061346c86846020015160ff166012613f9f565b9050600061347b8b8387613fee565b90508360600151156134ac5760408401516001600160a01b031661349e57600080fd5b6134ac8460400151826140dd565b600360009054906101000a90046001600160a01b03166001600160a01b0316633dbb202b6024602160991b01630166a07a60e01b736b175474e89094c44da98b954eedeac495271d0f6022602160991b018e8e888d604051602401613516969594939291906151f1565b60408051601f198184030181529181526020820180516001600160e01b03166001600160e01b03199485161790525160e085901b909216825261355e92918b90600401614d5b565b600060405180830381600087803b15801561357857600080fd5b505af115801561358c573d6000803e3d6000fd5b505050506135b2736b175474e89094c44da98b954eedeac495271d0f8b8b8b858a61415b565b5050610ffe565b805115613834576001600160a01b038816156136335760405162461bcd60e51b815260206004820152603360248201527f4c31426c6173744272696467653a207468697320746f6b656e2063616e206f6e6044820152720d8f240c4ca40c4e4d2c8ceca40e8de408aa89606b1b6064820152608401610ae1565b61012e546040516323b872dd60e01b81526001600160a01b038981166004830152918216602482015260448101879052908a16906323b872dd906064016020604051808303816000875af115801561368f573d6000803e3d6000fd5b505050506040513d601f19601f820116820180604052508101906136b39190615001565b508060600151156137415760408101516001600160a01b03166136d557600080fd5b61012e546040828101519051632565663160e21b81526001600160a01b0391821660048201526024810188905291169063959598c490604401600060405180830381600087803b15801561372857600080fd5b505af115801561373c573d6000803e3d6000fd5b505050505b61010260009054906101000a90046001600160a01b03166001600160a01b031663e9e05c426024602160991b018762030d40600063a47a5c3560e01b8d8d6137928e8b6020015160ff166012613f9f565b8c6040516024016137a69493929190614d28565b60408051601f198184030181529181526020820180516001600160e01b03166001600160e01b03199485161790525160e088901b90921682526137ef9594939291600401615234565b600060405180830381600087803b15801561380957600080fd5b505af115801561381d573d6000803e3d6000fd5b5050505061382f89898989898861415b565b610ffe565b60405162461bcd60e51b815260206004820152602c60248201527f4c31426c6173744272696467653a2062726964676520746f6b656e206973206e60448201526b1bdd081cdd5c1c1bdc9d195960a21b6064820152608401610ae1565b60405160248101604052828152816004820152600080602483875af4905080611a6b57600080fd5b609680546001600160a01b0319169055611dca81612b60565b60006130b6836001600160a01b0384166141ac565b60006130b9825490565b600054610100900460ff166139185760405162461bcd60e51b8152600401610ae19061527a565b600380546001600160a01b0319166001600160a01b0392909216919091179055565b600054610100900460ff166139615760405162461bcd60e51b8152600401610ae19061527a565b61396961429f565b6139716142ce565b61010280546001600160a01b039092166001600160a01b031992831617905560fc805490911633179055565b60008085600f0b121580156139b55750600385600f0b125b80156139c55750600084600f0b12155b80156139d45750600384600f0b125b6139dd57600080fd5b83600f0b85600f0b036139ef57600080fd5b8215612226576000613a01848761445c565b90506000613a0f848761445c565b905081613a1b88614491565b1015613a3a57604051631e9acf1760e31b815260040160405180910390fd5b6000613a4587614491565b9050600f88900b6001148015613a5d5750600f87900b155b15613ad357604051634acc893b60e11b8152306004820152602481018490527389b78cfa322f6c5de0abceecab66aee45393cc5a906395991276906044015b600060405180830381600087803b158015613ab657600080fd5b505af1158015613aca573d6000803e3d6000fd5b50505050613bc2565b600f88900b158015613ae95750600f87900b6001145b15613b43577389b78cfa322f6c5de0abceecab66aee45393cc5a638d7ef9bb30613b1286614506565b6040516001600160e01b031960e085901b1681526001600160a01b0390921660048301526024820152604401613a9c565b604051630f7c084960e21b8152600f89810b600483015288900b6024820152604481018490526064810183905273bebc44782c7db0a1a60cb6fe97d0b483032ff1c790633df0212490608401600060405180830381600087803b158015613ba957600080fd5b505af1158015613bbd573d6000803e3d6000fd5b505050505b80613bcc88614491565b613bd69190614eba565b935081841015613bf957604051631b88e6f960e31b815260040160405180910390fd5b505050949350505050565b600080821215613c1757816000036130b9565b5090565b610102546040516374f02e2160e11b81526001600160a01b039091169063e9e05c4290613c5f906022602160991b019060009062030d409082908890600401615234565b600060405180830381600087803b158015613c7957600080fd5b505af115801561284c573d6000803e3d6000fd5b600081600003613cb357604051636773bc7160e11b815260048101839052602401610ae1565b60cc5480831115613cda57604051636773bc7160e11b815260048101849052602401610ae1565b600060cb8481548110613cef57613cef614f2e565b90600052602060002090600202016040518060400160405290816000820154815260200160018201548152505090508060000151851015613d4657604051636773bc7160e11b815260048101859052602401610ae1565b81841015613dc557600060cb613d5d866001614f44565b81548110613d6d57613d6d614f2e565b906000526020600020906002020160405180604001604052908160008201548152602001600182015481525050905080600001518610613dc357604051636773bc7160e11b815260048101869052602401610ae1565b505b600060c8613dd4600188614eba565b81548110613de457613de4614f2e565b90600052602060002090600202019050600060c88781548110613e0957613e09614f2e565b60009182526020822084546002909202018054909350613e35916001600160801b03908116911661518e565b6001600160801b031690506b033b2e3c9fd0803ce8000000846020015182613e5d9190614fe2565b613e679190614f5c565b98975050505050505050565b600080600080600080868989f195945050505050565b604080518082019091528281526020810182815260cb805460018082018355600092835293517fa7ce836d032b2bf62b7e2097a8e0a6d8aeb35405ad15271e96d3b0188a1d06fb60029092029182015591517fa7ce836d032b2bf62b7e2097a8e0a6d8aeb35405ad15271e96d3b0188a1d06fc9092019190915560cc80549192918390613f17908490614f44565b909155505060cc549392505050565b6000826000018281548110613f3d57613f3d614f2e565b9060005260206000200154905092915050565b6000818152600183016020526040812054613f97575081546001818101845560008481526020808220909301849055845484825282860190935260409020919091556130b9565b5060006130b9565b600081831115613fcf57613fb38284614eba565b613fbe90600a6153a9565b613fc89085614f5c565b905061149b565b613fd98383614eba565b613fe490600a6153a9565b613fc89085614fe2565b6000736b175474e89094c44da98b954eedeac495271d0e196001600160a01b0385160161401c57508161149b565b815160201461403e57604051633d5b82cb60e11b815260040160405180910390fd5b6000828060200190518101906140549190614f9a565b905073a0b86991c6218b36c1d19d4a2e9eb0ce3606eb47196001600160a01b038616016140915761408960016000868461399d565b91505061149b565b73dac17f958d2ee523a2206206994597c13d831ec6196001600160a01b038616016140c45761408960026000868461399d565b60405163350b944160e11b815260040160405180910390fd5b6140e860fa83614515565b6141055760405163b1cd090360e01b815260040160405180910390fd5b604051635dd7f8f160e11b8152600481018290526001600160a01b0383169063bbaff1e290602401600060405180830381600087803b15801561414757600080fd5b505af11580156112c0573d6000803e3d6000fd5b836001600160a01b0316856001600160a01b0316876001600160a01b03167f7ff126db8024424bbfd9826e8ab82ff59136289ea440b04b39a0df1b03b9cabf868686604051612c569392919061513c565b600081815260018301602052604081205480156142955760006141d0600183614eba565b85549091506000906141e490600190614eba565b905081811461424957600086600001828154811061420457614204614f2e565b906000526020600020015490508087600001848154811061422757614227614f2e565b6000918252602080832090910192909255918252600188019052604090208390555b855486908061425a5761425a6153b5565b6001900381819060005260206000200160009055905585600101600086815260200190815260200160002060009055600193505050506130b9565b60009150506130b9565b600054610100900460ff166142c65760405162461bcd60e51b8152600401610ae19061527a565b611d51614537565b600054610100900460ff166142f55760405162461bcd60e51b8152600401610ae19061527a565b604080516080810182526000808252602080830182815264ffffffffff42811685870190815260016060870181815260c880548084018255908852975160029889027fe71fac6fb785942cc6c6404a423f94f32a28ae66d69ff41494c38bfd4788b2f8810180546001600160801b03939093166001600160801b03199093169290921790915594517fe71fac6fb785942cc6c6404a423f94f32a28ae66d69ff41494c38bfd4788b2f99095018054935191511515600160c81b0260ff60c81b1992909516600160a01b026001600160c81b03199094166001600160a01b039690961695909517929092179190911691909117909155845180860190955282855290840182815260cb805492830181559092529251929091027fa7ce836d032b2bf62b7e2097a8e0a6d8aeb35405ad15271e96d3b0188a1d06fb810192909255517fa7ce836d032b2bf62b7e2097a8e0a6d8aeb35405ad15271e96d3b0188a1d06fc90910155565b6000600f82900b600214806144755750600f82900b6001145b1561448a5761448383614506565b90506130b9565b5090919050565b600061449c82614567565b6040516370a0823160e01b81523060048201526001600160a01b0391909116906370a0823190602401602060405180830381865afa1580156144e2573d6000803e3d6000fd5b505050506040513d601f19601f820116820180604052508101906130b99190614f9a565b60006130b98260126006613f9f565b6001600160a01b038116600090815260018301602052604081205415156130b6565b600054610100900460ff1661455e5760405162461bcd60e51b8152600401610ae19061527a565b611d51336138b9565b6000600019600f83900b01614591575073a0b86991c6218b36c1d19d4a2e9eb0ce3606eb48919050565b600119600f83900b016145b9575073dac17f958d2ee523a2206206994597c13d831ec7919050565b600f82900b6145dd5750736b175474e89094c44da98b954eedeac495271d0f919050565b60405163609f982f60e01b815260040160405180910390fd5b919050565b6001600160a01b0381168114611dca57600080fd5b60008083601f84011261462257600080fd5b50813567ffffffffffffffff81111561463a57600080fd5b60208301915083602082850101111561465257600080fd5b9250929050565b600080600080600080600060c0888a03121561467457600080fd5b873561467f816145fb565b9650602088013561468f816145fb565b9550604088013561469f816145fb565b945060608801356146af816145fb565b93506080880135925060a088013567ffffffffffffffff8111156146d257600080fd5b6146de8a828b01614610565b989b979a50959850939692959293505050565b60006020828403121561470357600080fd5b5035919050565b60008083601f84011261471c57600080fd5b50813567ffffffffffffffff81111561473457600080fd5b6020830191508360208260051b850101111561465257600080fd5b6000806000806060858703121561476557600080fd5b843593506020850135614777816145fb565b9250604085013567ffffffffffffffff81111561479357600080fd5b61479f8782880161470a565b95989497509550505050565b803563ffffffff811681146145f657600080fd5b6000806000604084860312156147d457600080fd5b6147dd846147ab565b9250602084013567ffffffffffffffff8111156147f957600080fd5b61480586828701614610565b9497909650939450505050565b60008060008060006080868803121561482a57600080fd5b8535614835816145fb565b94506020860135614845816145fb565b935060408601359250606086013567ffffffffffffffff81111561486857600080fd5b61487488828901614610565b969995985093965092949392505050565b60008060006060848603121561489a57600080fd5b505081359360208301359350604090920135919050565b6000602082840312156148c357600080fd5b813561149b816145fb565b6000806000606084860312156148e357600080fd5b8335925060208401356148f5816145fb565b929592945050506040919091013590565b600080600080600080600060c0888a03121561492157600080fd5b873561492c816145fb565b9650602088013561493c816145fb565b9550604088013561494c816145fb565b945060608801359350614961608089016147ab565b925060a088013567ffffffffffffffff8111156146d257600080fd5b60005b83811015614998578181015183820152602001614980565b83811115611a6b5750506000910152565b600081518084526149c181602086016020860161497d565b601f01601f19169290920160200192915050565b6020815260006130b660208301846149a9565b600080600080606085870312156149fe57600080fd5b843567ffffffffffffffff811115614a1557600080fd5b614a218782880161470a565b90989097506020870135966040013595509350505050565b6020808252825182820181905260009190848201906040850190845b81811015614a7157835183529284019291840191600101614a55565b50909695505050505050565b600080600060608486031215614a9257600080fd5b8335614a9d816145fb565b95602085013595506040909401359392505050565b60008060008060008060a08789031215614acb57600080fd5b8635614ad6816145fb565b95506020870135614ae6816145fb565b945060408701359350614afb606088016147ab565b9250608087013567ffffffffffffffff811115614b1757600080fd5b614b2389828a01614610565b979a9699509497509295939492505050565b60008060408385031215614b4857600080fd5b8235614b53816145fb565b91506020830135614b63816145fb565b809150509250929050565b600080600060608486031215614b8357600080fd5b8335614b8e816145fb565b92506020840135614b9e816145fb565b91506040840135614bae816145fb565b809150509250925092565b8015158114611dca57600080fd5b600080600080600060a08688031215614bdf57600080fd5b8535614bea816145fb565b94506020860135614bfa81614bb9565b9350604086013560ff81168114614c1057600080fd5b92506060860135614c20816145fb565b91506080860135614c3081614bb9565b809150509295509295909350565b8035600f81900b81146145f657600080fd5b60008060008060808587031215614c6657600080fd5b614c6f85614c3e565b9350614c7d60208601614c3e565b93969395505050506040820135916060013590565b60008060008060608587031215614ca857600080fd5b8435614cb3816145fb565b9350614cc1602086016147ab565b9250604085013567ffffffffffffffff811115614cdd57600080fd5b61479f87828801614610565b600060208284031215614cfb57600080fd5b813561149b81614bb9565b60008060408385031215614d1957600080fd5b50508035926020909101359150565b6001600160a01b0385811682528416602082015260408101839052608060608201819052600090613197908301846149a9565b6001600160a01b0384168152606060208201819052600090614d7f908301856149a9565b905063ffffffff83166040830152949350505050565b600060208284031215614da757600080fd5b815161149b816145fb565b60208082526041908201527f5374616e646172644272696467653a2066756e6374696f6e2063616e206f6e6c60408201527f792062652063616c6c65642066726f6d20746865206f746865722062726964676060820152606560f81b608082015260a00190565b60208082526023908201527f5374616e646172644272696467653a2063616e6e6f742073656e6420746f207360408201526232b63360e91b606082015260800190565b60208082526028908201527f5374616e646172644272696467653a2063616e6e6f742073656e6420746f206d60408201526732b9b9b2b733b2b960c11b606082015260800190565b634e487b7160e01b600052601160045260246000fd5b600082821015614ecc57614ecc614ea4565b500390565b60208082526037908201527f5374616e646172644272696467653a2066756e6374696f6e2063616e206f6e6c60408201527f792062652063616c6c65642066726f6d20616e20454f41000000000000000000606082015260800190565b634e487b7160e01b600052603260045260246000fd5b60008219821115614f5757614f57614ea4565b500190565b600082614f7957634e487b7160e01b600052601260045260246000fd5b500490565b60008251614f9081846020870161497d565b9190910192915050565b600060208284031215614fac57600080fd5b5051919050565b634e487b7160e01b600052604160045260246000fd5b600060018201614fdb57614fdb614ea4565b5060010190565b6000816000190483118215151615614ffc57614ffc614ea4565b500290565b60006020828403121561501357600080fd5b815161149b81614bb9565b600080821280156001600160ff1b038490038513161561504057615040614ea4565b600160ff1b839003841281161561505957615059614ea4565b50500190565b60008083128015600160ff1b85018412161561507d5761507d614ea4565b6001600160ff1b038401831381161561509857615098614ea4565b50500390565b60006001600160ff1b03818413828413808216868404861116156150c4576150c4614ea4565b600160ff1b60008712828116878305891216156150e3576150e3614ea4565b600087129250878205871284841616156150ff576150ff614ea4565b8785058712818416161561511557615115614ea4565b505050929093029392505050565b82815260406020820152600061222660408301846149a9565b60018060a01b038416815282602082015260606040820152600061222360608301846149a9565b60006001600160801b0380831681851680830382111561518557615185614ea4565b01949350505050565b60006001600160801b03838116908316818110156151ae576151ae614ea4565b039392505050565b82815260006020808301845182860160005b828110156151e4578151845292840192908401906001016151c8565b5091979650505050505050565b6001600160a01b03878116825286811660208301528581166040830152841660608201526080810183905260c060a08201819052600090613e67908301846149a9565b60018060a01b038616815284602082015263ffffffff84166040820152821515606082015260a06080820152600061526f60a08301846149a9565b979650505050505050565b6020808252602b908201527f496e697469616c697a61626c653a20636f6e7472616374206973206e6f74206960408201526a6e697469616c697a696e6760a81b606082015260800190565b600181815b808511156153005781600019048211156152e6576152e6614ea4565b808516156152f357918102915b93841c93908002906152ca565b509250929050565b600082615317575060016130b9565b81615324575060006130b9565b816001811461533a576002811461534457615360565b60019150506130b9565b60ff84111561535557615355614ea4565b50506001821b6130b9565b5060208310610133831016604e8410600b8410161715615383575081810a6130b9565b61538d83836152c5565b80600019048211156153a1576153a1614ea4565b029392505050565b60006130b68383615308565b634e487b7160e01b600052603160045260246000fdfea164736f6c634300080f000a496e697469616c697a61626c653a20636f6e7472616374206973206e6f742069",
  "solcInputHash": "0x0000000000000000000000000000000000000000000000000000000000000000",
  "storageLayout": {
    "storage": [
      {
        "astId": 29667,
        "contract": "src/mainnet-bridge/L1BlastBridge.sol:L1BlastBridge",
        "label": "_initialized",
        "offset": 0,
        "slot": "0",
        "type": "t_uint8"
      },
      {
        "astId": 29670,
        "contract": "src/mainnet-bridge/L1BlastBridge.sol:L1BlastBridge",
        "label": "_initializing",
        "offset": 1,
        "slot": "0",
        "type": "t_bool"
      },
      {
        "astId": 88778,
        "contract": "src/mainnet-bridge/L1BlastBridge.sol:L1BlastBridge",
        "label": "spacer_0_2_20",
        "offset": 2,
        "slot": "0",
        "type": "t_address"
      },
      {
        "astId": 88781,
        "contract": "src/mainnet-bridge/L1BlastBridge.sol:L1BlastBridge",
        "label": "spacer_1_0_20",
        "offset": 0,
        "slot": "1",
        "type": "t_address"
      },
      {
        "astId": 88788,
        "contract": "src/mainnet-bridge/L1BlastBridge.sol:L1BlastBridge",
        "label": "deposits",
        "offset": 0,
        "slot": "2",
        "type": "t_mapping(t_address,t_mapping(t_address,t_uint256))"
      },
      {
        "astId": 88792,
        "contract": "src/mainnet-bridge/L1BlastBridge.sol:L1BlastBridge",
        "label": "messenger",
        "offset": 0,
        "slot": "3",
        "type": "t_contract(CrossDomainMessenger)86636"
      },
      {
        "astId": 88797,
        "contract": "src/mainnet-bridge/L1BlastBridge.sol:L1BlastBridge",
        "label": "__gap",
        "offset": 0,
        "slot": "4",
        "type": "t_array(t_uint256)46_storage"
      },
      {
        "astId": 31363,
        "contract": "src/mainnet-bridge/L1BlastBridge.sol:L1BlastBridge",
        "label": "__gap",
        "offset": 0,
        "slot": "50",
        "type": "t_array(t_uint256)50_storage"
      },
      {
        "astId": 29514,
        "contract": "src/mainnet-bridge/L1BlastBridge.sol:L1BlastBridge",
        "label": "_owner",
        "offset": 0,
        "slot": "100",
        "type": "t_address"
      },
      {
        "astId": 29634,
        "contract": "src/mainnet-bridge/L1BlastBridge.sol:L1BlastBridge",
        "label": "__gap",
        "offset": 0,
        "slot": "101",
        "type": "t_array(t_uint256)49_storage"
      },
      {
        "astId": 29423,
        "contract": "src/mainnet-bridge/L1BlastBridge.sol:L1BlastBridge",
        "label": "_pendingOwner",
        "offset": 0,
        "slot": "150",
        "type": "t_address"
      },
      {
        "astId": 29502,
        "contract": "src/mainnet-bridge/L1BlastBridge.sol:L1BlastBridge",
        "label": "__gap",
        "offset": 0,
        "slot": "151",
        "type": "t_array(t_uint256)49_storage"
      },
      {
        "astId": 81260,
        "contract": "src/mainnet-bridge/L1BlastBridge.sol:L1BlastBridge",
        "label": "requests",
        "offset": 0,
        "slot": "200",
        "type": "t_array(t_struct(WithdrawalRequest)81290_storage)dyn_storage"
      },
      {
        "astId": 81262,
        "contract": "src/mainnet-bridge/L1BlastBridge.sol:L1BlastBridge",
        "label": "lastRequestId",
        "offset": 0,
        "slot": "201",
        "type": "t_uint256"
      },
      {
        "astId": 81264,
        "contract": "src/mainnet-bridge/L1BlastBridge.sol:L1BlastBridge",
        "label": "lastFinalizedRequestId",
        "offset": 0,
        "slot": "202",
        "type": "t_uint256"
      },
      {
        "astId": 81268,
        "contract": "src/mainnet-bridge/L1BlastBridge.sol:L1BlastBridge",
        "label": "checkpoints",
        "offset": 0,
        "slot": "203",
        "type": "t_array(t_struct(Checkpoint)81311_storage)dyn_storage"
      },
      {
        "astId": 81270,
        "contract": "src/mainnet-bridge/L1BlastBridge.sol:L1BlastBridge",
        "label": "lastCheckpointId",
        "offset": 0,
        "slot": "204",
        "type": "t_uint256"
      },
      {
        "astId": 81272,
        "contract": "src/mainnet-bridge/L1BlastBridge.sol:L1BlastBridge",
        "label": "lockedAmount",
        "offset": 0,
        "slot": "205",
        "type": "t_uint256"
      },
      {
        "astId": 81277,
        "contract": "src/mainnet-bridge/L1BlastBridge.sol:L1BlastBridge",
        "label": "__gap",
        "offset": 0,
        "slot": "206",
        "type": "t_array(t_uint256)44_storage"
      },
      {
        "astId": 80248,
        "contract": "src/mainnet-bridge/L1BlastBridge.sol:L1BlastBridge",
        "label": "_providers",
        "offset": 0,
        "slot": "250",
        "type": "t_struct(AddressSet)41257_storage"
      },
      {
        "astId": 80251,
        "contract": "src/mainnet-bridge/L1BlastBridge.sol:L1BlastBridge",
        "label": "admin",
        "offset": 0,
        "slot": "252",
        "type": "t_address"
      },
      {
        "astId": 80254,
        "contract": "src/mainnet-bridge/L1BlastBridge.sol:L1BlastBridge",
        "label": "insurance",
        "offset": 0,
        "slot": "253",
        "type": "t_address"
      },
      {
        "astId": 80257,
        "contract": "src/mainnet-bridge/L1BlastBridge.sol:L1BlastBridge",
        "label": "blastBridge",
        "offset": 0,
        "slot": "254",
        "type": "t_address"
      },
      {
        "astId": 80260,
        "contract": "src/mainnet-bridge/L1BlastBridge.sol:L1BlastBridge",
        "label": "accumulatedNegativeYields",
        "offset": 0,
        "slot": "255",
        "type": "t_uint256"
      },
      {
        "astId": 80263,
        "contract": "src/mainnet-bridge/L1BlastBridge.sol:L1BlastBridge",
        "label": "insuranceFeeBips",
        "offset": 0,
        "slot": "256",
        "type": "t_uint256"
      },
      {
        "astId": 80266,
        "contract": "src/mainnet-bridge/L1BlastBridge.sol:L1BlastBridge",
        "label": "insuranceWithdrawalBuffer",
        "offset": 0,
        "slot": "257",
        "type": "t_uint256"
      },
      {
        "astId": 80270,
        "contract": "src/mainnet-bridge/L1BlastBridge.sol:L1BlastBridge",
        "label": "portal",
        "offset": 0,
        "slot": "258",
        "type": "t_contract(OptimismPortal)61652"
      },
      {
        "astId": 81141,
        "contract": "src/mainnet-bridge/L1BlastBridge.sol:L1BlastBridge",
        "label": "__gap",
        "offset": 0,
        "slot": "259",
        "type": "t_array(t_uint256)41_storage"
      },
      {
        "astId": 79032,
        "contract": "src/mainnet-bridge/L1BlastBridge.sol:L1BlastBridge",
        "label": "ethYieldTokens",
        "offset": 0,
        "slot": "300",
        "type": "t_mapping(t_address,t_struct(YieldToken)79026_storage)"
      },
      {
        "astId": 79038,
        "contract": "src/mainnet-bridge/L1BlastBridge.sol:L1BlastBridge",
        "label": "usdYieldTokens",
        "offset": 0,
        "slot": "301",
        "type": "t_mapping(t_address,t_struct(YieldToken)79026_storage)"
      },
      {
        "astId": 79042,
        "contract": "src/mainnet-bridge/L1BlastBridge.sol:L1BlastBridge",
        "label": "ethYieldManager",
        "offset": 0,
        "slot": "302",
        "type": "t_contract(ETHYieldManager)78847"
      }
    ],
    "types": {
      "t_address": {
        "encoding": "inplace",
        "label": "address",
        "numberOfBytes": "20"
      },
      "t_array(t_bytes32)dyn_storage": {
        "encoding": "dynamic_array",
        "label": "bytes32[]",
        "numberOfBytes": "32",
        "base": "t_bytes32"
      },
      "t_array(t_struct(Checkpoint)81311_storage)dyn_storage": {
        "encoding": "dynamic_array",
        "label": "struct WithdrawalQueue.Checkpoint[]",
        "numberOfBytes": "32",
        "base": "t_struct(Checkpoint)81311_storage"
      },
      "t_array(t_struct(WithdrawalRequest)81290_storage)dyn_storage": {
        "encoding": "dynamic_array",
        "label": "struct WithdrawalQueue.WithdrawalRequest[]",
        "numberOfBytes": "32",
        "base": "t_struct(WithdrawalRequest)81290_storage"
      },
      "t_array(t_uint256)41_storage": {
        "encoding": "inplace",
        "label": "uint256[41]",
        "numberOfBytes": "1312",
        "base": "t_uint256"
      },
      "t_array(t_uint256)44_storage": {
        "encoding": "inplace",
        "label": "uint256[44]",
        "numberOfBytes": "1408",
        "base": "t_uint256"
      },
      "t_array(t_uint256)46_storage": {
        "encoding": "inplace",
        "label": "uint256[46]",
        "numberOfBytes": "1472",
        "base": "t_uint256"
      },
      "t_array(t_uint256)49_storage": {
        "encoding": "inplace",
        "label": "uint256[49]",
        "numberOfBytes": "1568",
        "base": "t_uint256"
      },
      "t_array(t_uint256)50_storage": {
        "encoding": "inplace",
        "label": "uint256[50]",
        "numberOfBytes": "1600",
        "base": "t_uint256"
      },
      "t_bool": {
        "encoding": "inplace",
        "label": "bool",
        "numberOfBytes": "1"
      },
      "t_bytes32": {
        "encoding": "inplace",
        "label": "bytes32",
        "numberOfBytes": "32"
      },
      "t_contract(CrossDomainMessenger)86636": {
        "encoding": "inplace",
        "label": "contract CrossDomainMessenger",
        "numberOfBytes": "20"
      },
      "t_contract(ETHYieldManager)78847": {
        "encoding": "inplace",
        "label": "contract ETHYieldManager",
        "numberOfBytes": "20"
      },
      "t_contract(OptimismPortal)61652": {
        "encoding": "inplace",
        "label": "contract OptimismPortal",
        "numberOfBytes": "20"
      },
      "t_mapping(t_address,t_mapping(t_address,t_uint256))": {
        "encoding": "mapping",
        "key": "t_address",
        "label": "mapping(address => mapping(address => uint256))",
        "numberOfBytes": "32",
        "value": "t_mapping(t_address,t_uint256)"
      },
      "t_mapping(t_address,t_struct(YieldToken)79026_storage)": {
        "encoding": "mapping",
        "key": "t_address",
        "label": "mapping(address => struct L1BlastBridge.YieldToken)",
        "numberOfBytes": "32",
        "value": "t_struct(YieldToken)79026_storage"
      },
      "t_mapping(t_address,t_uint256)": {
        "encoding": "mapping",
        "key": "t_address",
        "label": "mapping(address => uint256)",
        "numberOfBytes": "32",
        "value": "t_uint256"
      },
      "t_mapping(t_bytes32,t_uint256)": {
        "encoding": "mapping",
        "key": "t_bytes32",
        "label": "mapping(bytes32 => uint256)",
        "numberOfBytes": "32",
        "value": "t_uint256"
      },
      "t_struct(AddressSet)41257_storage": {
        "encoding": "inplace",
        "label": "struct EnumerableSet.AddressSet",
        "numberOfBytes": "64",
        "members": [
          {
            "astId": 41256,
            "contract": "src/mainnet-bridge/L1BlastBridge.sol:L1BlastBridge",
            "label": "_inner",
            "offset": 0,
            "slot": "0",
            "type": "t_struct(Set)40956_storage"
          }
        ]
      },
      "t_struct(Checkpoint)81311_storage": {
        "encoding": "inplace",
        "label": "struct WithdrawalQueue.Checkpoint",
        "numberOfBytes": "64",
        "members": [
          {
            "astId": 81308,
            "contract": "src/mainnet-bridge/L1BlastBridge.sol:L1BlastBridge",
            "label": "fromRequestId",
            "offset": 0,
            "slot": "0",
            "type": "t_uint256"
          },
          {
            "astId": 81310,
            "contract": "src/mainnet-bridge/L1BlastBridge.sol:L1BlastBridge",
            "label": "sharePrice",
            "offset": 0,
            "slot": "1",
            "type": "t_uint256"
          }
        ]
      },
      "t_struct(Set)40956_storage": {
        "encoding": "inplace",
        "label": "struct EnumerableSet.Set",
        "numberOfBytes": "64",
        "members": [
          {
            "astId": 40951,
            "contract": "src/mainnet-bridge/L1BlastBridge.sol:L1BlastBridge",
            "label": "_values",
            "offset": 0,
            "slot": "0",
            "type": "t_array(t_bytes32)dyn_storage"
          },
          {
            "astId": 40955,
            "contract": "src/mainnet-bridge/L1BlastBridge.sol:L1BlastBridge",
            "label": "_indexes",
            "offset": 0,
            "slot": "1",
            "type": "t_mapping(t_bytes32,t_uint256)"
          }
        ]
      },
      "t_struct(WithdrawalRequest)81290_storage": {
        "encoding": "inplace",
        "label": "struct WithdrawalQueue.WithdrawalRequest",
        "numberOfBytes": "64",
        "members": [
          {
            "astId": 81280,
            "contract": "src/mainnet-bridge/L1BlastBridge.sol:L1BlastBridge",
            "label": "cumulativeAmount",
            "offset": 0,
            "slot": "0",
            "type": "t_uint128"
          },
          {
            "astId": 81283,
            "contract": "src/mainnet-bridge/L1BlastBridge.sol:L1BlastBridge",
            "label": "recipient",
            "offset": 0,
            "slot": "1",
            "type": "t_address"
          },
          {
            "astId": 81286,
            "contract": "src/mainnet-bridge/L1BlastBridge.sol:L1BlastBridge",
            "label": "timestamp",
            "offset": 20,
            "slot": "1",
            "type": "t_uint40"
          },
          {
            "astId": 81289,
            "contract": "src/mainnet-bridge/L1BlastBridge.sol:L1BlastBridge",
            "label": "claimed",
            "offset": 25,
            "slot": "1",
            "type": "t_bool"
          }
        ]
      },
      "t_struct(YieldToken)79026_storage": {
        "encoding": "inplace",
        "label": "struct L1BlastBridge.YieldToken",
        "numberOfBytes": "32",
        "members": [
          {
            "astId": 79019,
            "contract": "src/mainnet-bridge/L1BlastBridge.sol:L1BlastBridge",
            "label": "approved",
            "offset": 0,
            "slot": "0",
            "type": "t_bool"
          },
          {
            "astId": 79021,
            "contract": "src/mainnet-bridge/L1BlastBridge.sol:L1BlastBridge",
            "label": "decimals",
            "offset": 1,
            "slot": "0",
            "type": "t_uint8"
          },
          {
            "astId": 79023,
            "contract": "src/mainnet-bridge/L1BlastBridge.sol:L1BlastBridge",
            "label": "provider",
            "offset": 2,
            "slot": "0",
            "type": "t_address"
          },
          {
            "astId": 79025,
            "contract": "src/mainnet-bridge/L1BlastBridge.sol:L1BlastBridge",
            "label": "reportStakedBalance",
            "offset": 22,
            "slot": "0",
            "type": "t_bool"
          }
        ]
      },
      "t_uint128": {
        "encoding": "inplace",
        "label": "uint128",
        "numberOfBytes": "16"
      },
      "t_uint256": {
        "encoding": "inplace",
        "label": "uint256",
        "numberOfBytes": "32"
      },
      "t_uint40": {
        "encoding": "inplace",
        "label": "uint40",
        "numberOfBytes": "5"
      },
      "t_uint8": {
        "encoding": "inplace",
        "label": "uint8",
        "numberOfBytes": "1"
      }
    }
  },
  "transactionHash": "0x8f266053ccb0cc05447ef669df32c8732966e1d629a3bc016f4fe401430cc5df"
}