{
  "abi": [
    {
      "inputs": [],
      "stateMutability": "nonpayable",
      "type": "constructor"
    },
    {
      "anonymous": false,
      "inputs": [
        {
          "indexed": false,
          "internalType": "uint8",
          "name": "version",
          "type": "uint8"
        }
      ],
      "name": "Initialized",
      "type": "event"
    },
    {
      "anonymous": false,
      "inputs": [
        {
          "indexed": false,
          "internalType": "address",
          "name": "account",
          "type": "address"
        }
      ],
      "name": "Paused",
      "type": "event"
    },
    {
      "anonymous": false,
      "inputs": [
        {
          "indexed": true,
          "internalType": "address",
          "name": "from",
          "type": "address"
        },
        {
          "indexed": true,
          "internalType": "address",
          "name": "to",
          "type": "address"
        },
        {
          "indexed": true,
          "internalType": "uint256",
          "name": "version",
          "type": "uint256"
        },
        {
          "indexed": false,
          "internalType": "bytes",
          "name": "opaqueData",
          "type": "bytes"
        }
      ],
      "name": "TransactionDeposited",
      "type": "event"
    },
    {
      "anonymous": false,
      "inputs": [
        {
          "indexed": false,
          "internalType": "address",
          "name": "account",
          "type": "address"
        }
      ],
      "name": "Unpaused",
      "type": "event"
    },
    {
      "anonymous": false,
      "inputs": [
        {
          "indexed": true,
          "internalType": "bytes32",
          "name": "withdrawalHash",
          "type": "bytes32"
        },
        {
          "indexed": false,
          "internalType": "bool",
          "name": "success",
          "type": "bool"
        }
      ],
      "name": "WithdrawalFinalized",
      "type": "event"
    },
    {
      "anonymous": false,
      "inputs": [
        {
          "indexed": true,
          "internalType": "bytes32",
          "name": "withdrawalHash",
          "type": "bytes32"
        },
        {
          "indexed": true,
          "internalType": "address",
          "name": "from",
          "type": "address"
        },
        {
          "indexed": true,
          "internalType": "address",
          "name": "to",
          "type": "address"
        },
        {
          "indexed": false,
          "internalType": "uint256",
          "name": "requestId",
          "type": "uint256"
        }
      ],
      "name": "WithdrawalProven",
      "type": "event"
    },
    {
      "inputs": [],
      "name": "GUARDIAN",
      "outputs": [
        {
          "internalType": "address",
          "name": "",
          "type": "address"
        }
      ],
      "stateMutability": "view",
      "type": "function"
    },
    {
      "inputs": [],
      "name": "L2_ORACLE",
      "outputs": [
        {
          "internalType": "contract L2OutputOracle",
          "name": "",
          "type": "address"
        }
      ],
      "stateMutability": "view",
      "type": "function"
    },
    {
      "inputs": [],
      "name": "SYSTEM_CONFIG",
      "outputs": [
        {
          "internalType": "contract SystemConfig",
          "name": "",
          "type": "address"
        }
      ],
      "stateMutability": "view",
      "type": "function"
    },
    {
      "inputs": [
        {
          "internalType": "address",
          "name": "_to",
          "type": "address"
        },
        {
          "internalType": "uint256",
          "name": "_value",
          "type": "uint256"
        },
        {
          "internalType": "uint64",
          "name": "_gasLimit",
          "type": "uint64"
        },
        {
          "internalType": "bool",
          "name": "_isCreation",
          "type": "bool"
        },
        {
          "internalType": "bytes",
          "name": "_data",
          "type": "bytes"
        }
      ],
      "name": "depositTransaction",
      "outputs": [],
      "stateMutability": "payable",
      "type": "function"
    },
    {
      "inputs": [],
      "name": "donateETH",
      "outputs": [],
      "stateMutability": "payable",
      "type": "function"
    },
    {
      "inputs": [
        {
          "internalType": "uint256",
          "name": "hintId",
          "type": "uint256"
        },
        {
          "components": [
            {
              "internalType": "uint256",
              "name": "nonce",
              "type": "uint256"
            },
            {
              "internalType": "address",
              "name": "sender",
              "type": "address"
            },
            {
              "internalType": "address",
              "name": "target",
              "type": "address"
            },
            {
              "internalType": "uint256",
              "name": "value",
              "type": "uint256"
            },
            {
              "internalType": "uint256",
              "name": "gasLimit",
              "type": "uint256"
            },
            {
              "internalType": "bytes",
              "name": "data",
              "type": "bytes"
            }
          ],
          "internalType": "struct Types.WithdrawalTransaction",
          "name": "_tx",
          "type": "tuple"
        }
      ],
      "name": "finalizeWithdrawalTransaction",
      "outputs": [],
      "stateMutability": "nonpayable",
      "type": "function"
    },
    {
      "inputs": [
        {
          "internalType": "bytes32",
          "name": "",
          "type": "bytes32"
        }
      ],
      "name": "finalizedWithdrawals",
      "outputs": [
        {
          "internalType": "bool",
          "name": "",
          "type": "bool"
        }
      ],
      "stateMutability": "view",
      "type": "function"
    },
    {
      "inputs": [],
      "name": "guardian",
      "outputs": [
        {
          "internalType": "address",
          "name": "",
          "type": "address"
        }
      ],
      "stateMutability": "view",
      "type": "function"
    },
    {
      "inputs": [
        {
          "internalType": "contract L2OutputOracle",
          "name": "_l2Oracle",
          "type": "address"
        },
        {
          "internalType": "address",
          "name": "_guardian",
          "type": "address"
        },
        {
          "internalType": "contract SystemConfig",
          "name": "_systemConfig",
          "type": "address"
        },
        {
          "internalType": "bool",
          "name": "_paused",
          "type": "bool"
        },
        {
          "internalType": "contract ETHYieldManager",
          "name": "_yieldManager",
          "type": "address"
        }
      ],
      "name": "initialize",
      "outputs": [],
      "stateMutability": "nonpayable",
      "type": "function"
    },
    {
      "inputs": [
        {
          "internalType": "uint256",
          "name": "_l2OutputIndex",
          "type": "uint256"
        }
      ],
      "name": "isOutputFinalized",
      "outputs": [
        {
          "internalType": "bool",
          "name": "",
          "type": "bool"
        }
      ],
      "stateMutability": "view",
      "type": "function"
    },
    {
      "inputs": [],
      "name": "l2Oracle",
      "outputs": [
        {
          "internalType": "contract L2OutputOracle",
          "name": "",
          "type": "address"
        }
      ],
      "stateMutability": "view",
      "type": "function"
    },
    {
      "inputs": [],
      "name": "l2Sender",
      "outputs": [
        {
          "internalType": "address",
          "name": "",
          "type": "address"
        }
      ],
      "stateMutability": "view",
      "type": "function"
    },
    {
      "inputs": [
        {
          "internalType": "uint64",
          "name": "_byteCount",
          "type": "uint64"
        }
      ],
      "name": "minimumGasLimit",
      "outputs": [
        {
          "internalType": "uint64",
          "name": "",
          "type": "uint64"
        }
      ],
      "stateMutability": "pure",
      "type": "function"
    },
    {
      "inputs": [],
      "name": "params",
      "outputs": [
        {
          "internalType": "uint128",
          "name": "prevBaseFee",
          "type": "uint128"
        },
        {
          "internalType": "uint64",
          "name": "prevBoughtGas",
          "type": "uint64"
        },
        {
          "internalType": "uint64",
          "name": "prevBlockNum",
          "type": "uint64"
        }
      ],
      "stateMutability": "view",
      "type": "function"
    },
    {
      "inputs": [],
      "name": "pause",
      "outputs": [],
      "stateMutability": "nonpayable",
      "type": "function"
    },
    {
      "inputs": [],
      "name": "paused",
      "outputs": [
        {
          "internalType": "bool",
          "name": "",
          "type": "bool"
        }
      ],
      "stateMutability": "view",
      "type": "function"
    },
    {
      "inputs": [
        {
          "components": [
            {
              "internalType": "uint256",
              "name": "nonce",
              "type": "uint256"
            },
            {
              "internalType": "address",
              "name": "sender",
              "type": "address"
            },
            {
              "internalType": "address",
              "name": "target",
              "type": "address"
            },
            {
              "internalType": "uint256",
              "name": "value",
              "type": "uint256"
            },
            {
              "internalType": "uint256",
              "name": "gasLimit",
              "type": "uint256"
            },
            {
              "internalType": "bytes",
              "name": "data",
              "type": "bytes"
            }
          ],
          "internalType": "struct Types.WithdrawalTransaction",
          "name": "_tx",
          "type": "tuple"
        },
        {
          "internalType": "uint256",
          "name": "_l2OutputIndex",
          "type": "uint256"
        },
        {
          "components": [
            {
              "internalType": "bytes32",
              "name": "version",
              "type": "bytes32"
            },
            {
              "internalType": "bytes32",
              "name": "stateRoot",
              "type": "bytes32"
            },
            {
              "internalType": "bytes32",
              "name": "messagePasserStorageRoot",
              "type": "bytes32"
            },
            {
              "internalType": "bytes32",
              "name": "latestBlockhash",
              "type": "bytes32"
            }
          ],
          "internalType": "struct Types.OutputRootProof",
          "name": "_outputRootProof",
          "type": "tuple"
        },
        {
          "internalType": "bytes[]",
          "name": "_withdrawalProof",
          "type": "bytes[]"
        }
      ],
      "name": "proveWithdrawalTransaction",
      "outputs": [],
      "stateMutability": "nonpayable",
      "type": "function"
    },
    {
      "inputs": [
        {
          "internalType": "bytes32",
          "name": "",
          "type": "bytes32"
        }
      ],
      "name": "provenWithdrawals",
      "outputs": [
        {
          "internalType": "bytes32",
          "name": "outputRoot",
          "type": "bytes32"
        },
        {
          "internalType": "uint128",
          "name": "timestamp",
          "type": "uint128"
        },
        {
          "internalType": "uint128",
          "name": "l2OutputIndex",
          "type": "uint128"
        },
        {
          "internalType": "uint256",
          "name": "requestId",
          "type": "uint256"
        }
      ],
      "stateMutability": "view",
      "type": "function"
    },
    {
      "inputs": [],
      "name": "systemConfig",
      "outputs": [
        {
          "internalType": "contract SystemConfig",
          "name": "",
          "type": "address"
        }
      ],
      "stateMutability": "view",
      "type": "function"
    },
    {
      "inputs": [],
      "name": "unpause",
      "outputs": [],
      "stateMutability": "nonpayable",
      "type": "function"
    },
    {
      "inputs": [],
      "name": "version",
      "outputs": [
        {
          "internalType": "string",
          "name": "",
          "type": "string"
        }
      ],
      "stateMutability": "view",
      "type": "function"
    },
    {
      "inputs": [],
      "name": "yieldManager",
      "outputs": [
        {
          "internalType": "contract ETHYieldManager",
          "name": "",
          "type": "address"
        }
      ],
      "stateMutability": "view",
      "type": "function"
    },
    {
      "stateMutability": "payable",
      "type": "receive"
    }
  ],
  "address": "0xC6ebB8dcd53A9c4D4E55bF8F8eddcE7F7d46DB73",
  "args": [],
  "bytecode": "0x60806040523480156200001157600080fd5b50620000236000808060018162000029565b62000237565b600054600390610100900460ff161580156200004c575060005460ff8083169116105b620000b55760405162461bcd60e51b815260206004820152602e60248201527f496e697469616c697a61626c653a20636f6e747261637420697320616c72656160448201526d191e481a5b9a5d1a585b1a5e995960921b60648201526084015b60405180910390fd5b6000805461ffff191660ff831617610100908117909155603280546001600160a01b031990811661dead1790915560358054603680546001600160a01b038a811691861691909117909155603780548b83169086161790558715158b821690950260ff19166001600160a81b03199092169190911793909317905560388054928516929091169190911790556200014b62000194565b6000805461ff001916905560405160ff821681527f7f26b83ff96e1f2b6a682f133852f6798a09c465da95921460cefb38474024989060200160405180910390a1505050505050565b600054610100900460ff16620002015760405162461bcd60e51b815260206004820152602b60248201527f496e697469616c697a61626c653a20636f6e7472616374206973206e6f74206960448201526a6e697469616c697a696e6760a81b6064820152608401620000ac565b60408051606081018252633b9aca0080825260006020830152436001600160401b031691909201819052600160c01b0217600155565b61461e80620002476000396000f3fe6080604052600436106101385760003560e01c806380b7af18116100ab578063a14238e71161006f578063a14238e714610388578063a35d99df146103b8578063cff0ab96146103f0578063e965084c1461045b578063e9e05c42146104dc578063f0498750146104ef57600080fd5b806380b7af181461030e5780638456cb591461032e5780638b4c40b01461016f5780639b5f694a146103435780639bf62d821461036857600080fd5b8063452a9320116100fd578063452a9320146102275780634870496f1461024757806354fd4d50146102675780635c975abb146102a65780636dbffb78146102d0578063724c184c146102f057600080fd5b80621c2ff61461017657806333d7e2bd146101b2578063390f7570146101d25780633dca9c41146101f25780633f4ba83a1461021257600080fd5b36610171576038546001600160a01b0316331461016f5761016f3334620186a060006040518060200160405280600081525061050d565b005b600080fd5b34801561018257600080fd5b5060355461010090046001600160a01b03165b6040516001600160a01b0390911681526020015b60405180910390f35b3480156101be57600080fd5b50603654610195906001600160a01b031681565b3480156101de57600080fd5b5061016f6101ed366004613bb6565b610960565b3480156101fe57600080fd5b5061016f61020d366004613d8a565b610ac2565b34801561021e57600080fd5b5061016f6111bc565b34801561023357600080fd5b50603754610195906001600160a01b031681565b34801561025357600080fd5b5061016f610262366004613dd0565b611268565b34801561027357600080fd5b50610299604051806040016040528060068152602001650312e31302e360d41b81525081565b6040516101a99190613ee9565b3480156102b257600080fd5b506035546102c09060ff1681565b60405190151581526020016101a9565b3480156102dc57600080fd5b506102c06102eb366004613efc565b6117cb565b3480156102fc57600080fd5b506037546001600160a01b0316610195565b34801561031a57600080fd5b50603854610195906001600160a01b031681565b34801561033a57600080fd5b5061016f61185b565b34801561034f57600080fd5b506035546101959061010090046001600160a01b031681565b34801561037457600080fd5b50603254610195906001600160a01b031681565b34801561039457600080fd5b506102c06103a3366004613efc565b60336020526000908152604090205460ff1681565b3480156103c457600080fd5b506103d86103d3366004613f31565b611902565b6040516001600160401b0390911681526020016101a9565b3480156103fc57600080fd5b5060015461042c906001600160801b038116906001600160401b03600160801b8204811691600160c01b90041683565b604080516001600160801b0390941684526001600160401b0392831660208501529116908201526060016101a9565b34801561046757600080fd5b506104ac610476366004613efc565b60346020526000908152604090208054600182015460029092015490916001600160801b0380821692600160801b909204169084565b6040516101a994939291909384526001600160801b03928316602085015291166040830152606082015260800190565b61016f6104ea366004613f4c565b61050d565b3480156104fb57600080fd5b506036546001600160a01b0316610195565b8260005a9050831561059d576001600160a01b0387161561059d576040805162461bcd60e51b81526020600482015260248101919091527f4f7074696d69736d506f7274616c3a206d7573742073656e6420746f2061646460448201527f72657373283029207768656e206372656174696e67206120636f6e747261637460648201526084015b60405180910390fd5b6105a78351611902565b6001600160401b0316856001600160401b031610156106145760405162461bcd60e51b815260206004820152602360248201527f4f7074696d69736d506f7274616c3a20676173206c696d697420746f6f20736d604482015262185b1b60ea1b6064820152608401610594565b6201d4c0835111156106685760405162461bcd60e51b815260206004820152601e60248201527f4f7074696d69736d506f7274616c3a206461746120746f6f206c6172676500006044820152606401610594565b33328114610689575033731111000000000000000000000000000000001111015b60606023602160991b01196001600160a01b038a160161084357603860009054906101000a90046001600160a01b03166001600160a01b03166371ea21c26040518163ffffffff1660e01b8152600401602060405180830381865afa1580156106f6573d6000803e3d6000fd5b505050506040513d601f19601f8201168201806040525081019061071a9190613fc8565b6001600160a01b0316336001600160a01b03161415806107ae5750603854604080516338f510e160e11b815290516000926001600160a01b0316916371ea21c29160048083019260209291908290030181865afa15801561077f573d6000803e3d6000fd5b505050506040513d601f19601f820116820180604052508101906107a39190613fc8565b6001600160a01b0316145b156108145760405162461bcd60e51b815260206004820152603060248201527f4f7074696d69736d506f7274616c3a206f6e6c792074686520426c617374427260448201526f1a5919d94818d85b8819195c1bdcda5d60821b6064820152608401610594565b878888888860405160200161082d959493929190613fe5565b604051602081830303815290604052905061086e565b348888888860405160200161085c959493929190613fe5565b60405160208183030381529060405290505b34156108fe57603854600090610891906001600160a01b0316620186a03461191b565b9050806108fc5760405162461bcd60e51b815260206004820152603360248201527f4f7074696d69736d506f7274616c3a20455448207472616e7366657220746f20604482015272165a595b1913585b9859d95c8819985a5b1959606a1b6064820152608401610594565b505b6000896001600160a01b0316836001600160a01b03167fb3813568d9991fc951961fcb4c784893574240a28925604d09fc577c55bb7c32846040516109439190613ee9565b60405180910390a450506109578282611933565b50505050505050565b600054600390610100900460ff16158015610982575060005460ff8083169116105b6109e55760405162461bcd60e51b815260206004820152602e60248201527f496e697469616c697a61626c653a20636f6e747261637420697320616c72656160448201526d191e481a5b9a5d1a585b1a5e995960921b6064820152608401610594565b6000805461ffff191660ff831617610100908117909155603280546001600160a01b031990811661dead1790915560358054603680546001600160a01b038a811691861691909117909155603780548b83169086161790558715158b821690950260ff19166001600160a81b0319909216919091179390931790556038805492851692909116919091179055610a79611bcc565b6000805461ff001916905560405160ff821681527f7f26b83ff96e1f2b6a682f133852f6798a09c465da95921460cefb38474024989060200160405180910390a1505050505050565b60355460ff1615610b0e5760405162461bcd60e51b815260206004820152601660248201527513dc1d1a5b5a5cdb541bdc9d185b0e881c185d5cd95960521b6044820152606401610594565b6032546001600160a01b031661dead14610b905760405162461bcd60e51b815260206004820152603f60248201527f4f7074696d69736d506f7274616c3a2063616e206f6e6c79207472696767657260448201527f206f6e65207769746864726177616c20706572207472616e73616374696f6e006064820152608401610594565b6000610b9b82611c6d565b600081815260346020908152604080832081516080810183528154815260018201546001600160801b03808216958301869052600160801b90910416928101929092526002015460608201529293509003610c535760405162461bcd60e51b815260206004820152603260248201527f4f7074696d69736d506f7274616c3a207769746864726177616c20686173206e6044820152711bdd081899595b881c1c9bdd995b881e595d60721b6064820152608401610594565b603560019054906101000a90046001600160a01b03166001600160a01b031663887862726040518163ffffffff1660e01b8152600401602060405180830381865afa158015610ca6573d6000803e3d6000fd5b505050506040513d601f19601f82011682018060405250810190610cca9190614034565b81602001516001600160801b03161015610d605760405162461bcd60e51b815260206004820152604b60248201527f4f7074696d69736d506f7274616c3a207769746864726177616c2074696d657360448201527f74616d70206c657373207468616e204c32204f7261636c65207374617274696e60648201526a0672074696d657374616d760ac1b608482015260a401610594565b610d7681602001516001600160801b0316611cba565b610df65760405162461bcd60e51b815260206004820152604560248201527f4f7074696d69736d506f7274616c3a2070726f76656e2077697468647261776160448201527f6c2066696e616c697a6174696f6e20706572696f6420686173206e6f7420656c606482015264185c1cd95960da1b608482015260a401610594565b603554604082810151905163a25ae55760e01b81526001600160801b03909116600482015260009161010090046001600160a01b03169063a25ae55790602401606060405180830381865afa158015610e53573d6000803e3d6000fd5b505050506040513d601f19601f82011682018060405250810190610e779190614064565b8251815191925014610f035760405162461bcd60e51b815260206004820152604960248201527f4f7074696d69736d506f7274616c3a206f757470757420726f6f742070726f7660448201527f656e206973206e6f74207468652073616d652061732063757272656e74206f756064820152681d1c1d5d081c9bdbdd60ba1b608482015260a401610594565b610f1981602001516001600160801b0316611cba565b610f975760405162461bcd60e51b815260206004820152604360248201527f4f7074696d69736d506f7274616c3a206f75747075742070726f706f73616c2060448201527f66696e616c697a6174696f6e20706572696f6420686173206e6f7420656c61706064820152621cd95960ea1b608482015260a401610594565b60008381526033602052604090205460ff16156110145760405162461bcd60e51b815260206004820152603560248201527f4f7074696d69736d506f7274616c3a207769746864726177616c2068617320616044820152741b1c9958591e481899595b88199a5b985b1a5e9959605a1b6064820152608401610594565b60008381526033602090815260408220805460ff19166001179055850151603280546001600160a01b039092166001600160a01b03199092169190911790556060850151156110e8576038546060840151604051633c84d03960e21b815260048101919091526024810188905247916001600160a01b03169063f21340e4906044016020604051808303816000875af11580156110b5573d6000803e3d6000fd5b505050506040513d601f19601f820116820180604052508101906110d991906140c8565b506110e481476140fb565b9150505b600061110286604001518760800151848960a00151611d45565b603280546001600160a01b03191661dead17905560405190915085907fdb5c7652857aa163daadd670e116628fb42e869d8ac4251ef8971d9e5727df1b9061114f90841515815260200190565b60405180910390a2801580156111655750326001145b156109575760405162461bcd60e51b815260206004820152602160248201527f4f7074696d69736d506f7274616c3a207769746864726177616c206661696c656044820152601960fa1b6064820152608401610594565b6037546001600160a01b031633146112285760405162461bcd60e51b815260206004820152602960248201527f4f7074696d69736d506f7274616c3a206f6e6c7920677561726469616e2063616044820152686e20756e706175736560b81b6064820152608401610594565b6035805460ff191690556040513381527f5db9ee0a495bf2e6ff9c91a7834c1ba4fdd244a5e8aa4e537bd38aeae4b073aa906020015b60405180910390a1565b60355460ff16156112b45760405162461bcd60e51b815260206004820152601660248201527513dc1d1a5b5a5cdb541bdc9d185b0e881c185d5cd95960521b6044820152606401610594565b306001600160a01b031685604001516001600160a01b03160361133f5760405162461bcd60e51b815260206004820152603f60248201527f4f7074696d69736d506f7274616c3a20796f752063616e6e6f742073656e642060448201527f6d6573736167657320746f2074686520706f7274616c20636f6e7472616374006064820152608401610594565b60355460405163a25ae55760e01b81526004810186905260009161010090046001600160a01b03169063a25ae55790602401606060405180830381865afa15801561138e573d6000803e3d6000fd5b505050506040513d601f19601f820116820180604052508101906113b29190614064565b5190506113cc6113c736869003860186614112565b611da3565b811461142c5760405162461bcd60e51b815260206004820152602960248201527f4f7074696d69736d506f7274616c3a20696e76616c6964206f7574707574207260448201526837b7ba10383937b7b360b91b6064820152608401610594565b600061143787611c6d565b60008181526034602090815260409182902082516080810184528154815260018201546001600160801b03808216948301859052600160801b909104169381019390935260020154606083015291925090158061151457508051603554604080840151905163a25ae55760e01b81526001600160801b0390911660048201526101009091046001600160a01b03169063a25ae55790602401606060405180830381865afa1580156114ec573d6000803e3d6000fd5b505050506040513d601f19601f820116820180604052508101906115109190614064565b5114155b6115865760405162461bcd60e51b815260206004820152603760248201527f4f7074696d69736d506f7274616c3a207769746864726177616c20686173682060448201527f68617320616c7265616479206265656e2070726f76656e0000000000000000006064820152608401610594565b6040805160208101849052600091810182905260600160408051601f19818403018152828252805160209182012090830181905292506115f7910160408051601f1981840301815282820190915260018252600160f81b6020830152906115ed888a614177565b8a60400135611de2565b61165e5760405162461bcd60e51b815260206004820152603260248201527f4f7074696d69736d506f7274616c3a20696e76616c696420776974686472617760448201527130b61034b731b63ab9b4b7b710383937b7b360711b6064820152608401610594565b6000808a6060015111801561167e575060208301516001600160801b0316155b156117045760385460608b01516040516313dccf3d60e31b81526001600160a01b0390921691639ee679e8916116ba9160040190815260200190565b6020604051808303816000875af11580156116d9573d6000803e3d6000fd5b505050506040513d601f19601f820116820180604052508101906116fd9190614034565b905061170b565b5060608201515b604080516080810182528681526001600160801b0342811660208084019182528d83168486019081526060850187815260008b81526034845287902095518655925190518416600160801b029316929092176001840155516002909201919091558b820151908c015191516001600160a01b03918216929091169086907f5d5446905f1f582d57d04ced5b1bed0f1a6847bcee57f7dd9d6f2ec12ab9ec2e906117b79086815260200190565b60405180910390a450505050505050505050565b60355460405163a25ae55760e01b815260048101839052600091611855916101009091046001600160a01b03169063a25ae55790602401606060405180830381865afa15801561181f573d6000803e3d6000fd5b505050506040513d601f19601f820116820180604052508101906118439190614064565b602001516001600160801b0316611cba565b92915050565b6037546001600160a01b031633146118c55760405162461bcd60e51b815260206004820152602760248201527f4f7074696d69736d506f7274616c3a206f6e6c7920677561726469616e2063616044820152666e20706175736560c81b6064820152608401610594565b6035805460ff191660011790556040513381527f62e78cea01bee320cd4e420270b5ea74000d11b0c9f74754ebdbfc544b05a2589060200161125e565b600061190f8260106141fa565b61185590615208614229565b600080600080600080868989f19150505b9392505050565b60015460009061195390600160c01b90046001600160401b0316436140fb565b9050600061195f611e06565b90506000816020015160ff16826000015163ffffffff16611980919061426a565b90508215611a6f576001546000906119a9908390600160801b90046001600160401b0316614298565b90506000836040015160ff16836119c091906142d7565b6001546119d79084906001600160801b03166142d7565b6119e1919061426a565b600154909150600090611a2090611a029084906001600160801b031661435c565b866060015163ffffffff168760a001516001600160801b0316611ea6565b90506001861115611a4f57611a4c611a0282876040015160ff1660018a611a4791906140fb565b611ec3565b90505b6001600160801b0316600160c01b6001600160401b034316021760015550505b60018054869190601090611a94908490600160801b90046001600160401b0316614229565b92506101000a8154816001600160401b0302191690836001600160401b03160217905550816000015163ffffffff16600160000160109054906101000a90046001600160401b03166001600160401b03161315611b595760405162461bcd60e51b815260206004820152603e60248201527f5265736f757263654d65746572696e673a2063616e6e6f7420627579206d6f7260448201527f6520676173207468616e20617661696c61626c6520676173206c696d697400006064820152608401610594565b600154600090611b7b906001600160801b03166001600160401b03881661439d565b90506000611b8d48633b9aca00611f18565b611b9790836143bc565b905060005a611ba690886140fb565b905080821115611bc257611bc2611bbd82846140fb565b611f2f565b5050505050505050565b600054610100900460ff16611c375760405162461bcd60e51b815260206004820152602b60248201527f496e697469616c697a61626c653a20636f6e7472616374206973206e6f74206960448201526a6e697469616c697a696e6760a81b6064820152608401610594565b60408051606081018252633b9aca0080825260006020830152436001600160401b031691909201819052600160c01b0217600155565b80516020808301516040808501516060860151608087015160a08801519351600097611c9d9790969591016143d0565b604051602081830303815290604052805190602001209050919050565b6000603560019054906101000a90046001600160a01b03166001600160a01b031663f4daa2916040518163ffffffff1660e01b8152600401602060405180830381865afa158015611d0f573d6000803e3d6000fd5b505050506040513d601f19601f82011682018060405250810190611d339190614034565b611d3d908361441c565b421192915050565b6000806000611d55866000611f5d565b905080611d8b576308c379a06000526020805278185361666543616c6c3a204e6f7420656e6f756768206761736058526064601cfd5b600080855160208701888b5af1979650505050505050565b60008160000151826020015183604001518460600151604051602001611c9d949392919093845260208401929092526040830152606082015260800190565b600080611dee86611f7b565b9050611dfc81868686611fad565b9695505050505050565b6040805160c08082018352600080835260208301819052828401819052606083018190526080830181905260a083015260365483516366398d8160e11b8152935192936001600160a01b039091169263cc731b02926004808401939192918290030181865afa158015611e7d573d6000803e3d6000fd5b505050506040513d601f19601f82011682018060405250810190611ea19190614459565b905090565b6000611ebb611eb58585611fdd565b83611fed565b949350505050565b6000670de0b6b3a7640000611f04611edb858361426a565b611eed90670de0b6b3a7640000614298565b611eff85670de0b6b3a76400006142d7565b611ffc565b611f0e90866142d7565b611ebb919061426a565b600081831015611f28578161192c565b5090919050565b6000805a90505b825a611f4290836140fb565b1015611f5857611f51826144f7565b9150611f36565b505050565b600080603f83619c4001026040850201603f5a021015949350505050565b60608180519060200120604051602001611f9791815260200190565b6040516020818303038152906040529050919050565b6000611fd484611fbe87868661202d565b8051602091820120825192909101919091201490565b95945050505050565b600081831215611f28578161192c565b6000818312611f28578161192c565b600061192c670de0b6b3a764000083612014866128c3565b61201e91906142d7565b612028919061426a565b612a9e565b606060008451116120785760405162461bcd60e51b81526020600482015260156024820152744d65726b6c65547269653a20656d707479206b657960581b6044820152606401610594565b600061208384612c47565b9050600061209086612d32565b90506000846040516020016120a791815260200190565b60405160208183030381529060405290506000805b845181101561286c5760008582815181106120d9576120d9614510565b60200260200101519050845183111561214b5760405162461bcd60e51b815260206004820152602e60248201527f4d65726b6c65547269653a206b657920696e646578206578636565647320746f60448201526d0e8c2d840d6caf240d8cadccee8d60931b6064820152608401610594565b826000036121ea57805180516020918201206040516121999261217392910190815260200190565b604051602081830303815290604052858051602091820120825192909101919091201490565b6121e55760405162461bcd60e51b815260206004820152601d60248201527f4d65726b6c65547269653a20696e76616c696420726f6f7420686173680000006044820152606401610594565b6122e0565b80515160201161227057805180516020918201206040516122149261217392910190815260200190565b6121e55760405162461bcd60e51b815260206004820152602760248201527f4d65726b6c65547269653a20696e76616c6964206c6172676520696e7465726e6044820152660c2d840d0c2e6d60cb1b6064820152608401610594565b8051845160208087019190912082519190920120146122e05760405162461bcd60e51b815260206004820152602660248201527f4d65726b6c65547269653a20696e76616c696420696e7465726e616c206e6f646044820152650ca40d0c2e6d60d31b6064820152608401610594565b6122ec6010600161441c565b81602001515103612494578451830361242c57612326816020015160108151811061231957612319614510565b6020026020010151612d95565b9650600087511161239f5760405162461bcd60e51b815260206004820152603b60248201527f4d65726b6c65547269653a2076616c7565206c656e677468206d75737420626560448201527f2067726561746572207468616e207a65726f20286272616e63682900000000006064820152608401610594565b600186516123ad91906140fb565b82146124215760405162461bcd60e51b815260206004820152603a60248201527f4d65726b6c65547269653a2076616c7565206e6f6465206d757374206265206c60448201527f617374206e6f646520696e2070726f6f6620286272616e6368290000000000006064820152608401610594565b50505050505061192c565b600085848151811061244057612440614510565b602001015160f81c60f81b60f81c9050600082602001518260ff168151811061246b5761246b614510565b6020026020010151905061247e81612eb8565b955061248b60018661441c565b94505050612859565b6002816020015151036128005760006124ac82612edd565b90506000816000815181106124c3576124c3614510565b016020015160f81c905060006124da600283614526565b6124e5906002614548565b905060006124f6848360ff16612f01565b905060006125048a89612f01565b905060006125128383612f37565b90508083511461258a5760405162461bcd60e51b815260206004820152603a60248201527f4d65726b6c65547269653a20706174682072656d61696e646572206d7573742060448201527f736861726520616c6c206e6962626c65732077697468206b65790000000000006064820152608401610594565b60ff85166002148061259f575060ff85166003145b15612740578082511461261a5760405162461bcd60e51b815260206004820152603d60248201527f4d65726b6c65547269653a206b65792072656d61696e646572206d757374206260448201527f65206964656e746963616c20746f20706174682072656d61696e6465720000006064820152608401610594565b612634876020015160018151811061231957612319614510565b9c5060008d51116126ad5760405162461bcd60e51b815260206004820152603960248201527f4d65726b6c65547269653a2076616c7565206c656e677468206d75737420626560448201527f2067726561746572207468616e207a65726f20286c65616629000000000000006064820152608401610594565b60018c516126bb91906140fb565b881461272f5760405162461bcd60e51b815260206004820152603860248201527f4d65726b6c65547269653a2076616c7565206e6f6465206d757374206265206c60448201527f617374206e6f646520696e2070726f6f6620286c6561662900000000000000006064820152608401610594565b50505050505050505050505061192c565b60ff85161580612753575060ff85166001145b156127925761277f876020015160018151811061277257612772614510565b6020026020010151612eb8565b995061278b818a61441c565b98506127f5565b60405162461bcd60e51b815260206004820152603260248201527f4d65726b6c65547269653a2072656365697665642061206e6f64652077697468604482015271040c2dc40eadcd6dcdeeedc40e0e4caccd2f60731b6064820152608401610594565b505050505050612859565b60405162461bcd60e51b815260206004820152602860248201527f4d65726b6c65547269653a20726563656976656420616e20756e706172736561604482015267626c65206e6f646560c01b6064820152608401610594565b5080612864816144f7565b9150506120bc565b5060405162461bcd60e51b815260206004820152602560248201527f4d65726b6c65547269653a2072616e206f7574206f662070726f6f6620656c656044820152646d656e747360d81b6064820152608401610594565b60008082136129005760405162461bcd60e51b815260206004820152600960248201526815539111519253915160ba1b6044820152606401610594565b6000606061290d84612fbb565b03609f8181039490941b90931c6c465772b2bbbb5f824b15207a3081018102606090811d6d0388eaa27412d5aca026815d636e018202811d6d0df99ac502031bf953eff472fdcc018202811d6d13cdffb29d51d99322bdff5f2211018202811d6d0a0f742023def783a307a986912e018202811d6d01920d8043ca89b5239253284e42018202811d6c0b7a86d7375468fac667a0a527016c29508e458543d8aa4df2abee7883018302821d6d0139601a2efabe717e604cbb4894018302821d6d02247f7a7b6594320649aa03aba1018302821d6c8c3f38e95a6b1ff2ab1c3b343619018302821d6d02384773bdf1ac5676facced60901901830290911d6cb9a025d814b29c212b8b1a07cd1901909102780a09507084cc699bb0e71ea869ffffffffffffffffffffffff190105711340daa0d5f769dba1915cef59f0815a5506027d0267a36c0c95b3975ab3ee5b203a7614a3f75373f047d803ae7b6687f2b393909302929092017d57115e47018c7177eebf7cd370a3356a1b7863008a5ae8028c72b88642840160ae1d92915050565b6000680248ce36a70cb26b3e198213612ab957506000919050565b680755bf798b4a1bf1e58212612b005760405162461bcd60e51b815260206004820152600c60248201526b4558505f4f564552464c4f5760a01b6044820152606401610594565b6503782dace9d9604e83901b059150600060606bb17217f7d1cf79abc9e3b39884821b056001605f1b01901d6bb17217f7d1cf79abc9e3b39881029093036c240c330e9fb2d9cbaf0fd5aafb1981018102606090811d6d0277594991cfc85f6e2461837cd9018202811d6d1a521255e34f6a5061b25ef1c9c319018202811d6db1bbb201f443cf962f1a1d3db4a5018202811d6e02c72388d9f74f51a9331fed693f1419018202811d6e05180bb14799ab47a8a8cb2a527d57016d02d16720577bd19bf614176fe9ea6c10fe68e7fd37d0007b713f765084018402831d9081019084016d01d3967ed30fc4f89c02bab5708119010290911d6e0587f503bb6ea29d25fcb740196450019091026d360d7aeea093263ecc6e0ecb291760621b010574029d9dc38563c32e5c2f6dc192ee70ef65f9978af30260c3939093039290921c92915050565b8051606090806001600160401b03811115612c6457612c64613c27565b604051908082528060200260200182016040528015612ca957816020015b6040805180820190915260608082526020820152815260200190600190039081612c825790505b50915060005b81811015612d2b576040518060400160405280858381518110612cd457612cd4614510565b60200260200101518152602001612d03868481518110612cf657612cf6614510565b6020026020010151613059565b815250838281518110612d1857612d18614510565b6020908102919091010152600101612caf565b5050919050565b606080604051905082518060011b603f8101601f1916830160405280835250602084016020830160005b83811015612d8a578060011b82018184015160001a8060041c8253600f811660018301535050600101612d5c565b509295945050505050565b60606000806000612da58561306c565b919450925090506000816001811115612dc057612dc061456b565b14612e335760405162461bcd60e51b815260206004820152603960248201527f524c505265616465723a206465636f646564206974656d207479706520666f7260448201527f206279746573206973206e6f7420612064617461206974656d000000000000006064820152608401610594565b612e3d828461441c565b855114612ea95760405162461bcd60e51b815260206004820152603460248201527f524c505265616465723a2062797465732076616c756520636f6e7461696e732060448201527330b71034b73b30b634b2103932b6b0b4b73232b960611b6064820152608401610594565b611fd48560200151848461372f565b60606020826000015110612ed457612ecf82612d95565b611855565b611855826137c2565b6060611855612efc836020015160008151811061231957612319614510565b612d32565b606082518210612f205750604080516020810190915260008152611855565b61192c8383848651612f3291906140fb565b6137d8565b6000808251845110612f4a578251612f4d565b83515b90505b8082108015612fa45750828281518110612f6c57612f6c614510565b602001015160f81c60f81b6001600160f81b031916848381518110612f9357612f93614510565b01602001516001600160f81b031916145b15612fb457816001019150612f50565b5092915050565b6000808211612ff85760405162461bcd60e51b815260206004820152600960248201526815539111519253915160ba1b6044820152606401610594565b5060016001600160801b03821160071b82811c6001600160401b031060061b1782811c63ffffffff1060051b1782811c61ffff1060041b1782811c60ff10600390811b90911783811c600f1060021b1783811c909110821b1791821c111790565b60606118556130678361391a565b61396d565b6000806000808460000151116130945760405162461bcd60e51b815260040161059490614581565b6020840151805160001a607f81116130b9576000600160009450945094505050613728565b60b781116132165760006130ce6080836140fb565b90508087600001511161314e5760405162461bcd60e51b815260206004820152604e60248201526000805160206145f283398151915260448201527f742062652067726561746572207468616e20737472696e67206c656e6774682060648201526d2873686f727420737472696e672960901b608482015260a401610594565b6001838101516001600160f81b031916908214158061317b5750600160ff1b6001600160f81b0319821610155b6132035760405162461bcd60e51b815260206004820152604d60248201527f524c505265616465723a20696e76616c6964207072656669782c2073696e676c60448201527f652062797465203c203078383020617265206e6f74207072656669786564202860648201526c73686f727420737472696e672960981b608482015260a401610594565b5060019550935060009250613728915050565b60bf811161345757600061322b60b7836140fb565b9050808760000151116132ae5760405162461bcd60e51b815260206004820152605160248201526000805160206145f283398151915260448201527f74206265203e207468616e206c656e677468206f6620737472696e67206c656e60648201527067746820286c6f6e6720737472696e672960781b608482015260a401610594565b60018301516001600160f81b03191660008190036133355760405162461bcd60e51b815260206004820152604a60248201526000805160206145f283398151915260448201527f74206e6f74206861766520616e79206c656164696e67207a65726f7320286c6f6064820152696e6720737472696e672960b01b608482015260a401610594565b600184015160088302610100031c603781116133b85760405162461bcd60e51b815260206004820152604860248201526000805160206145f283398151915260448201527f742062652067726561746572207468616e20353520627974657320286c6f6e6760648201526720737472696e672960c01b608482015260a401610594565b6133c2818461441c565b89511161343a5760405162461bcd60e51b815260206004820152604c60248201526000805160206145f283398151915260448201527f742062652067726561746572207468616e20746f74616c206c656e677468202860648201526b6c6f6e6720737472696e672960a01b608482015260a401610594565b61344583600161441c565b97509550600094506137289350505050565b60f781116134f957600061346c60c0836140fb565b9050808760000151116134e85760405162461bcd60e51b815260206004820152604a60248201526000805160206145f283398151915260448201527f742062652067726561746572207468616e206c697374206c656e677468202873606482015269686f7274206c6973742960b01b608482015260a401610594565b600195509350849250613728915050565b600061350660f7836140fb565b9050808760000151116135855760405162461bcd60e51b815260206004820152604d60248201526000805160206145f283398151915260448201527f74206265203e207468616e206c656e677468206f66206c697374206c656e677460648201526c6820286c6f6e67206c6973742960981b608482015260a401610594565b60018301516001600160f81b031916600081900361360a5760405162461bcd60e51b815260206004820152604860248201526000805160206145f283398151915260448201527f74206e6f74206861766520616e79206c656164696e67207a65726f7320286c6f6064820152676e67206c6973742960c01b608482015260a401610594565b600184015160088302610100031c6037811161368b5760405162461bcd60e51b815260206004820152604660248201526000805160206145f283398151915260448201527f742062652067726561746572207468616e20353520627974657320286c6f6e67606482015265206c6973742960d01b608482015260a401610594565b613695818461441c565b89511161370b5760405162461bcd60e51b815260206004820152604a60248201526000805160206145f283398151915260448201527f742062652067726561746572207468616e20746f74616c206c656e67746820286064820152696c6f6e67206c6973742960b01b608482015260a401610594565b61371683600161441c565b97509550600194506137289350505050565b9193909250565b6060816001600160401b0381111561374957613749613c27565b6040519080825280601f01601f191660200182016040528015613773576020820181803683370190505b509050811561192c576000613788848661441c565b90506020820160005b848110156137a9578281015182820152602001613791565b848111156137b8576000858301525b5050509392505050565b606061185582602001516000846000015161372f565b60608182601f01101561381e5760405162461bcd60e51b815260206004820152600e60248201526d736c6963655f6f766572666c6f7760901b6044820152606401610594565b8282840110156138615760405162461bcd60e51b815260206004820152600e60248201526d736c6963655f6f766572666c6f7760901b6044820152606401610594565b818301845110156138a85760405162461bcd60e51b8152602060048201526011602482015270736c6963655f6f75744f66426f756e647360781b6044820152606401610594565b6060821580156138c75760405191506000825260208201604052613911565b6040519150601f8416801560200281840101858101878315602002848b0101015b818310156139005780518352602092830192016138e8565b5050858452601f01601f1916604052505b50949350505050565b6040805180820190915260008082526020820152600082511161394f5760405162461bcd60e51b815260040161059490614581565b50604080518082019091528151815260209182019181019190915290565b6060600080600061397d8561306c565b9194509250905060018160018111156139985761399861456b565b14613a0b5760405162461bcd60e51b815260206004820152603860248201527f524c505265616465723a206465636f646564206974656d207479706520666f7260448201527f206c697374206973206e6f742061206c697374206974656d00000000000000006064820152608401610594565b8451613a17838561441c565b14613a7f5760405162461bcd60e51b815260206004820152603260248201527f524c505265616465723a206c697374206974656d2068617320616e20696e76616044820152713634b2103230ba30903932b6b0b4b73232b960711b6064820152608401610594565b604080516020808252610420820190925290816020015b6040805180820190915260008082526020820152815260200190600190039081613a965790505093506000835b8651811015613b8457600080613b096040518060400160405280858c60000151613aed91906140fb565b8152602001858c60200151613b02919061441c565b905261306c565b509150915060405180604001604052808383613b25919061441c565b8152602001848b60200151613b3a919061441c565b815250888581518110613b4f57613b4f614510565b6020908102919091010152613b6560018561441c565b9350613b71818361441c565b613b7b908461441c565b92505050613ac3565b50845250919392505050565b6001600160a01b0381168114613ba557600080fd5b50565b8015158114613ba557600080fd5b600080600080600060a08688031215613bce57600080fd5b8535613bd981613b90565b94506020860135613be981613b90565b93506040860135613bf981613b90565b92506060860135613c0981613ba8565b91506080860135613c1981613b90565b809150509295509295909350565b634e487b7160e01b600052604160045260246000fd5b604051601f8201601f191681016001600160401b0381118282101715613c6557613c65613c27565b604052919050565b600082601f830112613c7e57600080fd5b81356001600160401b03811115613c9757613c97613c27565b613caa601f8201601f1916602001613c3d565b818152846020838601011115613cbf57600080fd5b816020850160208301376000918101602001919091529392505050565b600060c08284031215613cee57600080fd5b60405160c081016001600160401b038282108183111715613d1157613d11613c27565b816040528293508435835260208501359150613d2c82613b90565b81602084015260408501359150613d4282613b90565b816040840152606085013560608401526080850135608084015260a0850135915080821115613d7057600080fd5b50613d7d85828601613c6d565b60a0830152505092915050565b60008060408385031215613d9d57600080fd5b8235915060208301356001600160401b03811115613dba57600080fd5b613dc685828601613cdc565b9150509250929050565b600080600080600085870360e0811215613de957600080fd5b86356001600160401b0380821115613e0057600080fd5b613e0c8a838b01613cdc565b9750602089013596506080603f1984011215613e2757600080fd5b60408901955060c0890135925080831115613e4157600080fd5b828901925089601f840112613e5557600080fd5b8235915080821115613e6657600080fd5b508860208260051b8401011115613e7c57600080fd5b959894975092955050506020019190565b60005b83811015613ea8578181015183820152602001613e90565b83811115613eb7576000848401525b50505050565b60008151808452613ed5816020860160208601613e8d565b601f01601f19169290920160200192915050565b60208152600061192c6020830184613ebd565b600060208284031215613f0e57600080fd5b5035919050565b80356001600160401b0381168114613f2c57600080fd5b919050565b600060208284031215613f4357600080fd5b61192c82613f15565b600080600080600060a08688031215613f6457600080fd5b8535613f6f81613b90565b945060208601359350613f8460408701613f15565b92506060860135613f9481613ba8565b915060808601356001600160401b03811115613faf57600080fd5b613fbb88828901613c6d565b9150509295509295909350565b600060208284031215613fda57600080fd5b815161192c81613b90565b8581528460208201526001600160401b0360c01b8460c01b16604082015282151560f81b604882015260008251614023816049850160208701613e8d565b919091016049019695505050505050565b60006020828403121561404657600080fd5b5051919050565b80516001600160801b0381168114613f2c57600080fd5b60006060828403121561407657600080fd5b604051606081018181106001600160401b038211171561409857614098613c27565b604052825181526140ab6020840161404d565b60208201526140bc6040840161404d565b60408201529392505050565b6000602082840312156140da57600080fd5b815161192c81613ba8565b634e487b7160e01b600052601160045260246000fd5b60008282101561410d5761410d6140e5565b500390565b60006080828403121561412457600080fd5b604051608081018181106001600160401b038211171561414657614146613c27565b8060405250823581526020830135602082015260408301356040820152606083013560608201528091505092915050565b60006001600160401b038084111561419157614191613c27565b8360051b60206141a2818301613c3d565b8681529185019181810190368411156141ba57600080fd5b865b848110156141ee578035868111156141d45760008081fd5b6141e036828b01613c6d565b8452509183019183016141bc565b50979650505050505050565b60006001600160401b0380831681851681830481118215151615614220576142206140e5565b02949350505050565b60006001600160401b0380831681851680830382111561424b5761424b6140e5565b01949350505050565b634e487b7160e01b600052601260045260246000fd5b60008261427957614279614254565b600160ff1b821460001984141615614293576142936140e5565b500590565b60008083128015600160ff1b8501841216156142b6576142b66140e5565b6001600160ff1b03840183138116156142d1576142d16140e5565b50500390565b60006001600160ff1b03818413828413808216868404861116156142fd576142fd6140e5565b600160ff1b600087128281168783058912161561431c5761431c6140e5565b60008712925087820587128484161615614338576143386140e5565b8785058712818416161561434e5761434e6140e5565b505050929093029392505050565b600080821280156001600160ff1b038490038513161561437e5761437e6140e5565b600160ff1b8390038412811615614397576143976140e5565b50500190565b60008160001904831182151516156143b7576143b76140e5565b500290565b6000826143cb576143cb614254565b500490565b8681526001600160a01b03868116602083015285166040820152606081018490526080810183905260c060a0820181905260009061441090830184613ebd565b98975050505050505050565b6000821982111561442f5761442f6140e5565b500190565b805163ffffffff81168114613f2c57600080fd5b805160ff81168114613f2c57600080fd5b600060c0828403121561446b57600080fd5b60405160c081018181106001600160401b038211171561448d5761448d613c27565b60405261449983614434565b81526144a760208401614448565b60208201526144b860408401614448565b60408201526144c960608401614434565b60608201526144da60808401614434565b60808201526144eb60a0840161404d565b60a08201529392505050565b600060018201614509576145096140e5565b5060010190565b634e487b7160e01b600052603260045260246000fd5b600060ff83168061453957614539614254565b8060ff84160691505092915050565b600060ff821660ff841680821015614562576145626140e5565b90039392505050565b634e487b7160e01b600052602160045260246000fd5b6020808252604a908201527f524c505265616465723a206c656e677468206f6620616e20524c50206974656d60408201527f206d7573742062652067726561746572207468616e207a65726f20746f206265606082015269206465636f6461626c6560b01b608082015260a0019056fe524c505265616465723a206c656e677468206f6620636f6e74656e74206d7573a164736f6c634300080f000a",
  "solcInputHash": "0x0000000000000000000000000000000000000000000000000000000000000000",
  "storageLayout": {
    "storage": [
      {
        "astId": 33573,
        "contract": "src/L1/OptimismPortal.sol:OptimismPortal",
        "label": "_initialized",
        "offset": 0,
        "slot": "0",
        "type": "t_uint8"
      },
      {
        "astId": 33576,
        "contract": "src/L1/OptimismPortal.sol:OptimismPortal",
        "label": "_initializing",
        "offset": 1,
        "slot": "0",
        "type": "t_bool"
      },
      {
        "astId": 61942,
        "contract": "src/L1/OptimismPortal.sol:OptimismPortal",
        "label": "params",
        "offset": 0,
        "slot": "1",
        "type": "t_struct(ResourceParams)61925_storage"
      },
      {
        "astId": 61947,
        "contract": "src/L1/OptimismPortal.sol:OptimismPortal",
        "label": "__gap",
        "offset": 0,
        "slot": "2",
        "type": "t_array(t_uint256)48_storage"
      },
      {
        "astId": 60815,
        "contract": "src/L1/OptimismPortal.sol:OptimismPortal",
        "label": "l2Sender",
        "offset": 0,
        "slot": "50",
        "type": "t_address"
      },
      {
        "astId": 60820,
        "contract": "src/L1/OptimismPortal.sol:OptimismPortal",
        "label": "finalizedWithdrawals",
        "offset": 0,
        "slot": "51",
        "type": "t_mapping(t_bytes32,t_bool)"
      },
      {
        "astId": 60826,
        "contract": "src/L1/OptimismPortal.sol:OptimismPortal",
        "label": "provenWithdrawals",
        "offset": 0,
        "slot": "52",
        "type": "t_mapping(t_bytes32,t_struct(ProvenWithdrawal)60800_storage)"
      },
      {
        "astId": 60829,
        "contract": "src/L1/OptimismPortal.sol:OptimismPortal",
        "label": "paused",
        "offset": 0,
        "slot": "53",
        "type": "t_bool"
      },
      {
        "astId": 60833,
        "contract": "src/L1/OptimismPortal.sol:OptimismPortal",
        "label": "l2Oracle",
        "offset": 1,
        "slot": "53",
        "type": "t_contract(L2OutputOracle)60754"
      },
      {
        "astId": 60837,
        "contract": "src/L1/OptimismPortal.sol:OptimismPortal",
        "label": "systemConfig",
        "offset": 0,
        "slot": "54",
        "type": "t_contract(SystemConfig)63048"
      },
      {
        "astId": 60840,
        "contract": "src/L1/OptimismPortal.sol:OptimismPortal",
        "label": "guardian",
        "offset": 0,
        "slot": "55",
        "type": "t_address"
      },
      {
        "astId": 60844,
        "contract": "src/L1/OptimismPortal.sol:OptimismPortal",
        "label": "yieldManager",
        "offset": 0,
        "slot": "56",
        "type": "t_contract(ETHYieldManager)78847"
      }
    ],
    "types": {
      "t_address": {
        "encoding": "inplace",
        "label": "address",
        "numberOfBytes": "20"
      },
      "t_array(t_uint256)48_storage": {
        "encoding": "inplace",
        "label": "uint256[48]",
        "numberOfBytes": "1536",
        "base": "t_uint256"
      },
      "t_bool": {
        "encoding": "inplace",
        "label": "bool",
        "numberOfBytes": "1"
      },
      "t_bytes32": {
        "encoding": "inplace",
        "label": "bytes32",
        "numberOfBytes": "32"
      },
      "t_contract(ETHYieldManager)78847": {
        "encoding": "inplace",
        "label": "contract ETHYieldManager",
        "numberOfBytes": "20"
      },
      "t_contract(L2OutputOracle)60754": {
        "encoding": "inplace",
        "label": "contract L2OutputOracle",
        "numberOfBytes": "20"
      },
      "t_contract(SystemConfig)63048": {
        "encoding": "inplace",
        "label": "contract SystemConfig",
        "numberOfBytes": "20"
      },
      "t_mapping(t_bytes32,t_bool)": {
        "encoding": "mapping",
        "key": "t_bytes32",
        "label": "mapping(bytes32 => bool)",
        "numberOfBytes": "32",
        "value": "t_bool"
      },
      "t_mapping(t_bytes32,t_struct(ProvenWithdrawal)60800_storage)": {
        "encoding": "mapping",
        "key": "t_bytes32",
        "label": "mapping(bytes32 => struct OptimismPortal.ProvenWithdrawal)",
        "numberOfBytes": "32",
        "value": "t_struct(ProvenWithdrawal)60800_storage"
      },
      "t_struct(ProvenWithdrawal)60800_storage": {
        "encoding": "inplace",
        "label": "struct OptimismPortal.ProvenWithdrawal",
        "numberOfBytes": "96",
        "members": [
          {
            "astId": 60793,
            "contract": "src/L1/OptimismPortal.sol:OptimismPortal",
            "label": "outputRoot",
            "offset": 0,
            "slot": "0",
            "type": "t_bytes32"
          },
          {
            "astId": 60795,
            "contract": "src/L1/OptimismPortal.sol:OptimismPortal",
            "label": "timestamp",
            "offset": 0,
            "slot": "1",
            "type": "t_uint128"
          },
          {
            "astId": 60797,
            "contract": "src/L1/OptimismPortal.sol:OptimismPortal",
            "label": "l2OutputIndex",
            "offset": 16,
            "slot": "1",
            "type": "t_uint128"
          },
          {
            "astId": 60799,
            "contract": "src/L1/OptimismPortal.sol:OptimismPortal",
            "label": "requestId",
            "offset": 0,
            "slot": "2",
            "type": "t_uint256"
          }
        ]
      },
      "t_struct(ResourceParams)61925_storage": {
        "encoding": "inplace",
        "label": "struct ResourceMetering.ResourceParams",
        "numberOfBytes": "32",
        "members": [
          {
            "astId": 61920,
            "contract": "src/L1/OptimismPortal.sol:OptimismPortal",
            "label": "prevBaseFee",
            "offset": 0,
            "slot": "0",
            "type": "t_uint128"
          },
          {
            "astId": 61922,
            "contract": "src/L1/OptimismPortal.sol:OptimismPortal",
            "label": "prevBoughtGas",
            "offset": 16,
            "slot": "0",
            "type": "t_uint64"
          },
          {
            "astId": 61924,
            "contract": "src/L1/OptimismPortal.sol:OptimismPortal",
            "label": "prevBlockNum",
            "offset": 24,
            "slot": "0",
            "type": "t_uint64"
          }
        ]
      },
      "t_uint128": {
        "encoding": "inplace",
        "label": "uint128",
        "numberOfBytes": "16"
      },
      "t_uint256": {
        "encoding": "inplace",
        "label": "uint256",
        "numberOfBytes": "32"
      },
      "t_uint64": {
        "encoding": "inplace",
        "label": "uint64",
        "numberOfBytes": "8"
      },
      "t_uint8": {
        "encoding": "inplace",
        "label": "uint8",
        "numberOfBytes": "1"
      }
    }
  },
  "transactionHash": "0x87be6c36b560fdac2be966b0d5e333ff4bc47cb8292f811460b7028a67fabd71"
}