{
  "abi": [
    {
      "inputs": [],
      "stateMutability": "nonpayable",
      "type": "constructor"
    },
    {
      "anonymous": false,
      "inputs": [
        {
          "indexed": true,
          "internalType": "uint256",
          "name": "version",
          "type": "uint256"
        },
        {
          "indexed": true,
          "internalType": "enum ProtocolVersions.UpdateType",
          "name": "updateType",
          "type": "uint8"
        },
        {
          "indexed": false,
          "internalType": "bytes",
          "name": "data",
          "type": "bytes"
        }
      ],
      "name": "ConfigUpdate",
      "type": "event"
    },
    {
      "anonymous": false,
      "inputs": [
        {
          "indexed": false,
          "internalType": "uint8",
          "name": "version",
          "type": "uint8"
        }
      ],
      "name": "Initialized",
      "type": "event"
    },
    {
      "anonymous": false,
      "inputs": [
        {
          "indexed": true,
          "internalType": "address",
          "name": "previousOwner",
          "type": "address"
        },
        {
          "indexed": true,
          "internalType": "address",
          "name": "newOwner",
          "type": "address"
        }
      ],
      "name": "OwnershipTransferred",
      "type": "event"
    },
    {
      "inputs": [],
      "name": "RECOMMENDED_SLOT",
      "outputs": [
        {
          "internalType": "bytes32",
          "name": "",
          "type": "bytes32"
        }
      ],
      "stateMutability": "view",
      "type": "function"
    },
    {
      "inputs": [],
      "name": "REQUIRED_SLOT",
      "outputs": [
        {
          "internalType": "bytes32",
          "name": "",
          "type": "bytes32"
        }
      ],
      "stateMutability": "view",
      "type": "function"
    },
    {
      "inputs": [],
      "name": "VERSION",
      "outputs": [
        {
          "internalType": "uint256",
          "name": "",
          "type": "uint256"
        }
      ],
      "stateMutability": "view",
      "type": "function"
    },
    {
      "inputs": [
        {
          "internalType": "address",
          "name": "_owner",
          "type": "address"
        },
        {
          "internalType": "ProtocolVersion",
          "name": "_required",
          "type": "uint256"
        },
        {
          "internalType": "ProtocolVersion",
          "name": "_recommended",
          "type": "uint256"
        }
      ],
      "name": "initialize",
      "outputs": [],
      "stateMutability": "nonpayable",
      "type": "function"
    },
    {
      "inputs": [],
      "name": "owner",
      "outputs": [
        {
          "internalType": "address",
          "name": "",
          "type": "address"
        }
      ],
      "stateMutability": "view",
      "type": "function"
    },
    {
      "inputs": [],
      "name": "recommended",
      "outputs": [
        {
          "internalType": "ProtocolVersion",
          "name": "out_",
          "type": "uint256"
        }
      ],
      "stateMutability": "view",
      "type": "function"
    },
    {
      "inputs": [],
      "name": "renounceOwnership",
      "outputs": [],
      "stateMutability": "nonpayable",
      "type": "function"
    },
    {
      "inputs": [],
      "name": "required",
      "outputs": [
        {
          "internalType": "ProtocolVersion",
          "name": "out_",
          "type": "uint256"
        }
      ],
      "stateMutability": "view",
      "type": "function"
    },
    {
      "inputs": [
        {
          "internalType": "ProtocolVersion",
          "name": "_recommended",
          "type": "uint256"
        }
      ],
      "name": "setRecommended",
      "outputs": [],
      "stateMutability": "nonpayable",
      "type": "function"
    },
    {
      "inputs": [
        {
          "internalType": "ProtocolVersion",
          "name": "_required",
          "type": "uint256"
        }
      ],
      "name": "setRequired",
      "outputs": [],
      "stateMutability": "nonpayable",
      "type": "function"
    },
    {
      "inputs": [
        {
          "internalType": "address",
          "name": "newOwner",
          "type": "address"
        }
      ],
      "name": "transferOwnership",
      "outputs": [],
      "stateMutability": "nonpayable",
      "type": "function"
    },
    {
      "inputs": [],
      "name": "version",
      "outputs": [
        {
          "internalType": "string",
          "name": "",
          "type": "string"
        }
      ],
      "stateMutability": "view",
      "type": "function"
    }
  ],
  "address": "0x79DDb8160aa03e1470D6F02185293c6D46be76f2",
  "args": [],
  "bytecode": "0x60806040523480156200001157600080fd5b506200002261dead60008062000028565b620004c9565b600054600390610100900460ff161580156200004b575060005460ff8083169116105b620000b45760405162461bcd60e51b815260206004820152602e60248201527f496e697469616c697a61626c653a20636f6e747261637420697320616c72656160448201526d191e481a5b9a5d1a585b1a5e995960921b60648201526084015b60405180910390fd5b6000805461ffff191660ff831617610100179055620000d26200013a565b620000dd84620001a2565b620000e88362000221565b620000f382620002d1565b6000805461ff001916905560405160ff821681527f7f26b83ff96e1f2b6a682f133852f6798a09c465da95921460cefb38474024989060200160405180910390a150505050565b600054610100900460ff16620001965760405162461bcd60e51b815260206004820152602b602482015260008051602062000c4f83398151915260448201526a6e697469616c697a696e6760a81b6064820152608401620000ab565b620001a062000332565b565b620001ac62000399565b6001600160a01b038116620002135760405162461bcd60e51b815260206004820152602660248201527f4f776e61626c653a206e6577206f776e657220697320746865207a65726f206160448201526564647265737360d01b6064820152608401620000ab565b6200021e81620003f5565b50565b620002676200025260017f4aaefe95bd84fd3f32700cf3b7566bc944b73138e41958b5785826df2aecace16200044b565b60001b826200044760201b6200040f1760201c565b6000816040516020016200027d91815260200190565b60408051601f19818403018152919052905060005b60007f1d2b0bda21d56b8bd12d4f94ebacffdfb35f5e226f84b461103bb8beab6353be83604051620002c5919062000471565b60405180910390a35050565b620003026200025260017fe314dfc40f0025322aacc0ba8ef420b62fb3b702cf01e0cdf3d829117ac2ff1b6200044b565b6000816040516020016200031891815260200190565b60408051601f198184030181529190529050600162000292565b600054610100900460ff166200038e5760405162461bcd60e51b815260206004820152602b602482015260008051602062000c4f83398151915260448201526a6e697469616c697a696e6760a81b6064820152608401620000ab565b620001a033620003f5565b6033546001600160a01b03163314620001a05760405162461bcd60e51b815260206004820181905260248201527f4f776e61626c653a2063616c6c6572206973206e6f7420746865206f776e65726044820152606401620000ab565b603380546001600160a01b038381166001600160a01b0319831681179093556040519116919082907f8be0079c531659141344cd1fd0a4f28419497f9722a3daafe3b4186f6b6457e090600090a35050565b9055565b6000828210156200046c57634e487b7160e01b600052601160045260246000fd5b500390565b600060208083528351808285015260005b81811015620004a05785810183015185820160400152820162000482565b81811115620004b3576000604083870101525b50601f01601f1916929092016040019392505050565b61077680620004d96000396000f3fe608060405234801561001057600080fd5b50600436106100b45760003560e01c80638da5cb5b116100715780638da5cb5b14610148578063d798b1ac14610163578063dc8452cd1461016b578063f2fde38b14610173578063f7d1276014610186578063ffa1ad741461018e57600080fd5b80630457d6f2146100b9578063206a8300146100ce57806354fd4d50146100e95780635fd579af1461011a578063715018a61461012d5780637a1ac61e14610135575b600080fd5b6100cc6100c736600461060f565b610196565b005b6100d66101aa565b6040519081526020015b60405180910390f35b61010d604051806040016040528060058152602001640312e302e360dc1b81525081565b6040516100e09190610675565b6100cc61012836600461060f565b6101d8565b6100cc6101e9565b6100cc6101433660046106ab565b6101fd565b6033546040516001600160a01b0390911681526020016100e0565b6100d6610305565b6100d661033e565b6100cc6101813660046106de565b61036e565b6100d66103e4565b6100d6600081565b61019e610413565b6101a78161046d565b50565b6101d560017f4aaefe95bd84fd3f32700cf3b7566bc944b73138e41958b5785826df2aecace16106f9565b81565b6101e0610413565b6101a781610507565b6101f1610413565b6101fb6000610563565b565b600054600390610100900460ff1615801561021f575060005460ff8083169116105b6102875760405162461bcd60e51b815260206004820152602e60248201527f496e697469616c697a61626c653a20636f6e747261637420697320616c72656160448201526d191e481a5b9a5d1a585b1a5e995960921b60648201526084015b60405180910390fd5b6000805461ffff191660ff8316176101001790556102a36105b5565b6102ac8461036e565b6102b58361046d565b6102be82610507565b6000805461ff001916905560405160ff821681527f7f26b83ff96e1f2b6a682f133852f6798a09c465da95921460cefb38474024989060200160405180910390a150505050565b600061033961033560017fe314dfc40f0025322aacc0ba8ef420b62fb3b702cf01e0cdf3d829117ac2ff1b6106f9565b5490565b905090565b600061033961033560017f4aaefe95bd84fd3f32700cf3b7566bc944b73138e41958b5785826df2aecace16106f9565b610376610413565b6001600160a01b0381166103db5760405162461bcd60e51b815260206004820152602660248201527f4f776e61626c653a206e6577206f776e657220697320746865207a65726f206160448201526564647265737360d01b606482015260840161027e565b6101a781610563565b6101d560017fe314dfc40f0025322aacc0ba8ef420b62fb3b702cf01e0cdf3d829117ac2ff1b6106f9565b9055565b6033546001600160a01b031633146101fb5760405162461bcd60e51b815260206004820181905260248201527f4f776e61626c653a2063616c6c6572206973206e6f7420746865206f776e6572604482015260640161027e565b6104a061049b60017f4aaefe95bd84fd3f32700cf3b7566bc944b73138e41958b5785826df2aecace16106f9565b829055565b6000816040516020016104b591815260200190565b60408051601f19818403018152919052905060005b60007f1d2b0bda21d56b8bd12d4f94ebacffdfb35f5e226f84b461103bb8beab6353be836040516104fb9190610675565b60405180910390a35050565b61053561049b60017fe314dfc40f0025322aacc0ba8ef420b62fb3b702cf01e0cdf3d829117ac2ff1b6106f9565b60008160405160200161054a91815260200190565b60408051601f19818403018152919052905060016104ca565b603380546001600160a01b038381166001600160a01b0319831681179093556040519116919082907f8be0079c531659141344cd1fd0a4f28419497f9722a3daafe3b4186f6b6457e090600090a35050565b600054610100900460ff166105dc5760405162461bcd60e51b815260040161027e9061071e565b6101fb600054610100900460ff166106065760405162461bcd60e51b815260040161027e9061071e565b6101fb33610563565b60006020828403121561062157600080fd5b5035919050565b6000815180845260005b8181101561064e57602081850181015186830182015201610632565b81811115610660576000602083870101525b50601f01601f19169290920160200192915050565b6020815260006106886020830184610628565b9392505050565b80356001600160a01b03811681146106a657600080fd5b919050565b6000806000606084860312156106c057600080fd5b6106c98461068f565b95602085013595506040909401359392505050565b6000602082840312156106f057600080fd5b6106888261068f565b60008282101561071957634e487b7160e01b600052601160045260246000fd5b500390565b6020808252602b908201527f496e697469616c697a61626c653a20636f6e7472616374206973206e6f74206960408201526a6e697469616c697a696e6760a81b60608201526080019056fea164736f6c634300080f000a496e697469616c697a61626c653a20636f6e7472616374206973206e6f742069",
  "solcInputHash": "0x0000000000000000000000000000000000000000000000000000000000000000",
  "storageLayout": {
    "storage": [
      {
        "astId": 29667,
        "contract": "src/L1/ProtocolVersions.sol:ProtocolVersions",
        "label": "_initialized",
        "offset": 0,
        "slot": "0",
        "type": "t_uint8"
      },
      {
        "astId": 29670,
        "contract": "src/L1/ProtocolVersions.sol:ProtocolVersions",
        "label": "_initializing",
        "offset": 1,
        "slot": "0",
        "type": "t_bool"
      },
      {
        "astId": 31363,
        "contract": "src/L1/ProtocolVersions.sol:ProtocolVersions",
        "label": "__gap",
        "offset": 0,
        "slot": "1",
        "type": "t_array(t_uint256)50_storage"
      },
      {
        "astId": 29514,
        "contract": "src/L1/ProtocolVersions.sol:ProtocolVersions",
        "label": "_owner",
        "offset": 0,
        "slot": "51",
        "type": "t_address"
      },
      {
        "astId": 29634,
        "contract": "src/L1/ProtocolVersions.sol:ProtocolVersions",
        "label": "__gap",
        "offset": 0,
        "slot": "52",
        "type": "t_array(t_uint256)49_storage"
      }
    ],
    "types": {
      "t_address": {
        "encoding": "inplace",
        "label": "address",
        "numberOfBytes": "20"
      },
      "t_array(t_uint256)49_storage": {
        "encoding": "inplace",
        "label": "uint256[49]",
        "numberOfBytes": "1568",
        "base": "t_uint256"
      },
      "t_array(t_uint256)50_storage": {
        "encoding": "inplace",
        "label": "uint256[50]",
        "numberOfBytes": "1600",
        "base": "t_uint256"
      },
      "t_bool": {
        "encoding": "inplace",
        "label": "bool",
        "numberOfBytes": "1"
      },
      "t_uint256": {
        "encoding": "inplace",
        "label": "uint256",
        "numberOfBytes": "32"
      },
      "t_uint8": {
        "encoding": "inplace",
        "label": "uint8",
        "numberOfBytes": "1"
      }
    }
  },
  "transactionHash": "0xfd720e19527dd49545122d5b0501716fd69047647c02ca9f79e307d208a78eca"
}