{
  "abi": [
    {
      "inputs": [],
      "stateMutability": "nonpayable",
      "type": "constructor"
    },
    {
      "anonymous": false,
      "inputs": [
        {
          "indexed": true,
          "internalType": "bytes32",
          "name": "msgHash",
          "type": "bytes32"
        }
      ],
      "name": "FailedRelayedMessage",
      "type": "event"
    },
    {
      "anonymous": false,
      "inputs": [
        {
          "indexed": false,
          "internalType": "uint8",
          "name": "version",
          "type": "uint8"
        }
      ],
      "name": "Initialized",
      "type": "event"
    },
    {
      "anonymous": false,
      "inputs": [
        {
          "indexed": true,
          "internalType": "bytes32",
          "name": "msgHash",
          "type": "bytes32"
        }
      ],
      "name": "RelayedMessage",
      "type": "event"
    },
    {
      "anonymous": false,
      "inputs": [
        {
          "indexed": true,
          "internalType": "address",
          "name": "target",
          "type": "address"
        },
        {
          "indexed": false,
          "internalType": "address",
          "name": "sender",
          "type": "address"
        },
        {
          "indexed": false,
          "internalType": "bytes",
          "name": "message",
          "type": "bytes"
        },
        {
          "indexed": false,
          "internalType": "uint256",
          "name": "messageNonce",
          "type": "uint256"
        },
        {
          "indexed": false,
          "internalType": "uint256",
          "name": "gasLimit",
          "type": "uint256"
        }
      ],
      "name": "SentMessage",
      "type": "event"
    },
    {
      "anonymous": false,
      "inputs": [
        {
          "indexed": true,
          "internalType": "address",
          "name": "sender",
          "type": "address"
        },
        {
          "indexed": false,
          "internalType": "uint256",
          "name": "value",
          "type": "uint256"
        }
      ],
      "name": "SentMessageExtension1",
      "type": "event"
    },
    {
      "inputs": [],
      "name": "MESSAGE_VERSION",
      "outputs": [
        {
          "internalType": "uint16",
          "name": "",
          "type": "uint16"
        }
      ],
      "stateMutability": "view",
      "type": "function"
    },
    {
      "inputs": [],
      "name": "MIN_GAS_CALLDATA_OVERHEAD",
      "outputs": [
        {
          "internalType": "uint64",
          "name": "",
          "type": "uint64"
        }
      ],
      "stateMutability": "view",
      "type": "function"
    },
    {
      "inputs": [],
      "name": "MIN_GAS_DYNAMIC_OVERHEAD_DENOMINATOR",
      "outputs": [
        {
          "internalType": "uint64",
          "name": "",
          "type": "uint64"
        }
      ],
      "stateMutability": "view",
      "type": "function"
    },
    {
      "inputs": [],
      "name": "MIN_GAS_DYNAMIC_OVERHEAD_NUMERATOR",
      "outputs": [
        {
          "internalType": "uint64",
          "name": "",
          "type": "uint64"
        }
      ],
      "stateMutability": "view",
      "type": "function"
    },
    {
      "inputs": [],
      "name": "OTHER_MESSENGER",
      "outputs": [
        {
          "internalType": "address",
          "name": "",
          "type": "address"
        }
      ],
      "stateMutability": "view",
      "type": "function"
    },
    {
      "inputs": [],
      "name": "PORTAL",
      "outputs": [
        {
          "internalType": "contract OptimismPortal",
          "name": "",
          "type": "address"
        }
      ],
      "stateMutability": "view",
      "type": "function"
    },
    {
      "inputs": [],
      "name": "RELAY_CALL_OVERHEAD",
      "outputs": [
        {
          "internalType": "uint64",
          "name": "",
          "type": "uint64"
        }
      ],
      "stateMutability": "view",
      "type": "function"
    },
    {
      "inputs": [],
      "name": "RELAY_CONSTANT_OVERHEAD",
      "outputs": [
        {
          "internalType": "uint64",
          "name": "",
          "type": "uint64"
        }
      ],
      "stateMutability": "view",
      "type": "function"
    },
    {
      "inputs": [],
      "name": "RELAY_GAS_CHECK_BUFFER",
      "outputs": [
        {
          "internalType": "uint64",
          "name": "",
          "type": "uint64"
        }
      ],
      "stateMutability": "view",
      "type": "function"
    },
    {
      "inputs": [],
      "name": "RELAY_RESERVED_GAS",
      "outputs": [
        {
          "internalType": "uint64",
          "name": "",
          "type": "uint64"
        }
      ],
      "stateMutability": "view",
      "type": "function"
    },
    {
      "inputs": [
        {
          "internalType": "bytes",
          "name": "_message",
          "type": "bytes"
        },
        {
          "internalType": "uint32",
          "name": "_minGasLimit",
          "type": "uint32"
        }
      ],
      "name": "baseGas",
      "outputs": [
        {
          "internalType": "uint64",
          "name": "",
          "type": "uint64"
        }
      ],
      "stateMutability": "pure",
      "type": "function"
    },
    {
      "inputs": [
        {
          "internalType": "bytes32",
          "name": "",
          "type": "bytes32"
        }
      ],
      "name": "failedMessages",
      "outputs": [
        {
          "internalType": "bool",
          "name": "",
          "type": "bool"
        }
      ],
      "stateMutability": "view",
      "type": "function"
    },
    {
      "inputs": [
        {
          "internalType": "contract OptimismPortal",
          "name": "_portal",
          "type": "address"
        }
      ],
      "name": "initialize",
      "outputs": [],
      "stateMutability": "nonpayable",
      "type": "function"
    },
    {
      "inputs": [],
      "name": "messageNonce",
      "outputs": [
        {
          "internalType": "uint256",
          "name": "",
          "type": "uint256"
        }
      ],
      "stateMutability": "view",
      "type": "function"
    },
    {
      "inputs": [],
      "name": "portal",
      "outputs": [
        {
          "internalType": "address",
          "name": "",
          "type": "address"
        }
      ],
      "stateMutability": "view",
      "type": "function"
    },
    {
      "inputs": [
        {
          "internalType": "uint256",
          "name": "_nonce",
          "type": "uint256"
        },
        {
          "internalType": "address",
          "name": "_sender",
          "type": "address"
        },
        {
          "internalType": "address",
          "name": "_target",
          "type": "address"
        },
        {
          "internalType": "uint256",
          "name": "_value",
          "type": "uint256"
        },
        {
          "internalType": "uint256",
          "name": "_minGasLimit",
          "type": "uint256"
        },
        {
          "internalType": "bytes",
          "name": "_message",
          "type": "bytes"
        }
      ],
      "name": "relayMessage",
      "outputs": [],
      "stateMutability": "payable",
      "type": "function"
    },
    {
      "inputs": [
        {
          "internalType": "address",
          "name": "_target",
          "type": "address"
        },
        {
          "internalType": "bytes",
          "name": "_message",
          "type": "bytes"
        },
        {
          "internalType": "uint32",
          "name": "_minGasLimit",
          "type": "uint32"
        }
      ],
      "name": "sendMessage",
      "outputs": [],
      "stateMutability": "payable",
      "type": "function"
    },
    {
      "inputs": [
        {
          "internalType": "bytes32",
          "name": "",
          "type": "bytes32"
        }
      ],
      "name": "successfulMessages",
      "outputs": [
        {
          "internalType": "bool",
          "name": "",
          "type": "bool"
        }
      ],
      "stateMutability": "view",
      "type": "function"
    },
    {
      "inputs": [],
      "name": "version",
      "outputs": [
        {
          "internalType": "string",
          "name": "",
          "type": "string"
        }
      ],
      "stateMutability": "view",
      "type": "function"
    },
    {
      "inputs": [],
      "name": "xDomainMessageSender",
      "outputs": [
        {
          "internalType": "address",
          "name": "",
          "type": "address"
        }
      ],
      "stateMutability": "view",
      "type": "function"
    }
  ],
  "address": "0x0a9Dca722B206E4e4adeb2e1BA7E0Bb33D5c6D64",
  "args": [],
  "bytecode": "0x60a060405234801561001057600080fd5b507342000000000000000000000000000000000000076080526100336000610038565b6101e0565b600054600390600160a81b900460ff16158015610063575060005460ff808316600160a01b90920416105b6100cb5760405162461bcd60e51b815260206004820152602e60248201527f496e697469616c697a61626c653a20636f6e747261637420697320616c72656160448201526d191e481a5b9a5d1a585b1a5e995960921b60648201526084015b60405180910390fd5b60008054600160a81b61ffff60a01b19909116600160a01b60ff85160260ff60a81b19161717905560f980546001600160a01b0319166001600160a01b03841617905561011661015d565b6000805460ff60a81b1916905560405160ff821681527f7f26b83ff96e1f2b6a682f133852f6798a09c465da95921460cefb38474024989060200160405180910390a15050565b600054600160a81b900460ff166101ca5760405162461bcd60e51b815260206004820152602b60248201527f496e697469616c697a61626c653a20636f6e7472616374206973206e6f74206960448201526a6e697469616c697a696e6760a81b60648201526084016100c2565b60cc80546001600160a01b03191661dead179055565b6080516115466200020a600039600081816102bc015281816103c90152610e8c01526115466000f3fe60806040526004361061011f5760003560e01c80636e296e45116100a0578063b1b1b20911610064578063b1b1b2091461031e578063b28ade251461034e578063c4d66de81461036e578063d764ad0b1461038e578063ecc70428146103a157600080fd5b80636e296e451461027e57806383a74074146102935780638cbeeef2146101f65780639fce812c146102aa578063a4e7f8bd146102de57600080fd5b80633f827a5a116100e75780633f827a5a146101ce5780634c1d6a69146101f657806354fd4d501461020c5780635644cfdf1461024a5780636425666b1461026057600080fd5b8063028f85f7146101245780630c568498146101575780630ff754ea1461016c5780632828d7e8146101a45780633dbb202b146101b9575b600080fd5b34801561013057600080fd5b50610139601081565b60405167ffffffffffffffff90911681526020015b60405180910390f35b34801561016357600080fd5b50610139603f81565b34801561017857600080fd5b5060f95461018c906001600160a01b031681565b6040516001600160a01b03909116815260200161014e565b3480156101b057600080fd5b50610139604081565b6101cc6101c736600461108b565b6103c4565b005b3480156101da57600080fd5b506101e3600181565b60405161ffff909116815260200161014e565b34801561020257600080fd5b50610139619c4081565b34801561021857600080fd5b5061023d60405180604001604052806005815260200164312e372e3160d81b81525081565b60405161014e919061113f565b34801561025657600080fd5b5061013961138881565b34801561026c57600080fd5b5060f9546001600160a01b031661018c565b34801561028a57600080fd5b5061018c610504565b34801561029f57600080fd5b5061013962030d4081565b3480156102b657600080fd5b5061018c7f000000000000000000000000000000000000000000000000000000000000000081565b3480156102ea57600080fd5b5061030e6102f9366004611159565b60ce6020526000908152604090205460ff1681565b604051901515815260200161014e565b34801561032a57600080fd5b5061030e610339366004611159565b60cb6020526000908152604090205460ff1681565b34801561035a57600080fd5b50610139610369366004611172565b610597565b34801561037a57600080fd5b506101cc6103893660046111c6565b610605565b6101cc61039c3660046111e3565b610725565b3480156103ad57600080fd5b506103b6610d05565b60405190815260200161014e565b6104577f00000000000000000000000000000000000000000000000000000000000000006103f3858585610597565b3463d764ad0b60e01b610404610d05565b338a34898c8c6040516024016104209796959493929190611292565b60408051601f198184030181529190526020810180516001600160e01b03166001600160e01b031990931692909217909152610d1f565b836001600160a01b03167fcb0f7ffd78f9aee47a248fae8db181db6eee833039123e026dcbff529522e52a33858561048d610d05565b8660405161049f9594939291906112e5565b60405180910390a260405134815233907f8ebb2ec2465bdb2a06a66fc37a0963af8a2a6a1479d81d56fdb8cbb98096d5469060200160405180910390a2505060cd80546001600160f01b03808216600101166001600160f01b03199091161790555050565b60cc546000906001600160a01b031661deac19016105875760405162461bcd60e51b815260206004820152603560248201527f43726f7373446f6d61696e4d657373656e6765723a2078446f6d61696e4d65736044820152741cd859d954d95b99195c881a5cc81b9bdd081cd95d605a1b60648201526084015b60405180910390fd5b5060cc546001600160a01b031690565b6000611388619c4080603f6105b3604063ffffffff881661133e565b6105bd919061136e565b6105c860108861133e565b6105d59062030d406113a3565b6105df91906113a3565b6105e991906113a3565b6105f391906113a3565b6105fd91906113a3565b949350505050565b600054600390600160a81b900460ff16158015610630575060005460ff808316600160a01b90920416105b6106935760405162461bcd60e51b815260206004820152602e60248201527f496e697469616c697a61626c653a20636f6e747261637420697320616c72656160448201526d191e481a5b9a5d1a585b1a5e995960921b606482015260840161057e565b60008054600160a81b61ffff60a01b19909116600160a01b60ff85160260ff60a81b19161717905560f980546001600160a01b0319166001600160a01b0384161790556106de610d92565b6000805460ff60a81b1916905560405160ff821681527f7f26b83ff96e1f2b6a682f133852f6798a09c465da95921460cefb38474024989060200160405180910390a15050565b60f087901c600281106107b65760405162461bcd60e51b815260206004820152604d60248201527f43726f7373446f6d61696e4d657373656e6765723a206f6e6c7920766572736960448201527f6f6e2030206f722031206d657373616765732061726520737570706f7274656460648201526c20617420746869732074696d6560981b608482015260a40161057e565b8061ffff16600003610891576000610807878986868080601f0160208091040260200160405190810160405280939291908181526020018383808284376000920191909152508f9250610e15915050565b600081815260cb602052604090205490915060ff161561088f5760405162461bcd60e51b815260206004820152603760248201527f43726f7373446f6d61696e4d657373656e6765723a206c65676163792077697460448201527f6864726177616c20616c72656164792072656c61796564000000000000000000606482015260840161057e565b505b60006108d7898989898989898080601f016020809104026020016040519081016040528093929190818152602001838380828437600092019190915250610e3492505050565b90506108e1610e57565b15610919578534146108f5576108f56113cf565b600081815260ce602052604090205460ff1615610914576109146113cf565b610a1d565b34156109a65760405162461bcd60e51b815260206004820152605060248201527f43726f7373446f6d61696e4d657373656e6765723a2076616c7565206d75737460448201527f206265207a65726f20756e6c657373206d6573736167652069732066726f6d2060648201526f612073797374656d206164647265737360801b608482015260a40161057e565b600081815260ce602052604090205460ff16610a1d5760405162461bcd60e51b815260206004820152603060248201527f43726f7373446f6d61696e4d657373656e6765723a206d65737361676520636160448201526f1b9b9bdd081899481c995c1b185e595960821b606482015260840161057e565b610a2687610f0d565b15610aa55760405162461bcd60e51b815260206004820152604360248201527f43726f7373446f6d61696e4d657373656e6765723a2063616e6e6f742073656e60448201527f64206d65737361676520746f20626c6f636b65642073797374656d206164647260648201526265737360e81b608482015260a40161057e565b600081815260cb602052604090205460ff1615610b235760405162461bcd60e51b815260206004820152603660248201527f43726f7373446f6d61696e4d657373656e6765723a206d6573736167652068616044820152751cc8185b1c9958591e481899595b881c995b185e595960521b606482015260840161057e565b610b4485610b35611388619c406113a3565b67ffffffffffffffff16610f39565b1580610b5d575060cc546001600160a01b031661dead14155b15610bca57600081815260ce6020526040808220805460ff191660011790555182917f99d0e048484baa1b1540b1367cb128acd7ab2946d1ed91ec10e3c85e4bf51b8f91a26000193201610bc35760405162461bcd60e51b815260040161057e906113e5565b5050610cfc565b60cc80546001600160a01b0319166001600160a01b038a161790556000610c3688619c405a610bf99190611432565b8988888080601f016020809104026020016040519081016040528093929190818152602001838380828437600092019190915250610f5792505050565b60cc80546001600160a01b03191661dead17905590508015610c9757600082815260cb6020526040808220805460ff191660011790555183917f4641df4a962071e12719d8c8c8e5ac7fc4d97b927346a3d7a335b1f7517e133c91a2610cf8565b600082815260ce6020526040808220805460ff191660011790555183917f99d0e048484baa1b1540b1367cb128acd7ab2946d1ed91ec10e3c85e4bf51b8f91a26000193201610cf85760405162461bcd60e51b815260040161057e906113e5565b5050505b50505050505050565b60cd546001600160f01b0316600160f01b1790565b905090565b60f9546040516374f02e2160e11b81526001600160a01b039091169063e9e05c42908490610d5a908890839089906000908990600401611449565b6000604051808303818588803b158015610d7357600080fd5b505af1158015610d87573d6000803e3d6000fd5b505050505050505050565b600054600160a81b900460ff16610dff5760405162461bcd60e51b815260206004820152602b60248201527f496e697469616c697a61626c653a20636f6e7472616374206973206e6f74206960448201526a6e697469616c697a696e6760a81b606482015260840161057e565b60cc80546001600160a01b03191661dead179055565b6000610e2385858585610f71565b805190602001209050949350505050565b6000610e44878787878787610fbe565b8051906020012090509695505050505050565b60f9546000906001600160a01b031633148015610d1a575060f95460408051634dfb16c160e11b815290516001600160a01b037f00000000000000000000000000000000000000000000000000000000000000008116931691639bf62d829160048083019260209291908290030181865afa158015610eda573d6000803e3d6000fd5b505050506040513d601f19601f82011682018060405250810190610efe9190611493565b6001600160a01b031614905090565b60006001600160a01b038216301480610f33575060f9546001600160a01b038381169116145b92915050565b600080603f83619c4001026040850201603f5a021015949350505050565b600080600080845160208601878a8af19695505050505050565b606084848484604051602401610f8a94939291906114b0565b60408051601f198184030181529190526020810180516001600160e01b031663cbd4ece960e01b1790529050949350505050565b6060868686868686604051602401610fdb969594939291906114ed565b60408051601f198184030181529190526020810180516001600160e01b031663d764ad0b60e01b17905290509695505050505050565b6001600160a01b038116811461102657600080fd5b50565b60008083601f84011261103b57600080fd5b50813567ffffffffffffffff81111561105357600080fd5b60208301915083602082850101111561106b57600080fd5b9250929050565b803563ffffffff8116811461108657600080fd5b919050565b600080600080606085870312156110a157600080fd5b84356110ac81611011565b9350602085013567ffffffffffffffff8111156110c857600080fd5b6110d487828801611029565b90945092506110e7905060408601611072565b905092959194509250565b6000815180845260005b81811015611118576020818501810151868301820152016110fc565b8181111561112a576000602083870101525b50601f01601f19169290920160200192915050565b60208152600061115260208301846110f2565b9392505050565b60006020828403121561116b57600080fd5b5035919050565b60008060006040848603121561118757600080fd5b833567ffffffffffffffff81111561119e57600080fd5b6111aa86828701611029565b90945092506111bd905060208501611072565b90509250925092565b6000602082840312156111d857600080fd5b813561115281611011565b600080600080600080600060c0888a0312156111fe57600080fd5b87359650602088013561121081611011565b9550604088013561122081611011565b9450606088013593506080880135925060a088013567ffffffffffffffff81111561124a57600080fd5b6112568a828b01611029565b989b979a50959850939692959293505050565b81835281816020850137506000828201602090810191909152601f909101601f19169091010190565b8781526001600160a01b038781166020830152861660408201526060810185905263ffffffff8416608082015260c060a082018190526000906112d89083018486611269565b9998505050505050505050565b6001600160a01b038616815260806020820181905260009061130a9083018688611269565b905083604083015263ffffffff831660608301529695505050505050565b634e487b7160e01b600052601160045260246000fd5b600067ffffffffffffffff8083168185168183048111821515161561136557611365611328565b02949350505050565b600067ffffffffffffffff8084168061139757634e487b7160e01b600052601260045260246000fd5b92169190910492915050565b600067ffffffffffffffff8083168185168083038211156113c6576113c6611328565b01949350505050565b634e487b7160e01b600052600160045260246000fd5b6020808252602d908201527f43726f7373446f6d61696e4d657373656e6765723a206661696c656420746f2060408201526c72656c6179206d65737361676560981b606082015260800190565b60008282101561144457611444611328565b500390565b60018060a01b038616815284602082015267ffffffffffffffff84166040820152821515606082015260a06080820152600061148860a08301846110f2565b979650505050505050565b6000602082840312156114a557600080fd5b815161115281611011565b6001600160a01b038581168252841660208201526080604082018190526000906114dc908301856110f2565b905082606083015295945050505050565b8681526001600160a01b03868116602083015285166040820152606081018490526080810183905260c060a0820181905260009061152d908301846110f2565b9897505050505050505056fea164736f6c634300080f000a",
  "solcInputHash": "0x0000000000000000000000000000000000000000000000000000000000000000",
  "storageLayout": {
    "storage": [
      {
        "astId": 86115,
        "contract": "src/L1/L1CrossDomainMessenger.sol:L1CrossDomainMessenger",
        "label": "spacer_0_0_20",
        "offset": 0,
        "slot": "0",
        "type": "t_address"
      },
      {
        "astId": 29667,
        "contract": "src/L1/L1CrossDomainMessenger.sol:L1CrossDomainMessenger",
        "label": "_initialized",
        "offset": 20,
        "slot": "0",
        "type": "t_uint8"
      },
      {
        "astId": 29670,
        "contract": "src/L1/L1CrossDomainMessenger.sol:L1CrossDomainMessenger",
        "label": "_initializing",
        "offset": 21,
        "slot": "0",
        "type": "t_bool"
      },
      {
        "astId": 86122,
        "contract": "src/L1/L1CrossDomainMessenger.sol:L1CrossDomainMessenger",
        "label": "spacer_1_0_1600",
        "offset": 0,
        "slot": "1",
        "type": "t_array(t_uint256)50_storage"
      },
      {
        "astId": 86125,
        "contract": "src/L1/L1CrossDomainMessenger.sol:L1CrossDomainMessenger",
        "label": "spacer_51_0_20",
        "offset": 0,
        "slot": "51",
        "type": "t_address"
      },
      {
        "astId": 86130,
        "contract": "src/L1/L1CrossDomainMessenger.sol:L1CrossDomainMessenger",
        "label": "spacer_52_0_1568",
        "offset": 0,
        "slot": "52",
        "type": "t_array(t_uint256)49_storage"
      },
      {
        "astId": 86133,
        "contract": "src/L1/L1CrossDomainMessenger.sol:L1CrossDomainMessenger",
        "label": "spacer_101_0_1",
        "offset": 0,
        "slot": "101",
        "type": "t_bool"
      },
      {
        "astId": 86138,
        "contract": "src/L1/L1CrossDomainMessenger.sol:L1CrossDomainMessenger",
        "label": "spacer_102_0_1568",
        "offset": 0,
        "slot": "102",
        "type": "t_array(t_uint256)49_storage"
      },
      {
        "astId": 86141,
        "contract": "src/L1/L1CrossDomainMessenger.sol:L1CrossDomainMessenger",
        "label": "spacer_151_0_32",
        "offset": 0,
        "slot": "151",
        "type": "t_uint256"
      },
      {
        "astId": 86146,
        "contract": "src/L1/L1CrossDomainMessenger.sol:L1CrossDomainMessenger",
        "label": "spacer_152_0_1568",
        "offset": 0,
        "slot": "152",
        "type": "t_array(t_uint256)49_storage"
      },
      {
        "astId": 86151,
        "contract": "src/L1/L1CrossDomainMessenger.sol:L1CrossDomainMessenger",
        "label": "spacer_201_0_32",
        "offset": 0,
        "slot": "201",
        "type": "t_mapping(t_bytes32,t_bool)"
      },
      {
        "astId": 86156,
        "contract": "src/L1/L1CrossDomainMessenger.sol:L1CrossDomainMessenger",
        "label": "spacer_202_0_32",
        "offset": 0,
        "slot": "202",
        "type": "t_mapping(t_bytes32,t_bool)"
      },
      {
        "astId": 86204,
        "contract": "src/L1/L1CrossDomainMessenger.sol:L1CrossDomainMessenger",
        "label": "successfulMessages",
        "offset": 0,
        "slot": "203",
        "type": "t_mapping(t_bytes32,t_bool)"
      },
      {
        "astId": 86207,
        "contract": "src/L1/L1CrossDomainMessenger.sol:L1CrossDomainMessenger",
        "label": "xDomainMsgSender",
        "offset": 0,
        "slot": "204",
        "type": "t_address"
      },
      {
        "astId": 86210,
        "contract": "src/L1/L1CrossDomainMessenger.sol:L1CrossDomainMessenger",
        "label": "msgNonce",
        "offset": 0,
        "slot": "205",
        "type": "t_uint240"
      },
      {
        "astId": 86215,
        "contract": "src/L1/L1CrossDomainMessenger.sol:L1CrossDomainMessenger",
        "label": "failedMessages",
        "offset": 0,
        "slot": "206",
        "type": "t_mapping(t_bytes32,t_bool)"
      },
      {
        "astId": 86220,
        "contract": "src/L1/L1CrossDomainMessenger.sol:L1CrossDomainMessenger",
        "label": "__gap",
        "offset": 0,
        "slot": "207",
        "type": "t_array(t_uint256)42_storage"
      },
      {
        "astId": 59415,
        "contract": "src/L1/L1CrossDomainMessenger.sol:L1CrossDomainMessenger",
        "label": "PORTAL",
        "offset": 0,
        "slot": "249",
        "type": "t_contract(OptimismPortal)61652"
      }
    ],
    "types": {
      "t_address": {
        "encoding": "inplace",
        "label": "address",
        "numberOfBytes": "20"
      },
      "t_array(t_uint256)42_storage": {
        "encoding": "inplace",
        "label": "uint256[42]",
        "numberOfBytes": "1344",
        "base": "t_uint256"
      },
      "t_array(t_uint256)49_storage": {
        "encoding": "inplace",
        "label": "uint256[49]",
        "numberOfBytes": "1568",
        "base": "t_uint256"
      },
      "t_array(t_uint256)50_storage": {
        "encoding": "inplace",
        "label": "uint256[50]",
        "numberOfBytes": "1600",
        "base": "t_uint256"
      },
      "t_bool": {
        "encoding": "inplace",
        "label": "bool",
        "numberOfBytes": "1"
      },
      "t_bytes32": {
        "encoding": "inplace",
        "label": "bytes32",
        "numberOfBytes": "32"
      },
      "t_contract(OptimismPortal)61652": {
        "encoding": "inplace",
        "label": "contract OptimismPortal",
        "numberOfBytes": "20"
      },
      "t_mapping(t_bytes32,t_bool)": {
        "encoding": "mapping",
        "key": "t_bytes32",
        "label": "mapping(bytes32 => bool)",
        "numberOfBytes": "32",
        "value": "t_bool"
      },
      "t_uint240": {
        "encoding": "inplace",
        "label": "uint240",
        "numberOfBytes": "30"
      },
      "t_uint256": {
        "encoding": "inplace",
        "label": "uint256",
        "numberOfBytes": "32"
      },
      "t_uint8": {
        "encoding": "inplace",
        "label": "uint8",
        "numberOfBytes": "1"
      }
    }
  },
  "transactionHash": "0xf3fb12eed89ee307d95d51f1af69a70666b05905e9cb7e08facf42c432f05f95"
}