{
  "abi": [
    {
      "inputs": [],
      "stateMutability": "nonpayable",
      "type": "constructor"
    },
    {
      "anonymous": false,
      "inputs": [
        {
          "indexed": true,
          "internalType": "address",
          "name": "localToken",
          "type": "address"
        },
        {
          "indexed": true,
          "internalType": "address",
          "name": "remoteToken",
          "type": "address"
        },
        {
          "indexed": true,
          "internalType": "address",
          "name": "from",
          "type": "address"
        },
        {
          "indexed": false,
          "internalType": "address",
          "name": "to",
          "type": "address"
        },
        {
          "indexed": false,
          "internalType": "uint256",
          "name": "tokenId",
          "type": "uint256"
        },
        {
          "indexed": false,
          "internalType": "bytes",
          "name": "extraData",
          "type": "bytes"
        }
      ],
      "name": "ERC721BridgeFinalized",
      "type": "event"
    },
    {
      "anonymous": false,
      "inputs": [
        {
          "indexed": true,
          "internalType": "address",
          "name": "localToken",
          "type": "address"
        },
        {
          "indexed": true,
          "internalType": "address",
          "name": "remoteToken",
          "type": "address"
        },
        {
          "indexed": true,
          "internalType": "address",
          "name": "from",
          "type": "address"
        },
        {
          "indexed": false,
          "internalType": "address",
          "name": "to",
          "type": "address"
        },
        {
          "indexed": false,
          "internalType": "uint256",
          "name": "tokenId",
          "type": "uint256"
        },
        {
          "indexed": false,
          "internalType": "bytes",
          "name": "extraData",
          "type": "bytes"
        }
      ],
      "name": "ERC721BridgeInitiated",
      "type": "event"
    },
    {
      "anonymous": false,
      "inputs": [
        {
          "indexed": false,
          "internalType": "uint8",
          "name": "version",
          "type": "uint8"
        }
      ],
      "name": "Initialized",
      "type": "event"
    },
    {
      "inputs": [],
      "name": "MESSENGER",
      "outputs": [
        {
          "internalType": "contract CrossDomainMessenger",
          "name": "",
          "type": "address"
        }
      ],
      "stateMutability": "view",
      "type": "function"
    },
    {
      "inputs": [],
      "name": "OTHER_BRIDGE",
      "outputs": [
        {
          "internalType": "address",
          "name": "",
          "type": "address"
        }
      ],
      "stateMutability": "view",
      "type": "function"
    },
    {
      "inputs": [
        {
          "internalType": "address",
          "name": "_localToken",
          "type": "address"
        },
        {
          "internalType": "address",
          "name": "_remoteToken",
          "type": "address"
        },
        {
          "internalType": "uint256",
          "name": "_tokenId",
          "type": "uint256"
        },
        {
          "internalType": "uint32",
          "name": "_minGasLimit",
          "type": "uint32"
        },
        {
          "internalType": "bytes",
          "name": "_extraData",
          "type": "bytes"
        }
      ],
      "name": "bridgeERC721",
      "outputs": [],
      "stateMutability": "nonpayable",
      "type": "function"
    },
    {
      "inputs": [
        {
          "internalType": "address",
          "name": "_localToken",
          "type": "address"
        },
        {
          "internalType": "address",
          "name": "_remoteToken",
          "type": "address"
        },
        {
          "internalType": "address",
          "name": "_to",
          "type": "address"
        },
        {
          "internalType": "uint256",
          "name": "_tokenId",
          "type": "uint256"
        },
        {
          "internalType": "uint32",
          "name": "_minGasLimit",
          "type": "uint32"
        },
        {
          "internalType": "bytes",
          "name": "_extraData",
          "type": "bytes"
        }
      ],
      "name": "bridgeERC721To",
      "outputs": [],
      "stateMutability": "nonpayable",
      "type": "function"
    },
    {
      "inputs": [
        {
          "internalType": "address",
          "name": "",
          "type": "address"
        },
        {
          "internalType": "address",
          "name": "",
          "type": "address"
        },
        {
          "internalType": "uint256",
          "name": "",
          "type": "uint256"
        }
      ],
      "name": "deposits",
      "outputs": [
        {
          "internalType": "bool",
          "name": "",
          "type": "bool"
        }
      ],
      "stateMutability": "view",
      "type": "function"
    },
    {
      "inputs": [
        {
          "internalType": "address",
          "name": "_localToken",
          "type": "address"
        },
        {
          "internalType": "address",
          "name": "_remoteToken",
          "type": "address"
        },
        {
          "internalType": "address",
          "name": "_from",
          "type": "address"
        },
        {
          "internalType": "address",
          "name": "_to",
          "type": "address"
        },
        {
          "internalType": "uint256",
          "name": "_tokenId",
          "type": "uint256"
        },
        {
          "internalType": "bytes",
          "name": "_extraData",
          "type": "bytes"
        }
      ],
      "name": "finalizeBridgeERC721",
      "outputs": [],
      "stateMutability": "nonpayable",
      "type": "function"
    },
    {
      "inputs": [
        {
          "internalType": "contract CrossDomainMessenger",
          "name": "_messenger",
          "type": "address"
        }
      ],
      "name": "initialize",
      "outputs": [],
      "stateMutability": "nonpayable",
      "type": "function"
    },
    {
      "inputs": [],
      "name": "messenger",
      "outputs": [
        {
          "internalType": "contract CrossDomainMessenger",
          "name": "",
          "type": "address"
        }
      ],
      "stateMutability": "view",
      "type": "function"
    },
    {
      "inputs": [],
      "name": "otherBridge",
      "outputs": [
        {
          "internalType": "address",
          "name": "",
          "type": "address"
        }
      ],
      "stateMutability": "view",
      "type": "function"
    },
    {
      "inputs": [],
      "name": "version",
      "outputs": [
        {
          "internalType": "string",
          "name": "",
          "type": "string"
        }
      ],
      "stateMutability": "view",
      "type": "function"
    }
  ],
  "address": "0x586d6C19d6B87d4096761aE173ff5D5c5148e595",
  "args": [],
  "bytecode": "0x60a060405234801561001057600080fd5b50734200000000000000000000000000000000000014610034565b60405180910390fd5b6001600160a01b031660805261004a600061004f565b6101cb565b600054600390610100900460ff16158015610071575060005460ff8083169116105b6100d45760405162461bcd60e51b815260206004820152602e60248201527f496e697469616c697a61626c653a20636f6e747261637420697320616c72656160448201526d191e481a5b9a5d1a585b1a5e995960921b606482015260840161002b565b6000805461ffff191660ff8316176101001790556100f182610136565b6000805461ff001916905560405160ff821681527f7f26b83ff96e1f2b6a682f133852f6798a09c465da95921460cefb38474024989060200160405180910390a15050565b600054610100900460ff166101a15760405162461bcd60e51b815260206004820152602b60248201527f496e697469616c697a61626c653a20636f6e7472616374206973206e6f74206960448201526a6e697469616c697a696e6760a81b606482015260840161002b565b600080546001600160a01b03909216620100000262010000600160b01b0319909216919091179055565b608051610dfc6101fb6000396000818161017b015281816101dc0152818161029f01526108c20152610dfc6000f3fe608060405234801561001057600080fd5b506004361061009e5760003560e01c80637f46ddb2116100665780637f46ddb214610176578063927ede2d1461019d578063aa557452146101b4578063c4d66de8146101c7578063c89701a2146101da57600080fd5b80633687011a146100a35780633cb747bf146100b857806354fd4d50146100ee5780635d93a3fc1461011f578063761f449314610163575b600080fd5b6100b66100b1366004610a95565b610200565b005b6000546100d1906201000090046001600160a01b031681565b6040516001600160a01b0390911681526020015b60405180910390f35b61011260405180604001604052806005815260200164312e342e3160d81b81525081565b6040516100e59190610b65565b61015361012d366004610b7f565b603160209081526000938452604080852082529284528284209052825290205460ff1681565b60405190151581526020016100e5565b6100b6610171366004610bc0565b610282565b6100d17f000000000000000000000000000000000000000000000000000000000000000081565b6000546201000090046001600160a01b03166100d1565b6100b66101c2366004610c58565b6105c6565b6100b66101d5366004610ccf565b61064e565b7f00000000000000000000000000000000000000000000000000000000000000006100d1565b333b1561026a5760405162461bcd60e51b815260206004820152602d60248201527f4552433732314272696467653a206163636f756e74206973206e6f742065787460448201526c195c9b985b1b1e481bdddb9959609a1b60648201526084015b60405180910390fd5b61027a8686333388888888610735565b505050505050565b6000546201000090046001600160a01b03163314801561034957507f00000000000000000000000000000000000000000000000000000000000000006001600160a01b0316600060029054906101000a90046001600160a01b03166001600160a01b0316636e296e456040518163ffffffff1660e01b8152600401602060405180830381865afa15801561031a573d6000803e3d6000fd5b505050506040513d601f19601f8201168201806040525081019061033e9190610cec565b6001600160a01b0316145b6103bb5760405162461bcd60e51b815260206004820152603f60248201527f4552433732314272696467653a2066756e6374696f6e2063616e206f6e6c792060448201527f62652063616c6c65642066726f6d20746865206f7468657220627269646765006064820152608401610261565b306001600160a01b038816036104265760405162461bcd60e51b815260206004820152602a60248201527f4c314552433732314272696467653a206c6f63616c20746f6b656e2063616e6e60448201526937ba1031329039b2b63360b11b6064820152608401610261565b6001600160a01b038088166000908152603160209081526040808320938a1683529281528282208683529052205460ff1615156001146104ce5760405162461bcd60e51b815260206004820152603960248201527f4c314552433732314272696467653a20546f6b656e204944206973206e6f742060448201527f657363726f77656420696e20746865204c3120427269646765000000000000006064820152608401610261565b6001600160a01b0387811660008181526031602090815260408083208b86168452825280832088845290915290819020805460ff1916905551632142170760e11b8152306004820152918616602483015260448201859052906342842e0e90606401600060405180830381600087803b15801561054a57600080fd5b505af115801561055e573d6000803e3d6000fd5b50505050846001600160a01b0316866001600160a01b0316886001600160a01b03167f1f39bf6707b5d608453e0ae4c067b562bcc4c85c0f562ef5d2c774d2e7f131ac878787876040516105b59493929190610d32565b60405180910390a450505050505050565b6001600160a01b0385166106355760405162461bcd60e51b815260206004820152603060248201527f4552433732314272696467653a206e667420726563697069656e742063616e6e60448201526f6f74206265206164647265737328302960801b6064820152608401610261565b6106458787338888888888610735565b50505050505050565b600054600390610100900460ff16158015610670575060005460ff8083169116105b6106d35760405162461bcd60e51b815260206004820152602e60248201527f496e697469616c697a61626c653a20636f6e747261637420697320616c72656160448201526d191e481a5b9a5d1a585b1a5e995960921b6064820152608401610261565b6000805461ffff191660ff8316176101001790556106f082610986565b6000805461ff001916905560405160ff821681527f7f26b83ff96e1f2b6a682f133852f6798a09c465da95921460cefb38474024989060200160405180910390a15050565b6001600160a01b0387166107a55760405162461bcd60e51b815260206004820152603160248201527f4c314552433732314272696467653a2072656d6f746520746f6b656e2063616e6044820152706e6f74206265206164647265737328302960781b6064820152608401610261565b600063761f449360e01b888a89898988886040516024016107cc9796959493929190610d64565b60408051601f19818403018152918152602080830180516001600160e01b03166001600160e01b031995909516949094179093526001600160a01b038c81166000818152603186528381208e8416825286528381208b825290955293829020805460ff1916600117905590516323b872dd60e01b8152908a166004820152306024820152604481018890529092506323b872dd90606401600060405180830381600087803b15801561087d57600080fd5b505af1158015610891573d6000803e3d6000fd5b5050600054604051633dbb202b60e01b8152620100009091046001600160a01b03169250633dbb202b91506108ee907f00000000000000000000000000000000000000000000000000000000000000009085908990600401610db5565b600060405180830381600087803b15801561090857600080fd5b505af115801561091c573d6000803e3d6000fd5b50505050866001600160a01b0316886001600160a01b03168a6001600160a01b03167fb7460e2a880f256ebef3406116ff3eee0cee51ebccdc2a40698f87ebb2e9c1a5898988886040516109739493929190610d32565b60405180910390a4505050505050505050565b600054610100900460ff166109f15760405162461bcd60e51b815260206004820152602b60248201527f496e697469616c697a61626c653a20636f6e7472616374206973206e6f74206960448201526a6e697469616c697a696e6760a81b6064820152608401610261565b600080546001600160a01b03909216620100000262010000600160b01b0319909216919091179055565b6001600160a01b0381168114610a3057600080fd5b50565b803563ffffffff81168114610a4757600080fd5b919050565b60008083601f840112610a5e57600080fd5b50813567ffffffffffffffff811115610a7657600080fd5b602083019150836020828501011115610a8e57600080fd5b9250929050565b60008060008060008060a08789031215610aae57600080fd5b8635610ab981610a1b565b95506020870135610ac981610a1b565b945060408701359350610ade60608801610a33565b9250608087013567ffffffffffffffff811115610afa57600080fd5b610b0689828a01610a4c565b979a9699509497509295939492505050565b6000815180845260005b81811015610b3e57602081850181015186830182015201610b22565b81811115610b50576000602083870101525b50601f01601f19169290920160200192915050565b602081526000610b786020830184610b18565b9392505050565b600080600060608486031215610b9457600080fd5b8335610b9f81610a1b565b92506020840135610baf81610a1b565b929592945050506040919091013590565b600080600080600080600060c0888a031215610bdb57600080fd5b8735610be681610a1b565b96506020880135610bf681610a1b565b95506040880135610c0681610a1b565b94506060880135610c1681610a1b565b93506080880135925060a088013567ffffffffffffffff811115610c3957600080fd5b610c458a828b01610a4c565b989b979a50959850939692959293505050565b600080600080600080600060c0888a031215610c7357600080fd5b8735610c7e81610a1b565b96506020880135610c8e81610a1b565b95506040880135610c9e81610a1b565b945060608801359350610cb360808901610a33565b925060a088013567ffffffffffffffff811115610c3957600080fd5b600060208284031215610ce157600080fd5b8135610b7881610a1b565b600060208284031215610cfe57600080fd5b8151610b7881610a1b565b81835281816020850137506000828201602090810191909152601f909101601f19169091010190565b60018060a01b0385168152836020820152606060408201526000610d5a606083018486610d09565b9695505050505050565b6001600160a01b03888116825287811660208301528681166040830152851660608201526080810184905260c060a08201819052600090610da89083018486610d09565b9998505050505050505050565b6001600160a01b0384168152606060208201819052600090610dd990830185610b18565b905063ffffffff8316604083015294935050505056fea164736f6c634300080f000a",
  "solcInputHash": "0x0000000000000000000000000000000000000000000000000000000000000000",
  "storageLayout": {
    "storage": [
      {
        "astId": 33573,
        "contract": "src/L1/L1ERC721Bridge.sol:L1ERC721Bridge",
        "label": "_initialized",
        "offset": 0,
        "slot": "0",
        "type": "t_uint8"
      },
      {
        "astId": 33576,
        "contract": "src/L1/L1ERC721Bridge.sol:L1ERC721Bridge",
        "label": "_initializing",
        "offset": 1,
        "slot": "0",
        "type": "t_bool"
      },
      {
        "astId": 86651,
        "contract": "src/L1/L1ERC721Bridge.sol:L1ERC721Bridge",
        "label": "messenger",
        "offset": 2,
        "slot": "0",
        "type": "t_contract(CrossDomainMessenger)86636"
      },
      {
        "astId": 86659,
        "contract": "src/L1/L1ERC721Bridge.sol:L1ERC721Bridge",
        "label": "__gap",
        "offset": 0,
        "slot": "1",
        "type": "t_array(t_uint256)48_storage"
      },
      {
        "astId": 59571,
        "contract": "src/L1/L1ERC721Bridge.sol:L1ERC721Bridge",
        "label": "deposits",
        "offset": 0,
        "slot": "49",
        "type": "t_mapping(t_address,t_mapping(t_address,t_mapping(t_uint256,t_bool)))"
      }
    ],
    "types": {
      "t_address": {
        "encoding": "inplace",
        "label": "address",
        "numberOfBytes": "20"
      },
      "t_array(t_uint256)48_storage": {
        "encoding": "inplace",
        "label": "uint256[48]",
        "numberOfBytes": "1536",
        "base": "t_uint256"
      },
      "t_bool": {
        "encoding": "inplace",
        "label": "bool",
        "numberOfBytes": "1"
      },
      "t_contract(CrossDomainMessenger)86636": {
        "encoding": "inplace",
        "label": "contract CrossDomainMessenger",
        "numberOfBytes": "20"
      },
      "t_mapping(t_address,t_mapping(t_address,t_mapping(t_uint256,t_bool)))": {
        "encoding": "mapping",
        "key": "t_address",
        "label": "mapping(address => mapping(address => mapping(uint256 => bool)))",
        "numberOfBytes": "32",
        "value": "t_mapping(t_address,t_mapping(t_uint256,t_bool))"
      },
      "t_mapping(t_address,t_mapping(t_uint256,t_bool))": {
        "encoding": "mapping",
        "key": "t_address",
        "label": "mapping(address => mapping(uint256 => bool))",
        "numberOfBytes": "32",
        "value": "t_mapping(t_uint256,t_bool)"
      },
      "t_mapping(t_uint256,t_bool)": {
        "encoding": "mapping",
        "key": "t_uint256",
        "label": "mapping(uint256 => bool)",
        "numberOfBytes": "32",
        "value": "t_bool"
      },
      "t_uint256": {
        "encoding": "inplace",
        "label": "uint256",
        "numberOfBytes": "32"
      },
      "t_uint8": {
        "encoding": "inplace",
        "label": "uint8",
        "numberOfBytes": "1"
      }
    }
  },
  "transactionHash": "0xfe06c0ee9a6df26bbf9db52af6cb10b57b23211962d52f500a32926b8b1634f8"
}