{
  "abi": [
    {
      "inputs": [
        {
          "internalType": "contract YieldManager",
          "name": "_yieldManager",
          "type": "address"
        },
        {
          "internalType": "address",
          "name": "_owner",
          "type": "address"
        }
      ],
      "stateMutability": "nonpayable",
      "type": "constructor"
    },
    {
      "inputs": [],
      "name": "CallerIsNotYieldManager",
      "type": "error"
    },
    {
      "inputs": [],
      "name": "ContextIsNotYieldManager",
      "type": "error"
    },
    {
      "inputs": [],
      "name": "InsufficientStakableFunds",
      "type": "error"
    },
    {
      "inputs": [],
      "name": "NotSupported",
      "type": "error"
    },
    {
      "anonymous": false,
      "inputs": [
        {
          "indexed": true,
          "internalType": "bytes32",
          "name": "provider",
          "type": "bytes32"
        },
        {
          "indexed": false,
          "internalType": "uint256",
          "name": "amount",
          "type": "uint256"
        }
      ],
      "name": "Claimed",
      "type": "event"
    },
    {
      "anonymous": false,
      "inputs": [
        {
          "indexed": true,
          "internalType": "bytes32",
          "name": "provider",
          "type": "bytes32"
        },
        {
          "indexed": false,
          "internalType": "uint256",
          "name": "amount",
          "type": "uint256"
        }
      ],
      "name": "InsurancePremiumPaid",
      "type": "event"
    },
    {
      "anonymous": false,
      "inputs": [
        {
          "indexed": true,
          "internalType": "bytes32",
          "name": "provider",
          "type": "bytes32"
        },
        {
          "indexed": false,
          "internalType": "uint256",
          "name": "amount",
          "type": "uint256"
        }
      ],
      "name": "InsuranceWithdrawn",
      "type": "event"
    },
    {
      "anonymous": false,
      "inputs": [
        {
          "indexed": true,
          "internalType": "address",
          "name": "previousOwner",
          "type": "address"
        },
        {
          "indexed": true,
          "internalType": "address",
          "name": "newOwner",
          "type": "address"
        }
      ],
      "name": "OwnershipTransferred",
      "type": "event"
    },
    {
      "anonymous": false,
      "inputs": [
        {
          "indexed": true,
          "internalType": "bytes32",
          "name": "provider",
          "type": "bytes32"
        },
        {
          "indexed": false,
          "internalType": "uint256",
          "name": "amount",
          "type": "uint256"
        }
      ],
      "name": "Pending",
      "type": "event"
    },
    {
      "anonymous": false,
      "inputs": [
        {
          "indexed": true,
          "internalType": "bytes32",
          "name": "provider",
          "type": "bytes32"
        },
        {
          "indexed": false,
          "internalType": "uint256",
          "name": "amount",
          "type": "uint256"
        }
      ],
      "name": "Staked",
      "type": "event"
    },
    {
      "anonymous": false,
      "inputs": [
        {
          "indexed": true,
          "internalType": "bytes32",
          "name": "provider",
          "type": "bytes32"
        },
        {
          "indexed": false,
          "internalType": "uint256",
          "name": "amount",
          "type": "uint256"
        }
      ],
      "name": "Unstaked",
      "type": "event"
    },
    {
      "anonymous": false,
      "inputs": [
        {
          "indexed": true,
          "internalType": "bytes32",
          "name": "provider",
          "type": "bytes32"
        },
        {
          "indexed": false,
          "internalType": "int256",
          "name": "yield",
          "type": "int256"
        }
      ],
      "name": "YieldCommit",
      "type": "event"
    },
    {
      "inputs": [],
      "name": "YIELD_MANAGER",
      "outputs": [
        {
          "internalType": "contract YieldManager",
          "name": "",
          "type": "address"
        }
      ],
      "stateMutability": "view",
      "type": "function"
    },
    {
      "inputs": [
        {
          "internalType": "uint256[]",
          "name": "requestIds",
          "type": "uint256[]"
        }
      ],
      "name": "claim",
      "outputs": [
        {
          "internalType": "uint256",
          "name": "claimed",
          "type": "uint256"
        }
      ],
      "stateMutability": "nonpayable",
      "type": "function"
    },
    {
      "inputs": [],
      "name": "commitYield",
      "outputs": [
        {
          "internalType": "int256",
          "name": "",
          "type": "int256"
        }
      ],
      "stateMutability": "nonpayable",
      "type": "function"
    },
    {
      "inputs": [],
      "name": "id",
      "outputs": [
        {
          "internalType": "bytes32",
          "name": "",
          "type": "bytes32"
        }
      ],
      "stateMutability": "view",
      "type": "function"
    },
    {
      "inputs": [],
      "name": "initialize",
      "outputs": [],
      "stateMutability": "nonpayable",
      "type": "function"
    },
    {
      "inputs": [],
      "name": "insuranceBalance",
      "outputs": [
        {
          "internalType": "uint256",
          "name": "",
          "type": "uint256"
        }
      ],
      "stateMutability": "view",
      "type": "function"
    },
    {
      "inputs": [
        {
          "internalType": "address",
          "name": "token",
          "type": "address"
        }
      ],
      "name": "isStakingEnabled",
      "outputs": [
        {
          "internalType": "bool",
          "name": "",
          "type": "bool"
        }
      ],
      "stateMutability": "view",
      "type": "function"
    },
    {
      "inputs": [],
      "name": "name",
      "outputs": [
        {
          "internalType": "string",
          "name": "",
          "type": "string"
        }
      ],
      "stateMutability": "pure",
      "type": "function"
    },
    {
      "inputs": [],
      "name": "owner",
      "outputs": [
        {
          "internalType": "address",
          "name": "",
          "type": "address"
        }
      ],
      "stateMutability": "view",
      "type": "function"
    },
    {
      "inputs": [
        {
          "internalType": "uint256",
          "name": "amount",
          "type": "uint256"
        }
      ],
      "name": "payInsurancePremium",
      "outputs": [],
      "stateMutability": "nonpayable",
      "type": "function"
    },
    {
      "inputs": [],
      "name": "pendingBalance",
      "outputs": [
        {
          "internalType": "uint256",
          "name": "",
          "type": "uint256"
        }
      ],
      "stateMutability": "view",
      "type": "function"
    },
    {
      "inputs": [
        {
          "internalType": "uint256",
          "name": "amount",
          "type": "uint256"
        }
      ],
      "name": "recordClaimed",
      "outputs": [],
      "stateMutability": "nonpayable",
      "type": "function"
    },
    {
      "inputs": [
        {
          "internalType": "uint256",
          "name": "amount",
          "type": "uint256"
        }
      ],
      "name": "recordPending",
      "outputs": [],
      "stateMutability": "nonpayable",
      "type": "function"
    },
    {
      "inputs": [
        {
          "internalType": "uint256",
          "name": "amount",
          "type": "uint256"
        }
      ],
      "name": "recordStakedDeposit",
      "outputs": [],
      "stateMutability": "nonpayable",
      "type": "function"
    },
    {
      "inputs": [
        {
          "internalType": "uint256",
          "name": "amount",
          "type": "uint256"
        }
      ],
      "name": "recordStakedWithdraw",
      "outputs": [],
      "stateMutability": "nonpayable",
      "type": "function"
    },
    {
      "inputs": [
        {
          "internalType": "uint256",
          "name": "amount",
          "type": "uint256"
        }
      ],
      "name": "recordYield",
      "outputs": [],
      "stateMutability": "payable",
      "type": "function"
    },
    {
      "inputs": [],
      "name": "renounceOwnership",
      "outputs": [],
      "stateMutability": "nonpayable",
      "type": "function"
    },
    {
      "inputs": [
        {
          "internalType": "uint256",
          "name": "amount",
          "type": "uint256"
        }
      ],
      "name": "stake",
      "outputs": [],
      "stateMutability": "nonpayable",
      "type": "function"
    },
    {
      "inputs": [],
      "name": "stakedBalance",
      "outputs": [
        {
          "internalType": "uint256",
          "name": "",
          "type": "uint256"
        }
      ],
      "stateMutability": "view",
      "type": "function"
    },
    {
      "inputs": [],
      "name": "stakedValue",
      "outputs": [
        {
          "internalType": "uint256",
          "name": "",
          "type": "uint256"
        }
      ],
      "stateMutability": "view",
      "type": "function"
    },
    {
      "inputs": [],
      "name": "supportsInsurancePayment",
      "outputs": [
        {
          "internalType": "bool",
          "name": "",
          "type": "bool"
        }
      ],
      "stateMutability": "view",
      "type": "function"
    },
    {
      "inputs": [],
      "name": "totalProviderValue",
      "outputs": [
        {
          "internalType": "uint256",
          "name": "",
          "type": "uint256"
        }
      ],
      "stateMutability": "view",
      "type": "function"
    },
    {
      "inputs": [
        {
          "internalType": "address",
          "name": "newOwner",
          "type": "address"
        }
      ],
      "name": "transferOwnership",
      "outputs": [],
      "stateMutability": "nonpayable",
      "type": "function"
    },
    {
      "inputs": [
        {
          "internalType": "uint256",
          "name": "amount",
          "type": "uint256"
        }
      ],
      "name": "unstake",
      "outputs": [
        {
          "internalType": "uint256",
          "name": "pending",
          "type": "uint256"
        }
      ],
      "stateMutability": "nonpayable",
      "type": "function"
    },
    {
      "inputs": [],
      "name": "version",
      "outputs": [
        {
          "internalType": "string",
          "name": "",
          "type": "string"
        }
      ],
      "stateMutability": "view",
      "type": "function"
    },
    {
      "inputs": [
        {
          "internalType": "uint256",
          "name": "amount",
          "type": "uint256"
        }
      ],
      "name": "withdrawFromInsurance",
      "outputs": [],
      "stateMutability": "nonpayable",
      "type": "function"
    },
    {
      "inputs": [],
      "name": "yield",
      "outputs": [
        {
          "internalType": "int256",
          "name": "",
          "type": "int256"
        }
      ],
      "stateMutability": "view",
      "type": "function"
    }
  ],
  "address": "0x26B1B9Ff3A25a7D6e4468fA94696e45d066c7d08",
  "args": [
    "0xeD530bA33B4dC14572864Bb9a776C9a42CF89fA5",
    "0xd5B3062b2F8D3735d3aDc8d25302773ff948aBb1"
  ],
  "bytecode": "0x6101006040523480156200001257600080fd5b5060405162001214380380620012148339810160408190526200003591620000f0565b6001608052600060a081905260c05281306001600160a01b038216036200005b57600080fd5b6001600160a01b031660e052620000723362000085565b6200007d8162000085565b50506200012f565b600280546001600160a01b038381166001600160a01b0319831681179093556040519116919082907f8be0079c531659141344cd1fd0a4f28419497f9722a3daafe3b4186f6b6457e090600090a35050565b6001600160a01b0381168114620000ed57600080fd5b50565b600080604083850312156200010457600080fd5b82516200011181620000d7565b60208401519092506200012481620000d7565b809150509250929050565b60805160a05160c05160e051611057620001bd600039600081816102210152818161051001528181610601015281816106a0015281816106cf0152818161073301528181610790015281816107d90152818161087101528181610924015281816109d801528181610ae90152610ba1015260006105ac015260006105830152600061055a01526110576000f3fe60806040526004361061019c5760003560e01c8063715018a6116100ec578063bbaff1e21161008a578063ede9176c11610064578063ede9176c1461045b578063f2fde38b1461047b578063f304f5e51461049b578063fe5ef6cd146104b057600080fd5b8063bbaff1e214610405578063bfdbfe8314610425578063e0c784551461043a57600080fd5b80638e16afe9116100c65780638e16afe9146103b05780639b75759414610328578063a694fc3a146103d0578063af640d0f146103f057600080fd5b8063715018a6146103685780638129fc1c1461037d5780638da5cb5b1461039257600080fd5b806354fd4d50116101595780635bd68543116101335780635bd68543146102f15780635da0d90a1461031357806366785d93146103285780636ba4c1381461034857600080fd5b806354fd4d50146102b057806357b4d18e146102c55780635b9f0016146102db57600080fd5b80630577d6d5146101a157806306fdde03146101c9578063219ebb9c1461020f578063285939841461025b5780632e17de78146102705780634bfb431f14610290575b600080fd5b3480156101ad57600080fd5b506101b66104c3565b6040519081526020015b60405180910390f35b3480156101d557600080fd5b506040805180820190915260148152732a32b9ba3732ba2cb4b2b632283937bb34b232b960611b60208201525b6040516101c09190610e08565b34801561021b57600080fd5b506102437f000000000000000000000000000000000000000000000000000000000000000081565b6040516001600160a01b0390911681526020016101c0565b34801561026757600080fd5b506003546101b6565b34801561027c57600080fd5b506101b661028b366004610e3b565b610503565b34801561029c57600080fd5b5060005b60405190151581526020016101c0565b3480156102bc57600080fd5b50610202610553565b3480156102d157600080fd5b506101b660015481565b3480156102e757600080fd5b506101b660005481565b3480156102fd57600080fd5b5061031161030c366004610e3b565b6105f6565b005b34801561031f57600080fd5b506101b6610696565b34801561033457600080fd5b50610311610343366004610e3b565b6106c4565b34801561035457600080fd5b506101b6610363366004610e54565b610726565b34801561037457600080fd5b50610311610771565b34801561038957600080fd5b50610311610785565b34801561039e57600080fd5b506002546001600160a01b0316610243565b3480156103bc57600080fd5b506103116103cb366004610e3b565b6107ce565b3480156103dc57600080fd5b506103116103eb366004610e3b565b610866565b3480156103fc57600080fd5b506101b66108b2565b34801561041157600080fd5b50610311610420366004610e3b565b610919565b34801561043157600080fd5b506101b66109b1565b34801561044657600080fd5b506102a0610455366004610ec9565b50600090565b34801561046757600080fd5b50610311610476366004610e3b565b6109cd565b34801561048757600080fd5b50610311610496366004610ec9565b610a66565b3480156104a757600080fd5b506101b6610adc565b6103116104be366004610e3b565b610b89565b60405162461bcd60e51b815260206004820152600d60248201526c1b9bdd081cdd5c1c1bdc9d1959609a1b60448201526000906064015b60405180910390fd5b6000306001600160a01b037f0000000000000000000000000000000000000000000000000000000000000000161461054e576040516356adf13560e11b815260040160405180910390fd5b919050565b606061057e7f0000000000000000000000000000000000000000000000000000000000000000610c23565b6105a77f0000000000000000000000000000000000000000000000000000000000000000610c23565b6105d07f0000000000000000000000000000000000000000000000000000000000000000610c23565b6040516020016105e293929190610ef9565b604051602081830303815290604052905090565b336001600160a01b037f0000000000000000000000000000000000000000000000000000000000000000161461063f5760405163a1cfbf5960e01b815260040160405180910390fd5b80600160008282546106519190610f69565b9091555061065f90506108b2565b6040518281527f169b739a046258cd705133851f0d46ac08a0cbc8b1b35f2c486df6965302296f906020015b60405180910390a250565b6001600160a01b037f0000000000000000000000000000000000000000000000000000000000000000163190565b306001600160a01b037f0000000000000000000000000000000000000000000000000000000000000000161461070d576040516356adf13560e11b815260040160405180910390fd5b604051630280e1e560e61b815260040160405180910390fd5b6000306001600160a01b037f0000000000000000000000000000000000000000000000000000000000000000161461070d576040516356adf13560e11b815260040160405180910390fd5b610779610d2c565b6107836000610d86565b565b306001600160a01b037f00000000000000000000000000000000000000000000000000000000000000001614610783576040516356adf13560e11b815260040160405180910390fd5b336001600160a01b037f000000000000000000000000000000000000000000000000000000000000000016146108175760405163a1cfbf5960e01b815260040160405180910390fd5b806000808282546108289190610f69565b9091555061083690506108b2565b6040518281527feaf9a24a861b99687156137f32a9abfa90e5dd93a1eb9fb70cf4400e86b0839a9060200161068b565b306001600160a01b037f000000000000000000000000000000000000000000000000000000000000000016146108af576040516356adf13560e11b815260040160405180910390fd5b50565b60006108e56040805180820190915260148152732a32b9ba3732ba2cb4b2b632283937bb34b232b960611b602082015290565b6108ed610553565b6040516020016108fe929190610f80565b60405160208183030381529060405280519060200120905090565b336001600160a01b037f000000000000000000000000000000000000000000000000000000000000000016146109625760405163a1cfbf5960e01b815260040160405180910390fd5b806000808282546109739190610faf565b9091555061098190506108b2565b6040518281527fad8699b31aa71e27625c441f641b4732d76e1b7475068543aaaee79bd2c3d1f69060200161068b565b60006001546109be610696565b6109c89190610faf565b905090565b336001600160a01b037f00000000000000000000000000000000000000000000000000000000000000001614610a165760405163a1cfbf5960e01b815260040160405180910390fd5b8060016000828254610a289190610faf565b90915550610a3690506108b2565b6040518281527fe1f09d265bac18d7d10d26c357f29ddecd4facd1906bf96ce8fbb33fc34badbc9060200161068b565b610a6e610d2c565b6001600160a01b038116610ad35760405162461bcd60e51b815260206004820152602660248201527f4f776e61626c653a206e6577206f776e657220697320746865207a65726f206160448201526564647265737360d01b60648201526084016104fa565b6108af81610d86565b6000336001600160a01b037f00000000000000000000000000000000000000000000000000000000000000001614610b275760405163a1cfbf5960e01b815260040160405180910390fd5b6000610b3260035490565b9050610b3c610696565b600055610b496000600355565b610b516108b2565b6040518281527ffa0a4034400e62602f330f5e62f285a6baa4bdfb16c11b3ff7c4b65ce7f7d76f9060200160405180910390a2905090565b610b91610d2c565b803414610b9d57600080fd5b60007f00000000000000000000000000000000000000000000000000000000000000006001600160a01b03168260405160006040518083038185875af1925050503d8060008114610c0a576040519150601f19603f3d011682016040523d82523d6000602084013e610c0f565b606091505b5050905080610c1d57600080fd5b50600355565b606081600003610c4a5750506040805180820190915260018152600360fc1b602082015290565b8160005b8115610c745780610c5e81610fc7565b9150610c6d9050600a83610ff6565b9150610c4e565b60008167ffffffffffffffff811115610c8f57610c8f61100a565b6040519080825280601f01601f191660200182016040528015610cb9576020820181803683370190505b5090505b8415610d2457610cce600183610f69565b9150610cdb600a86611020565b610ce6906030610faf565b60f81b818381518110610cfb57610cfb611034565b60200101906001600160f81b031916908160001a905350610d1d600a86610ff6565b9450610cbd565b949350505050565b6002546001600160a01b031633146107835760405162461bcd60e51b815260206004820181905260248201527f4f776e61626c653a2063616c6c6572206973206e6f7420746865206f776e657260448201526064016104fa565b600280546001600160a01b038381166001600160a01b0319831681179093556040519116919082907f8be0079c531659141344cd1fd0a4f28419497f9722a3daafe3b4186f6b6457e090600090a35050565b60005b83811015610df3578181015183820152602001610ddb565b83811115610e02576000848401525b50505050565b6020815260008251806020840152610e27816040850160208701610dd8565b601f01601f19169190910160400192915050565b600060208284031215610e4d57600080fd5b5035919050565b60008060208385031215610e6757600080fd5b823567ffffffffffffffff80821115610e7f57600080fd5b818501915085601f830112610e9357600080fd5b813581811115610ea257600080fd5b8660208260051b8501011115610eb757600080fd5b60209290920196919550909350505050565b600060208284031215610edb57600080fd5b81356001600160a01b0381168114610ef257600080fd5b9392505050565b60008451610f0b818460208901610dd8565b8083019050601760f91b8082528551610f2b816001850160208a01610dd8565b60019201918201528351610f46816002840160208801610dd8565b0160020195945050505050565b634e487b7160e01b600052601160045260246000fd5b600082821015610f7b57610f7b610f53565b500390565b60008351610f92818460208801610dd8565b835190830190610fa6818360208801610dd8565b01949350505050565b60008219821115610fc257610fc2610f53565b500190565b600060018201610fd957610fd9610f53565b5060010190565b634e487b7160e01b600052601260045260246000fd5b60008261100557611005610fe0565b500490565b634e487b7160e01b600052604160045260246000fd5b60008261102f5761102f610fe0565b500690565b634e487b7160e01b600052603260045260246000fdfea164736f6c634300080f000a",
  "solcInputHash": "0x0000000000000000000000000000000000000000000000000000000000000000",
  "storageLayout": {
    "storage": [
      {
        "astId": 83400,
        "contract": "src/mainnet-bridge/yield-providers/TestnetYieldProvider.sol:TestnetYieldProvider",
        "label": "stakedBalance",
        "offset": 0,
        "slot": "0",
        "type": "t_uint256"
      },
      {
        "astId": 83402,
        "contract": "src/mainnet-bridge/yield-providers/TestnetYieldProvider.sol:TestnetYieldProvider",
        "label": "pendingBalance",
        "offset": 0,
        "slot": "1",
        "type": "t_uint256"
      },
      {
        "astId": 33281,
        "contract": "src/mainnet-bridge/yield-providers/TestnetYieldProvider.sol:TestnetYieldProvider",
        "label": "_owner",
        "offset": 0,
        "slot": "2",
        "type": "t_address"
      },
      {
        "astId": 83235,
        "contract": "src/mainnet-bridge/yield-providers/TestnetYieldProvider.sol:TestnetYieldProvider",
        "label": "_reportedYield",
        "offset": 0,
        "slot": "3",
        "type": "t_uint256"
      }
    ],
    "types": {
      "t_address": {
        "encoding": "inplace",
        "label": "address",
        "numberOfBytes": "20"
      },
      "t_uint256": {
        "encoding": "inplace",
        "label": "uint256",
        "numberOfBytes": "32"
      }
    }
  },
  "transactionHash": "0x18588d4f56e7f52da8fd2ccd9004147605d71e90931dde576fb815bf8ac964fe"
}